S00D0000776970726F2E73726563E6
S11300000C9472000C948F000C948F000C948F004D
S11300100C948F000C948F000C94F9010C948F00B5
S11300200C948F000C948F000C948F000C948F0010
S11300300C948F000C948F000C948F000C948F0000
S11300400C948F000C948F000C948F000C948F00F0
S11300500C94C1010C948F000C948F000C948F00AD
S11300600C948F000C94E6080C948F000C948F0071
S11300700C948F000C948F000C948F000C948F00C0
S11300800C948F000C948F000C948F000C948F00B0
S11300900C948F000C948F000C948F000C948F00A0
S11300A00C948F000C948F000C948F000C948F0090
S11300B00C948F000C948F000C948F000C948F0080
S11300C00C948F000C948F000C948F000C948F0070
S11300D00C948F000C948F000C948F000C948F0060
S11300E00C948F0011241FBECFEFD1E2DEBFCDBF31
S11300F017E0A0E0B2E0EEE7FAE102C005900D924D
S1130100AA35B107D9F729E0AAE5B7E001C01D92E5
S1130110AB31B207E1F70E940B0A0C943D0D0C942D
S113012000001092BE071092BF071092C0071092F1
S1130130C1071092C207659909C084E392E00E9446
S1130140930A0E942D0281E08093BE070895E1E89E
S1130150F0E0808184608083109284001092850096
S113016081E080936F00089580E28DBB84E08093EA
S11301706A0008950E9420060E9488070E94D20601
S11301800E9491000E94B40084E6EAE5F7E0DF01F2
S11301901D928A95E9F781E08093BF0708958091C5
S11301A0BE07882319F184E6EAE5F7E0DF011D9232
S11301B08A95E9F766E472E0CF010E943F0A6BE496
S11301C072E08AE597E00E94340A60E672E08AE50C
S11301D097E00E94340A62E772E08AE597E00E94A1
S11301E0340A8AE597E00E94440220C08091BF0748
S11301F08823E1F065E872E08AE597E00E943F0A0F
S11302006BE472E08AE597E00E94340A60E672E0EB
S11302108AE597E00E94340A62E772E08AE597E093
S11302200E94340A8AE597E00E946F0784E6EAE5B3
S1130230F7E0DF011D928A95E9F781E090E00895E7
S11302400F931F938091BF07882351F16BE472E0F1
S11302508AE597E00E943F0A6DEC72E08AE597E038
S11302600E94340A81EF92E09F938F930E94780A50
S113027001E010E020E030E0A90161E070E08AE5EF
S113028097E00E94E7060E9468080E94C60945E1BB
S113029054E060E070E0CB010E9479060F900F906B
S11302A081E090E01F910F9108950F931F93809127
S11302B06F008E7F80936F008091BF07882309F4BD
S11302C047C06BE472E08AE597E00E943F0A64E06D
S11302D073E08AE597E00E94340A00E010E020E031
S11302E030E340E050E061E070E08AE597E00E948E
S11302F0E70689E293E09F938F930E94780A43E094
S113030050E060E070E380E090E00E9479068AE0CB
S113031090E00E948C0A60E070E380E090E00E942C
S1130320E0068F708093C00761E070E380E090E0A6
S11303300E94E0068F708093C10762E070E380E062
S113034090E00E94E0068F708093C2070F900F9098
S113035084E6EAE5F7E0DF011D928A95E9F785E393
S113036093E00E94930A0E9420010E94CF00809192
S11303706F00816080936F0081E090E01F910F9186
S113038008951F920F920FB60F9211242F933F934B
S11303904F935F936F937F938F939F93AF93BF9389
S11303A0CF93DF93EF93FF93CFE6D0E088818E7FE6
S11303B088838EE393E00E94930A0E945501109271
S11303C0840010928500888181608883FF91EF9179
S11303D0DF91CF91BF91AF919F918F917F916F9159
S11303E05F914F913F912F910F900FBE0F901F90EF
S11303F018951F920F920FB60F9211242F933F93CB
S11304004F935F936F937F938F939F93AF93BF9318
S1130410EF93FF93F894659B05C01092BE078AE49E
S113042093E007C081E08093BE070E942D0287E518
S113043093E00E94930A7894FF91EF91BF91AF915A
S11304409F918F917F916F915F914F913F912F91E8
S11304500F900FBE0F901F90189528E032E04CE0EB
S113046052E060E172E084E192E00E949E0220E0AA
S113047032E042E052E064E072E081E00E9456041F
S1130480892BA9F30C94EB04CF93DF93BC0183EC89
S113049097E00E943F0A65E673E083EC97E00E94D0
S11304A0340AC3ECD7E0DF93CF9384EC92E09F93BC
S11304B08F930E94780AFE0101900020E9F7BF01A2
S11304C061507109635C774040E050E0CE010E94C6
S11304D0110584E6FE0111928A95E9F70F900F90B9
S11304E00F900F90DF91CF910895749820EF2EBD57
S11304F00DB407FEFDCF9EBD0DB407FEFDCF8EBD2E
S11305000DB407FEFDCF6EBD0DB407FEFDCF749A8A
S1130510089574982FE02EBD0DB407FEFDCF9EBD47
S11305200DB407FEFDCF8EBD0DB407FEFDCF1EBC7E
S11305300DB407FEFDCF749A8EB50895BF92CF9285
S1130540DF92EF92FF920F931F93CF93DF93EC010F
S11305508B016A0179016C9A87E084B9749A80E509
S11305608CBD81E993E00E94930A83EA93E00E94A0
S1130570930A60E880E090E00E9475028FEC97E0B7
S11305800197F1F700C0000080E090E00E9489022A
S11305901F928F938CEB93E09F938F930E94780A22
S11305A0F70183811F928F9382811F928F938181A0
S11305B01F928F9380811F928F938DEC93E09F9372
S11305C08F930E94780AF701608181E090E00E9495
S11305D07502F701618182E090E00E947502F701E3
S11305E0628183E090E00E947502F701638184E0F8
S11305F090E00E9475028FEC97E00197F1F700C03C
S1130600000084E090E00E948902B82E83E090E02C
S11306100E948902E82E82E090E00E948902F82E6E
S113062081E090E00E9489021F92BF921F92EF9294
S11306301F92FF921F928F9382EF93E09F938F9369
S11306400E94780A8D811F928F938C811F928F93C1
S11306508B811F928F938A811F928F9389811F921E
S11306608F9388811F928F938DE094E09F938F9353
S11306700E94780AEDB7FEB7B6960FB6F894FEBF9F
S11306800FBEEDBF688189E090E00E947502698128
S11306908AE090E00E9475026A818BE090E00E94FB
S11306A075026B818CE090E00E9475026C818DE094
S11306B090E00E9475026D818EE090E00E947502C8
S11306C08FEC97E00197F1F700C000008EE090E016
S11306D00E948902B82E8DE090E00E948902E82EE3
S11306E08CE090E00E948902F82E8BE090E00E945A
S11306F08902D82F8AE090E00E948902C82F89E0FD
S113070090E00E9489021F92BF921F92EF921F9263
S1130710FF921F92DF931F92CF931F928F9383E4D4
S113072094E09F938F930E94780AF60183811F922D
S11307308F9382811F928F9381811F928F938081E7
S11307401F928F9380E794E09F938F930E94780A7F
S1130750F601608185E090E00E947502F6016181F6
S113076086E090E00E947502F601628187E090E0E5
S11307700E947502F601638188E090E00E94750290
S11307808FEC97E00197F1F700C0000088E090E05B
S11307900E948902F82E87E090E00E948902D82FF7
S11307A086E090E00E948902C82F85E090E00E94D4
S11307B089021F92FF921F92DF931F92CF931F9281
S11307C08F9386E994E09F938F930E94780AEDB704
S11307D0FEB7B2960FB6F894FEBF0FBEEDBFF80198
S11307E083811F928F9382811F928F9381811F92A5
S11307F08F9380811F928F9382EB94E09F938F93CA
S11308000E94780AF80160818FE090E00E947502EE
S1130810F801618180E190E00E947502F801628133
S113082081E190E00E947502F801638182E190E029
S11308300E9475028FEC97E00197F1F700C0000069
S113084082E190E00E948902182F81E190E00E94E9
S11308508902D82F80E190E00E948902C82F8FE09E
S113086090E00E9489021F921F931F92DF931F92B0
S1130870CF931F928F9382ED94E09F938F930E9466
S1130880780AEDB7FEB774960FB6F894FEBF0FBEA4
S1130890EDBF8EEE94E0DF91CF911F910F91FF9009
S11308A0EF90DF90CF90BF900C94930ADF92EF9279
S11308B0FF920F931F93CF93DF93D82EEB017A010E
S11308C0890160E181E094E00E9475026D2D80E071
S11308D094E00E947502F801608184E094E00E9433
S11308E07502F801618185E094E00E94750261E07F
S11308F081E094E00E94750283E094E00E94890202
S11309008331F9F668818CE094E00E947502698174
S11309108DE094E00E9475026A818EE094E00E946A
S113092075026B818FE094E00E947502F70160818B
S113093080E194E00E947502F701618181E194E015
S11309400E94750264E081E094E00E947502C0E0B8
S1130950D0E000E117E283E094E00E94890287314D
S1130960F9F087E592E00197F1F700C000002196C5
S1130970CE01B8010E94200A892B69F78DE095E029
S11309800E94930AC13593ECD90728F38FE295E0CE
S11309900E94930A60E181E094E00E94750211C014
S11309A083E094E00E948902873139F487E495E07A
S11309B00E94930A81E090E006C08EE595E00E94D3
S11309C0930A80E090E0DF91CF911F910F91FF9007
S11309D0EF90DF90089563E08AE190E00E94750251
S11309E063E08BE190E00E9475028FEF9FE19093AA
S11309F05A088093590820E030E430935C0820932F
S1130A005B089093600880935F0880E090E6909381
S1130A105E0880935D080895682F81E094E00C944B
S1130A2075026F927F928F929F92AF92BF92CF92F4
S1130A30DF92EF92FF920F931F93CF93DF935C01AA
S1130A406B014A0183E094E00E9489021F928F9314
S1130A508DE795E09F938F930E94780A83E094E05A
S1130A600E9489020F900F900F900F908731B9F474
S1130A7080E294E00E948902082F10E0102F0027E2
S1130A8081E294E00E948902080F111D5AEE652E3E
S1130A9053E0752E69E8E62E65E0F62E0CC02AE1D7
S1130AA032E04CE152E06EE172E081E00E945604D3
S1130AB0892BA9F3DDCF0C151D0570F58FEC97E09C
S1130AC00197F1F700C0000080E294E00E948902DF
S1130AD0082F10E0102F002781E294E00E94890281
S1130AE0080F111D1F930F93FF92EF920E94780A33
S1130AF091E0691A71080F900F900F900F90611494
S1130B007104C9F688E00E940C0581E094E00E941B
S1130B1089028111FACF60C084E294E00E948902C4
S1130B20E82E85E294E00E948902F12CFE2CEE244A
S1130B30E80EF11C82E294E00E94890283E294E0D0
S1130B400E94890285E995E00E94930A00E010E082
S1130B5038016E0C7F1C0C151D0509F1C091590854
S1130B60D0915A08C621D72180915B0890915C08E6
S1130B70C80FD91F8114910441F0B8017C5F80E053
S1130B8090E00E94E006682F04C0F501E00FF11F19
S1130B906081CE010E9475020F5F1F4FD9CF60E0C4
S1130BA0CE0101960E94750284E294E00E948902BB
S1130BB06FEF84E294E00E947502662D85E294E072
S1130BC00E94750280E20E940C0581E094E00E947C
S1130BD089028111FACF03C080E090E002C081E075
S1130BE090E0DF91CF911F910F91FF90EF90DF90F4
S1130BF0CF90BF90AF909F908F907F906F9008950B
S1130C00CF93C82F8A3019F48DE00E94000680919A
S1130C10D00085FFFCCFC093D60080E090E0CF9158
S1130C200895CF93BC018091D00087FFFCCFC09181
S1130C30D6008C2F0E9400068C2F90E0CF9108954F
S1130C401092D50083E38093D40088E18093D1008F
S1130C5086E08093D20082E292E09093160980931A
S1130C60150990931809809317090895A39891E0A2
S1130C709EBD0DB407FEFDCF8EBD0DB407FEFDCFA6
S1130C80A39A0895262F972F482F82E08EBD0DB486
S1130C9007FEFDCF4EBD0DB407FEFDCF892F8EBDDF
S1130CA00DB407FEFDCF2EBD0DB407FEFDCF089594
S1130CB08EBD0DB407FEFDCF0895262F972F482F24
S1130CC083E08EBD0DB407FEFDCF4EBD0DB407FE0F
S1130CD0FDCF892F8EBD0DB407FEFDCF2EBD0DB403
S1130CE007FEFDCF08951EBC0DB407FEFDCF8EB5E3
S1130CF00895EF92FF920F931F93CF93DF93EB012D
S1130D00182F092F7A0180E40E943606A398BE01A9
S1130D10812F902F0E945D060F931F93DF93CF9333
S1130D2082ED95E09F938F930E94780A0F900F9025
S1130D300F900F900F900F90C0E0D0E003EE15E0FD
S1130D40CE15DF0571F00E9473061F928F931F93D7
S1130D500F930E94780A21960F900F900F900F9096
S1130D60EFCFA39ADF93CF938BEE95E09F938F936E
S1130D700E94780A0F900F900F900F90DF91CF91FF
S1130D801F910F91FF90EF900895CF93C82FA398D0
S1130D90CB01BA010E9442068C2F0E945806A39AE6
S1130DA0CF91089584B1876884B923982F9A9B9A28
S1130DB083E58CBD40E050E0BA0182E30C94C506A3
S1130DC0A3980E945D060E947306A39A08952F9229
S1130DD03F924F925F926F927F928F929F92AF92C7
S1130DE0BF92CF92DF92EF92FF920F931F93CF9314
S1130DF0DF93EC015B0129013A010E94C10780E005
S1130E0090E00E948307AE0165E872E08FEF0E94D4
S1130E1079080E94D207C0E0D0E08EEA882E86E0EE
S1130E20982E9FE8292E92E0392EA114B104C1F026
S1130E3073016201CC0EDD1EE11CF11CC701B60179
S1130E400E947008FF92EF92DF92CF929F928F924E
S1130E500E94780A0F900F900F900F900F900F90B0
S1130E604FEB56E067EC76E08FEF0E9479080E9422
S1130E70D2070E946D087C01FF928F933F922F92BC
S1130E800E94780A0F900F900F900F90F7018181C4
S1130E90813339F00E946808C80FD91F0115110564
S1130EA021F60E94CA0746E853E062E776E08FEF36
S1130EB00E94790881E090E0DF91CF911F910F911A
S1130EC0FF90EF90DF90CF90BF90AF909F908F9066
S1130ED07F906F905F904F903F902F900895CF93A5
S1130EE0DF93EC010E94CA0746E853E0BE018FEF8E
S1130EF00E94790846E853E062E776E08FEFDF91DD
S1130F00CF910C9479089093710880937008089598
S1130F101092C50087E08093C400E1ECF0E088E122
S1130F20808386E08093C2008081806880830895F6
S1130F3010927C0829E0E3E6F8E0DF011D922A958F
S1130F40E9F740E0242F30E02617370760F450918A
S1130F50C00055FFFCCFFC01E20FF31F208120935A
S1130F60C6004F5FEFCF87EC92E00E94930A80E0C7
S1130F7090E008958091C00087FFFCCF8091C60067
S1130F800895E1ECF0E0808180688083789481E0CA
S1130F9090E00895E1ECF0E080818F77808381E038
S1130FA090E0089580917C08811105C081E28A95C2
S1130FB0F1F70000F7CF81E090E008950F931F93BD
S1130FC0CF93DF9380916E0890916F08892BF1F095
S1130FD0C0E0D0E003ED16E0FE01ED59F74F80814B
S1130FE0FF93EF931F928F931F930F930E94780A9E
S1130FF021960F900F900F900F900F900F90C93083
S1131000D10551F78AE090E00E948C0A109275088D
S11310101092740880917408909175082091690861
S11310202F70820F911D909375088093740880919E
S1131030740890917508209168082F703AE0239FF6
S1131040800D911D112490937508809374088091EC
S1131050740890917508209167082F7034E6239FD7
S1131060800D911D1124909375088093740820912C
S1131070740830917508609166086F7048EE53E00B
S1131080649FC001659F900D1124820F931F90935C
S113109075088093740820917408309175086091E4
S11310A065086F7040E157E2649FC001659F900D31
S11310B01124820F931F9093750880937408809174
S11310C0740890917508DF91CF911F910F91089545
S11310D08091740890917508089583E698E00895C6
S11310E060937608709377088093780890937908D2
S11310F008950F931F93CF93DF938B01EA018130FF
S113110031F0823059F08F3F09F059C00DC06AE8C0
S113111072E08DE798E00E943F0A06C06FEE76E029
S11311208DE798E00E94340AB8018DE798E00E94A8
S1131130340A83E0C638D80759F063E373E08DE7D7
S113114098E00E94340ABE018DE798E00E94340AB8
S113115060E372E08DE798E00E94340A0DE718E03E
S1131160E80109900020E9F72197CD57D8401F9353
S11311700F93DF93CF931F930F9384EF96E09F9386
S11311808F930E94780ABE01C8010E94980784E6E2
S1131190F80111928A95E9F789E197E00E94930A90
S11311A080E297E00E94930A8DB79EB708960FB627
S11311B0F8949EBF0FBE8DBF81E090E002C080E036
S11311C090E0DF91CF911F910F9108951F920F929C
S11311D00FB60F9211242F933F934F935F936F9306
S11311E07F938F939F93AF93BF93CF93DF93EF93AB
S11311F0FF93F89480917A0890917B08892BE9F405
S11312000E94BA0780936C0880916C08823509F0BB
S113121094C01092710810927008E0917008F091D7
S1131220710880916C08ED59F74F808381E090E05C
S113123090937B0880937A0880C080917008909185
S11312407108099750F4C0917008D09171080E94F8
S1131250BA07CD59D74F888370C080917008909198
S11312607108099739F40E94DE07909375088093FA
S1131270740863C0209170083091710880917408DB
S113128090917508099628173907E8F40E94BA075F
S113129080936C08409176085091770860917808A3
S11312A070917908209170083091710880916C08D0
S11312B04A50510961097109420F531F611D711D83
S11312C00E94C5063AC04091760850917708609113
S11312D078087091790880917008909171084A504B
S11312E0510961097109480F591F611D711D80E081
S11312F00E94C506109271081092700810927B0823
S113130010927A08109273081092720810926D0865
S113131081E080937C080E94DE079F938F938BE289
S113132097E09F938F930E94780A84E497E00E9449
S1131330930A0F900F900F900F90809170089091E6
S11313407108019690937108809370087894FF91C6
S1131350EF91DF91CF91BF91AF919F918F917F9149
S11313606F915F914F913F912F910F900FBE0F900E
S11313701F901895109214091092130982E3E1EE5C
S1131380F8E0DF011D928A95E9F70895AF92BF92C4
S1131390CF92DF92EF92FF920F931F93CF93DF933D
S11313A07C0101E010E0C0E0D0E0580181E0A81A1F
S11313B0B108CE15DF0510F5BE01882777FD8095AD
S11313C0982F0E94E0068A33A9F08F70C82E01C0BE
S11313D0CC0C8A95EAF72196BE01882777FD809583
S11313E0982F0E94E006A50160E070E08F708C29C0
S11313F00E94C50621960F5F1F4FD7CF81E090E072
S1131400DF91CF911F910F91FF90EF90DF90CF90DC
S1131410BF90AF9008952FEF89E698E12150804066
S11314209040E1F700C000000E94BA000E94BA098F
S113143078940E94A70084E597E00E94930AFFCF66
S1131440AA1BBB1B51E107C0AA1FBB1FA617B707E6
S113145010F0A61BB70B881F991F5A95A9F7809502
S11314609095BC01CD010895FB01DC010D90002095
S1131470E9F7119701900D920020E1F70895FB011F
S1131480DC0101900D920020E1F708950F931F9362
S1131490CF93DF93182F092FEB018B8181FD03C0BC
S11314A08FEF9FEF20C082FF10C04E815F812C819F
S11314B03D81421753077CF4E881F9819F012F5F36
S11314C03F4F39832883108306C0E885F985812F2F
S11314D00995892B29F72E813F812F5F3F4F3F8349
S11314E02E83812F902FDF91CF911F910F9108951B
S11314F0A0E0B0E0EEE7FAE00C94160DFE0135969C
S113150061917191AF0180911709909118090E941E
S1131510C00AE2E00C94320D609117097091180929
S11315200E94460A08950F931F93CF93DF93E0918F
S11315301709F0911809238121FF1BC0EC0100E079
S113154010E089916091170970911809DB011896D0
S1131550ED91FC911997882331F00995892B89F332
S11315600FEF1FEFEECF8AE00995892B11F4C80124
S113157002C08FEF9FEFDF91CF911F910F910895DC
S1131580ACE0B0E0E6ECFAE00C94060D7C016B01F3
S11315908A01FC0117821682838181FFBDC1CE01BD
S11315A001964C01F7019381F60193FD859193FF18
S11315B081916F01882309F4ABC1853239F493FD1D
S11315C0859193FF81916F01853229F4B70190E0F1
S11315D00E94460AE7CF512C312C20E02032A0F49F
S11315E08B3269F030F4803259F0833269F420612F
S11315F02CC08D3239F0803339F4216026C022604A
S1131600246023C0286021C027FD27C030ED380F97
S11316103A3078F426FF06C0FAE05F9E300D1124BC
S1131620532E13C08AE0389E300D1124332E2062CD
S11316300CC08E3221F426FD6BC1206406C08C36AA
S113164011F4206802C0883641F4F60193FD8591B7
S113165093FF81916F018111C1CF982F9F7D955484
S1131660933028F40C5F1F4FFFE3F9830DC08336DA
S113167031F0833771F0833509F05BC022C0F80183
S1131680808189830E5F1F4F44244394512C54015D
S113169015C03801F2E06F0E711CF801A080B18012
S11316A026FF03C0652D70E002C06FEF7FEFC50118
S11316B02C870E949D0C2C0183012C852F77222ED0
S11316C017C03801F2E06F0E711CF801A080B180E0
S11316D026FF03C0652D70E002C06FEF7FEFC501E8
S11316E02C870E94920C2C012C852068222E8301C9
S11316F023FC1BC0832D90E048165906B0F4B701B3
S113170080E290E00E94460A3A94F4CFF50127FC67
S1131710859127FE81915F01B70190E00E94460AFE
S113172031103A94F1E04F1A51084114510471F701
S1131730E5C0843611F0893639F5F80127FF07C072
S113174060817181828193810C5F1F4F08C0608129
S11317507181882777FD8095982F0E5F1F4F2F7614
S1131760B22E97FF09C090958095709561957F4F33
S11317708F4F9F4F2068B22E2AE030E0A4010E94D0
S1131780A80CA82EA81844C0853729F42F7EB22EA1
S11317902AE030E025C0F22FF97FBF2E8F36C1F04A
S11317A018F4883579F0B4C0803719F0883721F0FF
S11317B0AFC02F2F2061B22EB4FE0DC08B2D8460DC
S11317C0B82E09C024FF0AC09F2F9660B92E06C008
S11317D028E030E005C020E130E002C020E132E042
S11317E0F801B7FE07C060817181828193810C5F2B
S11317F01F4F06C06081718180E090E00E5F1F4F33
S1131800A4010E94A80CA82EA818FB2DFF77BF2EB8
S1131810B6FE0BC02B2D2E7FA51450F4B4FE0AC0C7
S1131820B2FC08C02B2D2E7E05C07A2C2B2D03C0B4
S11318307A2C01C0752C24FF0DC0FE01EA0DF11DA8
S11318408081803311F4297E09C022FF06C073947D
S1131850739404C0822F867809F0739423FD13C017
S113186020FF06C05A2C731418F4530C5718732C09
S1131870731468F4B70180E290E02C870E94460A52
S113188073942C85F5CF731410F4371801C0312CE0
S113189024FF12C0B70180E390E02C870E94460A1F
S11318A02C8522FF17C021FF03C088E590E002C009
S11318B088E790E0B7010CC0822F867859F021FDAB
S11318C002C080E201C08BE227FD8DE2B70190E007
S11318D00E94460AA51438F4B70180E390E00E9400
S11318E0460A5A94F7CFAA94F401EA0DF11D8081B7
S11318F0B70190E00E94460AA110F5CF332009F405
S113190051CEB70180E290E00E94460A3A94F6CFA5
S1131910F7018681978102C08FEF9FEF2C96E2E159
S11319200C94220DFC010590615070400110D8F711
S1131930809590958E0F9F1F0895FC016150704013
S113194001900110D8F7809590958E0F9F1F0895F0
S1131950FA01AA27283051F1203181F1E8946F93DC
S11319606E7F6E5F7F4F8F4F9F4FAF4FB1E03ED082
S1131970B4E03CD0670F781F891F9A1FA11D680F20
S1131980791F8A1F911DA11D6A0F711D811D911D53
S1131990A11D20D009F468943F912AE0269F1124C8
S11319A03019305D3193DEF6CF010895462F47702C
S11319B0405D4193B3E00FD0C9F7F6CF462F4F7087
S11319C0405D4A3318F0495D31FD4052419302D0E5
S11319D0A9F7EACFB4E0A69597958795779567958B
S11319E0BA95C9F700976105710508959B01AC018B
S11319F00A2E06945795479537952795BA95C9F7B2
S1131A00620F731F841F951FA01D08952F923F928C
S1131A104F925F926F927F928F929F92AF92BF92FA
S1131A20CF92DF92EF92FF920F931F93CF93DF93A6
S1131A30CDB7DEB7CA1BDB0B0FB6F894DEBF0FBE03
S1131A40CDBF09942A88398848885F846E847D8450
S1131A508C849B84AA84B984C884DF80EE80FD8052
S1131A600C811B81AA81B981CE0FD11D0FB6F894C8
S1111A70DEBF0FBECDBFED010895F894FFCF89
S1131A7E0050005068832450C0A80101FFFFFF00EE
S1131A8EC0A8010550E549BF91400050005068833D
S1131A9E24500000000300000000000611060000A0
S1131AAE0D0A000045746865726E657420456E619A
S1131ABE626C656421004745542000687474703A62
S1131ACE2F2F7777772E77692D70726F2E7573009F
S1131ADE2F646174612F636C656172666C616773E8
S1131AEE3F00776970726F69643D31303030303049
S1131AFE3030303000687474705F67657420005441
S1131B0E72616E204C656E6774683A2025640A0013
S1131B1E2F646174612F7570646174657373696485
S1131B2E733F0026737369643D0066696C6570616A
S1131B3E74683A2025730053656E7421002F7570F6
S1131B4E6C6F6164732F6865782F313030303030AC
S1131B5E303030302F64656661756C742E6865782C
S1131B6E00436F6D707265737320466C616720530A
S1131B7E657421002F75706C6F6164732F686578BE
S1131B8E2F313030303030303030302F666C61676A
S1131B9E66696C652E7478740052616D205072699A
S1131BAE6E743A200050726F6772616D2100466C3C
S1131BBE61672053746174757300526973696E673B
S1131BCE2045646765210046616C6C696E6720452B
S1131BDE646765210020485454502F312E31200A59
S1131BEE486F73743A207777772E77692D70726FFA
S1131BFE2E7573200A0A0053656E743A2025730AF3
S1131C0E0057697A6E657420573531303020496E2D
S1131C1E697400456E74657274696E6720457468E4
S1131C2E65726E65742053657475700052656164D7
S1131C3E696E67204D523A2025640A0A0053657472
S1131C4E74696E67204761746577617920416464B5
S1131C5E726573732025642E25642E25642E2564E7
S1131C6E0A0052656164696E67204741523A202525
S1131C7E642E25642E25642E25640A0A0053657489
S1131C8E74696E6720536F75726365204164647264
S1131C9E65737320252E32783A252E32783A252E06
S1131CAE32783A252E32783A252E32783A252E324B
S1131CBE780A0052656164696E67205341523A2076
S1131CCE252E32783A252E32783A252E32783A2538
S1131CDE2E32783A252E32783A252E32780A0A0098
S1131CEE53657474696E6720537562204D61736B0E
S1131CFE20416464726573732025642E25642E2539
S1131D0E642E25640A0052656164696E672053551A
S1131D1E42523A2025642E25642E25642E25640A0B
S1131D2E0A0053657474696E6720495020416464D7
S1131D3E726573732025642E25642E25642E256406
S1131D4E0A0052656164696E6720534950523A2005
S1131D5E25642E25642E25642E25640A0A00446FFC
S1131D6E6E652057697A6E65742057353130302090
S1131D7E496E697469616C697A656421005472797B
S1131D8E696E6720746F2045737461626C69736841
S1131D9E20436F6E6E656374696F6E2E2E2E005423
S1131DAE696D656F75742C20646973636F6E6E65EF
S1131DBE6374696E672100436F6E6E656374696F39
S1131DCE6E20537563636565646564210A00436F11
S1131DDE756C64206E6F7420636F6E6E6563742E03
S1131DEE2045786974696E672E2E2E0A0053523A76
S1131DFE203078253032780A0054582053697A6599
S1131E0E3A2025640053656E64696E672E2E2E0A81
S1131E1E0045746865726E657420526563656976F3
S1131E2E6520446174612054696D656F7574210079
S1131E3E5374617473205265673A203078253032BA
S1131E4E7800416464726573733A203078253036B5
S1131E5E780A0030782530325820000A53697A65A2
S1131E6E3A2025640A0073797374656D2E70726955
S1131E7E6E745F6C6576656C00310073797374658E
S1131E8E6D2E636D642E6865616465725F656E6147
S1131E9E626C65640073797374656D2E636D642E64
S1131EAE70726F6D70745F656E61626C6564006FE5
S1131EBE66660073797374656D2E636D642E656347
S1131ECE686F006F6E007363616E00776C616E2EC7
S1131EDE7373696400776C616E2E706173736B65D6
S1131EEE790073747265616D5F636C6F73652061E5
S1131EFE6C6C007463705F636C69656E740020486B
S1131F0E5454502F312E310A686F73743A207777F8
S1131F1E772E77692D70726F2E75730A0A005241EF
S1131F2E4D20416464726573733A2025640A00304F
S1131F3E2031303030300073747265616D5F7265BC
S1131F4E61640056616C75653A20307825303278BC
S1131F5E2C20416464726573733A2025700A0073F1
S1131F6E65742000436F6D6D616E643A2025732095
S1131F7E4C656E6774683A2025642C204164647243
S1131F8E6573733A2025700A0046726565642100F4
S1131F9E52657475726E696E6721005472616E7348
S1131FAE6D697373696F6E204C656E6774683A2041
S1131FBE25640A00446F6E6520526563656976690F
S10D1FCE6E672100446F6E65210068
S9030000FC
