S00D0000776970726F2E73726563E6
S113000071C000008EC000008CC000008AC00000D7
S113001088C0000086C0000037C2000082C0000013
S113002080C000007EC000007CC000007AC00000D8
S113003078C0000076C0000074C0000072C00000E8
S113004070C000006EC000006CC000006AC00000F8
S1130050E0C1000066C0000064C0000062C000008F
S113006060C000000C940E0A5CC000005AC000007E
S113007058C0000056C0000054C0000052C0000028
S113008050C000004EC000004CC000004AC0000038
S113009048C0000046C0000044C0000042C0000048
S11300A040C000003EC000003CC000003AC0000058
S11300B038C0000036C0000034C0000032C0000068
S11300C030C000002EC000002CC000002AC0000078
S11300D028C0000026C0000024C0000022C0000088
S11300E020C0000011241FBECFEFD1E2DEBFCDBF80
S11300F019E0A0E0B2E0E4EAF7E200E00BBF02C0DE
S113010007900D92AC36B107D9F72BE0ACE6B9E015
S113011001C01D92A335B207E1F70E949E100C9412
S1130120D0136ECF1092D7091092D8091092D90922
S11301301092DA091092DB091092DC09659908C063
S113014089E392E00E944111D6D181E08093D709DE
S1130150089580E28DBB84E080936A00089590D571
S11301600E94BA083AD6DEDFF4DF84E6EFE6F9E06F
S1130170DF011D928A95E9F781E08093D8090895FB
S11301808091D709882311F184E6EFE6F9E0DF01D5
S11301901D928A95E9F76BE472E0CF010E94F21098
S11301A060E572E08FE699E00E94E71065E672E090
S11301B08FE699E00E94E71067E772E08FE699E026
S11301C00E94E7108FE699E0AAD11FC08091D80958
S11301D08823D9F06AE872E08FE699E00E94F21071
S11301E060E572E08FE699E00E94E71065E672E050
S11301F08FE699E00E94E71067E772E08FE699E0E6
S11302000E94E7108FE699E09FD784E6EFE6F9E0D5
S1130210DF011D928A95E9F781E090E008950F933C
S11302201F93CF93DF938091D809882309F447C0A3
S113023060E572E08FE699E00E94F21062ED72E0F0
S11302408FE699E00E94E71001E010E020E030E042
S1130250A90161E070E08FE699E0F5D6D82FC92FA7
S11302609F938F9326EF32E03F932F930E942B119D
S11302708D2F9C2F0E94170C84E6EFE6F9E0DF0136
S11302801D928A95E9F760E572E0CF010E94F210B1
S113029065E173E08FE699E00E94E71025E030E322
S11302A040E050E061E070E08FE699E0CCD68CE36A
S11302B093E00E9441110F900F900F900F9081E0F6
S11302C090E0DF91CF911F910F9108950F931F93A9
S11302D080916F008E7F80936F008091D80988236E
S11302E009F442C060E572E08FE699E00E94F210E2
S11302F068E473E08FE699E00E94E71000E010E004
S113030020E030E340E050E061E070E08FE699E007
S11303109AD68DE693E09F938F930E942B1143E02E
S113032050E060E070E380E090E003D58AE090E084
S11303300E943C1160E070E380E090E05BD58F7038
S11303408093D90961E070E380E090E053D58F7029
S11303508093DA0962E070E380E090E04BD58F701F
S11303608093DB090F900F9084E6EFE6F9E0DF015C
S11303701D928A95E9F78091D909813009F03EC030
S113038089E793E00E9441114ADF65E070E380E071
S113039090E030D58F708093DC091F928F9382E8B0
S11303A093E09F938F930E942B118091DC0990E03E
S11303B00E94090CA0E0B0E08093D3099093D40983
S11303C0A093D509B093D6090F900F900F900F907A
S11303D08091DC09813039F0823061F46AE071E99E
S11303E08EE190E004C061E175E98EE190E00E9445
S11303F0C40B04C081E993E00E944111C1DE8091E5
S11304006F00816080936F0081E090E01F910F91F5
S113041008951F920F920FB60F9211240BB60F92EC
S11304202F933F934F935F936F937F938F939F93F8
S1130430AF93BF93CF93DF93EF93FF93CFE6D0E0D7
S113044088818E7F888387EA93E00E9441113EDF92
S11304501092840010928500888181608883FF91C6
S1130460EF91DF91CF91BF91AF919F918F917F9148
S11304706F915F914F913F912F910F900BBE0F9011
S11304800FBE0F901F9018951F920F920FB60F92E8
S113049011240BB60F922F933F934F935F936F9357
S11304A07F938F939F93AF93BF93EF93FF93F894AE
S11304B0659B05C01092D70983EB93E006C081E0E9
S11304C08093D70918D080EC93E00E94411178946E
S11304D0FF91EF91BF91AF919F918F917F916F9118
S11304E05F914F913F912F910F900BBE0F900FBED4
S11304F00F901F90189528E032E04CE052E060E144
S113050072E084E192E064D020E032E042E052E024
S113051064E072E081E0EED1892BB1F370C2CF9335
S1130520DF93BC018DED99E00E94F2106EEC73E054
S11305308DED99E00E94E710CDEDD9E0DF93CF93E4
S113054089EC92E09F938F930E942B11FE010190FE
S11305500020E9F7BF01615071096D5D794040E009
S113056050E0CE016FD284E6FE0111928A95E9F73C
S11305700F900F900F900F90DF91CF910895749882
S113058020EF2EBD0DB407FEFDCF9EBD0DB407FEBA
S1130590FDCF8EBD0DB407FEFDCF6EBD0DB407FEBD
S11305A0FDCF749A089574982FE02EBD0DB407FE04
S11305B0FDCF9EBD0DB407FEFDCF8EBD0DB407FE6D
S11305C0FDCF1EBC0DB407FEFDCF749A8EB5089501
S11305D0BF92CF92DF92EF92FF920F931F93CF932C
S11305E0DF93EC018B016A0179016C9A87E084B98D
S11305F0749A80E58CBD8AEF93E00E9441118CE0EF
S113060094E00E94411160E880E090E0B8DF8FEC54
S113061097E00197F1F700C0000080E090E0C3DFAD
S11306201F928F9385E294E09F938F930E942B11E6
S1130630F70183811F928F9382811F928F9381810F
S11306401F928F9380811F928F9386E394E09F93F0
S11306508F930E942B11F701608181E090E08FDF7E
S1130660F701618182E090E08ADFF701628183E033
S113067090E085DFF701638184E090E080DF8FEC18
S113068097E00197F1F700C0000084E090E08BDF71
S1130690B82E83E090E087DFE82E82E090E083DFED
S11306A0F82E81E090E07FDF1F92BF921F92EF92BD
S11306B01F92FF921F928F938BE594E09F938F93E9
S11306C00E942B118D811F928F938C811F928F9387
S11306D08B811F928F938A811F928F9389811F929E
S11306E08F9388811F928F9386E794E09F938F93D3
S11306F00E942B11EDB7FEB7B6960FB6F894FEBF65
S11307000FBEEDBF688189E090E039DF69818AE03E
S113071090E035DF6A818BE090E031DF6B818CE023
S113072090E02DDF6C818DE090E029DF6D818EE01B
S113073090E025DF8FEC97E00197F1F700C000000F
S11307408EE090E030DFB82E8DE090E02CDFE82ED4
S11307508CE090E028DFF82E8BE090E024DFD82FA7
S11307608AE090E020DFC82F89E090E01CDF1F9230
S1130770BF921F92EF921F92FF921F92DF931F92DC
S1130780CF931F928F938CEA94E09F938F930E9450
S11307902B11F60183811F928F9382811F928F9375
S11307A081811F928F9380811F928F9389ED94E0B2
S11307B09F938F930E942B11F601608185E090E056
S11307C0DEDEF601618186E090E0D9DEF601628129
S11307D087E090E0D4DEF601638188E090E0CFDE2C
S11307E08FEC97E00197F1F700C0000088E090E0FB
S11307F0DADEF82E87E090E0D6DED82F86E090E0AF
S1130800D2DEC82F85E090E0CEDE1F92FF921F92C9
S1130810DF931F92CF931F928F938FEF94E09F9358
S11308208F930E942B11EDB7FEB7B2960FB6F894D2
S1130830FEBF0FBEEDBFF80183811F928F938281AB
S11308401F928F9381811F928F9380811F928F9328
S11308508BE195E09F938F930E942B11F8016081A7
S11308608FE090E08CDEF801618180E190E087DE2A
S1130870F801628181E190E082DEF801638182E126
S113088090E07DDE8FEC97E00197F1F700C0000067
S113089082E190E088DE182F81E190E084DED82F99
S11308A080E190E080DEC82F8FE090E07CDE1F9234
S11308B01F931F92DF931F92CF931F928F938BE30B
S11308C095E09F938F930E942B11EDB7FEB774961A
S11308D00FB6F894FEBF0FBEEDBF87E595E0DF913C
S11308E0CF911F910F91FF90EF90DF90CF90BF9029
S11308F00C944111DF92EF92FF920F931F93CF93C9
S1130900DF93D82EEB017A01890160E181E094E064
S113091036DE6D2D80E094E032DEF801608184E003
S113092094E02DDEF801618185E094E028DE61E049
S113093081E094E024DE83E094E035DE833129F71E
S113094068818CE094E01BDE69818DE094E017DE21
S11309506A818EE094E013DE6B818FE094E00FDE19
S1130960F701608180E194E00ADEF701618181E1B1
S113097094E005DE64E081E094E001DEC0E0D0E0D4
S113098000E117E283E094E00EDE8731F1F087E5C1
S113099092E00197F1F700C000002196CE01B80162
S11309A00E94B110892B71F786E795E00E944111EE
S11309B0C13593ECD90730F388E995E00E944111E1
S11309C060E181E094E0DBDD10C083E094E0EBDDE6
S11309D0873139F480EB95E00E94411181E090E089
S11309E006C087EC95E00E94411180E090E0DF9121
S11309F0CF911F910F91FF90EF90DF90089563E0E6
S1130A008AE190E0BCDD63E08BE190E0B8DD8FEF3C
S1130A109FE19093740A8093730A20E030E430934A
S1130A20760A2093750A90937A0A8093790A80E073
S1130A3090E69093780A8093770A0895682F81E06E
S1130A4094E09DCD6F927F928F929F92AF92BF92CE
S1130A50CF92DF92EF92FF920F931F93CF93DF9386
S1130A605C016B014A0183E094E09DDD1F928F934A
S1130A7086EE95E09F938F930E942B1183E094E080
S1130A8092DD0F900F900F900F908731A9F480E2C0
S1130A9094E089DD082F10E0102F002781E294E014
S1130AA082DD080F111D5AEE652E53E0752E62EF9C
S1130AB0E62E65E0F62E0BC02AE132E04CE152E06E
S1130AC06EE172E081E016DF892BB1F3E0CF0C1503
S1130AD01D0550F58FEC97E00197F1F700C0000079
S1130AE080E294E060DD082F10E0102F002781E2FF
S1130AF094E059DD080F111D1F930F93FF92EF929D
S1130B000E942B1191E0691A71080F900F900F90B9
S1130B100F9061147104D9F688E090DF81E094E0CD
S1130B2042DD8111FBCF54C084E294E03CDDE82E29
S1130B3085E294E038DDF12CFE2CEE24E80EF11C65
S1130B4082E294E030DD83E294E02DDD8EEF95E0E7
S1130B500E94411100E010E038016E0C7F1C0C155E
S1130B601D05F9F0C091730AD091740AC621D721EA
S1130B708091750A9091760AC80FD91F8114910447
S1130B8039F0B8017C5F80E090E034D1682F04C074
S1130B90F501E00FF11F6081CE01F1DC0F5F1F4F03
S1130BA0DBCF60E0CE010196EADC84E294E0FBDC7A
S1130BB06FEF84E294E0E3DC662D85E294E0DFDC11
S1130BC080E23CDF81E094E0EEDC8111FBCF03C0E6
S1130BD080E090E002C081E090E0DF91CF911F912E
S1130BE00F91FF90EF90DF90CF90BF90AF909F90C8
S1130BF08F907F906F900895A4988EBD0DB407FEDA
S1130C00FDCFA49A08959C9AA49AE4E0F1E080812F
S1130C1084608083E5E0F1E080818B7F808380E0E5
S1130C20EBCF6A3021E972072EE18207910531F09A
S1130C30613175498E41910519F0089581E001C033
S1130C4082E0DACFCF93C82F8A3011F48DE0FADF37
S1130C508091D00085FFFCCFC093D60080E090E067
S1130C60CF910895CF93BC018091D00087FFFCCF32
S1130C70C091D6008C2FE6DF8C2F90E0CF910895A1
S1130C801092D50083E38093D40088E18093D1004F
S1130C9086E08093D20082E292E090934E0B8093A0
S1130CA04D0B9093500B80934F0B0895A39891E0B4
S1130CB09EBD0DB407FEFDCF8EBD0DB407FEFDCF66
S1130CC0A39A0895262F972F482F82E08EBD0DB446
S1130CD007FEFDCF4EBD0DB407FEFDCF892F8EBD9F
S1130CE00DB407FEFDCF2EBD0DB407FEFDCF089554
S1130CF08EBD0DB407FEFDCF0895262F972F482FE4
S1130D0083E08EBD0DB407FEFDCF4EBD0DB407FECE
S1130D10FDCF892F8EBD0DB407FEFDCF2EBD0DB4C2
S1130D2007FEFDCF08951EBC0DB407FEFDCF8EB5A2
S1130D300895EF92FF920F931F93CF93DF93EB01EC
S1130D40182F092F7A0180E4B1DFA398BE01812F07
S1130D50902FD3DF0F931F93DF93CF938BE396E012
S1130D609F938F930E942B110F900F900F900F90D1
S1130D700F900F90C0E0D0E00CE416E0CE15DF0534
S1130D8069F0D1DF1F928F931F930F930E942B1151
S1130D9021960F900F900F900F90F0CFA39ADF93AE
S1130DA0CF9384E596E09F938F930E942B110F902D
S1130DB00F900F900F90DF91CF911F910F91FF90A3
S1130DC0EF900895CF93C82FA398CB01BA017ADF8F
S1130DD08C2F8EDFA39ACF91089584B1876884B94C
S1130DE02F9A9B9AA39A81E58CBD40E050E0BA010A
S1130DF082E3E8CFA39881DF96DFA39A0895E4E025
S1130E00F1E0808188638083E5E0F1E080818062A5
S1130E1080838081877E808308958EBD0DB407FE14
S1130E20FDCF089525E0829FC00111248558954F78
S1130E3020E030E0FB014191BF01FC01E20FF31F10
S1130E4040832F5F3F4F25303105A1F70895EF927E
S1130E50FF920F931F93CF93DF93C0E0D0E000E0A5
S1130E6010E0CE018058954F7C01F701E00FF11F8F
S1130E708081D3DF0F5F1F4F05301105B1F7259631
S1130E80C931D10561F78091050180618093050125
S1130E9095E39A95F1F70000809105018F7E809388
S1130EA00501DF91CF911F910F91FF90EF9008956D
S1130EB0CF93DF9300D000D01F92CDB7DEB785E08B
S1130EC0E0E3F2E0DE01119601900D928A95E1F7DC
S1130ED0BE016F5F7F4F81E0A5DF19821A8288E02F
S1130EE08B831C821D82BE016F5F7F4F82E09ADF7D
S1130EF019821A821B821C821D82BE016F5F7F4F82
S1130F0083E090DF198280E28A831B821C821D8227
S1130F10BE016F5F7F4F84E085DF19821A821B82D6
S1130F2084E08C831D82BE016F5F7F4F85E07ADF92
S1130F308EDF0F900F900F900F900F90DF91CF9155
S1130F400895CF93DF9300D000D01F92CDB7DEB7C2
S1130F5085E0E0E3F2E0DE01119601900D928A95BE
S1130F60E1F7BE016F5F7F4F81E05CDF198280E4AF
S1130F708A831B8284E08C831D82BE016F5F7F4F56
S1130F8082E050DF19821A821B821C821D82BE01FC
S1130F906F5F7F4F83E046DF198280E28A831B8282
S1130FA082E08C831D82BE016F5F7F4F84E03ADF55
S1130FB019821A821B8281E08C831D82BE016F5FBD
S1130FC07F4F85E02FDF43DF0F900F900F900F903E
S1130FD00F90DF91CF9108958FEF80BB11BA84B148
S1130FE0806784B985B18F7885B908952C9A08955E
S1130FF02C9808952D9A08952D98089591B321E081
S113100030E001C0220F8A95EAF7922B91BB81E070
S1131010089591B321E030E001C0220F8A95EAF7E8
S1131020922B91BB81E008952E9A08952E980895ED
S113103091B321E030E001C0220F8A95EAF7922BA8
S113104091BB81E008952F923F924F925F926F92ED
S11310507F928F929F92AF92BF92CF92DF92EF9244
S1131060FF920F931F93CF93DF93EC015B01290150
S11310703A01B9D080E090E078D0AE016AE872E03D
S11310808FEF69D1C1D0C0E0D0E087E1882E87E03E
S1131090982E9AE3292E97E0392EA114B104B9F0C1
S11310A073016201CC0EDD1EE11CF11CC701B60107
S11310B049D1FF92EF92DF92CF929F928F920E943A
S11310C02B110F900F900F900F900F900F9080E0C6
S11310D090E04BD048E257E06EE277E08FEF3BD1EF
S11310E093D02DD17C01FF928F933F922F920E9437
S11310F02B110F900F900F900F90F7018181813386
S113110041F018D10297C80FD91F0115110509F034
S1131110C4CF72D04FEE53E06BED76E08FEF1BD16E
S1131120CE01DF91CF911F910F91FF90EF90DF904F
S1131130CF90BF90AF909F908F907F906F905F9073
S11311404F903F902F900895CF93DF93EC0154D0AC
S11311504FEE53E0BE018FEFFED04FEE53E06BED48
S113116076E08FEFDF91CF91F6C09093A90A809338
S1131170A80A08951092C50083E38093C400E1ECAB
S1131180F0E088E1808386E08093C20080818068FB
S1131190808308951092B40A29E0EBE9FAE0DF01B4
S11311A01D922A95E9F740E0242F30E026173707EF
S11311B060F45091C00055FFFCCFFC01E20FF31F17
S11311C020812093C6004F5FEFCF8CEC92E00E9409
S11311D0411180E090E008958091C00087FFFCCF2A
S11311E08091C6000895E1ECF0E0808180688083FE
S11311F0789481E090E00895E1ECF0E080818F77CD
S1131200808381E090E008958091B40A811105C043
S113121081E28A95F1F70000F7CF81E090E008952C
S11312200F931F93CF93DF938091A60A9091A70AFF
S1131230892BF1F0C0E0D0E00BE417E0FE01E556A5
S1131240F54F8081FF93EF931F928F931F930F931A
S11312500E942B1121960F900F900F900F900F90DA
S11312600F90C930D10551F78AE090E00E943C11FB
S11312701092AD0A1092AC0A8091AC0A9091AD0A1A
S11312802091A10A2F70820F911D9093AD0A809333
S1131290AC0A8091AC0A9091AD0A2091A00A2F70FB
S11312A03AE0239F800D911D11249093AD0A809301
S11312B0AC0A8091AC0A9091AD0A20919F0A2F70DC
S11312C034E6239F800D911D11249093AD0A8093E1
S11312D0AC0A2091AC0A3091AD0A60919E0A6F70FD
S11312E048EE53E0649FC001659F900D1124820F66
S11312F0931F9093AD0A8093AC0A2091AC0A30916D
S1131300AD0A60919D0A6F7040E157E2649FC0018D
S1131310659F900D1124820F931F9093AD0A8093C3
S1131320AC0A8091AC0A9091AD0ADF91CF911F91E4
S11313300F9108958091AC0A9091AD0A08958BE9BC
S11313409AE008956093AE0A7093AF0A8093B00A4E
S11313509093B10A08950F931F93CF93DF938B015A
S1131360EA01813031F0823051F08F3F09F04FC0F3
S11313700BC06FE872E085EB9AE034D705C067E6EE
S113138077E085EB9AE023D7B80185EB9AE01FD785
S113139083E0CF3ED80749F067E773E085EB9AE036
S11313A016D7BE0185EB9AE012D765E372E085EBB0
S11313B09AE00DD705EB1AE0E80109900020E9F75F
S11313C02197C55BDA401F930F93DF93CF931F934D
S11313D00F938CE697E09F938F933DD7BE01C8018E
S11313E0D9DE84E6F80111928A95E9F781E997E05C
S11313F048D788E997E045D78DB79EB708960FB6CA
S1131400F8949EBF0FBE8DBF81E090E002C080E0E3
S113141090E0DF91CF911F910F9108951F920F9249
S11314200FB60F9211240BB60F922F933F934F9345
S11314305F936F937F938F939F93AF93BF93CF9358
S1131440DF93EF93FF93F8948091B20A9091B30ADB
S1131450892BE1F4C1DE8093A40A8091A40A823529
S113146009F094C01092A90A1092A80AE091A80A5F
S1131470F091A90A8091A40AE556F54F808381E092
S113148090E09093B30A8093B20A80C08091A80A36
S11314909091A90A099748F4C091A80AD091A90A81
S11314A09BDEC556D54F888371C08091A80A909160
S11314B0A90A099721F5B4DE9093AD0A8093AC0A8A
S11314C08091A60A9091A70A892B09F45FC0209104
S11314D0A80A3091A90A8091AC0A9091AD0A3F9371
S11314E02F939F938F9383EA97E09F938F93B3D621
S11314F00F900F900F900F900F900F9047C0209176
S1131500A80A3091A90A8091AC0A9091AD0A099673
S113151028173907D8F460DE8093A40A4091AE0AF4
S11315205091AF0A6091B00A7091B10A2091A80A53
S11315303091A90A8091A40A4A505109610971099C
S1131540420F531F611D711D3DDC20C01092A90A7A
S11315501092A80A1092B30A1092B20A1092AB0A1F
S11315601092AA0A1092A50A81E08093B40A58DE68
S11315709F938F9383EC97E09F938F936CD68CED1E
S113158097E07FD60F900F900F900F908091A80A4C
S11315909091A90A01969093A90A8093A80A789435
S11315A0FF91EF91DF91CF91BF91AF919F918F9177
S11315B07F916F915F914F913F912F910F900BBE4F
S11315C00F900FBE0F901F90189510924C0B109215
S11315D04B0B82E3E9E1FBE0DF011D928A95E9F719
S11315E0089510924C0B10924B0B0895CF92DF92FA
S11315F0EF92FF920F931F93CF93DF938CEE97E0BC
S113160040D6C9E1DBE00CE416E060914B0B70912D
S11316104C0B80E090E0EEDBF82E1F928F931F932B
S11316200F9319D6F99280914B0B90914C0B019624
S113163090934C0B80934B0B0F900F900F900F9047
S11316408BE0CE31D80709F780911A0BE82EF12CE4
S11316501F928F9389EF97E09F938F93FCD58EE130
S1131660C82E8BE0D82E0F900F900F900F90C0E0F3
S1131670D0E00CE416E060914B0B70914C0B80E0D1
S113168090E0B8DB1F928F931F930F93E4D5609182
S11316904B0B70914C0B80E090E0ACDBF601819336
S11316A06F0180914B0B90914C0B019690934C0BD6
S11316B080934B0B21960F900F900F900F90EC1688
S11316C0FD06CCF689E19BE0DF91CF911F910F914C
S11316D0FF90EF90DF90CF900895CF92DF92EF923A
S11316E0FF920F931F93CF93DF936B017C0135D24D
S11316F0EC018A811F928F9389811F928F93888135
S11317001F928F938AE098E09F938F93A4D50881CA
S113171010E020E030E04E2D50E060E070E08DB746
S11317209EB708960FB6F8949EBF0FBE8DBF0417E0
S1131730150726073707E9F4098110E020E030E0B7
S11317404D2D50E060E070E00417150726073707B9
S113175081F44A8150E060E070E0DD24EE24FF244F
S113176081E090E04C155D056E057F0521F080E079
S113177002C080E090E0DF91CF911F910F91FF9024
S1131780EF90DF90CF900895CF92DF92EF92FF9287
S1131790CF93DF936B017C01C9D0A7D022DFC701AF
S11317A0B6019AD1C701B60198DFEC01009729F17F
S11317B08CE298E066D582E498E063D58ED38DE41C
S11317C098E05FD58CE598E05CD5C701B601A6D357
S11317D08BE698E056D588D28AE798E052D5DAD2DB
S11317E0EC01009739F087E898E04BD561D4C1E06B
S11317F0D0E007C08EE998E002C082EB98E041D5C2
S113180057D4CE01DF91CF91FF90EF90DF90CF902E
S113181008958130910541F0029719F48AE091E925
S113182008958FEF9FEF089581E195E90895CF9290
S1131830DF92EF92FF920F931F93CF93DF931F9248
S1131840CDB7DEB77C01FF928F938EEF97E09F9325
S11318508F9301D50F900F900F900F90C12CD12C26
S113186000E010E0CE14DF04A0F5B601882777FD70
S11318708095982FBFDA282F8A3329F4A80160E0D5
S113188070E08AE31FC08D3001F18A30F1F08FEFF0
S1131890C81AD80AB601882777FD8095982F29831E
S11318A0A9DA29812A3310F0275301C02F70229519
S11318B0207F8A3310F0875301C08F70A80160E045
S11318C070E0822B7FDA0F5F1F4FEFEFCE1ADE0A34
S11318D0C9CF81E090E00F90DF91CF911F910F91DC
S11318E0FF90EF90DF90CF9008958DD975DB81E064
S11318F090DB84E083DB86E09BDB8FE097E201975B
S1131900F1F700C0000076DB8FDB8FE493EC0197E6
S1131910F1F700C000008AB18FEF8AB9389880933C
S11319200A0183B3876083BBA09A089568DA8FEFB6
S113193074DA8FEF72DA8FEF70DA8FEF6EDA8FEF7F
S11319406CDA80E06ADA80E068DA80E066DA80E007
S113195064DA80E062DA80E060DA80E05EDA80E017
S11319605CDA80E05ADA80E058DA80E056DA80E027
S113197054DA80E052DA80E050DA80E04EDA80E037
S11319804CDA80E04ADA80E048DA80E046DA80E047
S113199044DAE5E0F1E080818061808385E38A9523
S11319A0F1F7000080818F7E808308955D9A5C98B2
S11319B05B9880930B0182E48A95F1F700C0589AF2
S11319C082E48A95F1F700C0589882E48A95F1F789
S11319D000C008955D985C9A80930B0182E48A9517
S11319E0F1F700C0589A82E48A95F1F700C058983C
S11319F082E48A95F1F700C05B9A5D985C9A9093B3
S1131A000B0182E48A95F1F700C0589A82E48A9522
S1131A10F1F700C0589882E48A95F1F700C0089560
S1131A205D985C985B985F9880930B0182E48A953B
S1131A30F1F700C0589A82E48A95F1F700C05898EB
S1131A4082E48A95F1F700C008955D985C985F98E8
S1131A505B9A90930B0182E48A95F1F700C0589A3F
S1131A6082E48A95F1F700C0589882E48A95F1F7E8
S1131A7000C008955B9A82E48A95F1F700C05E9AEB
S1131A8082E48A95F1F700C05E9882E48A95F1F7C2
S1131A9000C008955F985B985A9882E48A95F1F79C
S1131AA000C05A9A82E48A95F1F700C0309BFECFB9
S1131AB008955D9A5C9810920B0182E48A95F1F77F
S1131AC000C0589A82E48A95F1F700C0589882E4DD
S1131AD08A95F1F700C00895CF92DF92EF92FF92BA
S1131AE06B017C0158988BB1817C8BB910920B01EE
S1131AF01BB8809105018B7F80930501C701B60156
S1131B0090D88AE0C81681E9D8068EE1E806F10487
S1131B1051F091E1C91695E9D9069EE1E906F1046F
S1131B2019F40FDA01C0C4D987EC90E00197F1F7FA
S1131B3000C000005BDA95E89A95F1F700008BB1DC
S1131B4086608BB987EE93E00197F1F700C000003F
S1131B50FF90EF90DF90CF90089588E027DF5D98A5
S1131B605C985B9810920B0187EC90E00197F1F779
S1131B7000C00000589A92E49A95F1F700C0589872
S1131B8087EC90E00197F1F700C0000010920A0181
S1131B90E5E0F1E080818460808359985B9887EE6A
S1131BA093E00197F1F700C0000080910901809350
S1131BB06C091F928F938CE496E09F938F934BD381
S1131BC0599AE5E0F1E080818B7F80838FEF8093E9
S1131BD00A0187EC90E00197F1F700C000005D98DE
S1131BE05C985B9881E080930B0187EC90E001970F
S1131BF0F1F700C00000589A92E49A95F1F700C0FA
S1131C00589887EC90E00197F1F700C0000010921B
S1131C100A0180818460808359985B9887EE93E001
S1131C200197F1F700C000008091090180936D09CC
S1131C301F928F938CE496E09F938F930CD3599AC1
S1131C40E5E0F1E080818B7F80838FEF80930A0150
S1131C5087EC90E00197F1F700C000005D985C9874
S1131C605B9882E080930B0187EC90E00197F1F799
S1131C7000C00000589A92E49A95F1F700C0589871
S1131C8087EC90E00197F1F700C0000010920A0180
S1131C9080818460808359985B9887EE93E00197F4
S1131CA0F1F700C000008091090180936E091F9232
S1131CB08F938CE496E09F938F93CDD2599AE5E06D
S1131CC0F1E080818B7F80838FEF80930A011092F3
S1131CD00B018DB79EB70C960FB6F8949EBF0FBE3E
S1131CE08DBF8CE699E00895FF920F931F93CF93D5
S1131CF0DF9382E05BDE00E010E0CCE4D6E0FF247A
S1131D00FA9480E090E0A1DEC8018ADE10920A0114
S1131D108091050184608093050159985B9887EE52
S1131D2093E00197F1F700C00000809109011F9230
S1131D308F93DF93CF938FD25B9A87EE93E00197D3
S1131D40F1F700C00000809109011F928F93DF9387
S1131D50CF9381D2599A809105018B7F809305019D
S1131D60F0920A0192E49A95F1F700C00F5F1F4FB9
S1131D708DB79EB708960FB6F8949EBF0FBE8DBF61
S1131D800031110509F0BDCFDF91CF911F910F9163
S1131D90FF9008952F923F924F925F926F927F929D
S1131DA08F929F92AF92BF92CF92DF92EF92FF9267
S1131DB00F931F93CF93DF9314DC82E0F7DD26ECBF
S1131DC0A22E28E0B22E3CE4E32E36E0F32E332498
S1131DD03A940CDC8C01FC018481813009F468C0E4
S1131DE08180912C4280512C542C44248381482A94
S1131DF056944794E201C12CD12CC814D90448F755
S1131E00C20123DECE010CDEDF93CF93BF92AF92EB
S1131E1022D210920A018091050184608093050109
S1131E2059985B98E7EEF3E03197F1F700C00000B2
S1131E30209009011F922F92FF92EF920CD2380149
S1131E406C0C7D1C8DB79EB708960FB6F8949EBF98
S1131E500FBE8DBFF3018581281619F080E090E054
S1131E6029C05B9A87EE93E00197F1F700C0000068
S1131E70209009011F922F92FF92EF92ECD12196AC
S1131E800F900F900F900F90F30186812812E6CFE8
S1131E90599A809105018B7F8093050130920A0144
S1131EA0F2E4FA95F1F700C082E0C80ED11CA5CF88
S1131EB081E090E0DF91CF911F910F91FF90EF901F
S1131EC0DF90CF90BF90AF909F908F907F906F9056
S1131ED05F904F903F902F9008955D9A5C985B9827
S1131EE080E880930B0182E48A95F1F700C0589A48
S1131EF082E48A95F1F700C0589882E48A95F1F754
S1131F0000C05A9882E48A95F1F700C05A9A82E494
S1131F108A95F1F700C0309BFECF08952F923F922F
S1131F204F925F926F927F928F929F92AF92BF92E5
S1131F30CF92DF92EF92FF920F931F93CF93DF9391
S1131F4000D000D000D0CDB7DEB76A3021E97207E7
S1131F502EE18207910541F488ED98E092D140E1A9
S1131F6050E05A8349830CC0613175498E41910513
S1131F7039F488EE98E085D180E490E09A838983EF
S1131F8080E114DD812C912C5401A981BA811D01B9
S1131F90412C512C2BDB8C01FC0184818130C1F458
S1131FA088EF98E06ED189819A819C0140E050E0ED
S1131FB0C501B401EAD0672B682B692B09F45CC016
S1131FC088E399E05ED18D819E813FDD63DD54C05D
S1131FD08181282F30E03C832B83228130E0522FF3
S1131FE044279381492B569547955E834D835F9390
S1131FF04F931F928F93A5E0B9E0BF93AF932BD17A
S11320000F900F900F900F900F900F906D807E8027
S1132010C12CD12C76014B815C81C416D506D0F439
S1132020C301FEDCF801EC0DFD1D868190E0982FC4
S113203088272581822BCEDC8C0C9D1CAE1CBF1CFA
S113204019DDFFEF6F1A7F0A22E0C20ED11CE11CDA
S1132050F11CE1CFC501B401A201910196D0672B17
S1132060682B692B09F096CF86E299E00AD18D811D
S11320709E81EBDC0FDD8ECF8DE499E002D12696B4
S11320800FB6F894DEBF0FBECDBFDF91CF911F9185
S11320900F91FF90EF90DF90CF90BF90AF909F9003
S11320A08F907F906F905F904F903F902F9001CDD5
S11320B00E94F8070E94FC070E9416088FE097E22E
S11320C00197F1F700C0000010920B011BB88FECD0
S11320D097E00197F1F700C0000080E00E94FC0542
S11320E0E5E0F1E080818F7D808395E39A95F1F7B7
S11320F000008081806280832DE02A95F1F7000042
S113210080818061808385E38A95F1F70000808176
S11321108F7E808380818860808384B3876084BB62
S11321209FEF29E688E1915020408040E1F700C00C
S11321300000A09A84B3897F84BB08952FEF89E6B9
S113214098E1215080409040E1F700C000000E94D7
S1132150AF003BDA78940E94660186E699E091D05C
S1132160FFCFAA1BBB1B51E107C0AA1FBB1FA617A9
S1132170B70710F0A61BB70B881F991F5A95A9F72C
S113218080959095BC01CD010895A1E21A2EAA1B59
S1132190BB1BFD010DC0AA1FBB1FEE1FFF1FA21713
S11321A0B307E407F50720F0A21BB30BE40BF50B10
S11321B0661F771F881F991F1A9469F76095709599
S11321C0809590959B01AC01BD01CF010895FB0161
S11321D0DC010D900020E9F7119701900D92002089
S11321E0E1F70895FB01DC0101900D920020E1F775
S11321F008950F931F93CF93DF93182F092FEB01AB
S11322008B8181FD03C08FEF9FEF20C082FF10C040
S11322104E815F812C813D81421753077CF4E88114
S1132220F9819F012F5F3F4F39832883108306C0B4
S1132230E885F985812F0995892B29F72E813F811E
S11322402F5F3F4F3F832E83812F902FDF91CF91BC
S11322501F910F910895CF93DF93CDB7DEB7FE01A1
S1132260359661917191AF0180914F0B9091500B14
S113227035D0DF91CF91089560914F0B7091500B41
S1132280B8CF0F931F93CF93DF93E0914F0BF0914F
S1132290500B238121FF1BC0EC0100E010E0899169
S11322A060914F0B7091500BDB011896ED91FC91EE
S11322B01997882331F00995892B89F30FEF1FEFC4
S11322C0EECF8AE00995892B11F4C80102C08FEF83
S11322D09FEFDF91CF911F910F9108952F923F921D
S11322E04F925F926F927F928F929F92AF92BF9222
S11322F0CF92DF92EF92FF920F931F93CF93DF93CE
S1132300CDB7DEB72C970FB6F894DEBF0FBECDBFA6
S11323107C016B018A01FC0117821682838181FF93
S1132320B0C1CE0101964C01F7019381F60193FDF2
S1132330859193FF81916F01882309F49EC18532B1
S113234039F493FD859193FF81916F01853221F4D6
S1132350B70190E04EDFE8CF512C312C20E0203241
S1132360A0F48B3269F030F4803259F0833269F48E
S113237020612CC08D3239F0803339F4216026C0BD
S11323802260246023C0286021C027FD27C030EDCF
S1132390380F3A3078F426FF06C0FAE05F9E300D1D
S11323A01124532E13C08AE0389E300D1124332E8D
S11323B020620CC08E3221F426FD5FC1206406C069
S11323C08C3611F4206802C0883641F4F60193FD7E
S11323D0859193FF81916F018111C1CF982F9F7DCA
S11323E09554933028F40C5F1F4FFFE3F9830DC01D
S11323F0833631F0833771F0833509F057C021C03B
S1132400F801808189830E5F1F4F44244394512C2B
S1132410540114C03801F2E06F0E711CF801A08061
S1132420B18026FF03C0652D70E002C06FEF7FEF1F
S1132430C5012C874CD12C0183012C852F77222EAA
S113244016C03801F2E06F0E711CF801A080B18053
S113245026FF03C0652D70E002C06FEF7FEFC5015A
S11324602C872AD12C012C852068222E830123FC61
S113247019C0832D90E048165906A0F4B70180E2F4
S113248090E0B7DE3A94F5CFF50127FC859127FE5D
S113249081915F01B70190E0ACDE31103A94F1E034
S11324A04F1A51084114510479F7DEC0843611F0F3
S11324B0893631F5F80127FF07C060817181828177
S11324C093810C5F1F4F08C060817181882777FD5D
S11324D08095982F0E5F1F4F2F76B22E97FF09C05D
S11324E090958095709561957F4F8F4F9F4F206891
S11324F0B22E2AE030E0A401F5D0A82EA81843C0DB
S1132500853729F42F7EB22E2AE030E025C0F22F41
S1132510F97FBF2E8F36C1F018F4883579F0ADC03D
S1132520803719F0883721F0A8C02F2F2061B22EF0
S1132530B4FE0DC08B2D8460B82E09C024FF0AC0E0
S11325409F2F9660B92E06C028E030E005C020E138
S113255030E002C020E132E0F801B7FE07C060813C
S11325607181828193810C5F1F4F06C060817181EC
S113257080E090E00E5F1F4FA401B4D0A82EA818ED
S1132580FB2DFF77BF2EB6FE0BC02B2D2E7FA5147F
S113259050F4B4FE0AC0B2FC08C02B2D2E7E05C038
S11325A07A2C2B2D03C07A2C01C0752C24FF0DC06E
S11325B0FE01EA0DF11D8081803311F4297E09C0EA
S11325C022FF06C07394739404C0822F867809F0A6
S11325D0739423FD12C020FF06C05A2C731418F400
S11325E0530C5718732C731460F4B70180E290E015
S11325F02C87FFDD73942C85F6CF731410F43718F1
S113260001C0312C24FF11C0B70180E390E02C8776
S1132610F0DD2C8522FF16C021FF03C088E590E081
S113262002C088E790E0B7010CC0822F867851F091
S113263021FD02C080E201C08BE227FD8DE2B701DB
S113264090E0D7DDA51430F4B70180E390E0D1DD4C
S11326505A94F8CFAA94F401EA0DF11D8081B701D0
S113266090E0C7DDA110F6CF332009F45DCEB701A9
S113267080E290E0BEDD3A94F7CFF701868197813E
S113268002C08FEF9FEF2C960FB6F894DEBF0FBEFB
S1132690CDBFDF91CF911F910F91FF90EF90DF900D
S11326A0CF90BF90AF909F908F907F906F905F90EE
S11326B04F903F902F900895FC0105906150704019
S11326C00110D8F7809590958E0F9F1F0895FC01F7
S11326D06150704001900110D8F7809590958E0F4D
S11326E09F1F0895FA01AA27283051F1203181F162
S11326F0E8946F936E7F6E5F7F4F8F4F9F4FAF4F06
S1132700B1E03ED0B4E03CD0670F781F891F9A1F18
S1132710A11D680F791F8A1F911DA11D6A0F711DCC
S1132720811D911DA11D20D009F468943F912AE0D8
S1132730269F11243019305D3193DEF6CF010895C0
S1132740462F4770405D4193B3E00FD0C9F7F6CFF1
S1132750462F4F70405D4A3318F0495D31FD4052B9
S1132760419302D0A9F7EACFB4E0A695979587954F
S113277077956795BA95C9F700976105710508952E
S11327809B01AC010A2E06945795479537952795DA
S1132790BA95C9F7620F731F841F951FA01D089572
S10727A0F894FFCFD7
S11327A40050005068832450C0A80101FFFFFF00BB
S11327B4C0A8010550E549BF91400050005068830A
S11327C4245000000003000000002206320600002A
S11327D4FFFFFFFFFF0D0A000045746865726E6514
S11327E47420456E61626C65642100474554200081
S11327F4687474703A2F2F7777772E77692D7072F7
S11328046F2E7573002F646174612F636C6561723C
S1132814666C6167733F00776970726F69643D31F8
S113282430303030303030303000687474705F676A
S1132834657420005472616E204C656E6774683A46
S11328442025640A002F646174612F7570646174B7
S11328546573736964733F0026737369643D00662A
S1132864696C65706174683A2025730053656E74ED
S113287421002F75706C6F6164732F6865782F3134
S11328843030303030303030302F64656661756CF0
S1132894742E68657800556E636F6D70726573731A
S11328A46564205472616E73204C656E6774683A73
S11328B42025640A002F75706C6F6164732F68653A
S11328C4782F313030303030303030302F6465760A
S11328D4696365696E666F2E74787400436F6D70F6
S11328E472657373656421002F75706C6F61647312
S11328F42F6865782F313030303030303030302F1D
S1132904666C616766696C652E7478740052616DD7
S1132914205072696E743A200050726F6772616D50
S113292421004465766963652049443A2025640A94
S1132934004572726F722C2062616420646576694A
S113294463652049442100466C61672053746174B3
S1132954757300526973696E672045646765210065
S113296446616C6C696E6720456467652100204884
S11329745454502F312E31200A486F73743A2077FF
S113298477772E77692D70726F2E7573200A0A007B
S113299453656E743A2025730A0057697A6E657418
S11329A420573531303020496E697400456E7465A2
S11329B47274696E672045746865726E6574205319
S11329C4657475700052656164696E67204D523A8E
S11329D42025640A0A0053657474696E672047618C
S11329E47465776179204164647265737320256426
S11329F42E25642E25642E25640A005265616469BB
S1132A046E67204741523A2025642E25642E25649E
S1132A142E25640A0A0053657474696E6720536F23
S1132A2475726365204164647265737320252E3264
S1132A34783A252E32783A252E32783A252E327871
S1132A443A252E32783A252E32780A00526561648A
S1132A54696E67205341523A20252E32783A252E46
S1132A6432783A252E32783A252E32783A252E3287
S1132A74783A252E32780A0A0053657474696E67AD
S1132A8420537562204D61736B20416464726573D5
S1132A94732025642E25642E25642E25640A005291
S1132AA4656164696E6720535542523A2025642E49
S1132AB425642E25642E25640A0A005365747469FA
S1132AC46E672049502041646472657373202564E1
S1132AD42E25642E25642E25640A005265616469DA
S1132AE46E6720534950523A2025642E25642E25BE
S1132AF4642E25640A0A00446F6E652057697A6E51
S1132B04657420573531303020496E697469616CBD
S1132B14697A65642100547279696E6720746F2040
S1132B2445737461626C69736820436F6E6E656388
S1132B3474696F6E2E2E2E0054696D656F75742C36
S1132B4420646973636F6E6E656374696E672100D4
S1132B54436F6E6E656374696F6E2053756363654A
S1132B6465646564210A00436F756C64206E6F7438
S1132B7420636F6E6E6563742E2045786974696E84
S1132B84672E2E2E0A0053523A203078253032789C
S1132B940A0054582053697A653A20256400536521
S1132BA46E64696E672E2E2E0A0045746865726E13
S1132BB46574205265636569766520446174612097
S1132BC454696D656F757421005374617473205274
S1132BD465673A2030782530327800416464726540
S1132BE473733A203078253036780A0030782530EB
S1132BF4325820000A53697A653A2025640A00731E
S1132C04797374656D2E7072696E745F6C65766524
S1132C146C00310073797374656D2E636D642E6872
S1132C2465616465725F656E61626C656400737985
S1132C347374656D2E636D642E70726F6D70745F42
S1132C44656E61626C6564006F66660073797374A3
S1132C54656D2E636D642E6563686F006F6E00731B
S1132C6463616E00776C616E2E7373696400776CB4
S1132C74616E2E706173736B657900737472656130
S1132C846D5F636C6F736520616C6C007463705F5B
S1132C94636C69656E740020485454502F312E318E
S1132CA40A686F73743A207777772E77692D707278
S1132CB46F2E75730A0A0052414D20416464726593
S1132CC473733A2025640A0030203530300073745D
S1132CD47265616D5F72656164005472616E204C4B
S1132CE4656E6774683A2025730A0056616C7565CD
S1132CF43A203078253032782C204164647265732C
S1132D04733A2025700A007365742000436F6D6D57
S1132D14616E643A202573204C656E6774683A20AA
S1132D2425642C20416464726573733A2025700A07
S1132D34004672656564210052657475726E696E2D
S1132D446721005472616E736D697373696F6E20C9
S1132D544C656E6774683A2025642C20693A2025F2
S1132D64640A005472616E736D697373696F6E20C3
S1132D744C656E6774683A2025640A00446F6E6576
S1132D8420526563656976696E67210047657474CA
S1132D94696E6720526F77210044617461204C6529
S1132DA46E6774683A2025640A000A5369676E6181
S1132DB4747572652042797465733A2025303258EB
S1132DC4202530325820253032580A005374617259
S1132DD474696E672050726F6772616D6D696E6796
S1132DE4210045726173696E672E2E2E000A446FAA
S1132DF46E652045726173696E67210050726F6756
S1132E0472616D6D696E672E2E2E000A52656164BF
S1132E14696E6720466C61736800566572696679E9
S1132E24696E672E2E2E0050726F6772616D6D6924
S1132E346E6720537563636565646564210050722D
S1132E446F6772616D6D696E67204661696C656454
S1132E542100426164205369676E61747572652050
S1132E644279746521000A416464726573733A207B
S1132E743078253034580A00506167652073697AC4
S1132E846520697320313600506167652073697A5F
S1132E946520697320363400456E64206F662046CD
S1132EA4696C6521000A42797465436F756E743ADE
S1132EB42025642C20416464726573733A2030784D
S1132EC4253034780A0046756C6C2050616765209F
S1132ED45772697474656E005061727469616C2010
S1132EE450616765205772697474656E00456E6439
S1132EF4696E6720506167652050726F6772616DF7
S10F2F046D696E672100446F6E6521004A
S9030000FC
