S00D0000776970726F2E73726563E6
S11300000C9472000C948F000C948F000C948F004D
S11300100C948F000C948F000C948F000C948F0020
S11300200C948F000C948F000C948F000C948F0010
S11300300C948F000C948F000C948F000C948F0000
S11300400C948F000C948F000C948F000C948F00F0
S11300500C94D5010C948F000C948F000C948F0099
S11300600C948F000C948F000C948F000C948F00D0
S11300700C948F000C948F000C948F000C948F00C0
S11300800C948F000C948F000C948F000C948F00B0
S11300900C94C6070C948F000C948F000C948F0062
S11300A00C948F000C948F000C948F000C948F0090
S11300B00C948F000C948F000C948F000C948F0080
S11300C00C948F000C948F000C948F000C948F0070
S11300D00C948F000C948F000C948F000C948F0060
S11300E00C948F0011241FBECFEFD1E2DEBFCDBF31
S11300F016E0A0E0B2E0E4EBF0E202C005900D925D
S1130100A030B107D9F727E0A0E0B6E001C01D9206
S1130110A43CB207E1F70E94F30C0C9458100C9421
S113012000000E9486040E943F050895E1E8F0E083
S1130130808184608083109284001092850081E025
S113014080936F000895CF93DF938091670688238F
S113015099F1C3E0D6E085E0E6E1F2E0DE0101904A
S11301600D928A95E1F7DE010D900020E9F71197D1
S113017085E1EBE1F2E001900D928A95E1F7DE0171
S11301800D900020E9F7119782E1E0E3F2E001909D
S11301900D928A95E1F709900020E9F7DE011197A5
S11301A083E1E2E4F2E001900D928A95E1F783E0C5
S11301B096E00E94030236C080916806882391F17C
S11301C0C3E0D6E08AE0E5E5F2E0DE0101900D92BD
S11301D08A95E1F7DE010D900020E9F7119785E19A
S11301E0EBE1F2E001900D928A95E1F7DE010D90CA
S11301F00020E9F7119782E1E0E3F2E001900D922B
S11302008A95E1F709900020E9F7DE01119783E16F
S1130210E2E4F2E001900D928A95E1F783E096E042
S11302200E942F0684E6E3E0F6E0DF011D928A9542
S1130230E9F781E090E0DF91CF9108950F931F9348
S113024081E08093680685E1EBE1F2E0A3E0B6E0AB
S113025001900D928A95E1F7A3E0B6E00D9000209D
S1130260E9F7119784E2EDE9F2E001900D928A95A5
S1130270E1F781EC92E09F938F930E94930D81E0CC
S113028090E00E94440601E010E020E030E0A90183
S113029061E070E083E096E00E94A80545E154E047
S11302A060E070E0CB010E94DF040F900F9081E0CA
S11302B090E01F910F9108950F931F93CF93DF93B5
S11302C0EFE6F0E080818E7F80831092670681E004
S11302D080936806C3E0D6E085E1EBE1F2E0DE015D
S11302E001900D928A95E1F7DE010D900020E9F767
S11302F0119785E2E4EDF2E001900D928A95E1F721
S113030000E010E020E030E340E050E061E070E025
S1130310CE010E94A80589EF92E09F938F930E94DB
S1130320930D43E050E060E070E380E090E00E94D1
S1130330DF048AE090E00E94A70D60E070E380E0B3
S113034090E00E944C0509E616E08F70F801808366
S113035061E070E380E090E00E944C058F70809330
S11303606A0662E070E380E090E00E944C058F70C2
S113037080936B0684E6FE0111928A95E9F70F904B
S11303800F90F8018081813021F40E941E010E94A7
S11303908F090E94A300EFE6F0E0808181608083F2
S11303A0DF91CF911F910F9108951F920F920FB675
S11303B00F9211242F933F934F935F936F937F93E7
S11303C08F939F93AF93BF93EF93FF93F89485E03C
S11303D093E00E94AE0D0E945C0110928400109282
S11303E085007894FF91EF91BF91AF919F918F9188
S11303F07F916F915F914F913F912F910F900FBE1D
S11304000F901F901895CF93DF93BC018CE696E074
S11304100E945A0DCCE6D6E0DE010D900020E9F7EB
S1130420119782E2E1E1F3E001900D928A95E1F700
S1130430DF93CF9384E992E09F938F930E94930D6F
S1130440FE0101900020E9F73197BF016C56764018
S113045040E050E0CE010E942D0384E6FE0111929B
S11304608A95E9F70F900F900F900F90DF91CF913D
S11304700895109820EF2EBD0DB407FEFDCF9EBD4C
S11304800DB407FEFDCF8EBD0DB407FEFDCF6EBDCE
S11304900DB407FEFDCF109A089510982FE02EBDDD
S11304A00DB407FEFDCF9EBD0DB407FEFDCF8EBD7E
S11304B00DB407FEFDCF1EBC0DB407FEFDCF109A90
S11304C08EB50895BF92CF92DF92EF92FF920F9371
S11304D01F93CF93DF93B82E7B016A018901CDE38B
S11304E0D3E083E094E00E944D021F928F93DF9348
S11304F0CF930E94930D60E181E094E00E94390261
S11305006B2D80E094E00E943902F801608184E060
S113051094E00E943902F801618185E094E00E9430
S1130520390261E081E094E00E94390283E094E0C2
S11305300E944D020F900F900F900F90833189F617
S1130540F70160818CE094E00E943902F701618137
S11305508DE094E00E943902F70162818EE094E01C
S11305600E943902F70163818FE094E00E9439020E
S1130570F601608180E194E00E943902F601618114
S113058081E194E00E94390264E081E094E00E94F9
S11305903902C0E0D0E000E117E236C087E592E01E
S11305A00197F1F700C0000021969E013295229533
S11305B02F7023273F702327A7E4B3E00E94400D48
S11305C0969587959695879596958795809F9001A2
S11305D0819F300D909F300D1124C217D307A1F4D1
S11305E080E593E00E94AE0DC13593ECD90760F02D
S11305F082E793E00E94AE0D60E181E094E00E9406
S1130600390280E090E019C083E094E00E944D023A
S1130610873121F683E094E00E944D02873139F45A
S11306208AE893E00E94AE0D81E090E006C081EA82
S113063093E00E94AE0D80E090E0DF91CF911F9196
S11306400F91FF90EF90DF90CF90BF900895682FA7
S113065081E094E00E94390208954F925F926F9274
S11306607F928F929F92AF92BF92CF92DF92EF923E
S1130670FF920F931F93CF93DF937C016B013A0199
S113068083E094E00E944D021F928F9380EC93E0EC
S11306909F938F930E94930D83E094E00E944D02F8
S11306A00F900F900F900F90873159F020E032E0B7
S11306B042E052E064E072E081E00E946202892B31
S11306C0A9F380E294E00E944D02C82FD0E0DC2F11
S11306D0CC2781E294E00E944D02C80FD11DCC15B5
S11306E0DD0508F4A0C030C08FEC97E00197F1F766
S11306F000C0000080E294E00E944D02C82FD0E0C8
S1130700DC2FCC2781E294E00E944D02C80FD11D5A
S1130710DF93CF939F928F920E94930D0150110902
S11307200F900F900F900F900115110551F488E070
S11307300E94270381E094E00E944D028111FACFC8
S11307406CC0CC15DD0580F284E294E00E944D0279
S1130750482E85E294E00E944D02512C542C4424EE
S1130760480E511C82E294E00E944D0283E294E020
S11307700E944D0288ED93E00E94AE0DC114D10495
S113078079F147018C0C9D1C8201C0E0D4E0A0905B
S11307900207B0900307A022B12280910407909130
S11307A00507A80EB91E6114710451F0BE0180E062
S11307B090E00E944C05682FC5010E94390205C0D3
S11307C0F7016081C5010E9439020F5F1F4FFFEFDF
S11307D0EF1AFF0A2196E814F904C9F64C0C5D1CC3
S11307E060E0C50101960E94390284E294E00E940F
S11307F04D026FEF84E294E00E943902642D85E299
S113080094E00E94390280E20E94270381E094E090
S11308100E944D028111FACF03C080E090E02CC009
S113082081E090E029C08FEC97E00197F1F700C0D8
S1130830000080E294E00E944D02C82FD0E0DC2F3B
S1130840CC2781E294E00E944D02C80FD11DDF93B2
S1130850CF938CEC93E09F938F930E94930D0F9012
S11308600F900F900F9009EE13E00F2EFCEC8F2EDB
S1130870F3E09F2EF02D65CFDF91CF911F910F9163
S1130880FF90EF90DF90CF90BF90AF909F908F90AC
S11308907F906F905F904F900895A4988EBD0DB493
S11308A007FEFDCFA49A08959C9AA49AE4E0F1E08F
S11308B0808184608083E5E0F1E080818B7F8083A8
S11308C080E00E944D040895CF93C82F8A3019F414
S11308D08DE00E946404E0EDF0E0908195FFFDCF8F
S11308E0C093D60080E090E0CF910895CF93BC01EF
S11308F0E0EDF0E080818823ECF7C091D6008C2FE6
S11309000E9464048C2F90E0CF9108951092D5003A
S113091083E38093D40088E18093D10086E08093C0
S1130920D20088E092E09093BF078093BE07909333
S1130930C1078093C0070895A39891E09EBD0DB4AC
S113094007FEFDCF8EBD0DB407FEFDCFA39A08951B
S1130950262F972F482F82E08EBD0DB407FEFDCFC2
S11309604EBD0DB407FEFDCF892F8EBD0DB407FE1D
S1130970FDCF2EBD0DB407FEFDCF08958EBD0DB481
S113098007FEFDCF0895262F972F482F83E08EBDB5
S11309900DB407FEFDCF4EBD0DB407FEFDCF892F6C
S11309A08EBD0DB407FEFDCF2EBD0DB407FEFDCFE9
S11309B008951EBC0DB407FEFDCF8EB50895EF92C9
S11309C0FF920F931F93CF93DF93C62FD72F182F28
S11309D0092F7A0180E40E949C04A3986C2F7D2F38
S11309E0812F902F0E94C3040F931F93DF93CF9303
S11309F085E194E09F938F930E94930D0F900F9045
S1130A000F900F900F900F90E114F104A9F0C0E043
S1130A10D0E006E214E00E94D9041F928F931F9342
S1130A200F930E94930D21960F900F900F900F90AB
S1130A30CE15DF0581F702C0E12CF12CA39AFF92B9
S1130A40EF928EE294E09F938F930E94930D0F9008
S1130A500F900F900F90DF91CF911F910F91FF9006
S1130A60EF900895CF93C82FA398CB01BA010E94A9
S1130A70A8048C2F0E94BE04A39ACF91089587E006
S1130A8084B99B9AA39A81E58CBD40E050E0BA01F9
S1130A9082E30E9432050895A3980E94C3040E9431
S1130AA0D904A39A089584B1876084B982E58CBD82
S1130AB0E4E0F1E0808188638083279A2F98E5E061
S1130AC0F1E080818861808380818F7D80830895B7
S1130AD08FEF80BB11BA84B1806784B985B18F78F8
S1130AE085B908952C9A08952C9808952D9A0895FF
S1130AF02D98089541B321E030E0B90102C0660F9A
S1130B00771F8A95E2F7CB01842B81BB81E008959E
S1130B1041B321E030E0B90102C0660F771F8A9526
S1130B20E2F7CB01842B81BB81E008952E9A0895CE
S1130B302E98089541B321E030E0B90102C0660F58
S1130B40771F8A95E2F7CB01842B81BB81E008955E
S1130B502F923F924F925F926F927F928F929F92C9
S1130B60AF92BF92CF92DF92EF92FF920F931F93B7
S1130B70CF93DF93EC016B0149015A010E94830674
S1130B805C9880E090E00E9449065C9AAE0165E5BD
S1130B9072E08FEF0E9447070E949406E12CF12C2B
S1130BA00F2EFFE52F2EF2E03F2EF02DC114D104BD
S1130BB0D1F0240135014E0C5F1C611C711CC30172
S1130BC0B2010E943E077F926F925F924F92A0EE15
S1130BD0B4E0BF93AF930E94930D0F900F900F90CA
S1130BE00F900F900F9041EF54E069EF74E08FEF96
S1130BF00E9447070E9494060E943B07EC01DF9382
S1130C00CF933F922F920E94930D0F900F900F90CD
S1130C100F908981813339F00E943607E80EF91E5E
S1130C200115110519F60E948C0642E353E065E0B4
S1130C3075E08FEF0E944707DF91CF911F910F91CD
S1130C40FF90EF90DF90CF90BF90AF909F908F90E8
S1130C507F906F905F904F903F902F900895CF9327
S1130C60DF93EC010E948C0642E353E0BE018FEF58
S1130C700E94470742E353E065E075E08FEF0E946E
S1130C804707DF91CF9108955C9880931C075C9A85
S1130C90089590931A07809319070895CF93DF93CB
S1130CA01092250729E0ECE0F7E0DF011D922A9578
S1130CB0E9F75D9A61157105A9F020E030E050E094
S1130CC0E8ECF0E0AEECB0E0408145FFFDCFEC0194
S1130CD0C20FD31F28812C935F5F252F30E0261786
S1130CE0370790F387E992E00E94AE0D80E090E030
S1130CF0DF91CF910895E8ECF0E080818823ECF750
S1130D008091CE000895E9ECF0E0808180688083D2
S1130D10789481E090E00895E9ECF0E080818F77A9
S1130D20808381E090E0089580912507811108C0B7
S1130D3081E28A95F1F70000809125078823C1F3A9
S1130D4081E090E008950F931F93CF93DF938091F8
S1130D50170790911807892BF1F0C0E0D0E006E165
S1130D6015E0FE01E45FF84F8081FF93EF931F923B
S1130D708F931F930F930E94930D21960F900F90C2
S1130D800F900F900F900F90C930D10551F78AE062
S1130D9090E00E94A70D10921E0710921D0720914B
S1130DA0120780911D0790911E072F70820F911DCD
S1130DB090931E0780931D078091110720911D07B2
S1130DC030911E078F7090E0AC01440F551F880FBF
S1130DD0991F880F991F880F991F840F951F820FE1
S1130DE0931F90931E0780931D07209110078091F5
S1130DF01D0790911E072F7034E6239F800D911DCF
S1130E00112490931E0780931D0760910F07809112
S1130E101D0790911E076F7048EE53E0649F900188
S1130E20659F300D1124820F931F90931E078093AA
S1130E301D0760910E0780911D0790911E076F702A
S1130E4040E157E2649F9001659F300D1124820FA9
S1130E50931F90931E0780931D0780911D07909107
S1130E601E07DF91CF911F910F91089580911D0767
S1130E7090911E0708958CE097E0089560931F07F2
S1130E8070932007809321079093220708950F936E
S1130E901F93CF93DF93EA01813031F0823071F0F8
S1130EA08F3F09F06CC017C085E0EAE5F2E0A6E2E6
S1130EB0B7E001900D928A95E1F70DC0A6E2B7E084
S1130EC00D900020E9F7119785E0E2E3F5E0019049
S1130ED00D928A95E1F786E297E00E944F0D83E038
S1130EE0C233D80779F0E6E2F7E001900020E9F791
S1130EF0319780E290E091838083BE0186E297E09F
S1130F000E944F0DC6E2D7E0FE0101900020E9F7F0
S1130F1031978DE09AE0A0E080839183A283FE0163
S1130F2001900020E9F731978F0106521740DF93B3
S1130F30CF931F930F93DF93CF9387E395E09F9312
S1130F408F930E94930DB801CE010E944E0684E651
S1130F50FE0111928A95E9F78CE595E00E94AE0DA9
S1130F6083E695E00E94AE0D8DB79EB708960FB646
S1130F70F8949EBF0FBE8DBF81E090E002C080E078
S1130F8090E0DF91CF911F910F9108951F920F92DE
S1130F900FB60F9211242F933F934F935F936F9348
S1130FA07F938F939F93AF93BF93CF93DF93EF93ED
S1130FB0FF93F8948091230790912407892BF9F4E7
S1130FC00E947B068093150780911507823509F0EE
S1130FD003C15D9810921A0710921907E09119073E
S1130FE0F0911A0780911507E45FF84F808381E040
S1130FF090E090932407809323075D9AEDC080913D
S1131000190790911A07099760F45D98C091190720
S1131010D0911A070E947B06C45FD84F88835D9ADB
S1131020DBC08091190790911A070997F1F40E9487
S1131030A30690931E0780931D0780911707909134
S11310401807892B09F4C8C080911D0790911E07C9
S11310509F938F938EE695E09F938F930E94930DB9
S11310600F900F900F900F90B7C020911D073091F3
S11310701E078091190790911A07275F3F4F821727
S1131080930708F06FC00E947B0680931507809138
S11310901C07813009F04DC05C98809115078A3394
S11310A0D1F45D982091190730911A0740911F07D8
S11310B050912007609121077091220780911507B4
S11310C04A50510961097109420F531F611D711D75
S11310D00E94320581C080911B0781110AC0809152
S11310E015078295807F8093160781E080931B0704
S11310F073C09091150780911607892B809316076A
S11311002091190730911A0740911F075091200729
S113111060912107709122074A50510961097109B0
S1131120420F531F611D711D0E94320510921B074F
S113113053C02091190730911A0740911F0750910D
S113114020076091210770912207809115074A506A
S1131150510961097109420F531F611D711D0E94DC
S113116032053AC08091190790911A0740911F07E0
S11311705091200760912107709122074A5051092C
S113118061097109480F591F611D711D80E00E949A
S1131190320510921A071092190710922407109220
S11311A0230710921C0710921B071092160781E068
S11311B0809325070E94A3069F938F938EE695E064
S11311C09F938F930E94930D87E895E00E94AE0D44
S11311D00F900F900F900F908091190790911A071C
S11311E0019690931A07809319075C9A7894FF915B
S11311F0EF91DF91CF91BF91AF919F918F917F91AB
S11312006F915F914F913F912F910F900FBE0F906F
S11312101F9018951092BD071092BC0782E3EAE86C
S1131220F7E0DF011D928A95E9F708950F931F9364
S1131230CF93DF93CAE8D7E00FE817E06091BC07CB
S11312407091BD0780E090E00E944C0589938091E5
S1131250BC079091BD0701969093BD078093BC078E
S1131260C017D10759F700918B07CFE8D7E010E0FA
S11312700057184F6091BC077091BD0780E090E063
S11312800E944C056091BC077091BD0780E090E01E
S11312900E944C0589938091BC079091BD070196EB
S11312A09093BD078093BC07C017D10719F78AE84C
S11312B097E0DF91CF911F910F910895CF93DF9322
S11312C00E948C0AEC018A811F928F9389811F925C
S11312D08F9388811F928F9387E995E09F938F93D3
S11312E00E94930D8DB79EB708960FB6F8949EBFD3
S11312F00FBE8DBF88818E3151F48981813951F4BB
S113130081E090E02A812A3039F080E005C080E055
S113131090E002C080E090E0DF91CF9108950E94B8
S11313205E09892BE1F08CEC95E00E94AE0D0E94E1
S1131330CC0B89EB95E00E94AE0D0E94570B8AE01E
S113134090E00E94A70D0E94F40B87EC95E00E94A8
S1131350AE0D0E94570B89ED95E00E94AE0D0E94E0
S1131360B40C08950E9453050E9454040E94680519
S113137081E00E94880584E00E947A0586E00E944C
S11313809A058FE097E20197F1F700C000000E94F0
S113139076050E9496059FEF24E38CE0915020404F
S11313A08040E1F700C000008AB18FEF8AB9389815
S11313B080930A0184B3887F84BB08955D9A5C9806
S11313C05B9880930B0182E48A95F1F700C0589AE8
S11313D082E48A95F1F700C0589882E48A95F1F77F
S11313E000C008955D985C9A80930B0182E48A950D
S11313F0F1F700C0589A82E48A95F1F700C0589832
S113140082E48A95F1F700C05B9A5D985C9A9093A8
S11314100B0182E48A95F1F700C0589A82E48A9518
S1131420F1F700C0589882E48A95F1F700C0089556
S11314305D985C985B9880930B0182E48A95F1F740
S113144000C0589A82E48A95F1F700C0589882E463
S11314508A95F1F700C008955D985C985B9A909323
S11314600B0182E48A95F1F700C0589A82E48A95C8
S1131470F1F700C0589882E48A95F1F700C0089506
S11314805A9822E42A95F1F700C05A9A82E48A9580
S1131490F1F700C09FEF29E688E191502040804099
S11314A0E1F700C0000008955D9A5C9810920B016A
S11314B082E48A95F1F700C0589A82E48A95F1F79C
S11314C000C0589882E48A95F1F700C008955898AE
S11314D08BB1837C8BB910920B011BB8E5E0F1E072
S11314E080818B7F808381E00E944D0487EC90E0B3
S11314F00197F1F700C000000E94720595E89A95E3
S1131500F1F700008BB186608BB987EE93E0019709
S1131510F1F700C00000089588E00E94DE095D989C
S11315205C985B9810920B0187EC90E00197F1F7BF
S113153000C00000589A92E49A95F1F700C05898B8
S113154087EC90E00197F1F700C0000010920A01C7
S1131550E5E0F1E080818460808359985B9887EEB0
S113156093E00197F1F700C0000080910901809396
S113157000061F928F9386E294E09F938F930E94BC
S1131580930D599AE5E0F1E080818B7F80838FEFA2
S113159080930A0187EC90E00197F1F700C0000006
S11315A05D985C985B9881E080930B0187EC90E0F8
S11315B00197F1F700C00000589A92E49A95F1F768
S11315C000C0589887EC90E00197F1F700C0000044
S11315D010920A0180818460808359985B9887EE19
S11315E093E00197F1F700C0000080910901809316
S11315F001061F928F9386E294E09F938F930E943B
S1131600930D599AE5E0F1E080818B7F80838FEF21
S113161080930A0187EC90E00197F1F700C0000085
S11316205D985C985B9882E080930B0187EC90E076
S11316300197F1F700C00000589A92E49A95F1F7E7
S113164000C0589887EC90E00197F1F700C00000C3
S113165010920A0180818460808359985B9887EE98
S113166093E00197F1F700C0000080910901809395
S113167002061F928F9386E294E09F938F930E94B9
S1131680930D599AE5E0F1E080818B7F80838FEFA1
S113169080930A0110920B018DB79EB70C960FB67A
S11316A0F8949EBF0FBE8DBF80E096E008959F9290
S11316B0AF92BF92CF92DF92EF92FF920F931F935C
S11316C0CF93DF93E12CF12C0F2EFAE0AF2EBB2445
S11316D0B394F02D05E011E00F2EF9E0CF2EDD24B8
S11316E0D394F02DC6E2D4E099249A9482E00E9427
S11316F0DE0980E090E00E942C0AC7010E94180ACB
S1131700F5011082F80180818460808359985B9888
S113171087EE93E00197F1F700C00000F6018081A5
S11317201F928F93DF93CF930E94930D5B9AE7EE02
S1131730F3E03197F1F700C00000F60180811F92B9
S11317408F93DF93CF930E94930D599AF801808170
S11317508B7F8083F5019082F2E4FA95F1F700C063
S11317608FEFE81AF80AEDB7FEB738960FB6F8947B
S1131770FEBF0FBEEDBFF0E1EF16F10409F0B6CFE6
S1131780DF91CF911F910F91FF90EF90DF90CF9059
S1131790BF90AF909F9008955D9A5C985B9880E8A5
S11317A080930B0122E42A95F1F700C0589A82E451
S11317B08A95F1F700C0589892E49A95F1F700C021
S11317C05A9822E42A95F1F700C05A9A82E48A953D
S11317D0F1F700C09FEF29E688E191502040804056
S11317E0E1F700C0000008952F923F924F925F925C
S11317F06F927F928F929F92AF92BF92CF92DF921D
S1131800EF92FF920F931F93CF93DF9300D000D0FA
S1131810CDB7DEB780E10E94DE09812C912C540102
S11318200F2EF1EE2F2EF5E03F2EF02D0E9416091B
S11318303C01DC0114968C911497813009F46CC03E
S113184011964C901197512C12968C91129790E00E
S1131850982F882713962C912695FC01E22BFA8366
S1131860E9834114510409F445C06301F5E0CF0E46
S1131870D11C09811A81E12CF12C1B821C82C80124
S11318800E94180A1F930F933F922F920E94930D68
S1131890F301EE0DFF1DE680F12CFE2CEE24D601A3
S11318A08C91E82AC7010E94F209FF92EF92A2EFFD
S11318B0B5E0BF93AF930E94930D2B813C81C90186
S11318C0AA2797FDA095BA2F880E991EAA1EBB1EA3
S11318D02E5F3F4F3C832B8379010F5F1F4F32E014
S11318E0C30ED11C0FB6F894DEBF0FBECDBFE414F7
S11318F0F50428F2D501C4018F719927AA27BB27C3
S1131900892B8A2B8B2B09F091CF89819A810E9494
S11319102C0A0E94400A8ACF5FE185229924AA24D6
S1131920BB2489288A288B2831F089819A810E94D6
S11319302C0A0E94400A0E94540A0F900F900F90A4
S11319400F90DF91CF911F910F91FF90EF90DF9057
S1131950CF90BF90AF909F908F907F906F905F904B
S11319604F903F902F9008950E9474050E9478052F
S11319700E9498058FE097E20197F1F700C00000FC
S113198010920B011BB88FEC97E00197F1F700C0A0
S1131990000080E00E944D04E5E0F1E080818F7D4D
S11319A0808395E39A95F1F70000808180628083BB
S11319B02DE02A95F1F700002F9A85E38A95F1F737
S11319C000002F98808188608083A09A9FEF29E689
S11319D088E1915020408040E1F700C0000084B3CA
S11319E0887F84BB08950E9491000E940A090E9486
S11319F096000E94B2098AE00E94670A0E948C0A3B
S1131A00EC018A811F928F9389811F928F93888121
S1131A101F928F9387E995E09F938F930E94930D74
S1131A208DB79EB708960FB6F8949EBF0FBE8DBFB4
S1131A3088818E3111F589818139F9F48A818A305E
S1131A40E1F48CEC95E00E94AE0D0E94CC0B89EB86
S1131A5095E00E94AE0D0E94570B8AE090E00E9430
S1131A60A70D0E94F40B87EC95E00E94AE0D0E9436
S1131A70570B89ED95E00E94AE0D0E94B40CFFCF88
S1131A80A29FB001B39FC001A39F700D811D1124BB
S1131A90911DB29F700D811D1124911D0895FB01AC
S1131AA0DC010D900020E9F7119701900D920020C0
S1131AB0E1F70895FB01DC0101900D920020E1F7AC
S1131AC008950F931F93CF93DF93182F092FEB01E2
S1131AD08B8181FD03C08FEF9FEF20C082FF10C078
S1131AE04E815F812C813D81421753077CF4E8814C
S1131AF0F9819F012F5F3F4F39832883108306C0EC
S1131B00E885F985812F0995892B29F72E813F8155
S1131B102F5F3F4F3F832E83812F902FDF91CF91F3
S1131B201F910F910895A0E0B0E0E9E9FDE00C9465
S1131B303110FE01359661917191AF018091C0071A
S1131B409091C1070E94DB0DE2E00C944D1060916E
S1131B50C0077091C1070E94610D08950F931F93F0
S1131B60CF93DF93E091C007F091C107238121FF58
S1131B701BC0EC0100E010E089916091C0077091F6
S1131B80C107DB011896ED91FC911997882331F078
S1131B900995892B89F30FEF1FEFEECF8AE00995A2
S1131BA0892B11F4C80102C08FEF9FEFDF91CF9111
S1131BB01F910F910895ACE0B0E0E1EEFDE00C94CC
S1131BC021107C016B018A01FC011782168283813A
S1131BD081FFBDC1CE0101964C01F7019381F6014D
S1131BE093FD859193FF81916F01882309F4ABC123
S1131BF0853239F493FD859193FF81916F0185328C
S1131C0029F4B70190E00E94610DE7CF512C312CEB
S1131C1020E02032A0F48B3269F030F4803259F0A5
S1131C20833269F420612CC08D3239F0803339F469
S1131C30216026C02260246023C0286021C027FDC3
S1131C4027C030ED380F3A3078F426FF06C0FAE0AA
S1131C505F9E300D1124532E13C08AE0389E300D40
S1131C601124332E20620CC08E3221F426FD6BC168
S1131C70206406C08C3611F4206802C0883641F412
S1131C80F60193FD859193FF81916F018111C1CF7D
S1131C90982F9F7D9554933028F40C5F1F4FFFE3DA
S1131CA0F9830DC0833631F0833771F0833509F041
S1131CB05BC022C0F801808189830E5F1F4F4424DA
S1131CC04394512C540115C03801F2E06F0E711C7D
S1131CD0F801A080B18026FF03C0652D70E002C02A
S1131CE06FEF7FEFC5012C870E94B80F2C01830191
S1131CF02C852F77222E17C03801F2E06F0E711C4D
S1131D00F801A080B18026FF03C0652D70E002C0F9
S1131D106FEF7FEFC5012C870E94AD0F2C012C853E
S1131D202068222E830123FC1BC0832D90E04816DB
S1131D305906B0F4B70180E290E00E94610D3A9434
S1131D40F4CFF50127FC859127FE81915F01B7014E
S1131D5090E00E94610D31103A94F1E04F1A51085D
S1131D604114510471F7E5C0843611F0893639F510
S1131D70F80127FF07C060817181828193810C5F24
S1131D801F4F08C060817181882777FD8095982F47
S1131D900E5F1F4F2F76B22E97FF09C09095809546
S1131DA0709561957F4F8F4F9F4F2068B22E2AE028
S1131DB030E0A4010E94C30FA82EA81844C08537A0
S1131DC029F42F7EB22E2AE030E025C0F22FF97FCD
S1131DD0BF2E8F36C1F018F4883579F0B4C080373F
S1131DE019F0883721F0AFC02F2F2061B22EB4FE36
S1131DF00DC08B2D8460B82E09C024FF0AC09F2F0C
S1131E009660B92E06C028E030E005C020E130E03D
S1131E1002C020E132E0F801B7FE07C060817181A1
S1131E20828193810C5F1F4F06C06081718180E0C5
S1131E3090E00E5F1F4FA4010E94C30FA82EA818A4
S1131E40FB2DFF77BF2EB6FE0BC02B2D2E7FA514C6
S1131E5050F4B4FE0AC0B2FC08C02B2D2E7E05C07F
S1131E607A2C2B2D03C07A2C01C0752C24FF0DC0B5
S1131E70FE01EA0DF11D8081803311F4297E09C031
S1131E8022FF06C07394739404C0822F867809F0ED
S1131E90739423FD13C020FF06C05A2C731418F446
S1131EA0530C5718732C731468F4B70180E290E054
S1131EB02C870E94610D73942C85F5CF731410F454
S1131EC0371801C0312C24FF12C0B70180E390E021
S1131ED02C870E94610D2C8522FF17C021FF03C0AF
S1131EE088E590E002C088E790E0B7010CC0822F3B
S1131EF0867859F021FD02C080E201C08BE227FD03
S1131F008DE2B70190E00E94610DA51438F4B70189
S1131F1080E390E00E94610D5A94F7CFAA94F401F3
S1131F20EA0DF11D8081B70190E00E94610DA110BE
S1131F30F5CF332009F451CEB70180E290E00E943E
S1131F40610D3A94F6CFF7018681978102C08FEF35
S1131F509FEF2C96E2E10C943D10FC01059061503A
S1131F6070400110D8F7809590958E0F9F1F0895AB
S1131F70FC016150704001900110D8F78095909554
S1131F808E0F9F1F0895FA01AA27283051F120319E
S1131F9081F1E8946F936E7F6E5F7F4F8F4F9F4FF9
S1131FA0AF4FB1E03ED0B4E03CD0670F781F891F3B
S1131FB09A1FA11D680F791F8A1F911DA11D6A0F09
S1131FC0711D811D911DA11D20D009F468943F91BC
S1131FD02AE0269F11243019305D3193DEF6CF01BB
S1131FE00895462F4770405D4193B3E00FD0C9F781
S1131FF0F6CF462F4F70405D4A3318F0495D31FDEE
S11320004052419302D0A9F7EACFB4E0A695979540
S1132010879577956795BA95C9F700976105710516
S113202008959B01AC010A2E069457954795379560
S11320302795BA95C9F7620F731F841F951FA01DBA
S113204008952F923F924F925F926F927F928F9258
S11320509F92AF92BF92CF92DF92EF92FF920F9333
S11320601F93CF93DF93CDB7DEB7CA1BDB0B0FB63D
S1132070F894DEBF0FBECDBF09942A8839884888FA
S11320805F846E847D848C849B84AA84B984C88490
S1132090DF80EE80FD800C811B81AA81B981CE0F87
S11320A0D11D0FB6F894DEBF0FBECDBFED0108956C
S10720B0F894FFCFCE
S11320B40050005068832450000000030000000016
S11320C46404760400004745542000687474703A2C
S11320D42F2F7777772E77692D70726F2E75730093
S11320E42F646174612F636C656172666C616773DC
S11320F43F00776970726F69643D3130303030303D
S11321043030303000687474705F67657420005434
S113211472616E204C656E6774683A2025640A0007
S11321242F646174612F7570646174657373696479
S1132134733F0026737369643D0066696C6570615E
S113214474683A2025730053656E7421002F7570EA
S11321546C6F6164732F6865782F313030303030A0
S1132164303030302F64656661756C742E68657820
S113217400436F6D707265737320466C61672053FE
S1132184657421002F75706C6F6164732F686578B2
S11321942F313030303030303030302F666C61675E
S11321A466696C652E7478740052616D205072698E
S11321B46E743A2000466C616720537461747573BD
S11321C40020485454502F312E31200A486F737420
S11321D43A207777772E77692D70726F2E75732076
S11321E40A0A0053656E743A2025730A0053504951
S11321F4205352205374617475733A2025640A0081
S1132204547279696E6720746F2045737461626CCB
S113221469736820436F6E6E656374696F6E2E2EE6
S11322242E0054696D656F75742C20646973636F33
S11322346E6E656374696E672100436F6E6E6563C9
S113224474696F6E20537563636565646564210AFC
S113225400436F756C64206E6F7420636F6E6E65DB
S113226463742E2045786974696E672E2E2E0A00D5
S113227453523A203078253032780A005458205387
S1132284697A653A2025640053656E64696E672E25
S11322942E2E0A0045746865726E65742052656357
S11322A46569766520446174612054696D656F7550
S11322B47421005374617473205265673A20307832
S11322C42530327800416464726573733A2030783F
S11322D4253036780A0030782530325820000A53E5
S11322E4697A653A2025640A0073797374656D2EDE
S11322F47072696E745F6C6576656C003100737915
S11323047374656D2E636D642E6865616465725FB4
S1132314656E61626C65640073797374656D2E63B4
S11323246D642E70726F6D70745F656E61626C653E
S113233464006F66660073797374656D2E636D64EF
S11323442E6563686F006F6E007363616E00776C53
S1132354616E2E7373696400776C616E2E706173A1
S1132364736B6579007463705F636C69656E740084
S113237420485454502F312E310A686F73743A2014
S11323847777772E77692D70726F2E75730A0A002A
S113239452414D20416464726573733A2025640A82
S11323A400302031303030300073747265616D5FF9
S11323B4726561640073747265616D5F636C6F73DD
S11323C46520616C6C0056616C75653A2030782523
S11323D43032782C20416464726573733A2025701A
S11323E40A007365742000436F6D6D616E643A2056
S11323F42573204C656E6774683A2025642C20414B
S11324046464726573733A2025700A0046726565C4
S113241464210052657475726E696E67210054728A
S1132424616E736D697373696F6E204C656E677446
S1132434683A2025640A00446F6E6520526563651A
S11324446976696E6721000A5369676E61747572EF
S1132454652042797465733A20253032582025303A
S1132464325820253032580A00446F6E6520457274
S11324746173696E672100446F6E652050726F67E3
S113248472616D6D696E6721000A446F6E65210A7D
S113249400416464726573733A203078253034588B
S11324A40A00576F72643A203078253034580A0091
S9030000FC
