S00D0000776970726F2E73726563E6
S113000071C000008EC000008CC000008AC00000D7
S113001088C0000086C0000053C2000082C00000F7
S113002080C000007EC000007CC000007AC00000D8
S113003078C0000076C0000074C0000072C00000E8
S113004070C000006EC000006CC000006AC00000F8
S1130050FCC1000066C0000064C0000062C0000073
S113006060C000000C94770A5CC000005AC0000015
S113007058C0000056C0000054C0000052C0000028
S113008050C000004EC000004CC000004AC0000038
S113009048C0000046C0000044C0000042C0000048
S11300A040C000003EC000003CC000003AC0000058
S11300B038C0000036C0000034C0000032C0000068
S11300C030C000002EC000002CC000002AC0000078
S11300D028C0000026C0000024C0000022C0000088
S11300E020C0000011241FBECFEFD1E2DEBFCDBF80
S11300F019E0A0E0B2E0E2E0F9E200E00BBF02C0E8
S113010007900D92AA30B107D9F72AE0AAE0B9E026
S113011001C01D92A13FB207E1F70E944E110C9459
S11301207F146ECF10927509109276091092770998
S1130130109278091092790910927A09659908C089
S113014085E392E00E94F011F4D181E08093750977
S11301500895E1E8F0E08081846080831092840057
S11301601092850081E080936F00089580E28DBB3A
S113017084E080936A000895F6D50E94F6084BD671
S1130180D1DFF4DF84E6EDE0F9E0DF011D928A952A
S1130190E9F781E0809376090895CF93DF93809106
S11301A075098823B9F1CDE0D9E084E6DE011D921A
S11301B08A95E9F785E0E7E4F2E0DE0101900D922B
S11301C08A95E1F7DE010D900020E9F7119785E1AA
S11301D0ECE4F2E001900D928A95E1F7DE010D90D6
S11301E00020E9F7119782E1E1E6F2E001900D9237
S11301F08A95E1F709900020E9F7DE01119783E180
S1130200E3E7F2E001900D928A95E1F78DE099E041
S1130210A5D135C080917609882389F1CDE0D9E054
S11302208AE0E6E8F2E0DE0101900D928A95E1F7BA
S1130230DE010D900020E9F7119785E1ECE4F2E08E
S113024001900D928A95E1F7DE010D900020E9F707
S1130250119782E1E1E6F2E001900D928A95E1F7CF
S113026009900020E9F7DE01119783E1E3E7F2E06A
S113027001900D928A95E1F78DE099E0A0D784E68C
S1130280EDE0F9E0DF011D928A95E9F781E090E065
S1130290DF91CF9108950F931F93CF93DF938091B4
S11302A07609882309F447C0CDE0D9E085E1ECE480
S11302B0F2E0DE0101900D928A95E1F7DE010D90E6
S11302C00020E9F7119784E2EEECF2E001900D9240
S11302D08A95E1F701E010E020E030E0A90161E057
S11302E070E0CE01ECD60E94CE0C84E6FE011192A1
S11302F08A95E9F785E1ECE4F2E0DE0101900D92E4
S11303008A95E1F709900020E9F7DE01119787E269
S1130310E2EFF2E001900D928A95E1F725E030E3F7
S113032040E050E061E070E08DE099E0C8D689E1FA
S113033093E00E94F01181E090E0DF91CF911F9152
S11303400F9108950F931F93EFE6F0E080818E7F65
S11303508083809176098823C9F185E1ECE4F2E099
S1130360ADE0B9E001900D928A95E1F7ADE0B9E016
S11303700D900020E9F7119785E2E5E2F3E00190A2
S11303800D928A95E1F700E010E020E030E340E0D0
S113039050E061E070E08DE099E091D660E070E3B8
S11303A080E090E048D58F708093770961E070E336
S11303B080E090E040D58F708093780962E070E32C
S11303C080E090E038D58F708093790984E6EDE081
S11303D0F9E0DF011D928A95E9F780917709813070
S11303E049F58AE493E00E94F011A19A54DF0E9437
S11303F0630C892BD9F365E070E380E090E01BD5B2
S11304008F7080937A09823019F0833041F00EC0E6
S11304106AE071E98EE190E00E94FF0B0BC061E19C
S113042075E98EE190E00E94FF0B04C083E593E040
S11304300E94F011B2DEEFE6F0E0808181608083FB
S113044081E090E01F910F9108951F920F920FB6D3
S11304500F9211240BB60F922F933F934F935F93F8
S11304606F937F938F939F93AF93BF93CF93DF93B8
S1130470EF93FF93CFE6D0E088818E7F888389E66F
S113048093E00E94F0115EDF1092840010928500C8
S1130490888181608883FF91EF91DF91CF91BF9133
S11304A0AF919F918F917F916F915F914F913F9108
S11304B02F910F900BBE0F900FBE0F901F901895A9
S11304C01F920F920FB60F9211240BB60F922F9317
S11304D03F934F935F936F937F938F939F93AF93C8
S11304E0BF93EF93FF93F894659B07C0109275092F
S11304F085E793E00E94F01108C081E080937509BC
S113050018D082E893E00E94F0117894FF91EF9163
S1130510BF91AF919F918F917F916F915F914F9117
S11305203F912F910F900BBE0F900FBE0F901F9015
S1130530189528E032E04CE052E060E172E084E19A
S113054092E06AD020E032E042E052E064E072E0FF
S113055081E0F5D1892BB1F391C20895CF93DF9354
S1130560BC018BE799E00E94A111CBE7D9E0DE0141
S11305700D900020E9F7119782E2E0E9F3E00190A1
S11305800D928A95E1F7DF93CF9385EC92E09F93E8
S11305908F930E94DA11FE0101900020E9F7319750
S11305A0BF016B57794040E050E0CE018BD284E626
S11305B0FE0111928A95E9F70F900F900F900F901A
S11305C0DF91CF910895749820EF2EBD0DB407FEEE
S11305D0FDCF9EBD0DB407FEFDCF8EBD0DB407FE4D
S11305E0FDCF6EBD0DB407FEFDCF749A08957498C7
S11305F02FE02EBD0DB407FEFDCF9EBD0DB407FE4A
S1130600FDCF8EBD0DB407FEFDCF1EBC0DB407FE9D
S1130610FDCF749A8EB50895BF92CF92DF92EF9278
S1130620FF920F931F93CF93DF93EC017B016A0139
S113063089016C9A87E084B9749A80E58CBD8CEB4F
S113064093E00E94F0118EEC93E00E94F01160E8B8
S113065080E090E0B8DF8FEC97E00197F1F700C0FD
S1130660000080E090E0C3DF1F928F9387EE93E059
S11306709F938F930E94DA11F80183811F928F93C5
S113068082811F928F9381811F928F9380811F9209
S11306908F9388EF93E09F938F930E94DA11F80170
S11306A0608181E090E08FDFF801618182E090E079
S11306B08ADFF801628183E090E085DFF8016381DD
S11306C084E090E080DF8FEC97E00197F1F700C0C1
S11306D0000084E090E08BDFB82E83E090E087DFB9
S11306E0082F82E090E083DF182F81E090E07FDF25
S11306F01F92BF921F920F931F921F931F928F936B
S11307008DE194E09F938F930E94DA118D811F9263
S11307108F938C811F928F938B811F928F938A81E9
S11307201F928F9389811F928F9388811F928F9339
S113073088E394E09F938F930E94DA11EDB7FEB79C
S1130740B6960FB6F894FEBF0FBEEDBF688189E080
S113075090E039DF69818AE090E035DF6A818BE0DF
S113076090E031DF6B818CE090E02DDF6C818DE0D7
S113077090E029DF6D818EE090E025DF8FEC97E03B
S11307800197F1F700C000008EE090E030DFB82E52
S11307908DE090E02CDF082F8CE090E028DF182F0C
S11307A08BE090E024DFD82F8AE090E020DFC82F90
S11307B089E090E01CDF1F92BF921F920F931F925B
S11307C01F931F92DF931F92CF931F928F938EE6F6
S11307D094E09F938F930E94DA11F60183811F9214
S11307E08F9382811F928F9381811F928F93808137
S11307F01F928F938BE994E09F938F930E94DA1159
S1130800F601608185E090E0DEDEF601618186E03C
S113081090E0D9DEF601628187E090E0D4DEF60153
S1130820638188E090E0CFDE8FEC97E00197F1F7E9
S113083000C0000088E090E0DADE182F87E090E046
S1130840D6DED82F86E090E0D2DEC82F85E090E097
S1130850CEDE1F921F931F92DF931F92CF931F929E
S11308608F9381EC94E09F938F930E94DA11EDB7FC
S1130870FEB7B2960FB6F894FEBF0FBEEDBFF701F8
S113088083811F928F9382811F928F9381811F9204
S11308908F9380811F928F938DED94E09F938F931C
S11308A00E94DA11F70160818FE090E08CDEF7019D
S11308B0618180E190E087DEF701628181E190E06F
S11308C082DEF701638182E190E07DDE8FEC97E0C8
S11308D00197F1F700C0000082E190E088DE182F54
S11308E081E190E084DED82F80E190E080DEC82FA3
S11308F08FE090E07CDE1F921F931F92DF931F9284
S1130900CF931F928F938DEF94E09F938F930E94C8
S1130910DA1189E195E00E94F011EDB7FEB7749603
S11309200FB6F894FEBF0FBEEDBFDF91CF911F91BC
S11309300F91FF90EF90DF90CF90BF900895DF92DA
S1130940EF92FF920F931F93CF93DF93D82E8B01D7
S11309507A01E90160E181E094E035DE6D2D80E00B
S113096094E031DE688184E094E02DDE698185E0E5
S113097094E029DE61E081E094E025DE83E094E008
S113098036DE833139F7F80160818CE094E01BDEB8
S1130990F80161818DE094E016DEF80162818EE059
S11309A094E011DEF80163818FE094E00CDEF7013E
S11309B0608180E194E007DEF701618181E194E0E8
S11309C002DE64E081E094E0FEDDC0E0D0E000E11E
S11309D017E235C087E592E00197F1F700C0000007
S11309E021969E01329522952F7023273F7023274D
S11309F0A7E4B3E00E94871196958795969587950D
S1130A0096958795809F9001819F300D909F300D22
S1130A101124C217D30799F488E395E00E94F011DA
S1130A20C13593ECD90758F08AE595E00E94F0119E
S1130A3060E181E094E0C7DD80E090E017C083E0EE
S1130A4094E0D5DD873131F683E094E0D0DD873161
S1130A5039F482E795E00E94F01181E090E006C04D
S1130A6089E895E00E94F01180E090E0DF91CF9159
S1130A701F910F91FF90EF90DF90089563E08AE15A
S1130A8090E0A1DD63E08BE190E09DDD8FEF9FE1DD
S1130A909093120A8093110A20E030E43093140AF0
S1130AA02093130A9093180A8093170A80E090E623
S1130AB09093160A8093150A0895682F81E094E0B4
S1130AC082CD08954F925F926F927F928F929F9200
S1130AD0AF92BF92CF92DF92EF92FF920F931F9348
S1130AE0CF93DF937C016B013A0183E094E07FDDD7
S1130AF01F928F9388EA95E09F938F930E94DA1157
S1130B0083E094E074DD0F900F900F900F90873185
S1130B1051F02AE132E04CE152E06EE172E081E012
S1130B200EDF892BB1F380E294E061DDC82FD0E0C1
S1130B30DC2FCC2781E294E05ADDC80FD11DCC15FF
S1130B40DD0508F48FC02CC08FEC97E00197F1F716
S1130B5000C0000080E294E04ADDC82FD0E0DC2F22
S1130B60CC2781E294E043DDC80FD11DDF93CF93FE
S1130B709F928F920E94DA11015011090F900F90E9
S1130B800F900F900115110541F488E096DF81E084
S1130B9094E02DDD8111FBCF5FC0CC15DD05A0F203
S1130BA084E294E024DD482E85E294E020DD512C9B
S1130BB0542C4424480E511C82E294E018DD83E254
S1130BC094E015DD80EC95E00E94F011C114D1048D
S1130BD061F147018C0C9D1C8201C0E0D4E0A0901F
S1130BE0110AB090120AA022B1228091130A9091A6
S1130BF0140AA80EB91E6114710441F0BE0180E00C
S1130C0090E019D1682FC501DEDC04C0F7016081D2
S1130C10C501D9DC0F5F1F4FFFEFEF1AFF0A2196C2
S1130C20E814F904E1F64C0C5D1C60E0C501019682
S1130C30CADC84E294E0DBDC6FEF84E294E0C3DCA2
S1130C40642D85E294E0BFDC80E237DF81E094E04C
S1130C50CEDC8111FBCF03C080E090E02AC081E0AC
S1130C6090E027C08FEC97E00197F1F700C00000F7
S1130C7080E294E0BCDCC82FD0E0DC2FCC2781E2FA
S1130C8094E0B5DCC80FD11DDF93CF9384EB95E0DE
S1130C909F938F930E94DA110F900F900F900F90F3
S1130CA009EE13E00F2EF4EB8F2EF5E09F2EF02DBE
S1130CB074CFDF91CF911F910F91FF90EF90DF9050
S1130CC0CF90BF90AF909F908F907F906F905F90E8
S1130CD04F900895A4988EBD0DB407FEFDCFA49A3D
S1130CE008959C9AA49AE4E0F1E080818460808372
S1130CF0E5E0F1E080818B7F808380E0EBCF089595
S1130D006A3021E972072EE18207910531F06131E1
S1130D1075498E41910521F0089581E0DBCF089556
S1130D2082E0D8CF0895CF93C82F8A3011F48DE094
S1130D30FADFE0EDF0E0908195FFFDCFC093D6009F
S1130D4080E090E0CF910895CF93BC01E0EDF0E016
S1130D5080818823ECF7C091D6008C2FE4DF8C2FA0
S1130D6090E0CF9108951092D50087E08093D4004D
S1130D7088E18093D10086E08093D20082E292E001
S1130D809093EC0A8093EB0A9093EE0A8093ED0A19
S1130D900895262F972F482F82E08EBD0DB407FEAD
S1130DA0FDCF4EBD0DB407FEFDCF892F8EBD0DB412
S1130DB007FEFDCF2EBD0DB407FEFDCF08958EBDF9
S1130DC00DB407FEFDCF0895262F972F482F83E0FB
S1130DD08EBD0DB407FEFDCF4EBD0DB407FEFDCF95
S1130DE0892F8EBD0DB407FEFDCF2EBD0DB407FEB9
S1130DF0FDCF08951EBC0DB407FEFDCF8EB508953A
S1130E00CF93C82FA398CB01BA01C3DF8C2FD7DFB0
S1130E10A39ACF91089584B1876884B92F9A9B9A35
S1130E20A39A80E58CBD81E08DBD40E050E0BA011D
S1130E3082E3E6CF0895A398C7DFDCDFA39A089581
S1130E40E4E0F1E0808188638083E5E0F1E0808183
S1130E50806280838081877E808308958EBD0DB4F7
S1130E6007FEFDCF0895DB0190E0FC01EE0FFF1FAC
S1130E70EE0FFF1FE80FF91FE75EF54F80E090E0EB
S1130E802D912193019685309105D1F70895AF9264
S1130E90BF92CF92DF92EF92FF920F931F93CF9363
S1130EA0DF930F2EFEE1EF2EFAE0FF2EF02D0F2E32
S1130EB0F7E3CF2EFAE0DF2EF02DA12CB12C0EC0DB
S1130EC0F80181918F01CADF2196C530D105C1F7A0
S1130ED0F5E0EF0EF11CEC14FD0421F08701CA2D9E
S1130EE0DB2DEECFE5E0F1E0808180618083F5E3E6
S1130EF0FA95F1F70000E5E0F1E080818F7E8083D0
S1130F00DF91CF911F910F91FF90EF90DF90CF90E1
S1130F10BF90AF900895CF93DF9300D000D01F927D
S1130F20CDB7DEB785E0E0E3F2E0DE011196019093
S1130F300D928A95E1F7BE016F5F7F4F81E093DFE9
S1130F4019821A8288E08B831C821D82BE016F5F26
S1130F507F4F82E088DF19821A821B821C821D82E5
S1130F60BE016F5F7F4F83E07EDF198280E28A8358
S1130F701B821C821D82BE016F5F7F4F84E073DF82
S1130F8019821A821B8284E08C831D82BE016F5FEA
S1130F907F4F85E068DF7BDF0F900F900F900F90FD
S1130FA00F90DF91CF910895CF93DF9300D000D0BD
S1130FB01F92CDB7DEB785E0E0E3F2E0DE011196E3
S1130FC001900D928A95E1F7BE016F5F7F4F81E03A
S1130FD04ADF198280E48A831B8284E08C831D8229
S1130FE0BE016F5F7F4F82E03EDF19821A821B824F
S1130FF01C821D82BE016F5F7F4F83E034DF198244
S113100080E28A831B8282E08C831D82BE016F5F33
S11310107F4F84E028DF19821A821B8281E08C834F
S11310201D82BE016F5F7F4F85E01DDF30DF0F90B3
S11310300F900F900F900F90DF91CF9108958FEF45
S113104080BB11BA84B1806784B985B18F7885B9C2
S113105008952C9A08952C9808952D9A08952D9802
S1131060089541B321E030E0B90102C0660F771F53
S11310708A95E2F7CB01842B81BB81E0089541B3CB
S113108021E030E0B90102C0660F771F8A95E2F7CC
S1131090CB01842B81BB81E008952E9A08952E986C
S11310A0089541B321E030E0B90102C0660F771F13
S11310B08A95E2F7CB01842B81BB81E008952F92BE
S11310C03F924F925F926F927F928F929F92AF92D4
S11310D0BF92CF92DF92EF92FF920F931F93CF9321
S11310E0DF93EC016B0149015A01C4D080E090E028
S11310F078D0AE0166E872E08FEF80D1CCD0E12CDD
S1131100F12C0F2EF8ED2F2EF6E03F2EF02DC1140A
S1131110D104C9F0240135014E0C5F1C611C711C03
S1131120C301B20162D17F926F925F924F92A5EB9D
S1131130B6E0BF93AF930E94DA110F900F900F9017
S11311400F900F900F9080E090E04BD046EC56E06B
S11311506CEC76E08FEF52D19ED044D1EC01DF935A
S1131160CF933F922F920E94DA110F900F900F901D
S11311700F908981813341F030D10297E80EF91E36
S11311800115110509F0C3CF7ED041EB53E069E7A7
S113119076E08FEF33D1C701DF91CF911F910F918B
S11311A0FF90EF90DF90CF90BF90AF909F908F9083
S11311B07F906F905F904F903F902F900895CF93C2
S11311C0DF93EC0160D041EB53E0BE018FEF16D109
S11311D041EB53E069E776E08FEF10D1DF91CF91D7
S11311E008959093470A8093460A08951092C50083
S11311F087E08093C400E1ECF0E088E1808386E03E
S11312008093C2008081806880830895CF93DF93A8
S11312101092520A29E0E9E3FAE0DF011D922A95CF
S1131220E9F761157105A9F020E030E050E0E0EC49
S1131230F0E0A6ECB0E0408145FFFDCFEC01C20F29
S1131240D31F28812C935F5F252F30E026173707A3
S113125090F388EC92E00E94F01180E090E0DF913E
S1131260CF910895E0ECF0E080818823ECF7809141
S1131270C6000895E1ECF0E0808180688083789472
S113128081E090E00895E1ECF0E080818F77808345
S113129081E090E008958091520A811108C081E2B2
S11312A08A95F1F700008091520A8823C1F381E006
S11312B090E008950F931F93CF93DF938091440A96
S11312C09091450A892BF1F0C0E0D0E009EE16E0D8
S11312D0FE01E75CF54F8081FF93EF931F928F939C
S11312E01F930F930E94DA1121960F900F900F9085
S11312F00F900F900F90C930D10551F78AE090E01C
S11313000E94EB1110924B0A10924A0A20913F0A54
S113131080914A0A90914B0A2F70820F911D9093ED
S11313204B0A80934A0A80913E0A20914A0A3091DE
S11313304B0A8F7090E0AC01440F551F880F991F22
S1131340880F991F880F991F840F951F820F931F71
S113135090934B0A80934A0A20913D0A80914A0A4D
S113136090914B0A2F7034E6239F800D911D112418
S113137090934B0A80934A0A60913C0A80914A0AEE
S113138090914B0A6F7048EE53E0649F9001659F03
S1131390300D1124820F931F90934B0A80934A0AB5
S11313A060913B0A80914A0A90914B0A6F7040E128
S11313B057E2649F9001659F300D1124820F931FA3
S11313C090934B0A80934A0A80914A0A90914B0A5F
S11313D0DF91CF911F910F91089580914A0A9091C6
S11313E04B0A089589E39AE0089560934C0A709338
S11313F04D0A80934E0A90934F0A08950F931F93BA
S1131400CF93DF93EA01813031F0823071F08F3F66
S113141009F066C017C085E0EBE8F2E0A3E5BAE0A6
S113142001900D928A95E1F70DC0A3E5BAE00D9005
S11314300020E9F7119785E0E5E0F7E001900D92CF
S11314408A95E1F783E59AE071D783E0C13BD80739
S113145071F0E3E5FAE001900020E9F7319780E2CA
S113146090E091838083BE0183E59AE05FD7C3E572
S1131470DAE0FE0101900020E9F731978DE09AE06F
S1131480A0E080839183A283FE0101900020E9F70C
S113149031978F0103551A40DF93CF931F930F9316
S11314A0DF93CF938AE097E09F938F9383D7B8011C
S11314B0CE01ACDE84E6FE0111928A95E9F78FE253
S11314C097E08ED786E397E08BD78DB79EB70896C3
S11314D00FB6F8949EBF0FBE8DBF81E090E002C0AE
S11314E080E090E0DF91CF911F910F9108951F92BA
S11314F00F920FB60F9211240BB60F922F933F93B6
S11315004F935F936F937F938F939F93AF93BF9307
S1131510CF93DF93EF93FF93F8948091500A9091C7
S1131520510A892BE1F49EDE8093420A8091420A9B
S1131530823509F095C01092470A1092460AE0914C
S1131540460AF091470A8091420AE75CF54F80838E
S113155081E090E09093510A8093500A81C0809179
S1131560460A9091470A099748F4C091460AD091D7
S1131570470A78DEC75CD54F888372C08091460ADB
S11315809091470A099721F595DE90934B0A809331
S11315904A0A8091440A9091450A892B09F460C053
S11315A02091460A3091470A80914A0A90914B0A49
S11315B03F932F939F938F9381E497E09F938F930F
S11315C0F9D60F900F900F900F900F900F9048C086
S11315D020914A0A30914B0A8091460A9091470A19
S11315E0275F3F4F82179307D8F43CDE8093420A6B
S11315F02091460A3091470A40914C0A50914D0A75
S113160060914E0A70914F0A8091420A4A505109E2
S113161061097109420F531F611D711DF1DB20C067
S11316201092470A1092460A1092510A1092500AD8
S11316301092490A1092480A1092430A81E080935A
S1131640520A38DE9F938F9381E697E09F938F939E
S1131650B1D68AE797E0C4D60F900F900F900F9001
S11316608091460A9091470A01969093470A809385
S1131670460A7894FF91EF91DF91CF91BF91AF919A
S11316809F918F917F916F915F914F913F912F9196
S11316900F900BBE0F900FBE0F901F9018951092D5
S11316A0EA0A1092E90A82E3E7EBFAE0DF011D920D
S11316B08A95E9F708951092EA0A1092E90A0895C2
S11316C00F931F93CF93DF93C7EBDAE00CEB1AE091
S11316D06091E90A7091EA0A80E090E0ACDB8993BA
S11316E08091E90A9091EA0A01969093EA0A80931C
S11316F0E90AC017D10761F70091B80ACCEBDAE028
S113170010E00354154F6091E90A7091EA0A80E0F1
S113171090E091DB6091E90A7091EA0A80E090E040
S11317208ADB89938091E90A9091EA0A0196909361
S1131730EA0A8093E90AC017D10729F787EB9AE0F0
S1131740DF91CF911F910F910895CF92DF92EF9285
S1131750FF920F931F93CF93DF936B017C01B6D25B
S1131760EC018A811F928F9389811F928F938881C4
S11317701F928F938AE897E09F938F931BD60881DB
S113178010E020E030E04E2D50E060E070E08DB7D6
S11317909EB708960FB6F8949EBF0FBE8DBF041770
S11317A0150726073707E9F4098110E020E030E047
S11317B04D2D50E060E070E0041715072607370749
S11317C099F44A8150E060E070E0DD24EE24FF24C7
S11317D081E090E04C155D056E057F0539F080E0F1
S11317E005C080E090E002C080E090E0DF91CF91FE
S11317F01F910F91FF90EF90DF90CF900895CF92BB
S1131800DF92EF92FF92CF93DF936B017C0146D17D
S113181026D151DFC701B60117D2C701B60195DF42
S1131820EC01009709F436C08CEA97E0D9D582EC34
S113183097E0D6D500D48DEC97E0D2D58CED97E027
S1131840CFD5C701B60118D48BEE97E0C9D505D31F
S11318508AEF97E0C5D555D3EC01009749F087E0AE
S113186098E0BED5D5D4A198A09AC1E0D0E023C019
S11318708EE198E0B5D5CCD4A198A29A2FE78AE15D
S113188096E0215080409040E1F700C00000A2980B
S1131890A09A11C082E398E0A3D5BAD4A29A2FE704
S11318A08AE196E0215080409040E1F700C00000BA
S11318B0A198A298A09ACE01DF91CF91FF90EF90CA
S11318C0DF90CF9008957F928F929F92AF92BF92B4
S11318D0CF92DF92EF92FF920F931F93CF93DF93F8
S11318E0EADE812C99249394A12CBB24B3940F2E6B
S11318F0F4E6EF2EF8E0FF2EF02D02E818E0E0DE2B
S1131900EC018C81813049F486E498E069D583E563
S113191098E066D581E090E033C0C980D12CC6013F
S11319200496292D3A2D4B2D582DFE01E20FF31F5D
S11319302081520F4F5F242F30E082179307A8F7BE
S1131940752E71941F927F92FF92EF9233D585E0AA
S1131950C80ED11CCC0DDD1D88811F928F931F935F
S11319600F9328D58DB79EB708960FB6F8949EBFEF
S11319700FBE8DBF8881871509F4C1CF80E090E048
S1131980DF91CF911F910F91FF90EF90DF90CF9057
S1131990BF90AF909F908F907F900895AF92BF9229
S11319A0DF92EF92FF921F93CF93DF937C01FF921C
S11319B08F9385E992E09F938F93FCD40F900F90BF
S11319C00F900F90E114F10409F43EC0C0E0D0E0A0
S11319D0A12CB12CBE01882777FD8095982F2BDA96
S11319E0182F8A3349F4A50160E070E08AE308DA2D
S11319F08FEFA81AB80A24C08D3011F18A3001F192
S1131A002196BE01882777FD8095982F14DA1A3322
S1131A1018F099EC910F02C0912F9F70D92EDD0C14
S1131A20DD0CDD0CDD0C8A3310F0875301C08F70A0
S1131A30A50160E070E08D29E3D98FEFA81AB80AF8
S1131A402196CE15DF0530F281E090E0DF91CF9151
S1131A501F91FF90EF90DF90BF90AF90089541D910
S1131A60EEDA81E00CDB84E0FCDA86E01ADB8FE05E
S1131A7097E20197F1F700C00000EFDA0EDB8FE484
S1131A8093EC0197F1F700C000008AB18FEF8AB997
S1131A90389880930A01A098A19A0895D1D98FEF1C
S1131AA0DDD98FEFDBD98FEFD9D98FEFD7D98FEF6E
S1131AB0D5D980E0D3D980E0D1D980E0CFD980E0F6
S1131AC0CDD980E0CBD980E0C9D980E0C7D980E006
S1131AD0C5D980E0C3D980E0C1D980E0BFD980E016
S1131AE0BDD980E0BBD980E0B9D980E0B7D980E026
S1131AF0B5D980E0B3D980E0B1D980E0AFD980E036
S1131B00ADD9E5E0F1E080818061808385E38A9549
S1131B10F1F7000080818F7E808308955D9A5C9840
S1131B205B9880930B0182E48A95F1F700C0589A80
S1131B3082E48A95F1F700C0589882E48A95F1F717
S1131B4000C008955D985C9A80930B0182E48A95A5
S1131B50F1F700C0589A82E48A95F1F700C05898CA
S1131B6082E48A95F1F700C05B9A5D985C9A909341
S1131B700B0182E48A95F1F700C0589A82E48A95B1
S1131B80F1F700C0589882E48A95F1F700C00895EF
S1131B905D985C985B985F9880930B0182E48A95CA
S1131BA0F1F700C0589A82E48A95F1F700C058987A
S1131BB082E48A95F1F700C008955D985C985F9877
S1131BC05B9A90930B0182E48A95F1F700C0589ACE
S1131BD082E48A95F1F700C0589882E48A95F1F777
S1131BE000C008955B9A82E48A95F1F700C05E9A7A
S1131BF082E48A95F1F700C05E9882E48A95F1F751
S1131C0000C008955F985B985A9882E48A95F1F72A
S1131C1000C05A9A82E48A95F1F700C0309BFECF47
S1131C2008955D9A5C9810920B0182E48A95F1F70D
S1131C3000C0589A82E48A95F1F700C0589882E46B
S1131C408A95F1F700C00895CF92DF92EF92FF9248
S1131C506B017C0158988BB1817C8BB910920B017C
S1131C601BB8E5E0F1E080818B7F8083C701B6017A
S1131C7047D88AE0C81681E9D8068EE1E806F1045F
S1131C8049F091E1C91695E9D9069EE1E906F10406
S1131C9019F003C040D901C087D987EC90E00197BF
S1131CA0F1F700C00000D5D995E89A95F1F7000046
S1131CB08BB186608BB987EE93E00197F1F700C092
S1131CC00000FF90EF90DF90CF90089588E026DF2A
S1131CD05D985C985B9810920B0187EC90E00197FB
S1131CE0F1F700C00000589A92E49A95F1F700C009
S1131CF0589887EC90E00197F1F700C0000010922B
S1131D000A01E5E0F1E080818460808359985B9862
S1131D1087EE93E00197F1F700C00000809109017C
S1131D2080930A091F928F938BE998E09F938F9376
S1131D3041D3599AE5E0F1E080818B7F80838FEF76
S1131D4080930A0187EC90E00197F1F700C000004E
S1131D505D985C985B9881E080930B0187EC90E040
S1131D600197F1F700C00000589A92E49A95F1F7B0
S1131D7000C0589887EC90E00197F1F700C000008C
S1131D8010920A0180818460808359985B9887EE61
S1131D9093E00197F1F700C000008091090180935E
S1131DA00B091F928F938BE998E09F938F9302D333
S1131DB0599AE5E0F1E080818B7F80838FEF8093F7
S1131DC00A0187EC90E00197F1F700C000005D98EC
S1131DD05C985B9882E080930B0187EC90E001971C
S1131DE0F1F700C00000589A92E49A95F1F700C008
S1131DF0589887EC90E00197F1F700C0000010922A
S1131E000A0180818460808359985B9887EE93E00F
S1131E100197F1F700C000008091090180930C093B
S1131E201F928F938BE998E09F938F93C3D2599A13
S1131E30E5E0F1E080818B7F80838FEF80930A015E
S1131E4010920B018DB79EB70C960FB6F8949EBFF7
S1131E500FBE8DBF8AE099E00895BF92CF92DF92C2
S1131E60EF92FF920F931F93CF93DF9382E056DE9E
S1131E70C0E0D0E00F2EFAE0CF2EDD24D394F02D75
S1131E8005E011E00F2EF9E0EF2EFF24F394F02D7E
S1131E90BB24BA9480E090E090DECE0179DEF601B6
S1131EA01082F80180818460808359985B9887EE62
S1131EB093E00197F1F700C00000F70180815B9A7D
S1131EC087EE93E00197F1F700C00000F7018081ED
S1131ED0599AF80180818B7F8083F601B082F2E405
S1131EE0FA95F1F700C02196C031D10599F6DF913A
S1131EF0CF911F910F91FF90EF90DF90CF90BF9003
S1131F0008952F923F924F925F926F927F928F9299
S1131F109F92AF92BF92CF92DF92EF92FF920F9374
S1131F201F93CF93DF93C7DB82E0F8DD05E011E078
S1131F300F2EF9E0AF2EBB24B394F02DC1DB4C017E
S1131F40FC018481813009F45BC08181682E712C8D
S1131F502280312C322C22248381282A36942794FF
S1131F606114710459F36401F5E0CF0ED11C7101C1
S1131F70412C512C80E0C82F90E0D92FC1011DDEE7
S1131F80C70106DEEAE0F1E01082F8018081846096
S1131F90808359985B9887EE93E00197F1F700C02E
S1131FA00000F5018081F601908198132CC05B9AA2
S1131FB087EE93E00197F1F700C00000F5018081FE
S1131FC0F401E40DF51D9681981320C0599AF80187
S1131FD080818B7F80838FEFEAE0F1E0808392E45D
S1131FE09A95F1F700C022962E01EFEFEE1AFE0A41
S1131FF0F2E0CF0ED11CC615D70508F4BFCF9ECF93
S113200081E090E005C080E090E002C080E090E0D4
S1132010DF91CF911F910F91FF90EF90DF90CF90C0
S1132020BF90AF909F908F907F906F905F904F90F4
S11320303F902F9008955D9A5C985B9880E8809318
S11320400B0182E48A95F1F700C0589A82E48A95DC
S1132050F1F700C0589882E48A95F1F700C05A98C5
S113206082E48A95F1F700C05A9A82E48A95F1F7DE
S113207000C0309BFECF08952F923F924F925F9203
S11320806F927F928F929F92AF92BF92CF92DF9284
S1132090EF92FF920F931F93CF93DF93CDB7DEB7E9
S11320A028970FB6F894DEBF0FBECDBF6A3021E982
S11320B072072EE18207910541F483EA98E090D1FA
S11320C080E190E09E838D830CC0613175498E411F
S11320D0910539F483EB98E083D1E0E4F0E0FE83EA
S11320E0ED8380E11BDD412C512C3201AD81BE8199
S11320F0CD01A0E0B0E089839A83AB83BC83E0DAAE
S11321005C01FC018481813089F486E498E068D123
S11321108D819E819C0140E050E0C301B201D5D085
S1132120672B682B692B09F456C04FC08180912C12
S11321302280312C322C22248381282A369427941D
S11321408114910479F185010B5F1F4F7101C12C3A
S1132150D12C1F821886C7011BDDF501EC0DFD1D76
S1132160868190E0982F8827F8012081822BEADC71
S11321702F813885C901AA2797FDA095BA2F480E4B
S1132180591E6A1E7B1E2EDD8F81988502969887C4
S11321908F836C019FEFE91AF90A0E5F1F4FC81471
S11321A0D904C8F2C301B20129813A814B815C810F
S11321B08CD0672B682B692B09F0A1CF83EC98E0B6
S11321C00FD1C101FADC1EDD9ACF85ED98E008D16C
S11321D0C101F3DC17DD8AEE98E002D122DD2896F6
S11321E00FB6F894DEBF0FBECDBFDF91CF911F9124
S11321F00F91FF90EF90DF90CF90BF90AF909F90A2
S11322008F907F906F905F904F903F902F900895A4
S11322100E942B080E942F080E944F088FE097E22B
S11322200197F1F700C0000010920B011BB88FEC6E
S113223097E00197F1F700C0000080E00E946A0671
S1132240E5E0F1E080818F7D808395E39A95F1F755
S113225000008081806280832DE02A95F1F70000E0
S113226080818061808385E38A95F1F70000808115
S11322708F7E808380818860808384B3876084BB01
S11322809FEF29E688E1915020408040E1F700C0AB
S11322900000A09A84B3897F84BB08952FEF89E658
S11322A098E1215080409040E1F700C0000083B3E2
S11322B0876083BBA09A0E94BC00F1D978940E94E5
S11322C0A90083E099E08CD0FFCFA1E21A2EAA1BCB
S11322D0BB1BFD010DC0AA1FBB1FEE1FFF1FA217D2
S11322E0B307E407F50720F0A21BB30BE40BF50BCF
S11322F0661F771F881F991F1A9469F76095709558
S1132300809590959B01AC01BD01CF010895A29FDA
S1132310B001B39FC001A39F700D811D1124911DB5
S1132320B29F700D811D1124911D0895FB01DC01E4
S11323300D900020E9F7119701900D920020E1F72C
S11323400895FB01DC0101900D920020E1F708954E
S11323500F931F93CF93DF93182F092FEB018B81DA
S113236081FD03C08FEF9FEF20C082FF10C04E811C
S11323705F812C813D81421753077CF4E881F98108
S11323809F012F5F3F4F39832883108306C0E88560
S1132390F985812F0995892B29F72E813F812F5F9C
S11323A03F4F3F832E83812F902FDF91CF911F9139
S11323B00F910895CF93DF93CDB7DEB7FE01359625
S11323C061917191AF018091ED0A9091EE0A35D03F
S11323D0DF91CF9108956091ED0A7091EE0AB8CF24
S11323E00F931F93CF93DF93E091ED0AF091EE0AE0
S11323F0238121FF1BC0EC0100E010E08991609172
S1132400ED0A7091EE0ADB011896ED91FC91199793
S1132410882331F00995892B89F30FEF1FEFEECF55
S11324208AE00995892B11F4C80102C08FEF9FEF50
S1132430DF91CF911F910F9108952F923F924F9268
S11324405F926F927F928F929F92AF92BF92CF9240
S1132450DF92EF92FF920F931F93CF93DF93CDB749
S1132460DEB72C970FB6F894DEBF0FBECDBF7C014C
S11324706B018A01FC0117821682838181FFB0C13E
S1132480CE0101964C01F7019381F60193FD8591EC
S113249093FF81916F01882309F49EC1853239F439
S11324A093FD859193FF81916F01853221F4B701EA
S11324B090E04EDFE8CF512C312C20E02032A0F404
S11324C08B3269F030F4803259F0833269F4206140
S11324D02CC08D3239F0803339F4216026C022605B
S11324E0246023C0286021C027FD27C030ED380FA9
S11324F03A3078F426FF06C0FAE05F9E300D1124CE
S1132500532E13C08AE0389E300D1124332E2062DE
S11325100CC08E3221F426FD5FC1206406C08C36C7
S113252011F4206802C0883641F4F60193FD8591C8
S113253093FF81916F018111C1CF982F9F7D955495
S1132540933028F40C5F1F4FFFE3F9830DC08336EB
S113255031F0833771F0833509F057C021C0F80199
S1132560808189830E5F1F4F44244394512C54016E
S113257014C03801F2E06F0E711CF801A080B18024
S113258026FF03C0652D70E002C06FEF7FEFC50129
S11325902C874CD12C0183012C852F77222E16C039
S11325A03801F2E06F0E711CF801A080B18026FFA3
S11325B003C0652D70E002C06FEF7FEFC5012C876B
S11325C02AD12C012C852068222E830123FC19C0DA
S11325D0832D90E048165906A0F4B70180E290E0FC
S11325E0B7DE3A94F5CFF50127FC859127FE81915A
S11325F05F01B70190E0ACDE31103A94F1E04F1A7C
S113260051084114510479F7DEC0843611F089363B
S113261031F5F80127FF07C06081718182819381C0
S11326200C5F1F4F08C060817181882777FD8095FA
S1132630982F0E5F1F4F2F76B22E97FF09C09095EB
S11326408095709561957F4F8F4F9F4F2068B22E74
S11326502AE030E0A401F5D0A82EA81843C085379D
S113266029F42F7EB22E2AE030E025C0F22FF97F24
S1132670BF2E8F36C1F018F4883579F0ADC080379D
S113268019F0883721F0A8C02F2F2061B22EB4FE94
S11326900DC08B2D8460B82E09C024FF0AC09F2F63
S11326A09660B92E06C028E030E005C020E130E095
S11326B002C020E132E0F801B7FE07C060817181F9
S11326C0828193810C5F1F4F06C06081718180E01D
S11326D090E00E5F1F4FA401B4D0A82EA818FB2DC4
S11326E0FF77BF2EB6FE0BC02B2D2E7FA51450F402
S11326F0B4FE0AC0B2FC08C02B2D2E7E05C07A2C75
S11327002B2D03C07A2C01C0752C24FF0DC0FE01B3
S1132710EA0DF11D8081803311F4297E09C022FF66
S113272006C07394739404C0822F867809F073945E
S113273023FD12C020FF06C05A2C731418F4530C46
S11327405718732C731460F4B70180E290E02C875F
S1132750FFDD73942C85F6CF731410F4371801C081
S1132760312C24FF11C0B70180E390E02C87F0DD09
S11327702C8522FF16C021FF03C088E590E002C02B
S113278088E790E0B7010CC0822F867851F021FDD4
S113279002C080E201C08BE227FD8DE2B70190E028
S11327A0D7DDA51430F4B70180E390E0D1DD5A946D
S11327B0F8CFAA94F401EA0DF11D8081B70190E0ED
S11327C0C7DDA110F6CF332009F45DCEB70180E256
S11327D090E0BEDD3A94F7CFF7018681978102C07D
S11327E08FEF9FEF2C960FB6F894DEBF0FBECDBFD0
S11327F0DF91CF911F910F91FF90EF90DF90CF90D9
S1132800BF90AF909F908F907F906F905F904F900C
S11328103F902F900895FC01059061507040011085
S1132820D8F7809590958E0F9F1F0895FC016150F5
S1132830704001900110D8F7809590958E0F9F1FDE
S11328400895FA01AA27283051F1203181F1E89442
S11328506F936E7F6E5F7F4F8F4F9F4FAF4FB1E08F
S11328603ED0B4E03CD0670F781F891F9A1FA11D8A
S1132870680F791F8A1F911DA11D6A0F711D811D8B
S1132880911DA11D20D009F468943F912AE0269F50
S113289011243019305D3193DEF6CF010895462FAF
S11328A04770405D4193B3E00FD0C9F7F6CF462F90
S11328B04F70405D4A3318F0495D31FD40524193F9
S11328C002D0A9F7EACFB4E0A695979587957795B6
S11328D06795BA95C9F700976105710508959B013D
S11328E0AC010A2E06945795479537952795BA95C6
S11328F0C9F7620F731F841F951FA01D0895F894D4
S1052900FFCF03
S11329020050005068832450C0A80101FFFFFF005B
S1132912C0A8010550E549BF9140005000506883AA
S1132922245000000003000000009306A4060000E7
S1132932FFFFFFFFFF45746865726E657420456E84
S113294261626C65642100474554200068747470A8
S11329523A2F2F7777772E77692D70726F2E7573D2
S1132962002F646174612F636C656172666C6167C8
S1132972733F00776970726F69643D313030303073
S1132982303030303000687474705F6765742000D2
S11329925472616E204C656E6774683A2025640A2D
S11329A2002F646174612F75706461746573736957
S11329B264733F0026737369643D0066696C6570D5
S11329C26174683A2025730053656E7421002F7573
S11329D2706C6F6164732F6865782F3130303030DA
S11329E230303030302F64656661756C742E6865E2
S11329F278002F75706C6F6164732F6865782F315E
S1132A023030303030303030302F64657669636571
S1132A12696E666F2E74787400436F6D707265739D
S1132A2273656421002F75706C6F6164732F686520
S1132A32782F313030303030303030302F666C61A6
S1132A426766696C652E7478740050726F67726180
S1132A526D21004572726F722C206261642064657C
S1132A62766963652049442100466C61672053748A
S1132A726174757300526973696E67204564676592
S1132A82210046616C6C696E6720456467652100AC
S1132A9220485454502F312E31200A486F73743A0F
S1132AA2207777772E77692D70726F2E7573200ACF
S1132AB20A0053656E743A2025730A0057697A6EC8
S1132AC2657420573531303020496E697400456E83
S1132AD274657274696E672045746865726E657494
S1132AE22053657475700052656164696E67204D88
S1132AF2523A2025640A0A0053657474696E672089
S1132B0247617465776179204164647265737320E7
S1132B1225642E25642E25642E25640A00526561DF
S1132B2264696E67204741523A2025642E25642E3B
S1132B3225642E25640A0A0053657474696E67203D
S1132B42536F7572636520416464726573732025E3
S1132B522E32783A252E32783A252E32783A252E9C
S1132B6232783A252E32783A252E32780A00526586
S1132B726164696E67205341523A20252E32783AB5
S1132B82252E32783A252E32783A252E32783A2575
S1132B922E32783A252E32780A0A00536574746903
S1132BA26E6720537562204D61736B2041646472B9
S1132BB26573732025642E25642E25642E25640AEC
S1132BC20052656164696E6720535542523A20256A
S1132BD2642E25642E25642E25640A0A0053657426
S1132BE274696E672049502041646472657373206E
S1132BF225642E25642E25642E25640A00526561FF
S1132C0264696E6720534950523A2025642E256424
S1132C122E25642E25640A0A00446F6E65205769C6
S1132C227A6E657420573531303020496E69746983
S1132C32616C697A65642100547279696E672074E3
S1132C426F2045737461626C69736820436F6E6EA2
S1132C52656374696F6E2E2E2E0054696D656F75EF
S1132C62742C20646973636F6E6E656374696E6736
S1132C722100436F6E6E656374696F6E20537563D2
S1132C82636565646564210A00436F756C64206E34
S1132C926F7420636F6E6E6563742E204578697459
S1132CA2696E672E2E2E0A0053523A203078253050
S1132CB232780A0054582053697A653A2025640010
S1132CC253656E64696E672E2E2E0A00457468651C
S1132CD2726E657420526563656976652044617419
S1132CE2612054696D656F75742100537461747346
S1132CF2205265673A203078253032780073797330
S1132D0274656D2E7072696E745F6C6576656C00A5
S1132D12310073797374656D2E636D642E68656119
S1132D226465725F656E61626C6564007379737465
S1132D32656D2E636D642E70726F6D70745F656E57
S1132D4261626C6564006F66660073797374656DA5
S1132D522E636D642E6563686F006F6E007363612A
S1132D626E00776C616E2E7373696400776C616EAA
S1132D722E706173736B65790073747265616D5F34
S1132D82636C6F736520616C6C007463705F636C59
S1132D9269656E740020485454502F312E310A68EC
S1132DA26F73743A207777772E77692D70726F2E4E
S1132DB275730A0A0052414D20416464726573734B
S1132DC23A2025640A00302035303000737472656D
S1132DD2616D5F72656164005472616E204C656E50
S1132DE26774683A2025730A0056616C75653A2047
S1132DF23078253032782C20416464726573733ADA
S1132E022025700A007365742000436F6D6D616E36
S1132E12643A202573204C656E6774683A202564F1
S1132E222C20416464726573733A2025700A00464B
S1132E3272656564210052657475726E696E6721EC
S1132E42005472616E736D697373696F6E204C65A1
S1132E526E6774683A2025642C20693A2025640A36
S1132E62005472616E736D697373696F6E204C6581
S1132E726E6774683A2025640A00446F6E652052B6
S1132E826563656976696E6721000A5369676E61D5
S1132E92747572652042797465733A20253032580C
S1132EA2202530325820253032580A00537461727A
S1132EB274696E672050726F6772616D6D696E67B7
S1132EC2210045726173696E672E2E2E000A446FCB
S1132ED26E652045726173696E67210050726F6777
S1132EE272616D6D696E672E2E2E000A52656164E1
S1132EF2696E6720466C617368005665726966790B
S1132F02696E672E2E2E0050726F6772616D6D6945
S1132F126E6720537563636565646564210050724E
S1132F226F6772616D6D696E67204661696C656475
S1132F322100426164205369676E61747572652071
S1132F42427974652100456E64206F662046696C7F
S1132F52652100436865636B73756D2050617373FB
S1132F62656421000A43616C63756C617465642055
S1132F72436865636B73756D3A2030782530327817
S1132F820A0041637475616C20436865636B7375F1
S1132F926D3A203078253032780A00307825303284
S1132FA2582000506167652073697A65206973202F
S1132FB2313600506167652073697A652069732030
S1132FC236340046756C6C2050616765205772690F
S1132FD27474656E005061727469616C205061672B
S1132FE265205772697474656E00456E64696E6714
S1132FF220506167652050726F6772616D6D696EF2
S10D3002672100446F6E6521000091
S9030000FC
