S00D0000776970726F2E73726563E6
S11300000C9472000C948F000C948F000C948F004D
S11300100C948F000C948F000C948F000C948F0020
S11300200C948F000C948F000C948F000C948F0010
S11300300C948F000C948F000C948F000C948F0000
S11300400C948F000C948F000C948F000C948F00F0
S11300500C94CB010C948F000C948F000C948F00A3
S11300600C948F000C949D070C948F000C948F00BB
S11300700C948F000C948F000C948F000C948F00C0
S11300800C948F000C948F000C948F000C948F00B0
S11300900C948F000C948F000C948F000C948F00A0
S11300A00C948F000C948F000C948F000C948F0090
S11300B00C948F000C948F000C948F000C948F0080
S11300C00C948F000C948F000C948F000C948F0070
S11300D00C948F000C948F000C948F000C948F0060
S11300E00C948F0011241FBECFEFD1E2DEBFCDBF31
S11300F015E0A0E0B2E0EAECF8E102C005900D9250
S1130100AA3BB107D9F727E0AAEBB5E001C01D92DD
S1130110AB37B207E1F70E9428090C94630C0C94E6
S113012000000E9465040E9401060E941E050895B5
S1130130CF93DF9380911E06882389F161E070E0FC
S11301408AEB95E00E946509CAEBD5E0DE010D90CB
S11301500020E9F7119785E1E6E1F2E001900D92C4
S11301608A95E1F7DE010D900020E9F7119782E10D
S1130170EBE2F2E001900D928A95E1F709900020FC
S1130180E9F7DE01119783E1EDE3F2E001900D92CE
S11301908A95E1F78AEB95E00E94F90136C08091D7
S11301A01F06882391F1CAEBD5E08AE0E0E5F2E08E
S11301B0DE0101900D928A95E1F7DE010D90002099
S11301C0E9F7119785E1E6E1F2E001900D928A9555
S11301D0E1F7DE010D900020E9F7119782E1EBE2EF
S11301E0F2E001900D928A95E1F709900020E9F779
S11301F0DE01119783E1EDE3F2E001900D928A951F
S1130200E1F78AEB95E00E94E40584E6EAEBF5E089
S1130210DF011D928A95E9F781E090E0DF91CF91AB
S113022008950F931F9381E080931F0685E1E6E113
S1130230F2E0AAEBB5E001900D928A95E1F7AAEB02
S1130240B5E00D900020E9F7119784E2E8E9F2E0C7
S113025001900D928A95E1F78CEB92E09F938F9336
S11302600E949E0981E00E94F90501E010E020E06F
S113027030E0A90161E070E08AEB95E00E945B0543
S11302800E94F8060E94DF0845E154E060E070E057
S1130290CB010E94BE040F900F9081E090E01F916B
S11302A00F9108950F931F93CF93DF93EFE6F0E040
S11302B080818E7F808310921E0681E080931F06CA
S11302C0CAEBD5E085E1E6E1F2E0DE0101900D92B2
S11302D08A95E1F7DE010D900020E9F7119785E298
S11302E0EFECF2E001900D928A95E1F700E010E066
S11302F020E030E340E050E061E070E0CE010E9495
S11303005B0584EF92E09F938F930E949E0943E0E4
S113031050E060E070E380E090E00E94BE048AE078
S113032090E00E94B20960E070E380E090E00E94F7
S11303302B0500E216E08F70F801808361E070E322
S113034080E090E00E942B058F708093210662E08C
S113035070E380E090E00E942B058F70809322066A
S113036084E6FE0111928A95E9F70F900F90F80147
S11303708081813011F40E9411010E949800EFE6FF
S1130380F0E080818160808381E090E0DF91CF9113
S11303901F910F9108951F920F920FB60F9211247F
S11303A02F933F934F935F936F937F938F939F9379
S11303B0AF93BF93EF93FF93F89480E093E00E9490
S11303C0B9090E9452011092840010928500789419
S11303D0FF91EF91BF91AF919F918F917F916F9119
S11303E05F914F913F912F910F900FBE0F901F90EF
S11303F01895CF93DF93BC0183E296E00E946509D0
S1130400C3E2D6E0DE010D900020E9F7119782E205
S1130410ECE0F3E001900D928A95E1F7DF93CF933E
S11304208FE892E09F938F930E949E09FE010190B2
S11304300020E9F73197BF016352764040E050E075
S1130440CE010E94230384E6FE0111928A95E9F706
S11304500F900F900F900F90DF91CF910895109807
S113046020EF2EBD0DB407FEFDCF9EBD0DB407FEDB
S1130470FDCF8EBD0DB407FEFDCF6EBD0DB407FEDE
S1130480FDCF109A089510982FE02EBD0DB407FEED
S1130490FDCF9EBD0DB407FEFDCF8EBD0DB407FE8E
S11304A0FDCF1EBC0DB407FEFDCF109A8EB5089586
S11304B0BF92CF92DF92EF92FF920F931F93CF934D
S11304C0DF93B82E7B016A018901C8E3D3E083E09E
S11304D094E00E9443021F928F93DF93CF930E9474
S11304E09E0960E181E094E00E942F026B2D80E080
S11304F094E00E942F02F801608184E094E00E945D
S11305002F02F801618185E094E00E942F0261E0EE
S113051081E094E00E942F0283E094E00E94430271
S11305200F900F900F900F90833189F6F70160813F
S11305308CE094E00E942F02F70161818DE094E049
S11305400E942F02F70162818EE094E00E942F0244
S1130550F70163818FE094E00E942F02F60160812D
S113056080E194E00E942F02F601618181E194E030
S11305700E942F0264E081E094E00E942F02C0E018
S1130580D0E000E117E236C087E592E00197F1F789
S113059000C0000021969E01329522952F702327DA
S11305A03F702327A7E4B3E00E944B0996958795F3
S11305B09695879596958795809F9001819F300D9C
S11305C0909F300D1124C217D307A1F48BE493E05C
S11305D00E94B909C13593ECD90760F08DE693E028
S11305E00E94B90960E181E094E00E942F0280E05A
S11305F090E019C083E094E00E944302873121F621
S113060083E094E00E944302873139F485E893E063
S11306100E94B90981E090E006C08CE993E00E9451
S1130620B90980E090E0DF91CF911F910F91FF9085
S1130630EF90DF90CF90BF900895682F81E094E011
S11306400E942F0208954F925F926F927F928F9231
S11306509F92AF92BF92CF92DF92EF92FF920F934D
S11306601F93CF93DF937C016B013A0183E094E005
S11306700E9443021F928F938BEB93E09F938F937F
S11306800E949E0983E094E00E9443020F900F9021
S11306900F900F90873159F020E032E042E052E0B1
S11306A064E072E081E00E945802892BA9F380E2A1
S11306B094E00E944302C82FD0E0DC2FCC2781E2D3
S11306C094E00E944302C80FD11DCC15DD0508F447
S11306D0A0C030C08FEC97E00197F1F700C0000094
S11306E080E294E00E944302C82FD0E0DC2FCC27A4
S11306F081E294E00E944302C80FD11DDF93CF939F
S11307009F928F920E949E09015011090F900F90A1
S11307100F900F900115110551F488E00E941D03FC
S113072081E094E00E9443028111FACF6CC0CC15A1
S1130730DD0580F284E294E00E944302482E85E2C3
S113074094E00E944302512C542C4424480E511C22
S113075082E294E00E94430283E294E00E94430216
S113076083ED93E00E94B909C114D10479F14701E2
S11307708C0C9D1C8201C0E0D4E0A090B906B0901E
S1130780BA06A022B1228091BB069091BC06A80EA5
S1130790B91E6114710451F0BE0180E090E00E9422
S11307A02B05682FC5010E942F0205C0F701608147
S11307B0C5010E942F020F5F1F4FFFEFEF1AFF0AC0
S11307C02196E814F904C9F64C0C5D1C60E0C501DF
S11307D001960E942F0284E294E00E9443026FEF8C
S11307E084E294E00E942F02642D85E294E00E944A
S11307F02F0280E20E941D0381E094E00E944302E4
S11308008111FACF03C080E090E02CC081E090E039
S113081029C08FEC97E00197F1F700C0000080E257
S113082094E00E944302C82FD0E0DC2FCC2781E261
S113083094E00E944302C80FD11DDF93CF9387EC4D
S113084093E09F938F930E949E090F900F900F90B7
S11308500F9009EE13E00F2EF7EC8F2EF3E09F2E8E
S1130860F02D65CFDF91CF911F910F91FF90EF9005
S1130870DF90CF90BF90AF909F908F907F906F90BC
S11308805F904F900895CF93C82F8A3019F48DE06C
S11308900E944304E0EDF0E0908195FFFDCFC0930A
S11308A0D60080E090E0CF910895CF93BC01E0EDB5
S11308B0F0E080818823ECF7C091D6008C2F0E9451
S11308C043048C2F90E0CF9108951092D50083E3D8
S11308D08093D40088E18093D10086E08093D20095
S11308E088E092E090937607809375079093780759
S11308F0809377070895A39891E09EBD0DB407FEF9
S1130900FDCF8EBD0DB407FEFDCFA39A0895262F0B
S1130910972F482F82E08EBD0DB407FEFDCF4EBD4C
S11309200DB407FEFDCF892F8EBD0DB407FEFDCF9C
S11309302EBD0DB407FEFDCF08958EBD0DB407FE88
S1130940FDCF0895262F972F482F83E08EBD0DB439
S113095007FEFDCF4EBD0DB407FEFDCF892F8EBD22
S11309600DB407FEFDCF2EBD0DB407FEFDCF0895D7
S11309701EBC0DB407FEFDCF8EB50895EF92FF9215
S11309800F931F93CF93DF93C62FD72F182F092FC1
S11309907A0180E40E947B04A3986C2F7D2F812F21
S11309A0902F0E94A2040F931F93DF93CF9380E1B3
S11309B094E09F938F930E949E090F900F900F9045
S11309C00F900F900F90E114F104A9F0C0E0D0E073
S11309D001E214E00E94B8041F928F931F930F93B7
S11309E00E949E0921960F900F900F900F90CE15A4
S11309F0DF0581F702C0E12CF12CA39AFF92EF925C
S1130A0089E294E09F938F930E949E090F900F9028
S1130A100F900F90DF91CF911F910F91FF90EF9066
S1130A200895CF93C82FA398CB01BA010E948704DD
S1130A308C2F0E949D04A39ACF91089587E084B9D6
S1130A409B9AA39A81E58CBD40E050E0BA0182E311
S1130A500E9411050895A3980E94A2040E94B8045C
S1130A60A39A08950F931F93CF93DF93EC018B0107
S1130A700E944506FE0101900020E9F7319780E2CB
S1130A8090E091838083B801CE010E945A09AE019F
S1130A9060EB74E08FEF0E941E070E94000721E0C4
S1130AA030E0892B11F020E030E0C901DF91CF91D3
S1130AB01F910F9108952F923F924F925F926F92E0
S1130AC07F928F929F92AF92BF92CF92DF92EF92DA
S1130AD0FF920F931F93CF93DF93EC016B014901B6
S1130AE05A010E9445065C9880E090E00E94FC0553
S1130AF05C9AAE0160E572E08FEF0E941E070E94CF
S1130B005606E12CF12C0F2EFAE52F2EF2E03F2EA3
S1130B10F02DC114D104D1F0240135014E0C5F1C19
S1130B20611C711CC301B2010E9415077F926F9270
S1130B305F924F92ABEDB4E0BF93AF930E949E09D6
S1130B400F900F900F900F900F900F904CEE54E079
S1130B5064EF74E08FEF0E941E070E9456060E9405
S1130B60FD06EC01DF93CF933F922F920E949E09E2
S1130B700F900F900F900F908981813339F00E946C
S1130B80F806E80EF91E0115110519F60E944E0625
S1130B904DE253E060E075E08FEF0E941E0781E0B4
S1130BA090E0DF91CF911F910F91FF90EF90DF9034
S1130BB0CF90BF90AF909F908F907F906F905F90F9
S1130BC04F903F902F900895CF93DF93EC010E94B4
S1130BD04E064DE253E0BE018FEF0E941E074DE228
S1130BE053E060E075E08FEF0E941E07DF91CF9124
S1130BF008958093D30608959093D1068093D006E8
S1130C0008951092C50087E08093C400E1ECF0E001
S1130C1088E1808386E08093C2008081806880833D
S1130C200895CF93DF931092DC0629E0E3ECF6E01D
S1130C30DF011D922A95E9F761157105A9F020E0FD
S1130C4030E050E0E0ECF0E0A6ECB0E0408145FF9D
S1130C50FDCFEC01C20FD31F28812C935F5F252F9A
S1130C6030E02617370790F382E992E00E94B90931
S1130C7080E090E0DF91CF910895E0ECF0E0808196
S1130C808823ECF78091C6000895E1ECF0E08081C0
S1130C9080688083789481E090E00895E1ECF0E04E
S1130CA080818F77808381E090E008958091DC06D5
S1130CB0811108C081E28A95F1F700008091DC0679
S1130CC08823C1F381E090E008950F931F93CF939D
S1130CD0DF938091CE069091CF06892BF1F0C0E08E
S1130CE0D0E001E115E0FE01ED53F94F8081FF935F
S1130CF0EF931F928F931F930F930E949E09219647
S1130D000F900F900F900F900F900F90C930D10556
S1130D1051F78AE090E00E94B2091092D506109231
S1130D20D4062091C9068091D4069091D5062F70DF
S1130D30820F911D9093D5068093D4068091C806A6
S1130D402091D4063091D5068F7090E0AC01440F09
S1130D50551F880F991F880F991F880F991F840F9B
S1130D60951F820F931F9093D5068093D4062091EC
S1130D70C7068091D4069091D5062F7034E6239F40
S1130D80800D911D11249093D5068093D406609113
S1130D90C6068091D4069091D5066F7048EE53E054
S1130DA0649F9001659F300D1124820F931F9093CF
S1130DB0D5068093D4066091C5068091D40690919F
S1130DC0D5066F7040E157E2649F9001659F300D36
S1130DD01124820F931F9093D5068093D40680919B
S1130DE0D4069091D506DF91CF911F910F9108956C
S1130DF08091D4069091D506089583EC96E00895E9
S1130E008091DC06811108C081E28A95F1F7000027
S1130E108091DC068823C1F381E090E02091C40630
S1130E20203311F480E090E008956093D606709327
S1130E30D7068093D8069093D90608950F931F93ED
S1130E40CF93DF93EA01813031F0823071F08F3F2C
S1130E5009F06CC017C085E0E5E5F2E0ADEDB6E061
S1130E6001900D928A95E1F70DC0ADEDB6E00D90BD
S1130E700020E9F7119785E0EDE2F5E001900D928D
S1130E808A95E1F78DED96E00E945A0983E0CD3210
S1130E90D80779F0EDEDF6E001900020E9F73197FD
S1130EA080E290E091838083BE018DED96E00E9404
S1130EB05A09CDEDD6E0FE0101900020E9F7319703
S1130EC08DE09AE0A0E080839183A283FE010190EB
S1130ED00020E9F731978F010D5D1640DF93CF9322
S1130EE01F930F93DF93CF9382E395E09F938F93A8
S1130EF00E949E09B801CE010E94110684E6FE01FB
S1130F0011928A95E9F787E595E00E94B9098EE583
S1130F1095E00E94B9098DB79EB708960FB6F8946C
S1130F209EBF0FBE8DBF81E090E002C080E090E0E4
S1130F30DF91CF911F910F9108951F920F920FB6D9
S1130F400F9211242F933F934F935F936F937F934B
S1130F508F939F93AF93BF93CF93DF93EF93FF93BD
S1130F60F8948091DA069091DB06892BE9F40E94CB
S1130F703D068093CC068091CC06823509F0F6C0FC
S1130F801092D1061092D006E091D006F091D106CD
S1130F908091CC06ED53F94F808381E090E09093EB
S1130FA0DB068093DA06E2C08091D0069091D106E8
S1130FB0099750F4C091D006D091D1060E943D0605
S1130FC0CD53D94F8883D2C08091D0069091D10659
S1130FD00997B9F40E9465069093D5068093D406C8
S1130FE08091D4069091D5069F938F9389E695E0DE
S1130FF09F938F930E949E090F900F900F900F90D4
S1131000B5C02091D4063091D5068091D006909138
S1131010D106275F3F4F8217930708F06DC00E94E7
S11310203D068093CC068091D306813009F04BC0F5
S11310308091CC068A33C9F42091D0063091D10630
S11310404091D6065091D7066091D8067091D90682
S11310508091CC064A50510961097109420F531F0E
S1131060611D711D0E94110581C08091D2068111FC
S11310700AC08091CC068295807F8093CD0681E062
S11310808093D20673C09091CC068091CD06892BB3
S11310908093CD062091D0063091D1064091D6069A
S11310A05091D7066091D8067091D9064A505109DB
S11310B061097109420F531F611D711D0E941105C1
S11310C01092D20653C02091D0063091D10640919F
S11310D0D6065091D7066091D8067091D9068091B2
S11310E0CC064A50510961097109420F531F611D11
S11310F0711D0E9411053AC08091D0069091D106CD
S11311004091D6065091D7066091D8067091D906C1
S11311104A50510961097109480F591F611D711D18
S113112080E00E9411051092D1061092D006109210
S1131130DB061092DA061092D3061092D2061092B1
S1131140CD0681E08093DC060E9465069F938F9311
S113115089E695E09F938F930E949E0982E895E02B
S11311600E94B9090F900F900F900F908091D006B4
S11311709091D10601969093D1068093D0067894ED
S1131180FF91EF91DF91CF91BF91AF919F918F919B
S11311907F916F915F914F913F912F910F900FBE6F
S11311A00F901F901895109274071092730782E3A2
S11311B0E1E4F7E0DF011D928A95E9F70895AF9223
S11311C0BF92CF92DF92EF92FF920F931F93CF9330
S11311D0DF936C01009779F101E010E0C0E0D0E00A
S11311E0780181E0E81AF108BE01882777FD80952F
S11311F0982F0E942B058A33C1F08F70282F30E07E
S1131200590102C0AA0CBB1C8A95E2F72196BE01C3
S1131210882777FD8095982F0E942B05A70160E011
S113122070E08F708A290E94110521960F5F1F4F6D
S1131230CC15DD05A8F281E090E0DF91CF911F91FC
S11312400F91FF90EF90DF90CF90BF90AF900895F3
S11312500E9491000E94D3082FE38DE093E0215077
S113126080409040E1F700C0000062E975E08DE144
S113127092E00E943205892B29F085E995E00E94CD
S1131280B90904C081EA95E00E94B90983EB95E0AD
S11312900E94B909FFCFA29FB001B39FC001A39FD1
S11312A0700D811D1124911DB29F700D811D11249B
S11312B0911D0895FB01DC010D900020E9F71197C1
S11312C001900D920020E1F70895FB01DC010190EB
S11312D00D920020E1F708950F931F93CF93DF93AE
S11312E0182F092FEB018B8181FD03C08FEF9FEF36
S11312F020C082FF10C04E815F812C813D81421746
S113130053077CF4E881F9819F012F5F3F4F3983B4
S11313102883108306C0E885F985812F0995892BD8
S113132029F72E813F812F5F3F4F3F832E83812FEB
S1131330902FDF91CF911F910F910895A0E0B0E01D
S1131340E4EAF9E00C943C0CFE013596619171914C
S1131350AF0180917707909178070E94E609E2E057
S11313600C94580C60917707709178070E946C096F
S113137008950F931F93CF93DF93E0917707F09134
S11313807807238121FF1BC0EC0100E010E0899164
S11313906091770770917807DB011896ED91FC91C5
S11313A01997882331F00995892B89F30FEF1FEFE3
S11313B0EECF8AE00995892B11F4C80102C08FEFA2
S11313C09FEFDF91CF911F910F910895ACE0B0E0B2
S11313D0ECEEF9E00C942C0C7C016B018A01FC010D
S11313E017821682838181FFBDC1CE0101964C0113
S11313F0F7019381F60193FD859193FF81916F012C
S1131400882309F4ABC1853239F493FD859193FFA8
S113141081916F01853229F4B70190E00E946C0933
S1131420E7CF512C312C20E02032A0F48B3269F02C
S113143030F4803259F0833269F420612CC08D324B
S113144039F0803339F4216026C02260246023C03F
S1131450286021C027FD27C030ED380F3A3078F4DA
S113146026FF06C0FAE05F9E300D1124532E13C0F0
S11314708AE0389E300D1124332E20620CC08E3247
S113148021F426FD6BC1206406C08C3611F420685B
S113149002C0883641F4F60193FD859193FF819152
S11314A06F018111C1CF982F9F7D9554933028F4FB
S11314B00C5F1F4FFFE3F9830DC0833631F0833790
S11314C071F0833509F05BC022C0F8018081898303
S11314D00E5F1F4F44244394512C540115C038010E
S11314E0F2E06F0E711CF801A080B18026FF03C0EA
S11314F0652D70E002C06FEF7FEFC5012C870E945D
S1131500C30B2C0183012C852F77222E17C03801A1
S1131510F2E06F0E711CF801A080B18026FF03C0B9
S1131520652D70E002C06FEF7FEFC5012C870E942C
S1131530B80B2C012C852068222E830123FC1BC0B0
S1131540832D90E048165906B0F4B70180E290E08C
S11315500E946C093A94F4CFF50127FC859127FE8B
S113156081915F01B70190E00E946C0931103A94B7
S1131570F1E04F1A51084114510471F7E5C0843663
S113158011F0893639F5F80127FF07C060817181B0
S1131590828193810C5F1F4F08C06081718188270D
S11315A077FD8095982F0E5F1F4F2F76B22E97FFF1
S11315B009C090958095709561957F4F8F4F9F4F8F
S11315C02068B22E2AE030E0A4010E94CE0BA82E9F
S11315D0A81844C0853729F42F7EB22E2AE030E0C3
S11315E025C0F22FF97FBF2E8F36C1F018F488354D
S11315F079F0B4C0803719F0883721F0AFC02F2FAD
S11316002061B22EB4FE0DC08B2D8460B82E09C0AB
S113161024FF0AC09F2F9660B92E06C028E030E050
S113162005C020E130E002C020E132E0F801B7FE5D
S113163007C060817181828193810C5F1F4F06C056
S11316406081718180E090E00E5F1F4FA4010E94D1
S1131650CE0BA82EA818FB2DFF77BF2EB6FE0BC00D
S11316602B2D2E7FA51450F4B4FE0AC0B2FC08C082
S11316702B2D2E7E05C07A2C2B2D03C07A2C01C075
S1131680752C24FF0DC0FE01EA0DF11D808180330D
S113169011F4297E09C022FF06C07394739404C018
S11316A0822F867809F0739423FD13C020FF06C0AF
S11316B05A2C731418F4530C5718732C731468F4BD
S11316C0B70180E290E02C870E946C0973942C850A
S11316D0F5CF731410F4371801C0312C24FF12C055
S11316E0B70180E390E02C870E946C092C8522FFCF
S11316F017C021FF03C088E590E002C088E790E0AE
S1131700B7010CC0822F867859F021FD02C080E217
S113171001C08BE227FD8DE2B70190E00E946C09C5
S1131720A51438F4B70180E390E00E946C095A9440
S1131730F7CFAA94F401EA0DF11D8081B70190E07E
S11317400E946C09A110F5CF332009F451CEB701E2
S113175080E290E00E946C093A94F6CFF70186810A
S1131760978102C08FEF9FEF2C96E2E10C94480C16
S1131770FC010590615070400110D8F78095909558
S11317808E0F9F1F0895FC0161507040019001105D
S1131790D8F7809590958E0F9F1F0895FA01AA2778
S11317A0283051F1203181F1E8946F936E7F6E5FA0
S11317B07F4F8F4F9F4FAF4FB1E03ED0B4E03CD04E
S11317C0670F781F891F9A1FA11D680F791F8A1F31
S11317D0911DA11D6A0F711D811D911DA11D20D098
S11317E009F468943F912AE0269F11243019305D52
S11317F03193DEF6CF010895462F4770405D419343
S1131800B3E00FD0C9F7F6CF462F4F70405D4A338F
S113181018F0495D31FD4052419302D0A9F7EACF57
S1131820B4E0A6959795879577956795BA95C9F786
S113183000976105710508959B01AC010A2E069479
S11318405795479537952795BA95C9F7620F731F32
S1131850841F951FA01D08952F923F924F925F926F
S11318606F927F928F929F92AF92BF92CF92DF92AC
S1131870EF92FF920F931F93CF93DF93CDB7DEB711
S1131880CA1BDB0B0FB6F894DEBF0FBECDBF0994A5
S11318902A88398848885F846E847D848C849B84FC
S11318A0AA84B984C884DF80EE80FD800C811B810A
S11318B0AA81B981CE0FD11D0FB6F894DEBF0FBE39
S10D18C0CDBFED010895F894FFCFA9
S11318CA0050005068832450000000030000000008
S11318DA430455040000687474703A2F2F7777779D
S11318EA2E77692D70726F2E7573002F646174617F
S11318FA2F636C656172666C6167733F0077697008
S113190A726F69643D3130303030303030303000FD
S113191A687474705F67657420005472616E204C39
S113192A656E6774683A2025640A002F64617461DD
S113193A2F75706461746573736964733F002673E9
S113194A7369643D0066696C65706174683A202540
S113195A730053656E7421002F75706C6F61647324
S113196A2F6865782F313030303030303030302FB6
S113197A64656661756C742E68657800436F6D7072
S113198A7265737320466C61672053657421002F56
S113199A75706C6F6164732F6865782F31303030DD
S11319AA3030303030302F666C616766696C652E72
S11319BA7478740052616D205072696E743A200012
S11319CA466C6167205374617475730020485454DB
S11319DA502F312E31200A486F73743A2077777763
S11319EA2E77692D70726F2E7573200A0A0053655B
S11319FA6E743A2025730A005350492053522053D7
S1131A0A74617475733A2025640A00547279696E94
S1131A1A6720746F2045737461626C69736820432C
S1131A2A6F6E6E656374696F6E2E2E2E0054696D27
S1131A3A656F75742C20646973636F6E6E65637465
S1131A4A696E672100436F6E6E656374696F6E20F9
S1131A5A537563636565646564210A00436F756C35
S1131A6A64206E6F7420636F6E6E6563742E2045F6
S1131A7A786974696E672E2E2E0A0053523A203002
S1131A8A78253032780A0054582053697A653A2006
S1131A9A25640053656E64696E672E2E2E0A00450E
S1131AAA746865726E65742052656365697665202B
S1131ABA446174612054696D656F757421005374AF
S1131ACA617473205265673A203078253032780081
S1131ADA416464726573733A203078253036780A23
S1131AEA0030782530325820000A53697A653A2042
S1131AFA25640A0073797374656D2E7072696E7445
S1131B0A5F6C6576656C00310073797374656D2E4C
S1131B1A636D642E6865616465725F656E61626C8B
S1131B2A65640073797374656D2E636D642E7072C7
S1131B3A6F6D70745F656E61626C6564006F666672
S1131B4A0073797374656D2E636D642E6563686FB3
S1131B5A006F6E007363616E00776C616E2E73732F
S1131B6A696400776C616E2E706173736B657900BA
S1131B7A7463705F636C69656E74002048545450D2
S1131B8A2F312E310A686F73743A207777772E775C
S1131B9A692D70726F2E75730A0A0052414D2041E5
S1131BAA6464726573733A2025640A003020313004
S1131BBA3030300073747265616D5F726561640000
S1131BCA73747265616D5F636C6F736520616C6CAD
S1131BDA0056616C75653A203078253032782C20AD
S1131BEA416464726573733A2025700A00736574DC
S1131BFA2000436F6D6D616E643A202573204C6535
S1131C0A6E6774683A2025642C2041646472657393
S1131C1A733A2025700A004672656564210052658C
S1131C2A7475726E696E6721005472616E736D69A0
S1131C3A7373696F6E204C656E6774683A20256405
S1131C4A0A00446F6E6520526563656976696E673A
S1131C5A2100383000436F6E6E6563746564212118
S1131C6A00436F6E6E656374696F6E204661696CBA
S10D1C7A656400446F6E65210000EC
S9030000FC
