S00D0000776970726F2E73726563E6
S113000071C000008EC000008CC000008AC00000D7
S113001088C0000086C0000069C2000082C00000E1
S113002080C000007EC000007CC000007AC00000D8
S113003078C0000076C0000074C0000072C00000E8
S113004070C000006EC000006CC000006AC00000F8
S113005012C2000066C0000064C0000062C000005C
S113006060C000000C94950A5CC000005AC00000F7
S113007058C0000056C0000054C0000052C0000028
S113008050C000004EC000004CC000004AC0000038
S113009048C0000046C0000044C0000042C0000048
S11300A040C000003EC000003CC000003AC0000058
S11300B038C0000036C0000034C0000032C0000068
S11300C030C000002EC000002CC000002AC0000078
S11300D028C0000026C0000024C0000022C0000088
S11300E020C0000011241FBECFEFD1E2DEBFCDBF80
S11300F019E0A0E0B2E0EEE3F9E200E00BBF02C0D9
S113010007900D92A235B107D9F72BE0A2E5B9E02B
S113011001C01D92A933B207E1F70E946C110C943F
S11301209D146ECF1092BD091092BE091092BF09A2
S11301301092C0091092C1091092C209659908C0B1
S113014085E392E00E940E120AD281E08093BD09F9
S11301500895E1E8F0E08081846080831092840057
S11301601092850081E080936F00089580E28DBB3A
S113017084E080936A0008950CD60E94140961D625
S1130180D1DFF4DF84E6E5E5F9E0DF011D928A952D
S1130190E9F781E08093BE090895CF93DF938091BE
S11301A0BD098823B9F1C5E5D9E084E6DE011D92D5
S11301B08A95E9F785E0E7E4F2E0DE0101900D922B
S11301C08A95E1F7DE010D900020E9F7119785E1AA
S11301D0ECE4F2E001900D928A95E1F7DE010D90D6
S11301E00020E9F7119782E1E1E6F2E001900D9237
S11301F08A95E1F709900020E9F7DE01119783E180
S1130200E3E7F2E001900D928A95E1F785E599E044
S1130210BBD135C08091BE09882389F1C5E5D9E0F9
S11302208AE0E6E8F2E0DE0101900D928A95E1F7BA
S1130230DE010D900020E9F7119785E1ECE4F2E08E
S113024001900D928A95E1F7DE010D900020E9F707
S1130250119782E1E1E6F2E001900D928A95E1F7CF
S113026009900020E9F7DE01119783E1E3E7F2E06A
S113027001900D928A95E1F785E599E0BED784E671
S1130280E5E5F9E0DF011D928A95E9F781E090E068
S1130290DF91CF9108950F931F93CF93DF938091B4
S11302A0BE09882309F45DC0C5E5D9E085E1ECE425
S11302B0F2E0DE0101900D928A95E1F7DE010D90E6
S11302C00020E9F7119784E2EEECF2E001900D9240
S11302D08A95E1F701E010E020E030E0A90161E057
S11302E070E0CE0102D7082F192F82EF92E00E940E
S11302F00E121F930F9320E033E03F932F930E943D
S1130300F811802F912F0E94EC0C84E6FE011192CB
S11303108A95E9F785E1ECE4F2E0DE0101900D92C3
S11303208A95E1F709900020E9F7DE01119787E249
S1130330EFE1F3E001900D928A95E1F701E010E01E
S113034025E030E340E050E061E070E085E599E0CD
S1130350CCD686E493E00E940E120F900F900F907B
S11303600F9081E090E0DF91CF911F910F9108955C
S11303700F931F93EFE6F0E080818E7F808380915E
S1130380BE098823C9F185E1ECE4F2E0A5E5B9E012
S113039001900D928A95E1F7A5E5B9E00D90002052
S11303A0E9F7119785E2E2E5F3E001900D928A9571
S11303B0E1F700E010E020E030E340E050E061E0ED
S11303C070E085E599E091D660E070E380E090E02C
S11303D048D58F708093BF0961E070E380E090E0BE
S11303E040D58F708093C00962E070E380E090E0B4
S11303F038D58F708093C10984E6E5E5F9E0DF0123
S11304001D928A95E9F78091BF09813049F587E704
S113041093E00E940E12A19A3EDF0E94810C892B68
S1130420D9F365E070E380E090E01BD58F70809392
S1130430C209823019F0833041F00EC06AE071E9DC
S11304408EE190E00E941D0C0BC061E175E98EE124
S113045090E00E941D0C04C080E893E00E940E12FC
S11304609CDEEFE6F0E080818160808381E090E0B3
S11304701F910F9108951F920F920FB60F9211249E
S11304800BB60F922F933F934F935F936F937F938A
S11304908F939F93AF93BF93CF93DF93EF93FF9388
S11304A0CFE6D0E088818E7F888386E993E00E943E
S11304B00E125EDF109284001092850088818160A4
S11304C08883FF91EF91DF91CF91BF91AF919F917D
S11304D08F917F916F915F914F913F912F910F90E9
S11304E00BBE0F900FBE0F901F9018951F920F9286
S11304F00FB60F9211240BB60F922F933F934F9385
S11305005F936F937F938F939F93AF93BF93EF9377
S1130510FF93F894659B07C01092BD0982EA93E0AB
S11305200E940E1208C081E08093BD0918D08FEAA2
S113053093E00E940E127894FF91EF91BF91AF91D6
S11305409F918F917F916F915F914F913F912F91E7
S11305500F900BBE0F900FBE0F901F90189528E0C0
S113056032E04CE052E060E172E084E192E06AD073
S113057020E032E042E052E064E072E081E0F5D154
S1130580892BB1F391C20895CF93DF93BC0183EC1F
S113059099E00E94BF11C3ECD9E0DE010D90002068
S11305A0E9F7119782E2EDEBF3E001900D928A9561
S11305B0E1F7DF93CF9385EC92E09F938F930E94B2
S11305C0F811FE0101900020E9F73197BF01635C47
S11305D0794040E050E0CE018BD284E6FE011192D6
S11305E08A95E9F70F900F900F900F90DF91CF91BC
S11305F00895749820EF2EBD0DB407FEFDCF9EBD67
S11306000DB407FEFDCF8EBD0DB407FEFDCF6EBD4C
S11306100DB407FEFDCF749A089574982FE02EBD93
S11306200DB407FEFDCF9EBD0DB407FEFDCF8EBDFC
S11306300DB407FEFDCF1EBC0DB407FEFDCF749AAA
S11306408EB50895BF92CF92DF92EF92FF920F93EF
S11306501F93CF93DF93EC017B016A0189016C9AAC
S113066087E084B9749A80E58CBD89EE93E00E949A
S11306700E128BEF93E00E940E1260E880E090E08F
S1130680B8DF8FEC97E00197F1F700C0000080E03D
S113069090E0C3DF1F928F9384E194E09F938F9344
S11306A00E94F811F80183811F928F9382811F9217
S11306B08F9381811F928F9380811F928F9385E204
S11306C094E09F938F930E94F811F801608181E078
S11306D090E08FDFF801618182E090E08ADFF80129
S11306E0628183E090E085DFF801638184E090E03B
S11306F080DF8FEC97E00197F1F700C0000084E001
S113070090E08BDFB82E83E090E087DF082F82E053
S113071090E083DF182F81E090E07FDF1F92BF928B
S11307201F920F931F921F931F928F938AE494E05A
S11307309F938F930E94F8118D811F928F938C81C8
S11307401F928F938B811F928F938A811F928F9315
S113075089811F928F9388811F928F9385E694E0FD
S11307609F938F930E94F811EDB7FEB7B6960FB61C
S1130770F894FEBF0FBEEDBF688189E090E039DFD9
S113078069818AE090E035DF6A818BE090E031DFB7
S11307906B818CE090E02DDF6C818DE090E029DFAF
S11307A06D818EE090E025DF8FEC97E00197F1F703
S11307B000C000008EE090E030DFB82E8DE090E0C5
S11307C02CDF082F8CE090E028DF182F8BE090E0DE
S11307D024DFD82F8AE090E020DFC82F89E090E062
S11307E01CDF1F92BF921F920F931F921F931F92A1
S11307F0DF931F92CF931F928F938BE994E09F9383
S11308008F930E94F811F60183811F928F93828146
S11308101F928F9381811F928F9380811F928F9358
S113082088EC94E09F938F930E94F811F601608105
S113083085E090E0DEDEF601618186E090E0D9DEBD
S1130840F601628187E090E0D4DEF601638188E0FE
S113085090E0CFDE8FEC97E00197F1F700C0000045
S113086088E090E0DADE182F87E090E0D6DED82F1B
S113087086E090E0D2DEC82F85E090E0CEDE1F92C5
S11308801F931F92DF931F92CF931F928F938EEE2D
S113089094E09F938F930E94F811EDB7FEB7B29640
S11308A00FB6F894FEBF0FBEEDBFF70183811F9210
S11308B08F9382811F928F9381811F928F93808166
S11308C01F928F938AE095E09F938F930E94F81173
S11308D0F70160818FE090E08CDEF701618180E1B7
S11308E090E087DEF701628181E190E082DEF7012A
S11308F0638182E190E07DDE8FEC97E00197F1F770
S113090000C0000082E190E088DE182F81E190E0D1
S113091084DED82F80E190E080DEC82F8FE090E065
S11309207CDE1F921F931F92DF931F92CF931F921F
S11309308F938AE295E09F938F930E94F81186E447
S113094095E00E940E12EDB7FEB774960FB6F894B8
S1130950FEBF0FBEEDBFDF91CF911F910F91FF90AE
S1130960EF90DF90CF90BF900895DF92EF92FF92C7
S11309700F931F93CF93DF93D82E8B017A01E90154
S113098060E181E094E035DE6D2D80E094E031DEBD
S1130990688184E094E02DDE698185E094E029DEBD
S11309A061E081E094E025DE83E094E036DE83318B
S11309B039F7F80160818CE094E01BDEF801618175
S11309C08DE094E016DEF80162818EE094E011DEA1
S11309D0F80163818FE094E00CDEF701608180E12F
S11309E094E007DEF701618181E194E002DE64E0D6
S11309F081E094E0FEDDC0E0D0E000E117E235C024
S1130A0087E592E00197F1F700C0000021969E016E
S1130A10329522952F7023273F702327A7E4B3E054
S1130A200E94A51196958795969587959695879595
S1130A30809F9001819F300D909F300D1124C2172B
S1130A40D30799F485E695E00E940E12C13593EC24
S1130A50D90758F087E895E00E940E1260E181E022
S1130A6094E0C7DD80E090E017C083E094E0D5DD3A
S1130A70873131F683E094E0D0DD873139F48FE9B2
S1130A8095E00E940E1281E090E006C086EB95E0AE
S1130A900E940E1280E090E0DF91CF911F910F91A0
S1130AA0FF90EF90DF90089563E08AE190E0A1DD8C
S1130AB063E08BE190E09DDD8FEF9FE190935A0A14
S1130AC08093590A20E030E430935C0A20935B0A57
S1130AD09093600A80935F0A80E090E690935E0AA8
S1130AE080935D0A0895682F81E094E082CD089593
S1130AF04F925F926F927F928F929F92AF92BF922A
S1130B00CF92DF92EF92FF920F931F93CF93DF93D5
S1130B107C016B013A0183E094E07FDD1F928F93A7
S1130B2085ED95E09F938F930E94F81183E094E004
S1130B3074DD0F900F900F900F90873151F02AE1E0
S1130B4032E04CE152E06EE172E081E00EDF892B8D
S1130B50B1F380E294E061DDC82FD0E0DC2FCC2734
S1130B6081E294E05ADDC80FD11DCC15DD0508F4EF
S1130B708FC02CC08FEC97E00197F1F700C0000004
S1130B8080E294E04ADDC82FD0E0DC2FCC2781E25C
S1130B9094E043DDC80FD11DDF93CF939F928F92D2
S1130BA00E94F811015011090F900F900F900F90AF
S1130BB00115110541F488E096DF81E094E02DDD14
S1130BC08111FBCF5FC0CC15DD05A0F284E294E077
S1130BD024DD482E85E294E020DD512C542C44245D
S1130BE0480E511C82E294E018DD83E294E015DDA6
S1130BF08DEE95E00E940E12C114D10461F14701FB
S1130C008C0C9D1C8201C0E0D4E0A090590AB090E5
S1130C105A0AA022B12280915B0A90915C0AA80E24
S1130C20B91E6114710441F0BE0180E090E019D155
S1130C30682FC501DEDC04C0F7016081C501D9DC81
S1130C400F5F1F4FFFEFEF1AFF0A2196E814F90414
S1130C50E1F64C0C5D1C60E0C5010196CADC84E23F
S1130C6094E0DBDC6FEF84E294E0C3DC642D85E286
S1130C7094E0BFDC80E237DF81E094E0CEDC8111D8
S1130C80FBCF03C080E090E02AC081E090E027C061
S1130C908FEC97E00197F1F700C0000080E294E048
S1130CA0BCDCC82FD0E0DC2FCC2781E294E0B5DC9B
S1130CB0C80FD11DDF93CF9381EE95E09F938F935F
S1130CC00E94F8110F900F900F900F9009EE13E00F
S1130CD00F2EF1EE8F2EF5E09F2EF02D74CFDF91C5
S1130CE0CF911F910F91FF90EF90DF90CF90BF9025
S1130CF0AF909F908F907F906F905F904F900895EA
S1130D00A4988EBD0DB407FEFDCFA49A08959C9AB5
S1130D10A49AE4E0F1E0808184608083E5E0F1E07E
S1130D2080818B7F808380E0EBCF08956A3021E956
S1130D3072072EE18207910531F0613175498E41C8
S1130D40910521F0089581E0DBCF089582E0D8CFAA
S1130D500895CF93C82F8A3011F48DE0FADFE0EDC7
S1130D60F0E0908195FFFDCFC093D60080E090E045
S1130D70CF910895CF93BC01E0EDF0E0808188230A
S1130D80ECF7C091D6008C2FE4DF8C2F90E0CF914C
S1130D9008951092D50087E08093D40088E1809371
S1130DA0D10086E08093D20082E292E09093340BEB
S1130DB08093330B9093360B8093350B0895262F35
S1130DC0972F482F82E08EBD0DB407FEFDCF4EBD98
S1130DD00DB407FEFDCF892F8EBD0DB407FEFDCFE8
S1130DE02EBD0DB407FEFDCF08958EBD0DB407FED4
S1130DF0FDCF0895262F972F482F83E08EBD0DB485
S1130E0007FEFDCF4EBD0DB407FEFDCF892F8EBD6D
S1130E100DB407FEFDCF2EBD0DB407FEFDCF089522
S1130E201EBC0DB407FEFDCF8EB50895CF93C82F19
S1130E30A398CB01BA01C3DF8C2FD7DFA39ACF913C
S1130E40089584B1876884B92F9A9B9AA39A80E500
S1130E508CBD81E08DBD40E050E0BA0182E3E6CF75
S1130E600895A398C7DFDCDFA39A0895E4E0F1E0D6
S1130E70808188638083E5E0F1E080818062808303
S1130E808081877E808308958EBD0DB407FEFDCFDB
S1130E900895DB0190E0FC01EE0FFF1FEE0FFF1F32
S1130EA0E80FF91FEF59F54F80E090E02D91219361
S1130EB0019685309105D1F70895AF92BF92CF92F4
S1130EC0DF92EF92FF920F931F93CF93DF930F2E36
S1130ED0F6E6EF2EFAE0FF2EF02D0F2EFFE7CF2ED1
S1130EE0FAE0DF2EF02DA12CB12C0EC0F801819177
S1130EF08F01CADF2196C530D105C1F7F5E0EF0EA9
S1130F00F11CEC14FD0421F08701CA2DDB2DEECF7A
S1130F10E5E0F1E0808180618083F5E3FA95F1F703
S1130F200000E5E0F1E080818F7E8083DF91CF9146
S1130F301F910F91FF90EF90DF90CF90BF90AF90F3
S1130F400895CF93DF9300D000D01F92CDB7DEB7C2
S1130F5085E0E0E3F2E0DE01119601900D928A95BE
S1130F60E1F7BE016F5F7F4F81E093DF19821A8240
S1130F7088E08B831C821D82BE016F5F7F4F82E0FD
S1130F8088DF19821A821B821C821D82BE016F5F58
S1130F907F4F83E07EDF198280E28A831B821C827A
S1130FA01D82BE016F5F7F4F84E073DF19821A8256
S1130FB01B8284E08C831D82BE016F5F7F4F85E0BE
S1130FC068DF7BDF0F900F900F900F900F90DF91F1
S1130FD0CF910895CF93DF9300D000D01F92CDB767
S1130FE0DEB785E0E0E3F2E0DE01119601900D92B8
S1130FF08A95E1F7BE016F5F7F4F81E04ADF198276
S113100080E48A831B8284E08C831D82BE016F5F2F
S11310107F4F82E03EDF19821A821B821C821D826E
S1131020BE016F5F7F4F83E034DF198280E28A83E1
S11310301B8282E08C831D82BE016F5F7F4F84E040
S113104028DF19821A821B8281E08C831D82BE01F3
S11310506F5F7F4F85E01DDF30DF0F900F900F90A3
S11310600F900F90DF91CF9108958FEF80BB11BA4D
S113107084B1806784B985B18F7885B908952C9A35
S113108008952C9808952D9A08952D98089541B3A4
S113109021E030E0B90102C0660F771F8A95E2F7BC
S11310A0CB01842B81BB81E0089541B321E030E082
S11310B0B90102C0660F771F8A95E2F7CB01842B32
S11310C081BB81E008952E9A08952E98089541B326
S11310D021E030E0B90102C0660F771F8A95E2F77C
S11310E0CB01842B81BB81E008952F923F924F92D4
S11310F05F926F927F928F929F92AF92BF92CF92A4
S1131100DF92EF92FF920F931F93CF93DF93EC0143
S11311106B0149015A01CCD080E090E080D0AE014F
S113112066E872E08FEF88D1D4D082EE96E00E9418
S11311300E12E12CF12C0F2EF3E12F2EF7E03F2EAF
S1131140F02DC114D104C9F0240135014E0C5F1CEB
S1131150611C711CC301B20166D17F926F925F92D0
S11311604F92A0EFB6E0BF93AF930E94F8110F9097
S11311700F900F900F900F900F9080E090E04FD061
S113118041E057E067E077E08FEF56D1A2D048D135
S1131190EC01DF93CF933F922F920E94F8110F90AE
S11311A00F900F900F908981813341F034D10297D1
S11311B0E80EF91E0115110509F0C3CF84E297E08A
S11311C00E940E127ED04EED53E066EA76E08FEF79
S11311D033D1C701DF91CF911F910F91FF90EF9011
S11311E0DF90CF90BF90AF909F908F907F906F9043
S11311F05F904F903F902F900895CF93DF93EC0131
S113120060D04EED53E0BE018FEF16D14EED53E0AA
S113121066EA76E08FEF10D1DF91CF910895909335
S11312208F0A80938E0A08951092C50083E38093F9
S1131230C400E1ECF0E088E1808386E08093C200A2
S11312408081806880830895CF93DF9310929A0AF7
S113125029E0E1E8FAE0DF011D922A95E9F761153A
S11312607105A9F020E030E050E0E0ECF0E0A6ECFD
S1131270B0E0408145FFFDCFEC01C20FD31F2881B0
S11312802C935F5F252F30E02617370790F388EC07
S113129092E00E940E1280E090E0DF91CF910895D9
S11312A0E0ECF0E080818823ECF78091C60008959B
S11312B0E1ECF0E0808180688083789481E090E0C4
S11312C00895E1ECF0E080818F77808381E090E005
S11312D0089580919A0A811108C081E28A95F1F7F4
S11312E0000080919A0A8823C1F381E090E0089578
S11312F00F931F93CF93DF9380918C0A90918D0A63
S1131300892BF1F0C0E0D0E002E317E0FE01EF57D3
S1131310F54F8081FF93EF931F928F931F930F9349
S11313200E94F81121960F900F900F900F900F903C
S11313300F90C930D10551F78AE090E00E9409125C
S11313401092930A1092920A2091870A8091920A2D
S11313509091930A2F70820F911D9093930A80931A
S1131360920A8091860A2091920A3091930A8F7092
S113137090E0AC01440F551F880F991F880F991FE7
S1131380880F991F840F951F820F931F9093930AC0
S11313908093920A2091850A8091920A9091930AEF
S11313A02F7034E6239F800D911D11249093930A8E
S11313B08093920A6091840A8091920A9091930A90
S11313C06F7048EE53E0649F9001659F300D1124C7
S11313D0820F931F9093930A8093920A6091830AD9
S11313E08091920A9091930A6F7040E157E2649F52
S11313F09001659F300D1124820F931F9093930ADF
S11314008093920A8091920A9091930ADF91CF91EE
S11314101F910F9108958091920A9091930A0895D3
S113142081E89AE008956093940A7093950A8093F2
S1131430960A9093970A08950F931F93CF93DF937F
S1131440EA01813031F0823071F08F3F09F066C0DB
S113145017C085E0EBE8F2E0ABE9BAE001900D9249
S11314608A95E1F70DC0ABE9BAE00D900020E9F7E9
S1131470119785E0EEE4F7E001900D928A95E1F78B
S11314808BE99AE071D783E0CE3DD80771F0EBE9A0
S1131490FAE001900020E9F7319780E290E091832F
S11314A08083BE018BE99AE05FD7CBE9DAE0FE01E5
S11314B001900020E9F731978DE09AE0A0E0808365
S11314C09183A283FE0101900020E9F731978F01F7
S11314D00B591A40DF93CF931F930F93DF93CF934E
S11314E083E597E09F938F9383D7B801CE01ACDE59
S11314F084E6FE0111928A95E9F788E797E08ED792
S11315008FE797E08BD78DB79EB708960FB6F89400
S11315109EBF0FBE8DBF81E090E002C080E090E0EE
S1131520DF91CF911F910F9108951F920F920FB6E3
S11315300F9211240BB60F922F933F934F935F9307
S11315406F937F938F939F93AF93BF93CF93DF93C7
S1131550EF93FF93F8948091980A9091990A892BBC
S1131560E1F49EDE80938A0A80918A0A823509F02A
S113157095C010928F0A10928E0AE0918E0AF09113
S11315808F0A80918A0AEF57F54F808381E090E0BB
S11315909093990A8093980A81C080918E0A9091C1
S11315A08F0A099748F4C0918E0AD0918F0A78DE89
S11315B0CF57D54F888372C080918E0A90918F0A3D
S11315C0099721F595DE9093930A8093920A80916E
S11315D08C0A90918D0A892B09F460C020918E0A9F
S11315E030918F0A8091920A9091930A3F932F939E
S11315F09F938F938AE897E09F938F93F9D60F90E8
S11316000F900F900F900F900F9048C02091920A66
S11316103091930A80918E0A90918F0A275F3F4FF1
S113162082179307D8F43CDE80938A0A20918E0AAD
S113163030918F0A4091940A5091950A6091960ACC
S11316407091970A80918A0A4A5051096109710977
S1131650420F531F611D711DE9DB20C010928F0AD8
S113166010928E0A1092990A1092980A1092910A76
S11316701092900A10928B0A81E080939A0A38DEC5
S11316809F938F938AEA97E09F938F93B1D683ECCD
S113169097E0C4D60F900F900F900F9080918E0A10
S11316A090918F0A019690938F0A80938E0A789472
S11316B0FF91EF91DF91CF91BF91AF919F918F9166
S11316C07F916F915F914F913F912F910F900BBE3E
S11316D00F900FBE0F901F9018951092320B10921E
S11316E0310B82E3EFEFFAE0DF011D928A95E9F70F
S11316F008951092320B1092310B08950F931F939B
S1131700CF93DF93CFEFDAE004E01BE06091310B7D
S11317107091320B80E090E0A4DB89938091310BCF
S11317209091320B01969093320B8093310BC0173A
S1131730D10761F70091000BC4E0DBE010E00B5F20
S1131740144F6091310B7091320B80E090E089DB93
S11317506091310B7091320B80E090E082DB8993D1
S11317608091310B9091320B01969093320B8093C0
S1131770310BC017D10729F78FEF9AE0DF91CF9192
S11317801F910F910895CF92DF92EF92FF920F93E2
S11317901F93CF93DF936B017C01B6D2EC018A8156
S11317A01F928F9389811F928F9388811F928F93A9
S11317B083ED97E09F938F931BD6088110E020E080
S11317C030E04E2D50E060E070E08DB79EB7089693
S11317D00FB6F8949EBF0FBE8DBF041715072607DA
S11317E03707E9F4098110E020E030E04D2D50E0A6
S11317F060E070E0041715072607370799F44A815B
S113180050E060E070E0DD24EE24FF2481E090E00D
S11318104C155D056E057F0539F080E005C080E05C
S113182090E002C080E090E0DF91CF911F910F9192
S1131830FF90EF90DF90CF900895CF92DF92EF92D8
S1131840FF92CF93DF936B017C0146D126D151DF08
S1131850C701B60117D2C701B60195DFEC010097A5
S113186009F436C085EF97E0D9D58BE098E0D6D55A
S113187000D486E198E0D2D585E298E0CFD5C701BF
S1131880B60118D484E398E0C9D505D383E498E07D
S1131890C5D555D3EC01009749F080E598E0BED555
S11318A0D5D4A198A09AC1E0D0E023C087E698E0FF
S11318B0B5D5CCD4A198A29A2FE78AE196E021501D
S11318C080409040E1F700C00000A298A09A11C0A7
S11318D08BE798E0A3D5BAD4A29A2FE78AE196E0E1
S11318E0215080409040E1F700C00000A198A298E8
S11318F0A09ACE01DF91CF91FF90EF90DF90CF902F
S113190008957F928F929F92AF92BF92CF92DF926F
S1131910EF92FF920F931F93CF93DF93EADE812C14
S113192099249394A12CBB24B3940F2EFDEAEF2E9B
S1131930F8E0FF2EF02D0BEC18E0E0DEEC018C81DA
S1131940813049F48FE898E069D58CE998E066D550
S113195081E090E033C0C980D12CC6010496292DC2
S11319603A2D4B2D582DFE01E20FF31F2081520F0B
S11319704F5F242F30E082179307A8F7752E7194D8
S11319801F927F92FF92EF9233D585E0C80ED11C4F
S1131990CC0DDD1D88811F928F931F930F9328D543
S11319A08DB79EB708960FB6F8949EBF0FBE8DBF35
S11319B08881871509F4C1CF80E090E0DF91CF9151
S11319C01F910F91FF90EF90DF90CF90BF90AF9059
S11319D09F908F907F900895AF92BF92DF92EF9285
S11319E0FF921F93CF93DF937C01FF928F9385E93E
S11319F092E09F938F93FCD40F900F900F900F90D1
S1131A00E114F10409F43EC0C0E0D0E0A12CB12CF3
S1131A10BE01882777FD8095982F23DA182F8A3303
S1131A2049F4A50160E070E08AE300DA8FEFA81AB8
S1131A30B80A24C08D3011F18A3001F12196BE011B
S1131A40882777FD8095982F0CDA1A3318F099ECD3
S1131A50910F02C0912F9F70D92EDD0CDD0CDD0C8F
S1131A60DD0C8A3310F0875301C08F70A50160E04C
S1131A7070E08D29DBD98FEFA81AB80A2196CE150C
S1131A80DF0530F281E090E0DF91CF911F91FF906C
S1131A90EF90DF90BF90AF90089539D9E6DA81E0F6
S1131AA004DB84E0F4DA86E012DB8FE097E201974E
S1131AB0F1F700C00000E7DA06DB8FE493EC01974E
S1131AC0F1F700C000008AB18FEF8AB9389880938B
S1131AD00A01A098A19A0895C9D98FEFD5D98FEF9B
S1131AE0D3D98FEFD1D98FEFCFD98FEFCDD980E074
S1131AF0CBD980E0C9D980E0C7D980E0C5D980E0DE
S1131B00C3D980E0C1D980E0BFD980E0BDD980E0ED
S1131B10BBD980E0B9D980E0B7D980E0B5D980E0FD
S1131B20B3D980E0B1D980E0AFD980E0ADD980E00D
S1131B30ABD980E0A9D980E0A7D980E0A5D9E5E0B8
S1131B40F1E080818061808385E38A95F1F700006C
S1131B5080818F7E808308955D9A5C985B988093E2
S1131B600B0182E48A95F1F700C0589A82E48A95C1
S1131B70F1F700C0589882E48A95F1F700C00895FF
S1131B805D985C9A80930B0182E48A95F1F700C01A
S1131B90589A82E48A95F1F700C0589882E48A95AD
S1131BA0F1F700C05B9A5D985C9A90930B0182E414
S1131BB08A95F1F700C0589A82E48A95F1F700C03B
S1131BC0589882E48A95F1F700C008955D985C986E
S1131BD05B985F9880930B0182E48A95F1F700C0CB
S1131BE0589A82E48A95F1F700C0589882E48A955D
S1131BF0F1F700C008955D985C985F985B9A9093A4
S1131C000B0182E48A95F1F700C0589A82E48A9520
S1131C10F1F700C0589882E48A95F1F700C008955E
S1131C205B9A82E48A95F1F700C05E9A82E48A9511
S1131C30F1F700C05E9882E48A95F1F700C0089538
S1131C405F985B985A9882E48A95F1F700C05A9A93
S1131C5082E48A95F1F700C0309BFECF08955D9A27
S1131C605C9810920B0182E48A95F1F700C0589AAF
S1131C7082E48A95F1F700C0589882E48A95F1F7D6
S1131C8000C00895CF92DF92EF92FF926B017C0126
S1131C9058988BB1817C8BB910920B011BB8E5E08D
S1131CA0F1E080818B7F8083C701B6013FD88AE051
S1131CB0C81681E9D8068EE1E806F10449F091E1FD
S1131CC0C91695E9D9069EE1E906F10419F003C0A5
S1131CD038D901C07FD987EC90E00197F1F700C0B3
S1131CE00000CDD995E89A95F1F700008BB1866094
S1131CF08BB987EE93E00197F1F700C00000FF90E5
S1131D00EF90DF90CF90089588E026DF5D985C988F
S1131D105B9810920B0187EC90E00197F1F700C0FB
S1131D200000589A92E49A95F1F700C0589887EC0D
S1131D3090E00197F1F700C0000010920A01E5E07D
S1131D40F1E080818460808359985B9887EE93E00A
S1131D500197F1F700C000008091090180935209B6
S1131D601F928F9384EE98E09F938F9341D3599A57
S1131D70E5E0F1E080818B7F80838FEF80930A011F
S1131D8087EC90E00197F1F700C000005D985C9843
S1131D905B9881E080930B0187EC90E00197F1F769
S1131DA000C00000589A92E49A95F1F700C0589840
S1131DB087EC90E00197F1F700C0000010920A014F
S1131DC080818460808359985B9887EE93E00197C3
S1131DD0F1F700C0000080910901809353091F921C
S1131DE08F9384EE98E09F938F9302D3599AE5E002
S1131DF0F1E080818B7F80838FEF80930A0187ECF1
S1131E0090E00197F1F700C000005D985C985B9842
S1131E1082E080930B0187EC90E00197F1F700C01A
S1131E200000589A92E49A95F1F700C0589887EC0C
S1131E3090E00197F1F700C0000010920A01808140
S1131E408460808359985B9887EE93E00197F1F75B
S1131E5000C0000080910901809354091F928F9360
S1131E6084EE98E09F938F93C3D2599AE5E0F1E012
S1131E7080818B7F80838FEF80930A0110920B0106
S1131E808DB79EB70C960FB6F8949EBF0FBE8DBF4C
S1131E9082E599E00895BF92CF92DF92EF92FF928C
S1131EA00F931F93CF93DF9382E056DEC0E0D0E020
S1131EB00F2EFAE0CF2EDD24D394F02D05E011E0AF
S1131EC00F2EF9E0EF2EFF24F394F02DBB24BA94E7
S1131ED080E090E090DECE0179DEF6011082F80118
S1131EE080818460808359985B9887EE93E00197A2
S1131EF0F1F700C00000F70180815B9A87EE93E060
S1131F000197F1F700C00000F7018081599AF801A8
S1131F1080818B7F8083F601B082F2E4FA95F1F739
S1131F2000C02196C031D10599F6DF91CF911F9160
S1131F300F91FF90EF90DF90CF90BF9008952F9274
S1131F403F924F925F926F927F928F929F92AF9245
S1131F50BF92CF92DF92EF92FF920F931F93CF9392
S1131F60DF93C7DB82E0F8DD05E011E00F2EF9E036
S1131F70AF2EBB24B394F02DC1DB4C01FC01848152
S1131F80813009F45BC08181682E712C2280312C50
S1131F90322C22248381282A3694279461147104D4
S1131FA059F36401F5E0CF0ED11C7101412C512C81
S1131FB080E0C82F90E0D92FC1011DDEC70106DEE5
S1131FC0EAE0F1E01082F80180818460808359980E
S1131FD05B9887EE93E00197F1F700C00000F501EC
S1131FE08081F601908198132CC05B9A87EE93E070
S1131FF00197F1F700C00000F5018081F401E40DC0
S1132000F51D9681981320C0599AF80180818B7F21
S113201080838FEFEAE0F1E0808392E49A95F1F710
S113202000C022962E01EFEFEE1AFE0AF2E0CF0E68
S1132030D11CC615D70508F4BFCF9ECF81E090E030
S113204005C080E090E002C080E090E0DF91CF9195
S11320501F910F91FF90EF90DF90CF90BF90AF90C2
S11320609F908F907F906F905F904F903F902F90B4
S113207008955D9A5C985B9880E880930B0182E4F4
S11320808A95F1F700C0589A82E48A95F1F700C066
S1132090589882E48A95F1F700C05A9882E48A95A8
S11320A0F1F700C05A9A82E48A95F1F700C0309B98
S11320B0FECF08952F923F924F925F926F927F923C
S11320C08F929F92AF92BF92CF92DF92EF92FF9244
S11320D00F931F93CF93DF93CDB7DEB728970FB637
S11320E0F894DEBF0FBECDBF6A3021E972072EE13E
S11320F08207910541F48CEE98E090D180E190E064
S11321009E838D830CC0613175498E41910539F4EC
S11321108CEF98E083D1E0E4F0E0FE83ED8380E18E
S11321201BDD412C512C3201AD81BE81CD01A0E0DB
S1132130B0E089839A83AB83BC83E0DA5C01FC0161
S11321408481813089F48FE898E068D18D819E8103
S11321509C0140E050E0C301B201D5D0672B682B4D
S1132160692B09F456C04FC08180912C2280312CF8
S1132170322C22248381282A3694279481149104B2
S113218079F185010B5F1F4F7101C12CD12C1F8286
S11321901886C7011BDDF501EC0DFD1D868190E05D
S11321A0982F8827F8012081822BEADC2F8138853B
S11321B0C901AA2797FDA095BA2F480E591E6A1E79
S11321C07B1E2EDD8F819885029698878F836C0104
S11321D09FEFE91AF90A0E5F1F4FC814D904C8F219
S11321E0C301B20129813A814B815C818CD0672B78
S11321F0682B692B09F0A1CF8CE099E00FD1C101C4
S1132200FADC1EDD9ACF8EE199E008D1C101F3DC3E
S113221017DD83E399E002D122DD28960FB6F89406
S1132220DEBF0FBECDBFDF91CF911F910F91FF9005
S1132230EF90DF90CF90BF90AF909F908F907F9062
S11322406F905F904F903F902F9008950E944108A7
S11322500E9445080E9465088FE097E20197F1F714
S113226000C0000010920B011BB88FEC97E001979F
S1132270F1F700C0000080E00E948006E5E0F1E094
S113228080818F7D808395E39A95F1F700008081AA
S1132290806280832DE02A95F1F7000080818061BF
S11322A0808385E38A95F1F7000080818F7E8083A7
S11322B080818860808384B3876084BB9FEF29E634
S11322C088E1915020408040E1F700C00000A09ACE
S11322D084B3897F84BB08952FEF89E698E1215068
S11322E080409040E1F700C0000083B3876083BB67
S11322F0A09A0E94BC00F1D978940E94A9008CE4B1
S113230099E08CD0FFCFA1E21A2EAA1BBB1BFD01C2
S11323100DC0AA1FBB1FEE1FFF1FA217B307E407C0
S1132320F50720F0A21BB30BE40BF50B661F771F18
S1132330881F991F1A9469F76095709580959095F8
S11323409B01AC01BD01CF010895A29FB001B39FD1
S1132350C001A39F700D811D1124911DB29F700DAA
S1132360811D1124911D0895FB01DC010D900020B5
S1132370E9F7119701900D920020E1F70895FB0110
S1132380DC0101900D920020E1F708950F931F9353
S1132390CF93DF93182F092FEB018B8181FD03C0AD
S11323A08FEF9FEF20C082FF10C04E815F812C8190
S11323B03D81421753077CF4E881F9819F012F5F27
S11323C03F4F39832883108306C0E885F985812F20
S11323D00995892B29F72E813F812F5F3F4F3F833A
S11323E02E83812F902FDF91CF911F910F9108950C
S11323F0CF93DF93CDB7DEB7FE013596619171912E
S1132400AF018091350B9091360B35D0DF91CF9190
S113241008956091350B7091360BB8CF0F931F93CD
S1132420CF93DF93E091350BF091360B238121FF9D
S11324301BC0EC0100E010E089916091350B7091B4
S1132440360BDB011896ED91FC911997882331F036
S11324500995892B89F30FEF1FEFEECF8AE00995D9
S1132460892B11F4C80102C08FEF9FEFDF91CF9148
S11324701F910F9108952F923F924F925F926F9206
S11324807F928F929F92AF92BF92CF92DF92EF9200
S1132490FF920F931F93CF93DF93CDB7DEB72C97A3
S11324A00FB6F894DEBF0FBECDBF7C016B018A016D
S11324B0FC0117821682838181FFB0C1CE0101968F
S11324C04C01F7019381F60193FD859193FF81916E
S11324D06F01882309F49EC1853239F493FD8591F7
S11324E093FF81916F01853221F4B70190E04EDFB3
S11324F0E8CF512C312C20E02032A0F48B3269F04B
S113250030F4803259F0833269F420612CC08D326A
S113251039F0803339F4216026C02260246023C05E
S1132520286021C027FD27C030ED380F3A3078F4F9
S113253026FF06C0FAE05F9E300D1124532E13C00F
S11325408AE0389E300D1124332E20620CC08E3266
S113255021F426FD5FC1206406C08C3611F4206886
S113256002C0883641F4F60193FD859193FF819171
S11325706F018111C1CF982F9F7D9554933028F41A
S11325800C5F1F4FFFE3F9830DC0833631F08337AF
S113259071F0833509F057C021C0F8018081898327
S11325A00E5F1F4F44244394512C540114C038012E
S11325B0F2E06F0E711CF801A080B18026FF03C009
S11325C0652D70E002C06FEF7FEFC5012C874CD101
S11325D02C0183012C852F77222E16C03801F2E0BE
S11325E06F0E711CF801A080B18026FF03C0652D19
S11325F070E002C06FEF7FEFC5012C872AD12C0158
S11326002C852068222E830123FC19C0832D90E0A1
S113261048165906A0F4B70180E290E0B7DE3A9478
S1132620F5CFF50127FC859127FE81915F01B70164
S113263090E0ACDE31103A94F1E04F1A51084114A5
S1132640510479F7DEC0843611F0893631F5F8018A
S113265027FF07C060817181828193810C5F1F4FC6
S113266008C060817181882777FD8095982F0E5F5F
S11326701F4F2F76B22E97FF09C0909580957095C5
S113268061957F4F8F4F9F4F2068B22E2AE030E034
S1132690A401F5D0A82EA81843C0853729F42F7EAD
S11326A0B22E2AE030E025C0F22FF97FBF2E8F36FC
S11326B0C1F018F4883579F0ADC0803719F0883747
S11326C021F0A8C02F2F2061B22EB4FE0DC08B2D97
S11326D08460B82E09C024FF0AC09F2F9660B92ECB
S11326E006C028E030E005C020E130E002C020E16F
S11326F032E0F801B7FE07C0608171818281938165
S11327000C5F1F4F06C06081718180E090E00E5F16
S11327101F4FA401B4D0A82EA818FB2DFF77BF2EFD
S1132720B6FE0BC02B2D2E7FA51450F4B4FE0AC0A8
S1132730B2FC08C02B2D2E7E05C07A2C2B2D03C095
S11327407A2C01C0752C24FF0DC0FE01EA0DF11D89
S11327508081803311F4297E09C022FF06C073945E
S1132760739404C0822F867809F0739423FD12C0F9
S113277020FF06C05A2C731418F4530C5718732CEA
S1132780731460F4B70180E290E02C87FFDD73944A
S11327902C85F6CF731410F4371801C0312C24FFA4
S11327A011C0B70180E390E02C87F0DD2C8522FF77
S11327B016C021FF03C088E590E002C088E790E0DE
S11327C0B7010CC0822F867851F021FD02C080E24F
S11327D001C08BE227FD8DE2B70190E0D7DDA5149F
S11327E030F4B70180E390E0D1DD5A94F8CFAA9495
S11327F0F401EA0DF11D8081B70190E0C7DDA1105D
S1132800F6CF332009F45DCEB70180E290E0BEDD5F
S11328103A94F7CFF7018681978102C08FEF9FEF3B
S11328202C960FB6F894DEBF0FBECDBFDF91CF91CB
S11328301F910F91FF90EF90DF90CF90BF90AF90DA
S11328409F908F907F906F905F904F903F902F90CC
S11328500895FC010590615070400110D8F78095EF
S113286090958E0F9F1F0895FC0161507040019058
S11328700110D8F7809590958E0F9F1F0895FA0147
S1132880AA27283051F1203181F1E8946F936E7FAB
S11328906E5F7F4F8F4F9F4FAF4FB1E03ED0B4E09C
S11328A03CD0670F781F891F9A1FA11D680F791FDD
S11328B08A1F911DA11D6A0F711D811D911DA11DEE
S11328C020D009F468943F912AE0269F11243019FE
S11328D0305D3193DEF6CF010895462F4770405D99
S11328E04193B3E00FD0C9F7F6CF462F4F70405D48
S11328F04A3318F0495D31FD4052419302D0A9F7A3
S1132900EACFB4E0A6959795879577956795BA959C
S1132910C9F700976105710508959B01AC010A2E62
S113292006945795479537952795BA95C9F7620F39
S1112930731F841F951FA01D0895F894FFCFF8
S113293E0050005068832450C0A80101FFFFFF001F
S113294EC0A8010550E549BF91400050005068836E
S113295E24500000000300000000A906BA0600007F
S113296EFFFFFFFFFF45746865726E657420456E48
S113297E61626C656421004745542000687474706C
S113298E3A2F2F7777772E77692D70726F2E757396
S113299E002F646174612F636C656172666C61678C
S11329AE733F00776970726F69643D313030303037
S11329BE303030303000687474705F676574200096
S11329CE5472616E204C656E6774683A2025640AF1
S11329DE002F646174612F7570646174657373691B
S11329EE64733F0026737369643D0066696C657099
S11329FE6174683A2025730053656E7421002F7537
S1132A0E706C6F6164732F6865782F31303030309D
S1132A1E30303030302F64656661756C742E6865A5
S1132A2E78005754462048454C4C4F342121210000
S1132A3E556E636F6D707265737365642054726145
S1132A4E6E73204C656E6774683A2025640A002FF5
S1132A5E75706C6F6164732F6865782F3130303008
S1132A6E3030303030302F646576696365696E6658
S1132A7E6F2E74787400436F6D7072657373656432
S1132A8E21002F75706C6F6164732F6865782F3118
S1132A9E3030303030303030302F666C61676669DC
S1132AAE6C652E7478740050726F6772616D2100BC
S1132ABE4572726F722C206261642064657669635C
S1132ACE652049442100466C616720537461747516
S1132ADE7300526973696E67204564676521004609
S1132AEE616C6C696E6720456467652100204854EB
S1132AFE54502F312E31200A486F73743A20777751
S1132B0E772E77692D70726F2E7573200A0A005313
S1132B1E656E743A2025730A0057697A6E657420BF
S1132B2E573531303020496E697400456E746572C4
S1132B3E74696E672045746865726E65742053659A
S1132B4E7475700052656164696E67204D523A2047
S1132B5E25640A0A0053657474696E6720476174AC
S1132B6E6577617920416464726573732025642EE0
S1132B7E25642E25642E25640A0052656164696EEF
S1132B8E67204741523A2025642E25642E25642E53
S1132B9E25640A0A0053657474696E6720536F7551
S1132BAE726365204164647265737320252E3278D6
S1132BBE3A252E32783A252E32783A252E32783A24
S1132BCE252E32783A252E32780A005265616469D0
S1132BDE6E67205341523A20252E32783A252E32F2
S1132BEE783A252E32783A252E32783A252E3278B6
S1132BFE3A252E32780A0A0053657474696E67207A
S1132C0E537562204D61736B2041646472657373F6
S1132C1E2025642E25642E25642E25640A00526513
S1132C2E6164696E6720535542523A2025642E25FD
S1132C3E642E25642E25640A0A0053657474696E25
S1132C4E6720495020416464726573732025642E95
S1132C5E25642E25642E25640A0052656164696E0E
S1132C6E6720534950523A2025642E25642E25643C
S1132C7E2E25640A0A00446F6E652057697A6E65C4
S1132C8E7420573531303020496E697469616C692E
S1132C9E7A65642100547279696E6720746F2045D9
S1132CAE737461626C69736820436F6E6E656374CE
S1132CBE696F6E2E2E2E0054696D656F75742C20FF
S1132CCE646973636F6E6E656374696E6721004326
S1132CDE6F6E6E656374696F6E205375636365659D
S1132CEE646564210A00436F756C64206E6F7420F2
S1132CFE636F6E6E6563742E2045786974696E67B2
S1132D0E2E2E2E0A0053523A203078253032780A6D
S1132D1E0054582053697A653A2025640053656E31
S1132D2E64696E672E2E2E0A0045746865726E6590
S1132D3E742052656365697665204461746120541C
S1132D4E696D656F757421005374617473205265D7
S1132D5E673A203078253032780073797374656D54
S1132D6E2E7072696E745F6C6576656C00310073DB
S1132D7E797374656D2E636D642E68656164657216
S1132D8E5F656E61626C65640073797374656D2E34
S1132D9E636D642E70726F6D70745F656E61626CBC
S1132DAE6564006F66660073797374656D2E636D6A
S1132DBE642E6563686F006F6E007363616E0077D7
S1132DCE6C616E2E7373696400776C616E2E706124
S1132DDE73736B65790073747265616D5F636C6F89
S1132DEE736520616C6C007463705F636C69656EEF
S1132DFE740020485454502F312E310A686F737466
S1132E0E3A207777772E77692D70726F2E75730A45
S1132E1E0A005754462048454C4C4F31212121007D
S1132E2E52414D20416464726573733A2025640ADD
S1132E3E0030203530300073747265616D5F7265D9
S1132E4E6164005472616E204C656E6774683A203A
S1132E5E25730A005754462048454C4C4F322121C5
S1132E6E210056616C75653A203078253032782C05
S1132E7E20416464726573733A2025700A00736589
S1132E8E742000436F6D6D616E643A202573204C7F
S1132E9E656E6774683A2025642C204164647265FB
S1132EAE73733A2025700A004672656564210052D8
S1132EBE657475726E696E6721005472616E736DFE
S1132ECE697373696F6E204C656E6774683A20255A
S1132EDE642C20693A2025640A005472616E736D65
S1132EEE697373696F6E204C656E6774683A20253A
S1132EFE640A00446F6E6520526563656976696E77
S1132F0E6721000A5369676E617475726520427990
S1132F1E7465733A202530325820253032582025D6
S1132F2E3032580A005374617274696E672050729D
S1132F3E6F6772616D6D696E6721004572617369A9
S1132F4E6E672E2E2E000A446F6E652045726173D5
S1132F5E696E67210050726F6772616D6D696E677D
S1132F6E2E2E2E000A52656164696E6720466C61CE
S1132F7E736800566572696679696E672E2E2E0027
S1132F8E50726F6772616D6D696E672053756363FE
S1132F9E6565646564210050726F6772616D6D6959
S1132FAE6E67204661696C6564210042616420533A
S1132FBE69676E6174757265204279746521004586
S1132FCE6E64206F662046696C65210043686563F4
S1132FDE6B73756D2050617373656421000A4361D0
S1132FEE6C63756C6174656420436865636B73759B
S1132FFE6D3A203078253032780A00416374756159
S113300E6C20436865636B73756D3A203078253098
S113301E32780A00307825303258200050616765C6
S113302E2073697A652069732031360050616765B3
S113303E2073697A652069732036340046756C6C8A
S113304E2050616765205772697474656E00506113
S113305E727469616C20506167652057726974746B
S113306E656E00456E64696E672050616765205019
S113307E726F6772616D6D696E672100446F6E6564
S105308E21001B
S9030000FC
