S00D0000776970726F2E73726563E6
S11300000C9472000C948F000C948F000C948F004D
S11300100C948F000C948F000C942C020C948F0081
S11300200C948F000C948F000C948F000C948F0010
S11300300C948F000C948F000C948F000C948F0000
S11300400C948F000C948F000C948F000C948F00F0
S11300500C94F4010C948F000C948F000C948F007A
S11300600C948F000C941A080C948F000C948F003D
S11300700C948F000C948F000C948F000C948F00C0
S11300800C948F000C948F000C948F000C948F00B0
S11300900C948F000C948F000C948F000C948F00A0
S11300A00C948F000C948F000C948F000C948F0090
S11300B00C948F000C948F000C948F000C948F0080
S11300C00C948F000C948F000C948F000C948F0070
S11300D00C948F000C948F000C948F000C948F0060
S11300E00C948F0011241FBECFEFD1E2DEBFCDBF31
S11300F015E0A0E0B2E0E6E8F9E102C005900D9257
S1130100A43CB107D9F727E0A4ECB5E001C01D92E7
S1130110A538B207E1F70E9495090C94C10C0C9420
S11301200000109228061092290610922A061092B6
S11301302B0610922C060895E1E8F0E0808184609B
S11301408083109284001092850081E080936F0078
S1130150089580E28DBB84E080936A0008950E9434
S1130160B5058093290681E090E008950E94B804C3
S11301700E947E060E9471050E9491000E94A900BF
S11301800E94AF000895CF93DF93809128068823BF
S113019089F161E070E084EC95E00E94C309C4EC4D
S11301A0D5E0DE010D900020E9F7119785E1E6E145
S11301B0F2E001900D928A95E1F7DE010D900020A6
S11301C0E9F7119782E1EBE2F2E001900D928A9552
S11301D0E1F709900020E9F7DE01119783E1EDE3EF
S11301E0F2E001900D928A95E1F784EC95E00E948B
S11301F0620236C080912906882391F1C4ECD5E0CF
S11302008AE0E0E5F2E0DE0101900D928A95E1F7E3
S1130210DE010D900020E9F7119785E1E6E1F2E0B7
S113022001900D928A95E1F7DE010D900020E9F727
S1130230119782E1EBE2F2E001900D928A95E1F7E9
S113024009900020E9F7DE01119783E1EDE3F2E084
S113025001900D928A95E1F784EC95E00E94610685
S113026084E6E4ECF5E0DF011D928A95E9F781E08C
S113027090E0DF91CF9108950F931F938091290609
S11302808823B9F185E1E6E1F2E0A4ECB5E0019060
S11302900D928A95E1F7A4ECB5E00D900020E9F702
S11302A0119784E2E8E9F2E001900D928A95E1F772
S11302B08CEB92E09F938F930E94FC0981E00E9453
S11302C0760601E010E020E030E0A90161E070E092
S11302D084EC95E00E94D8050E9475070E944C09A1
S11302E045E154E060E070E0CB010E9411050F90FD
S11302F00F9081E090E01F910F9108950F931F9349
S1130300EFE6F0E080818E7F808380912906882348
S113031009F451C085E1E6E1F2E0A4ECB5E0019016
S11303200D928A95E1F7A4ECB5E00D900020E9F771
S1130330119785E2EFECF2E001900D928A95E1F7D6
S113034000E010E020E030E340E050E061E070E0E5
S113035084EC95E00E94D80584EF92E09F938F93FC
S11303600E94FC0943E050E060E070E380E090E02C
S11303700E9411058AE090E00E94100A60E070E398
S113038080E090E00E947E058F7080932A0661E0F1
S113039070E380E090E00E947E058F7080932B06CE
S11303A062E070E380E090E00E947E058F708093AD
S11303B02C060F900F9084E6E4ECF5E0DF011D922B
S11303C08A95E9F780912A06813011F40E943C0154
S11303D00E94C300EFE6F0E080818160808381E0C9
S11303E090E01F910F9108951F920F920FB60F92F4
S11303F011242F933F934F935F936F937F938F9326
S11304009F93AF93BF93CF93DF93EF93FF93CFE685
S1130410D0E088818E7F888380E093E00E94170A71
S11304200E947E0110928400109285008881816070
S11304308883FF91EF91DF91CF91BF91AF919F910D
S11304408F917F916F915F914F913F912F910F9079
S11304500FBE0F901F9018951F920F920FB60F9218
S113046011242F933F934F935F936F937F938F93B5
S11304709F93AF93BF93EF93FF93F894659B09C049
S1130480109228060E94AF008CE093E00E94170AA5
S113049007C081E08093280689E193E00E94170A4F
S11304A07894FF91EF91BF91AF919F918F917F913C
S11304B06F915F914F913F912F910F900FBE0F90CD
S11304C01F901895CF93DF93BC018DE296E00E94B4
S11304D0C309CDE2D6E0DE010D900020E9F71197C3
S11304E082E2E7E2F3E001900D928A95E1F7DF936F
S11304F0CF938FE892E09F938F930E94FC09FE01B3
S113050001900020E9F73197BF016D52764040E039
S113051050E0CE010E94760384E6FE0111928A9592
S1130520E9F70F900F900F900F90DF91CF910895FE
S1130530749820EF2EBD0DB407FEFDCF9EBD0DB403
S113054007FEFDCF8EBD0DB407FEFDCF6EBD0DB40D
S113055007FEFDCF749A089574982FE02EBD0DB454
S113056007FEFDCF9EBD0DB407FEFDCF8EBD0DB4BD
S113057007FEFDCF1EBC0DB407FEFDCF749A8EB5E9
S11305800895DF92EF92FF920F931F93CF93DF931F
S1130590D82E8B017A01E90160E181E094E00E94A8
S11305A098026D2D80E094E00E949802688184E0B6
S11305B094E00E949802698185E094E00E94980288
S11305C061E081E094E00E94980283E094E00E945C
S11305D0AC02833109F7F80160818CE094E00E9459
S11305E09802F80161818DE094E00E949802F8017C
S11305F062818EE094E00E949802F80163818FE0AA
S113060094E00E949802F701608180E194E00E94E6
S11306109802F701618181E194E00E94980264E00C
S113062081E094E00E949802C0E0D0E000E117E28B
S113063036C087E592E00197F1F700C000002196EB
S11306409E01329522952F7023273F702327A7E41C
S1130650B3E00E94A90996958795969587959695F6
S11306608795809F9001819F300D909F300D1124BC
S1130670C217D307A1F483E593E00E94170AC1359A
S113068093ECD90760F085E793E00E94170A60E1D4
S113069081E094E00E94980280E090E019C083E039
S11306A094E00E94AC02873121F683E094E00E943A
S11306B0AC02873139F48DE893E00E94170A81E097
S11306C090E006C084EA93E00E94170A80E090E07C
S11306D0DF91CF911F910F91FF90EF90DF900895DC
S11306E0682F81E094E00E94980208954F925F92EF
S11306F06F927F928F929F92AF92BF92CF92DF922E
S1130700EF92FF920F931F93CF93DF937C016B01C2
S11307103A0183E094E00E94AC021F928F9383EC31
S113072093E09F938F930E94FC0983E094E00E94DE
S1130730AC020F900F900F900F90873159F020E08A
S113074032E042E052E064E072E081E00E94C102E3
S1130750892BA9F380E294E00E94AC02C82FD0E078
S1130760DC2FCC2781E294E00E94AC02C80FD11D9B
S1130770CC15DD0508F4A0C030C08FEC97E00197DC
S1130780F1F700C0000080E294E00E94AC02C82FA0
S1130790D0E0DC2FCC2781E294E00E94AC02C80FA9
S11307A0D11DDF93CF939F928F920E94FC09015039
S11307B011090F900F900F900F900115110551F42E
S11307C088E00E94700381E094E00E94AC028111F1
S11307D0FACF6CC0CC15DD0580F284E294E00E946F
S11307E0AC02482E85E294E00E94AC02512C542CB9
S11307F04424480E511C82E294E00E94AC0283E23D
S113080094E00E94AC028BED93E00E94170AC1149D
S1130810D10479F147018C0C9D1C8201C0E0D4E025
S1130820A090C306B090C406A022B1228091C50650
S11308309091C606A80EB91E6114710451F0BE0150
S113084080E090E00E947E05682FC5010E94980216
S113085005C0F7016081C5010E9498020F5F1F4F18
S1130860FFEFEF1AFF0A2196E814F904C9F64C0CBD
S11308705D1C60E0C50101960E94980284E294E048
S11308800E94AC026FEF84E294E00E949802642D0F
S113089085E294E00E94980280E20E94700381E065
S11308A094E00E94AC028111FACF03C080E090E092
S11308B02CC081E090E029C08FEC97E00197F1F71C
S11308C000C0000080E294E00E94AC02C82FD0E097
S11308D0DC2FCC2781E294E00E94AC02C80FD11D2A
S11308E0DF93CF938FEC93E09F938F930E94FC0947
S11308F00F900F900F900F9009EE13E00F2EFFEC66
S11309008F2EF3E09F2EF02D65CFDF91CF911F91B5
S11309100F91FF90EF90DF90CF90BF90AF909F909A
S11309208F907F906F905F904F900895CF93C82FD2
S11309308A3019F48DE00E949604E0EDF0E0908195
S113094095FFFDCFC093D60080E090E0CF9108954D
S1130950CF93BC01E0EDF0E080818823ECF7C091F7
S1130960D6008C2F0E9496048C2F90E0CF9108958E
S11309701092D50083E38093D40088E18093D10062
S113098086E08093D20088E092E090938007809381
S11309907F0790938207809381070895A39891E03D
S11309A09EBD0DB407FEFDCF8EBD0DB407FEFDCF79
S11309B0A39A0895262F972F482F82E08EBD0DB459
S11309C007FEFDCF4EBD0DB407FEFDCF892F8EBDB2
S11309D00DB407FEFDCF2EBD0DB407FEFDCF089567
S11309E08EBD0DB407FEFDCF0895262F972F482FF7
S11309F083E08EBD0DB407FEFDCF4EBD0DB407FEE2
S1130A00FDCF892F8EBD0DB407FEFDCF2EBD0DB4D5
S1130A1007FEFDCF08951EBC0DB407FEFDCF8EB5B5
S1130A200895EF92FF920F931F93CF93DF93C62FF6
S1130A30D72F182F092F7A0180E40E94CE04A3989F
S1130A406C2F7D2F812F902F0E94F5040F931F93FD
S1130A50DF93CF9388E194E09F938F930E94FC09E6
S1130A600F900F900F900F900F900F90E114F104DE
S1130A70A9F0C0E0D0E009E214E00E940B051F9247
S1130A808F931F930F930E94FC0921960F900F9050
S1130A900F900F90CE15DF0581F702C0E12CF12CE9
S1130AA0A39AFF92EF9281E394E09F938F930E9425
S1130AB0FC090F900F900F900F90DF91CF911F9131
S1130AC00F91FF90EF900895CF93C82FA398CB0177
S1130AD0BA010E94DA048C2F0E94F004A39ACF91E9
S1130AE0089587E084B99B9AA39A81E58CBD40E080
S1130AF050E0BA0182E30E9464050895A3980E941D
S1130B00F5040E940B05A39A0895CF93DF93EB019C
S1130B10AC0161EA74E082E00E949B07AE016BEADB
S1130B2074E082E00E949B074DE152E060E572E0D0
S1130B308FEF0E949B070E947D07892B51F048E4A8
S1130B4053E068EB74E08FEF0E949B0780E090E035
S1130B5009C048E453E068EB74E08FEF0E949B0700
S1130B6081E090E0DF91CF9108950E94C20649ECA4
S1130B7054E060E572E08FEF0E949B070E94D30669
S1130B800E947D07892B51F048E453E068EB74E040
S1130B908FEF0E949B0780E090E0089548E453E0C3
S1130BA068EB74E08FEF0E949B0781E090E008956A
S1130BB02F923F924F925F926F927F928F929F9269
S1130BC0AF92BF92CF92DF92EF92FF920F931F9357
S1130BD0CF93DF93EC016B0149015A010E94C206D5
S1130BE05C9880E090E00E9479065C9AAE0160E532
S1130BF072E08FEF0E949B070E94D306E12CF12C38
S1130C000F2EFAE52F2EF2E03F2EF02DC114D10461
S1130C10D1F0240135014E0C5F1C611C711CC30111
S1130C20B2010E9492077F926F925F924F92A3E06B
S1130C30B5E0BF93AF930E94FC090F900F900F9003
S1130C400F900F900F9044E155E06CE175E08FEF49
S1130C500E949B070E94D3060E947A07EC01DF934F
S1130C60CF933F922F920E94FC090F900F900F9008
S1130C700F908981813339F00E947507E80EF91EBF
S1130C800115110519F60E94CB0648E453E068EB00
S1130C9074E08FEF0E949B0781E090E0DF91CF9199
S1130CA01F910F91FF90EF90DF90CF90BF90AF9086
S1130CB09F908F907F906F905F904F903F902F9078
S1130CC00895CF93DF93EC010E94CB0648E453E0F0
S1130CD0BE018FEF0E949B0748E453E068EB74E089
S1130CE08FEF0E949B07DF91CF9108958093DD06DB
S1130CF008959093DB068093DA0608951092C50058
S1130D0087E08093C400E1ECF0E088E1808386E032
S1130D108093C2008081806880830895CF93DF939D
S1130D201092E60629E0EDECF6E0DF011D922A952B
S1130D30E9F761157105A9F020E030E050E0E0EC3E
S1130D40F0E0A6ECB0E0408145FFFDCFEC01C20F1E
S1130D50D31F28812C935F5F252F30E02617370798
S1130D6090F382E992E00E94170A80E090E0DF911C
S1130D70CF910895E0ECF0E080818823ECF7809136
S1130D80C6000895E1ECF0E0808180688083789467
S1130D9081E090E00895E1ECF0E080818F7780833A
S1130DA081E090E008958091E606811108C081E217
S1130DB08A95F1F700008091E6068823C1F381E06B
S1130DC090E008950F931F93CF93DF938091D806FB
S1130DD09091D906892BF1F0C0E0D0E008E215E04B
S1130DE0FE01E353F94F8081FF93EF931F928F939A
S1130DF01F930F930E94FC0921960F900F900F9060
S1130E000F900F900F90C930D10551F78AE090E010
S1130E100E94100A1092DF061092DE062091D3067B
S1130E208091DE069091DF062F70820F911D9093C2
S1130E30DF068093DE068091D2062091DE06309193
S1130E40DF068F7090E0AC01440F551F880F991F87
S1130E50880F991F880F991F840F951F820F931F66
S1130E609093DF068093DE062091D1068091DE0602
S1130E709091DF062F7034E6239F800D911D11247D
S1130E809093DF068093DE066091D0068091DE06A3
S1130E909091DF066F7048EE53E0649F9001659F68
S1130EA0300D1124820F931F9093DF068093DE068A
S1130EB06091CF068091DE069091DF066F7040E16D
S1130EC057E2649F9001659F300D1124820F931F98
S1130ED09093DF068093DE068091DE069091DF0614
S1130EE0DF91CF911F910F9108958091DE0690912B
S1130EF0DF0608958DEC96E008958091E606811151
S1130F0008C081E28A95F1F700008091E606882303
S1130F10C1F381E090E02091CE06203311F480E00B
S1130F2090E008956093E0067093E1068093E206F2
S1130F309093E30608950F931F93CF93DF93EA01F1
S1130F40813031F0823071F08F3F09F06CC017C0EE
S1130F5085E0E5E5F2E0A7EEB6E001900D928A9512
S1130F60E1F70DC0A7EEB6E00D900020E9F7119768
S1130F7085E0E4E4F5E001900D928A95E1F787EECF
S1130F8096E00E94B80983E0C834D80779F0E7EE08
S1130F90F6E001900020E9F7319780E290E0918338
S1130FA08083BE0187EE96E00E94B809C7EED6E0C2
S1130FB0FE0101900020E9F731978DE09AE0A0E06E
S1130FC080839183A283FE0101900020E9F7319789
S1130FD08F01075E1640DF93CF931F930F93DF9328
S1130FE0CF9389E495E09F938F930E94FC09B80105
S1130FF0CE010E948E0684E6FE0111928A95E9F7DD
S11310008EE695E00E94170A85E795E00E94170A8C
S11310108DB79EB708960FB6F8949EBF0FBE8DBFCE
S113102081E090E002C080E090E0DF91CF911F91D9
S11310300F9108951F920F920FB60F9211242F93C0
S11310403F934F935F936F937F938F939F93AF934C
S1131050BF93CF93DF93EF93FF93F8948091E406CB
S11310609091E506892BE9F40E94BA068093D6068E
S11310708091D606823509F0E6C01092DB06109204
S1131080DA06E091DA06F091DB068091D606E353A6
S1131090F94F808381E090E09093E5068093E40625
S11310A0D2C08091DA069091DB06099750F4C09182
S11310B0DA06D091DB060E94BA06C353D94F88835F
S11310C0C2C08091DA069091DB06099739F40E9438
S11310D0E2069093DF068093DE06B5C02091DE061B
S11310E03091DF068091DA069091DB06275F3F4F4F
S11310F08217930708F06DC00E94BA068093D60643
S11311008091DD06813009F04BC08091D6068A3388
S1131110C9F42091DA063091DB064091E006509143
S1131120E1066091E2067091E3068091D6064A508A
S1131130510961097109420F531F611D711D0E94FC
S1131140640581C08091DC0681110AC08091D606B5
S11311508295807F8093D70681E08093DC0673C0FC
S11311609091D6068091D706892B8093D70620913B
S1131170DA063091DB064091E0065091E106609179
S1131180E2067091E3064A50510961097109420F60
S1131190531F611D711D0E9464051092DC0653C02B
S11311A02091DA063091DB064091E0065091E10689
S11311B06091E2067091E3068091D6064A50510987
S11311C061097109420F531F611D711D0E9464055D
S11311D03AC08091DA069091DB064091E006509186
S11311E0E1066091E2067091E3064A5051096109F3
S11311F07109480F591F611D711D80E00E9464052B
S11312001092DB061092DA061092E5061092E406BC
S11312101092DD061092DC061092D70681E08093CE
S1131220E6060E94E2069F938F9380E895E09F93E1
S11312308F930E94FC0989E995E00E94170A0F9098
S11312400F900F900F908091DA069091DB06019633
S11312509093DB068093DA067894FF91EF91DF9107
S1131260CF91BF91AF919F918F917F916F915F913A
S11312704F913F912F910F900FBE0F901F90189593
S113128010927E0710927D0782E3EBE4F7E0DF0122
S11312901D928A95E9F70895AF92BF92CF92DF929B
S11312A0EF92FF920F931F93CF93DF936C010097FC
S11312B079F101E010E0C0E0D0E0780181E0E81AC3
S11312C0F108BE01882777FD8095982F0E947E053E
S11312D08A33C1F08F70282F30E0590102C0AA0C64
S11312E0BB1C8A95E2F72196BE01882777FD80957D
S11312F0982F0E947E05A70160E070E08F708A2914
S11313000E94640521960F5F1F4FCC15DD05A8F2DE
S113131081E090E0DF91CF911F910F91FF90EF90CA
S1131320DF90CF90BF90AF9008950E94B6000E94C6
S1131330400978940E94D30669EA75E087EB95E04A
S11313400E9485050E949C008EEB95E00E94170A7E
S1131350FFCFA29FB001B39FC001A39F700D811D59
S11313601124911DB29F700D811D1124911D0895AA
S1131370FB01DC010D900020E9F7119701900D921B
S11313800020E1F70895FB01DC0101900D9200209B
S1131390E1F708950F931F93CF93DF93182F092F2D
S11313A0EB018B8181FD03C08FEF9FEF20C082FF93
S11313B010C04E815F812C813D81421753077CF41C
S11313C0E881F9819F012F5F3F4F39832883108380
S11313D006C0E885F985812F0995892B29F72E8187
S11313E03F812F5F3F4F3F832E83812F902FDF91CB
S11313F0CF911F910F910895A0E0B0E0E2E0FAE0F0
S11314000C949A0CFE01359661917191AF01809113
S11314108107909182070E94440AE2E00C94B60C82
S113142060918107709182070E94CA0908950F9301
S11314301F93CF93DF93E0918107F091820723817B
S113144021FF1BC0EC0100E010E08991609181074D
S113145070918207DB011896ED91FC91199788230E
S113146031F00995892B89F30FEF1FEFEECF8AE056
S11314700995892B11F4C80102C08FEF9FEFDF910A
S1131480CF911F910F910895ACE0B0E0EAE4FAE047
S11314900C948A0C7C016B018A01FC011782168270
S11314A0838181FFBDC1CE0101964C01F701938177
S11314B0F60193FD859193FF81916F01882309F4CF
S11314C0ABC1853239F493FD859193FF81916F010E
S11314D0853229F4B70190E00E94CA09E7CF512C64
S11314E0312C20E02032A0F48B3269F030F48032C9
S11314F059F0833269F420612CC08D3239F0803385
S113150039F4216026C02260246023C0286021C0F1
S113151027FD27C030ED380F3A3078F426FF06C097
S1131520FAE05F9E300D1124532E13C08AE0389EDA
S1131530300D1124332E20620CC08E3221F426FD8E
S11315406BC1206406C08C3611F4206802C0883652
S113155041F4F60193FD859193FF81916F0181110F
S1131560C1CF982F9F7D9554933028F40C5F1F4F63
S1131570FFE3F9830DC0833631F0833771F083358F
S113158009F05BC022C0F801808189830E5F1F4F80
S113159044244394512C540115C03801F2E06F0ED9
S11315A0711CF801A080B18026FF03C0652D70E096
S11315B002C06FEF7FEFC5012C870E94210C2C0124
S11315C083012C852F77222E17C03801F2E06F0E8D
S11315D0711CF801A080B18026FF03C0652D70E066
S11315E002C06FEF7FEFC5012C870E94160C2C01FF
S11315F02C852068222E830123FC1BC0832D90E0C0
S113160048165906B0F4B70180E290E00E94CA0976
S11316103A94F4CFF50127FC859127FE81915F016F
S1131620B70190E00E94CA0931103A94F1E04F1AD0
S113163051084114510471F7E5C0843611F089361C
S113164039F5F80127FF07C0608171818281938198
S11316500C5F1F4F08C060817181882777FD8095DA
S1131660982F0E5F1F4F2F76B22E97FF09C09095CB
S11316708095709561957F4F8F4F9F4F2068B22E54
S11316802AE030E0A4010E942C0CA82EA81844C023
S1131690853729F42F7EB22E2AE030E025C0F22FC0
S11316A0F97FBF2E8F36C1F018F4883579F0B4C0B5
S11316B0803719F0883721F0AFC02F2F2061B22E68
S11316C0B4FE0DC08B2D8460B82E09C024FF0AC05F
S11316D09F2F9660B92E06C028E030E005C020E1B7
S11316E030E002C020E132E0F801B7FE07C06081BB
S11316F07181828193810C5F1F4F06C0608171816B
S113170080E090E00E5F1F4FA4010E942C0CA82ED5
S1131710A818FB2DFF77BF2EB6FE0BC02B2D2E7FF6
S1131720A51450F4B4FE0AC0B2FC08C02B2D2E7EC2
S113173005C07A2C2B2D03C07A2C01C0752C24FFF4
S11317400DC0FE01EA0DF11D8081803311F4297E64
S113175009C022FF06C07394739404C0822F867854
S113176009F0739423FD13C020FF06C05A2C731490
S113177018F4530C5718732C731468F4B70180E2EF
S113178090E02C870E94CA0973942C85F5CF7314BA
S113179010F4371801C0312C24FF12C0B70180E3C4
S11317A090E02C870E94CA092C8522FF17C021FFD4
S11317B003C088E590E002C088E790E0B7010CC060
S11317C0822F867859F021FD02C080E201C08BE2AD
S11317D027FD8DE2B70190E00E94CA09A51438F4F0
S11317E0B70180E390E00E94CA095A94F7CFAA9403
S11317F0F401EA0DF11D8081B70190E00E94CA094D
S1131800A110F5CF332009F451CEB70180E290E066
S11318100E94CA093A94F6CFF7018681978102C0E3
S11318208FEF9FEF2C96E2E10C94A60CFC0105903F
S1131830615070400110D8F7809590958E0F9F1FCE
S11318400895FC016150704001900110D8F7809513
S113185090958E0F9F1F0895FA01AA27283051F101
S1131860203181F1E8946F936E7F6E5F7F4F8F4FCD
S11318709F4FAF4FB1E03ED0B4E03CD0670F781F2C
S1131880891F9A1FA11D680F791F8A1F911DA11D11
S11318906A0F711D811D911DA11D20D009F468944A
S11318A03F912AE0269F11243019305D3193DEF6F2
S11318B0CF010895462F4770405D4193B3E00FD0A8
S11318C0C9F7F6CF462F4F70405D4A3318F0495D93
S11318D031FD4052419302D0A9F7EACFB4E0A69576
S11318E09795879577956795BA95C9F70097610598
S11318F0710508959B01AC010A2E069457954795EE
S113190037952795BA95C9F7620F731F841F951FE2
S1131910A01D08952F923F924F925F926F927F92F3
S11319208F929F92AF92BF92CF92DF92EF92FF92EB
S11319300F931F93CF93DF93CDB7DEB7CA1BDB0B97
S11319400FB6F894DEBF0FBECDBF09942A8839883C
S113195048885F846E847D848C849B84AA84B98443
S1131960C884DF80EE80FD800C811B81AA81B9814F
S1131970CE0FD11D0FB6F894DEBF0FBECDBFED0163
S10919800895F894FFCF66
S1131986005000506883245000000003000000004B
S11319969604A8040000687474703A2F2F7777773A
S11319A62E77692D70726F2E7573002F64617461C2
S11319B62F636C656172666C6167733F007769704B
S11319C6726F69643D313030303030303030300041
S11319D6687474705F67657420005472616E204C7D
S11319E6656E6774683A2025640A002F6461746121
S11319F62F75706461746573736964733F0026732D
S1131A067369643D0066696C65706174683A202583
S1131A16730053656E7421002F75706C6F61647367
S1131A262F6865782F313030303030303030302FF9
S1131A3664656661756C742E68657800436F6D70B5
S1131A467265737320466C61672053657421002F99
S1131A5675706C6F6164732F6865782F3130303020
S1131A663030303030302F666C616766696C652EB5
S1131A767478740052616D205072696E743A200055
S1131A86466C616720537461747573005269736997
S1131A966E672045646765210046616C6C696E67F4
S1131AA62045646765210020485454502F312E3157
S1131AB6200A486F73743A207777772E77692D70EA
S1131AC6726F2E7573200A0A0053656E743A2025C8
S1131AD6730A00547279696E6720746F20457374B3
S1131AE661626C69736820436F6E6E656374696FB7
S1131AF66E2E2E2E0054696D656F75742C206469E4
S1131B0673636F6E6E656374696E672100436F6EEF
S1131B166E656374696F6E2053756363656564658A
S1131B2664210A00436F756C64206E6F7420636FC2
S1131B366E6E6563742E2045786974696E672E2E01
S1131B462E0A0053523A203078253032780A00544F
S1131B56582053697A653A2025640053656E646992
S1131B666E672E2E2E0A0045746865726E657420A3
S1131B765265636569766520446174612054696DB4
S1131B86656F757421005374617473205265673AE6
S1131B962030782530327800416464726573733A74
S1131BA6203078253036780A0030782530325820AF
S1131BB6000A53697A653A2025640A0073797374B6
S1131BC6656D2E7072696E745F6C6576656C003136
S1131BD60073797374656D2E636D642E6865616434
S1131BE665725F656E61626C6564007379737465B2
S1131BF66D2E636D642E70726F6D70745F656E61A9
S1131C06626C6564006F66660073797374656D2E25
S1131C16636D642E6563686F006F6E007363616E37
S1131C2600776C616E2E7373696400776C616E2E37
S1131C36706173736B65790073747265616D5F634C
S1131C466C6F736520616C6C00777777772E776994
S1131C562D70726F2E7573007463705F636C6965A3
S1131C666E740020485454502F312E310A686F7315
S1131C76743A207777772E77692D70726F2E757385
S1131C860A0A0052414D20416464726573733A2016
S1131C9625640A00302031303030300073747265A8
S1131CA6616D5F726561640056616C75653A2030DA
S1131CB678253032782C20416464726573733A2037
S1131CC625700A007365742000436F6D6D616E6440
S1131CD63A202573204C656E6774683A2025642C77
S1131CE620416464726573733A2025700A00467253
S1131CF6656564210052657475726E696E672100AC
S1131D065472616E736D697373696F6E204C656E80
S1131D166774683A2025640A00446F6E652052652C
S1131D2663656976696E67210062726967687473B0
S1131D36686F653930320057692D50726F00446FF1
S1071D466E652100A1
S9030000FC
