S01200005541525453747265616D2E737265636A
S11300000C943E000C945B000C945B000C945B001D
S11300100C945B000C945B000C945B000C945B00F0
S11300200C945B000C945B000C945B000C945B00E0
S11300300C945B000C945B000C945B000C945B00D0
S11300400C945B000C945B000C945B000C945B00C0
S11300500C945B000C945B000C945B000C945B00B0
S11300600C945B000C945B000C945B000C945B00A0
S11300700C945B000C945B000C945B0011241FBE79
S1130080CFEFD8E0DEBFCDBF11E0A0E0B1E0EEE3FA
S1130090F1E002C005900D92A031B107D9F721E03B
S11300A0A0E1B1E001C01D92A631B207E1F70E94C0
S11300B069000C949D000C9400001092C50089E125
S11300C08093C40088E18093C10086E08093C200DD
S11300D008950E945D0080E091E00E947000FFCFCF
S11300E00F931F93CF93DF93E0911201F0911301CB
S11300F0238121FF1BC0EC0100E010E08991609195
S1130100120170911301DB011896ED91FC9119977E
S1130110882331F00995892B89F30FEF1FEFEECF78
S11301208AE00995892B11F4C80102C08FEF9FEF73
S1110130DF91CF911F910F910895F894FFCFA6
S113013E54686973206973206120746573740A00AE
S9030000FC
