S016000045746865726E65744D6F64756C652E7372656369
S11300000C943E000C9468060C945B000C945B000A
S11300100C945B000C945B000C945B000C945B00F0
S11300200C945B000C945B000C945B000C945B00E0
S11300300C945B000C945B000C945B000C945B00D0
S11300400C945B000C945B000C945B000C945B00C0
S11300500C945B000C945B000C945B000C945B00B0
S11300600C945B000C945B000C945B000C945B00A0
S11300700C945B000C945B000C945B0011241FBE79
S1130080CFEFD8E0DEBFCDBF15E0A0E0B1E0E0E9FE
S1130090F5E102C005900D92A83BB107D9F725E020
S11300A0A8EBB5E001C01D92A63CB207E1F70E949F
S11300B0F8060C94C60A0C940000CF93C82F8A301B
S11300C019F48DE00E945D008091C00085FFFCCF93
S11300D0C093C60080E090E0CF910895CF93BC0117
S11300E08091C00087FFFCCFC091C6008C2F0E9476
S11300F05D008C2F90E0CF9108951092C50089E1A6
S11301008093C40088E18093C10086E08093C2009C
S113011008958091C00087FF03C08091C600F9CF85
S11301200895CF93DF93C2ECD5E0688179818BE1A8
S113013090E00E94D607688179818BE590E00E9467
S1130140D6076881798188E490E00E94D6076881A7
S113015079818BE190E00E94D607688179818BE5F3
S113016090E00E94D607688179818AE490E0DF916B
S1130170CF910C94D607CF93DF93C2ECD5E068817E
S113018079818BE190E00E94D607688179818BE5C3
S113019090E00E94D6076881798180E390E00E9414
S11301A0D607688179818DE690E0DF91CF910C9438
S11301B0D607109820EF2EBD0DB407FEFDCF9EBDCF
S11301C00DB407FEFDCF8EBD0DB407FEFDCF6EBD91
S11301D00DB407FEFDCF109A089510982FE02EBDA0
S11301E00DB407FEFDCF9EBD0DB407FEFDCF8EBD41
S11301F00DB407FEFDCF1EBC0DB407FEFDCF109A53
S11302008EB508956F927F928F929F92AF92BF9214
S1130210CF92DF92EF92FF920F931F93CF93DF93CE
S1130220782EEB015A01890184E1E82E81E0F82E51
S11302309AE3C92E91E0D92E2BE7822E21E0922E4B
S113024060E181E094E00E94D900672D80E094E0B1
S11302500E94D900F80181811F928F9380811F929F
S11302608F93FF92EF920E940808F801608184E066
S113027094E00E94D900F801618185E094E00E9435
S1130280D90085E094E00E94ED00682E84E094E0BB
S11302900E94ED001F926F921F928F93DF92CF9274
S11302A00E94080881E691E00E941C0861E081E058
S11302B094E00E94D90083E094E00E94ED001F9234
S11302C08F939F928F920E94080883E094E00E948B
S11302D0ED002DB73EB7205F3F4F0FB6F8943EBFF9
S11302E00FBE2DBF833109F08EC08B811F928F9377
S11302F08A811F928F9389811F928F9388811F9285
S11303008F938EE891E09F938F930E9408086881F1
S11303108CE094E00E94D90069818DE094E00E9411
S1130320D9006A818EE094E00E94D9006B818FE04D
S113033094E00E94D9008FE094E00E94ED00182F11
S11303408EE094E00E94ED00D82F8DE094E00E94AE
S1130350ED00C82F8CE094E00E94ED001F921F93E3
S11303601F92DF931F92CF931F928F9385EB91E09F
S11303709F938F930E94080883E094E00E94ED000D
S11303801F928F93CBE7D1E0DF93CF930E940808AD
S113039084ED91E00E941C08F501608180E194E005
S11303A00E94D900F501618181E194E00E94D900A5
S11303B081E194E00E94ED00182F80E194E00E9416
S11303C0ED001F921F931F928F9388EE91E09F93ED
S11303D08F930E94080883E094E00E94ED001F922E
S11303E08F93DF93CF930E9408088DB79EB78296B0
S11303F00FB6F8949EBF0FBE8DBF64E081E094E019
S11304000E94D90008C083E094E00E94ED0082338A
S113041009F016CF6ACF82E094E00E94ED008F715C
S1130420D1F7C8EED3E083E094E00E94ED0085317B
S113043071F4EDEEF2E03197F1F700C0000021977E
S1130440209789F781E092E00E941C08EACF83E0BC
S113045094E00E94ED001F928F93CBE7D1E0DF93ED
S1130460CF930E94080883E094E00E94ED000F906F
S11304700F900F900F908731A9F483E094E00E94CD
S1130480ED001F928F93DF93CF930E94080883E2BD
S113049092E00E941C080F900F900F900F9081E043
S11304A090E014C083E094E00E94ED001F928F93CB
S11304B0DF93CF930E9408088AE392E00E941C080D
S11304C00F900F900F900F9080E090E0DF91CF910C
S11304D01F910F91FF90EF90DF90CF90BF90AF905E
S11304E09F908F907F906F90089565E58AE190E0EA
S11304F00E94D90065E58BE190E00E94D9008FEF5E
S113050097E09093B9058093B80520E030E43093E8
S1130510BB052093BA059093BF058093BE0580E088
S113052090E69093BD058093BC050895BF92CF9249
S1130530DF92EF92FF920F931F93CF93DF93EC011F
S11305408B016A017901089A80EB84B9109A80E5DD
S11305508CBD89E592E00E941C088BE692E00E9423
S11305601C0860E880E090E00E94D90089EF90E0E8
S11305700197F1F700C0000080E090E00E94ED00D8
S11305801F928F9384E892E09F938F930E940808B0
S1130590F70183811F928F9382811F928F938181B0
S11305A01F928F9380811F928F9385E992E09F938E
S11305B08F930E940808F701608181E090E00E9417
S11305C0D900F701618182E090E00E94D900F7012F
S11305D0628183E090E00E94D900F701638184E0A6
S11305E090E00E94D90089EF90E00197F1F700C0F4
S11305F0000084E090E00E94ED00B82E83E090E0DB
S11306000E94ED00E82E82E090E00E94ED00F82EBA
S113061081E090E00E94ED001F92BF921F92EF9242
S11306201F92FF921F928F938AEB92E09F938F9376
S11306300E9408088D811F928F938C811F928F9343
S11306408B811F928F938A811F928F9389811F922E
S11306508F9388811F928F9385ED92E09F938F9360
S11306600E940808EDB7FEB7B6960FB6F894FEBF21
S11306700FBEEDBF688189E090E00E94D9006981D6
S11306808AE090E00E94D9006A818BE090E00E94A9
S1130690D9006B818CE090E00E94D9006C818DE0E0
S11306A090E00E94D9006D818EE090E00E94D90014
S11306B089EF90E00197F1F700C000008EE090E030
S11306C00E94ED00B82E8DE090E00E94ED00E82E2F
S11306D08CE090E00E94ED00F82E8BE090E00E9408
S11306E0ED00D82F8AE090E00E94ED00C82F89E049
S11306F090E00E94ED001F92BF921F92EF921F9212
S1130700FF921F92DF931F92CF931F928F938BE0E0
S113071093E09F938F930E940808F60183811F92B0
S11307208F9382811F928F9381811F928F938081F7
S11307301F928F9388E393E09F938F930E940808FE
S1130740F601608185E090E00E94D900F6016181A4
S113075086E090E00E94D900F601628187E090E093
S11307600E94D900F601638188E090E00E94D900DC
S113077089EF90E00197F1F700C0000088E090E075
S11307800E94ED00F82E87E090E00E94ED00D82F43
S113079086E090E00E94ED00C82F85E090E00E9482
S11307A0ED001F92FF921F92DF931F92CF931F922F
S11307B08F938EE593E09F938F930E940808EDB783
S11307C0FEB7B2960FB6F894FEBF0FBEEDBFF801A8
S11307D083811F928F9382811F928F9381811F92B5
S11307E08F9380811F928F938AE793E09F938F93D7
S11307F00E940808F80160818FE090E00E94D9000F
S1130800F801618180E190E00E94D900F8016281E1
S113081081E190E00E94D900F801638182E190E0D7
S11308200E94D90089EF90E00197F1F700C0000021
S113083082E190E00E94ED00182F81E190E00E9497
S1130840ED00D82F80E190E00E94ED00C82F8FE0EA
S113085090E00E94ED001F921F931F92DF931F925E
S1130860CF931F928F938AE993E09F938F930E9473
S1130870080886EB93E00E941C08EDB7FEB7749657
S11308800FB6F894FEBF0FBEEDBFDF91CF911F915D
S11308900F91FF90EF90DF90CF90BF900C94750272
S11308A0CF9386E294E00E94ED00C82F87E294E0A3
S11308B00E94ED002C2F30E0322F2227A901480F8F
S11308C0511DCA01CF910895682F81E094E00C94E2
S11308D0D9006F927F928F929F92AF92BF92CF92E4
S11308E0DF92EF92FF920F931F93CF93DF936C01EC
S11308F07B01FF926F9385ED93E09F938F930E940A
S1130900080880E294E00E94ED00C82FD0E0DC2FBC
S1130910CC2781E294E00E94ED00C80FD11DDF9343
S1130920CF9384EE93E09F938F930E940808EDB7D2
S1130930FEB738960FB6F894FEBF0FBEEDBFAAEE11
S1130940AA2EA3E0BA2EB6EF8B2EB3E09B2ECE15C3
S1130950DF0590F589EF90E00197F1F700C0000002
S113096080E294E00E94ED00C82FD0E0DC2FCC2779
S113097081E294E00E94ED00C80FD11DDF93CF9374
S11309809F928F920E940808F1E0AF1AB1080F906D
S11309900F900F900F90A114B104C9F682E094E077
S11309A00E941C0888E00E94640481E094E00E9494
S11309B0ED008111FACFEBC084E294E00E94ED00D7
S11309C0C82F85E294E00E94ED00D0E0DC2FCC2714
S11309D0C80FD11D82E294E00E94ED00682E83E2EC
S11309E094E00E94ED00782EDF93CF9346E154E02B
S11309F05F934F930E940808A090BA05B090BB057E
S1130A008090B8059090B905AE01482159214A0D4E
S1130A105B1D5F934F9345E254E05F934F930E94B5
S1130A200808262D30E0322F2227270D311D2821DA
S1130A3039212A0D3B1D3F932F9382E394E09F932A
S1130A408F930E9408085601AE0CBF1CEDB7FEB789
S1130A503C960FB6F894FEBF0FBEEDBF4E018C1846
S1130A609D08C601880D991DCA14DB0499F00091F4
S1130A70B8051091B905082319238091BA059091FE
S1130A80BB05080F191FF60161916F01C8010E948F
S1130A90D900E7CFEC0EFD1E60E0C80101960E946C
S1130AA0D900FF92EF928FE394E09F938F930E947B
S1130AB0080884E294E00E94ED0084E294E00E943D
S1130AC0ED001F928F9351E5C52E54E0D52EDF9291
S1130AD0CF920E94080885E294E00E94ED001F92E4
S1130AE08F930DE514E01F930F930E9408081F9243
S1130AF0FF92CBE3D4E0DF93CF930E940808570121
S1130B00BB24BF92AF92DF93CF930E9408086FEF8C
S1130B1084E294E00E94D9006E2D85E294E00E9464
S1130B20D9001F92FF92DF93CF930E940808BF92CF
S1130B30AF92DF93CF930E94080884E294E00E946E
S1130B40ED001F928F93DF92CF920E9408088DB719
S1130B509EB780960FB6F8949EBF0FBE8DBF85E2F8
S1130B6094E00E94ED001F928F931F930F930E94B5
S1130B70080880E20E9464040F900F900F900F9079
S1130B8081E094E00E94ED008111FACF03C080E07F
S1130B9090E002C081E090E0DF91CF911F910F912E
S1130BA0FF90EF90DF90CF90BF90AF909F908F9089
S1130BB07F906F900895AF92BF92CF92DF92EF92A1
S1130BC0FF920F931F93CF93DF93EC017B0161306E
S1130BD082E0780720F02EEFE22EFF24F39488E2DF
S1130BE094E00E94ED00082F89E294E00E94ED0059
S1130BF010E0102F0027080F111D1F930F938AE692
S1130C0094E09F938F930E9408086E01CE0CDF1C22
S1130C100F900F900F900F905801AC1ABD0A9E01CF
S1130C202A0D3B1DCC15DD0581F08091BE05909108
S1130C30BF05822393232091BC053091BD05820F0B
S1130C40931F0E94ED008993EACF0E0D1F1D188299
S1130C50612F88E294E00E94D900602F89E294E039
S1130C600E94D90080E40E94640400C000C0000017
S1130C7081E090E0DF91CF911F910F91FF90EF9071
S1130C80DF90CF90BF90AF90089588E00E946404F5
S1130C9081E094E00E94ED008111FACF08958FEF76
S1130CA08AB91BB880E091E09093C1058093C00598
S1130CB09093C3058093C2050E947D000E94BB00EF
S1130CC00E9491000E94BB000E9491000C94890034
S1130CD01F920F920FB60F9211242F933F934F93AD
S1130CE05F936F937F938F939F93AF93BF93CF93B0
S1130CF0EF93FF9386E190E00E94ED001F928F93A3
S1130D0089E794E09F938F930E94080885E190E01F
S1130D100E94ED00C82F1F928F9322E934E03F9385
S1130D202F930E94080860E082E094E00E94D900BA
S1130D3060E082E095E00E94D90060E082E096E005
S1130D400E94D90060E082E097E00E94D90085E12A
S1130D5090E00E94ED00682F606E85E190E00E94B3
S1130D60D9008DB79EB708960FB6F8949EBF0FBEF4
S1130D708DBFC0FF2BC082E094E00E94ED0084FF91
S1130D8003C080EB94E013C083FF03C089EC94E0BC
S1130D900EC082FF03C087EE94E009C081FF03C048
S1130DA089EF94E004C080FF05C08EE095E00E94C6
S1130DB01C080CC01F928F9382E295E09F938F933F
S1130DC00E9408080F900F900F900F90FF91EF91E1
S1130DD0CF91BF91AF919F918F917F916F915F91CF
S1130DE04F913F912F910F900FBE0F901F90189528
S1130DF0CF93DF93CDB7DEB7C854D2400FB6F89483
S1130E00DEBF0FBECDBF86E0EEE0F1E0DE01A15D06
S1130E10BD4F01900D928A95E1F730ECCF5BDD4F29
S1130E203883C154D24028EACE5BDD4F2883C254B4
S1130E30D24081E0CD5BDD4F8883C354D24095E03E
S1130E40CC5BDD4F9883C454D2409FEFC35CDD4F2D
S1130E509883CD53D240C25CDD4F9883CE53D240A9
S1130E60C15CDD4F9883CF53D240C05CDD4F188204
S1130E70C054D240C75CDD4F3883C953D240C65CEE
S1130E80DD4F2883CA53D240C55CDD4F8883CB53E2
S1130E90D240C45CDD4F8883CC53D24088E6CB5C1F
S1130EA0DD4F8883C553D24083E8CA5CDD4F888315
S1130EB0C653D24084E2C95CDD4F8883C753D24015
S1130EC080E5C85CDD4F8883C853D240C95BDD4FE1
S1130ED01882C754D240C85BDD4F8883C854D240BF
S1130EE0CB5BDD4F1882C554D240CA5BDD4F88838B
S1130EF0C654D2400E944F069E01275C3D4FAE016E
S1130F00435C5D4FBE016F5B7D4FCE01815D9D4FA4
S1130F100E9496029E012B5B3D4FAE01495B5D4FE3
S1130F20BE016B5C7D4F81E00E9402018E010B507B
S1130F301E4F8AE3EEE7F5E0D80101900D928A9501
S1130F40E1F71F930F938EE495E09F938F930E9494
S1130F500808F80101900020E9F7BF016150710908
S1130F60601B710BC8010E94690464E670E0045FB1
S1130F701140C8010E94DB050E9450049F938F9387
S1130F8080E695E09F938F930E9408081F930F9328
S1130F9082E795E09F938F930E9408080E9445067C
S1130FA00FB6F894DEBF0FBECDBFFFCF0F931F93D4
S1130FB0CF93DF93182F092FEB018B8181FD03C0A1
S1130FC08FEF9FEF20C082FF10C04E815F812C8184
S1130FD03D81421753077CF4E881F9819F012F5F1B
S1130FE03F4F39832883108306C0E885F985812F14
S1130FF00995892B29F72E813F812F5F3F4F3F832E
S11310002E83812F902FDF91CF911F910F910895FF
S1131010A0E0B0E0EEE0F8E00C949F0AFE01359603
S113102061917191AF018091C2059091C3050E94B5
S11310304908E2E00C94BB0A0F931F93CF93DF930C
S1131040E091C205F091C305238121FF1BC0EC018F
S113105000E010E089916091C2057091C305DB0145
S11310601896ED91FC911997882331F00995892BF5
S113107089F30FEF1FEFEECF8AE00995892B11F466
S1131080C80102C08FEF9FEFDF91CF911F910F91A5
S11310900895ACE0B0E0EFE4F8E00C948F0A7C0132
S11310A06B018A01FC0117821682838181FFBDC115
S11310B0CE0101964C01F7019381F60193FD8591D0
S11310C093FF81916F01882309F4ABC1853239F410
S11310D093FD859193FF81916F01853229F4B701C6
S11310E090E00E94D607E7CF512C312C20E020322B
S11310F0A0F48B3269F030F4803259F0833269F411
S113110020612CC08D3239F0803339F4216026C03F
S11311102260246023C0286021C027FD27C030ED51
S1131120380F3A3078F426FF06C0FAE05F9E300D9F
S11311301124532E13C08AE0389E300D1124332E0F
S113114020620CC08E3221F426FD6BC1206406C0DF
S11311508C3611F4206802C0883641F4F60193FD00
S1131160859193FF81916F018111C1CF982F9F7D4C
S11311709554933028F40C5F1F4FFFE3F9830DC09F
S1131180833631F0833771F0833509F05BC022C0B8
S1131190F801808189830E5F1F4F44244394512CAE
S11311A0540115C03801F2E06F0E711CF801A080E3
S11311B0B18026FF03C0652D70E002C06FEF7FEFA2
S11311C0C5012C870E94260A2C0183012C852F77C8
S11311D0222E17C03801F2E06F0E711CF801A080B6
S11311E0B18026FF03C0652D70E002C06FEF7FEF72
S11311F0C5012C870E941B0A2C012C852068222EF5
S1131200830123FC1BC0832D90E048165906B0F4DB
S1131210B70180E290E00E94D6073A94F4CFF5013A
S113122027FC859127FE81915F01B70190E00E9420
S1131230D60731103A94F1E04F1A51084114510481
S113124071F7E5C0843611F0893639F5F80127FFC6
S113125007C060817181828193810C5F1F4F08C038
S113126060817181882777FD8095982F0E5F1F4FCD
S11312702F76B22E97FF09C0909580957095619551
S11312807F4F8F4F9F4F2068B22E2AE030E0A40199
S11312900E94310AA82EA81844C0853729F42F7E4D
S11312A0B22E2AE030E025C0F22FF97FBF2E8F3610
S11312B0C1F018F4883579F0B4C0803719F0883754
S11312C021F0AFC02F2F2061B22EB4FE0DC08B2DA4
S11312D08460B82E09C024FF0AC09F2F9660B92EDF
S11312E006C028E030E005C020E130E002C020E183
S11312F032E0F801B7FE07C0608171818281938179
S11313000C5F1F4F06C06081718180E090E00E5F2A
S11313101F4FA4010E94310AA82EA818FB2DFF77A5
S1131320BF2EB6FE0BC02B2D2E7FA51450F4B4FE99
S11313300AC0B2FC08C02B2D2E7E05C07A2C2B2DA2
S113134003C07A2C01C0752C24FF0DC0FE01EA0DE8
S1131350F11D8081803311F4297E09C022FF06C06B
S11313607394739404C0822F867809F0739423FDD8
S113137013C020FF06C05A2C731418F4530C5718CA
S1131380732C731468F4B70180E290E02C870E94F8
S1131390D60773942C85F5CF731410F4371801C055
S11313A0312C24FF12C0B70180E390E02C870E9407
S11313B0D6072C8522FF17C021FF03C088E590E0E3
S11313C002C088E790E0B7010CC0822F867859F0FC
S11313D021FD02C080E201C08BE227FD8DE2B7014E
S11313E090E00E94D607A51438F4B70180E390E09A
S11313F00E94D6075A94F7CFAA94F401EA0DF11D7E
S11314008081B70190E00E94D607A110F5CF332068
S113141009F451CEB70180E290E00E94D6073A94D5
S1131420F6CFF7018681978102C08FEF9FEF2C964C
S1131430E2E10C94AB0AFC0105906150704001108C
S1131440D8F7809590958E0F9F1F0895FC016150E9
S1131450704001900110D8F7809590958E0F9F1FD2
S11314600895FA01AA27283051F1203181F1E89436
S11314706F936E7F6E5F7F4F8F4F9F4FAF4FB1E083
S11314803ED0B4E03CD0670F781F891F9A1FA11D7E
S1131490680F791F8A1F911DA11D6A0F711D811D7F
S11314A0911DA11D20D009F468943F912AE0269F44
S11314B011243019305D3193DEF6CF010895462FA3
S11314C04770405D4193B3E00FD0C9F7F6CF462F84
S11314D04F70405D4A3318F0495D31FD40524193ED
S11314E002D0A9F7EACFB4E0A695979587957795AA
S11314F06795BA95C9F700976105710508959B0131
S1131500AC010A2E06945795479537952795BA95B9
S1131510C9F7620F731F841F951FA01D08952F9292
S11315203F924F925F926F927F928F929F92AF926F
S1131530BF92CF92DF92EF92FF920F931F93CF93BC
S1131540DF93CDB7DEB7CA1BDB0B0FB6F894DEBF53
S11315500FBECDBF09942A88398848885F846E8479
S11315607D848C849B84AA84B984C884DF80EE80C3
S1131570FD800C811B81AA81B981CE0FD11D0FB6CC
S1131580F894DEBF0FBECDBFED010895F894FFCFF0
S113159000000003000000005D006E00000050E544
S11315A049BF914053657474696E6720536F7572B7
S11315B0636520506F7274206F6E20536F636B6588
S11315C074203020256425640A0052656164696EC4
S11315D06720536F7572636520506F7274206F6E4D
S11315E020536F636B6574203020256425640A0AD8
S11315F00053657474696E6720536F636B65742060
S11316003020746F204F70656E0A00535049205388
S113161052205374617475733A2025640A0053652B
S11316207474696E67205365727665722049502020
S1131630416464726573732025642E25642E2564C9
S11316402E25640A0052656164696E672053305F19
S1131650444950523A2025642E25642E25642E25B3
S1131660640A0A0053657474696E67205365727660
S1131670657220506F72740052656164696E6720F0
S113168053305F44504F52543A20256425640A0A6B
S113169000547279696E6720746F204573746162B7
S11316A06C69736820436F6E6E656374696F6E2E28
S11316B02E2E00436F6E6E656374696F6E205375D2
S11316C063636565646564210A00436F756C642017
S11316D06E6F7420636F6E6E6563742E2045786937
S11316E074696E672E2E2E0A0057697A6E6574200F
S11316F0573531303020496E697400456E74657217
S113170074696E672045746865726E6574205365EC
S11317107475700052656164696E67204D523A2099
S113172025640A0A0053657474696E6720476174FE
S11317306577617920416464726573732025642E32
S113174025642E25642E25640A0052656164696E41
S113175067204741523A2025642E25642E25642EA5
S113176025640A0A0053657474696E6720536F75A3
S1131770726365204164647265737320252E327828
S11317803A252E32783A252E32783A252E32783A76
S1131790252E32783A252E32780A00526561646922
S11317A06E67205341523A20252E32783A252E3244
S11317B0783A252E32783A252E32783A252E327808
S11317C03A252E32780A0A0053657474696E6720CC
S11317D0537562204D61736B204164647265737349
S11317E02025642E25642E25642E25640A00526566
S11317F06164696E6720535542523A2025642E2550
S1131800642E25642E25640A0A0053657474696E77
S11318106720495020416464726573732025642EE7
S113182025642E25642E25640A0052656164696E60
S11318306720534950523A2025642E25642E25648E
S11318402E25640A0A00446F6E652057697A6E6516
S11318507420573531303020496E697469616C6980
S11318607A6564210053656E642053697A653A2071
S113187025640A00545820467265652053697A65C8
S11318803A2025640A0054582053697A653A202581
S11318906400545820467265652053697A65204572
S11318A072726F7221005458204275666665723AEE
S11318B02025780A005265616C2057523A2025642D
S11318C00A005265616C2052523A2025640A004F86
S11318D066667365742041667465723A2025640AED
S11318E0005752204C6F773A2025640A0057522043
S11318F0486967683A2025640A0052582042756690
S11319006665723A2025780A004D61736B20526532
S11319106769737465722056616C75653A20256435
S11319200A00496E74657272757074205265676935
S1131930737465722056616C75653A2025640A00DB
S113194053656E64204F7065726174696F6E2043D5
S11319506F6D706C6574652E0054696D656F757478
S1131960204F63637572726564206F6E20536F63DA
S11319706B657420302100526563656976696E6712
S113198020446174612E2E2E00536F636B657420A6
S1131990446973636F6E6E65637465642E00536F80
S11319A0636B6574203020436F6E6E656374656489
S11319B02E00556E646566696E656420496E7465B3
S11319C07272757074204F636375727265642E2031
S11319D0496E742056616C75653A20256400536520
S11319E06E74204D6573736167653A2025730A0030
S11319F0526563656976652053697A653A20256482
S1131A000A004D6573736167653A20257300504F72
S1131A105354202F646174613F743D48656C6C6F4E
S1131A20253230576F726C6420485454502F312E35
S1131A30310A686F73743A207777772E77692D703F
S10B1A40726F2E75730A0A008F
S9030000FC
