S016000045746865726E65744D6F64756C652E7372656369
S11300000C943E000C9469050C945B000C945B000A
S11300100C945B000C945B000C945B000C945B00F0
S11300200C945B000C945B000C945B000C945B00E0
S11300300C945B000C945B000C945B000C945B00D0
S11300400C945B000C945B000C945B000C945B00C0
S11300500C945B000C945B000C945B000C945B00B0
S11300600C945B000C945B000C945B000C945B00A0
S11300700C945B000C945B000C945B0011241FBE79
S1130080CFEFD8E0DEBFCDBF14E0A0E0B1E0EAEEF0
S1130090F2E102C005900D92A439B107D9F724E02A
S11300A0A4E9B4E001C01D92A43AB207E1F70E94AA
S11300B0EE050C9473090C94000028E031E04CE048
S11300C051E060E171E084E191E00E943A0120E0B6
S11300D031E042E051E064E071E081E00E94DE0141
S11300E00C945103CF93DF93D82FC92F9F938F93F1
S11300F028E231E03F932F930E94AE060E94400510
S1130100ED2FFC2FDF010D900020E9F7BD016150B8
S113011071096E1B7F0B0F900F900F900F908D2F16
S11301209C2FDF91CF910C947703CF93C82F8A3003
S113013019F48DE00E9495008091C00085FFFCCFEA
S1130140C093C60080E090E0CF910895CF93BC01A6
S11301508091C00087FFFCCFC091C6008C2F0E9405
S113016095008C2F90E0CF9108951092C5008FECEC
S11301708093C40088E18093C10086E08093C2002C
S113018008958091C00087FF03C08091C600F9CF15
S11301900895CF93DF93C0EAD4E0688179818BE13D
S11301A090E00E947C06688179818BE590E00E9452
S11301B07C066881798188E490E00E947C066881ED
S11301C079818BE190E00E947C06688179818BE5DE
S11301D090E00E947C06688179818AE490E0DF9156
S11301E0CF910C947C06CF93DF93C0EAD4E068816E
S11301F079818BE190E00E947C06688179818BE5AE
S113020090E00E947C066881798180E390E00E94FE
S11302107C06688179818DE690E0DF91CF910C9422
S11302207C06109820EF2EBD0DB407FEFDCF9EBDB9
S11302300DB407FEFDCF8EBD0DB407FEFDCF6EBD20
S11302400DB407FEFDCF109A089510982FE02EBD2F
S11302500DB407FEFDCF9EBD0DB407FEFDCF8EBDD0
S11302600DB407FEFDCF1EBC0DB407FEFDCF109AE2
S11302708EB50895CF92DF92EF92FF920F931F9362
S1130280CF93DF93EC018B016A017901089A80EB2B
S113029084B9109A80E58CBD60E880E090E00E940B
S11302A0110189EF90E00197F1F700C00000F70118
S11302B0608181E090E00E941101F701618182E098
S11302C090E00E941101F701628183E090E00E94B6
S11302D01101F701638184E090E00E94110189EF2C
S11302E090E00197F1F700C00000688189E090E098
S11302F00E94110169818AE090E00E9411016A81E3
S11303008BE090E00E9411016B818CE090E00E94F0
S113031011016C818DE090E00E9411016D818EE0ED
S113032090E00E941101E9EFF0E03197F1F700C08D
S11303300000F601608185E090E00E941101F60161
S1130340618186E090E00E941101F601628187E0FC
S113035090E00E941101F601638188E090E00E9420
S1130360110189EF90E00197F1F700C00000F80156
S113037060818FE090E00E941101F801618180E1C9
S113038090E00E941101F801628181E190E00E94F5
S11303901101F801638182E190E00E94110189EF6B
S11303A090E00197F1F700C00000DF91CF911F9119
S11303B00F91FF90EF90DF90CF9008956F927F920E
S11303C08F929F92AF92BF92CF92DF92EF92FF9261
S11303D00F931F93CF93DF93782EEB015A0189017A
S11303E089E6E82E81E0F82E9FE8C92E91E0D92E07
S11303F020ED822E21E0922E60E181E094E00E94C3
S11304001101672D80E094E00E941101F8018181BF
S11304101F928F9380811F928F93FF92EF920E947D
S1130420AE06F801608184E094E00E941101F801B5
S1130430618185E094E00E94110185E094E00E94CE
S11304402501682E84E094E00E9425011F926F929A
S11304501F928F93DF92CF920E94AE0686EB91E0BB
S11304600E94C90661E081E094E00E94110183E0EA
S113047094E00E9425011F928F939F928F920E9475
S1130480AE0683E094E00E9425012DB73EB7205FBD
S11304903F4F0FB6F8943EBF0FBE2DBF833109F016
S11304A08EC08B811F928F938A811F928F93898133
S11304B01F928F9388811F928F9383EE91E09F9375
S11304C08F930E94AE0668818CE094E00E94110133
S11304D069818DE094E00E9411016A818EE094E0CC
S11304E00E9411016B818FE094E00E9411018FE062
S11304F094E00E942501182F8EE094E00E942501CB
S1130500D82F8DE094E00E942501C82F8CE094E060
S11305100E9425011F921F931F92DF931F92CF9376
S11305201F928F938AE092E09F938F930E94AE066E
S113053083E094E00E9425011F928F93C0EDD1E0E7
S1130540DF93CF930E94AE0689E292E00E94C9062F
S1130550F501608180E194E00E941101F50161815F
S113056081E194E00E94110181E194E00E9425015F
S1130570182F80E194E00E9425011F921F931F927F
S11305808F938DE392E09F938F930E94AE0683E056
S113059094E00E9425011F928F93DF93CF930E94D2
S11305A0AE068DB79EB782960FB6F8949EBF0FBE67
S11305B08DBF64E081E094E00E94110108C083E0F3
S11305C094E00E942501823309F016CF6ACF82E0BD
S11305D094E00E9425018F71D1F7C8EED3E083E047
S11305E094E00E942501853171F4EDEEF2E031973B
S11305F0F1F700C000002197209789F786E592E083
S11306000E94C906EACF83E094E00E9425011F926C
S11306108F93C0EDD1E0DF93CF930E94AE0683E0C9
S113062094E00E9425010F900F900F900F90873156
S1130630A9F483E094E00E9425011F928F93DF9335
S1130640CF930E94AE0688E792E00E94C9060F90FD
S11306500F900F900F9081E090E014C083E094E03D
S11306600E9425011F928F93DF93CF930E94AE06C1
S11306708FE892E00E94C9060F900F900F900F90A0
S113068080E090E0DF91CF911F910F91FF90EF9068
S1130690DF90CF90BF90AF909F908F907F906F909E
S11306A0089563E08AE190E00E94110163E08BE128
S11306B090E00E9411018FEF9FE190939704809343
S11306C0960420E030E430939904209398049093A6
S11306D09D0480939C0480E090E690939B04809317
S11306E09A040895682F81E094E00C9411016F92AC
S11306F07F928F929F92AF92BF92CF92DF92EF92AE
S1130700FF920F931F93CF93DF936C017B01FF92B2
S11307106F938EEA92E09F938F930E94AE0680E2DD
S113072094E00E942501C82FD0E0DC2FCC2781E281
S113073094E00E942501C80FD11DDF93CF938DEB68
S113074092E09F938F930E94AE06EDB7FEB7389662
S11307500FB6F894FEBF0FBEEDBFAAEEAA2EA3E01B
S1130760BA2EBFEC8B2EB2E09B2ECE15DF0590F592
S113077089EF90E00197F1F700C0000080E294E077
S11307800E942501C82FD0E0DC2FCC2781E294E021
S11307900E942501C80FD11DDF93CF939F928F92A2
S11307A00E94AE06F1E0AF1AB1080F900F900F90BF
S11307B00F90A114B104C9F68BED92E00E94C90612
S11307C088E00E94720381E094E00E942501811177
S11307D0FACFEBC084E294E00E942501C82F85E2A1
S11307E094E00E942501D0E0DC2FCC27C80FD11D56
S11307F082E294E00E942501682E83E294E00E9444
S11308002501782EDF93CF934FEE52E05F934F9301
S11308100E94AE06A0909804B0909904809096042B
S113082090909704AE01482159214A0D5B1D5F93B6
S11308304F934EEF52E05F934F930E94AE06262DE6
S113084030E0322F2227270D311D282139212A0D8E
S11308503B1D3F932F938BE093E09F938F930E94D4
S1130860AE065601AE0CBF1CEDB7FEB73C960FB6F4
S1130870F894FEBF0FBEEDBF4E018C189D08C60153
S1130880880D991DCA14DB0499F000919604109107
S11308909704082319238091980490919904080FD0
S11308A0191FF60161916F01C8010E941101E7CF80
S11308B0EC0EFD1E60E0C80101960E941101FF923A
S11308C0EF9288E193E09F938F930E94AE0684E2B7
S11308D094E00E94250184E294E00E9425011F9285
S11308E08F935AE2C52E53E0D52EDF92CF920E9409
S11308F0AE0685E294E00E9425011F928F9306E3E1
S113090013E01F930F930E94AE061F92FF92C4E15F
S1130910D3E0DF93CF930E94AE065701BB24BF926E
S1130920AF92DF93CF930E94AE066FEF84E294E020
S11309300E9411016E2D85E294E00E9411011F9224
S1130940FF92DF93CF930E94AE06BF92AF92DF93E4
S1130950CF930E94AE0684E294E00E9425011F9288
S11309608F93DF92CF920E94AE068DB79EB780968A
S11309700FB6F8949EBF0FBE8DBF85E294E00E942F
S113098025011F928F931F930F930E94AE0680E25E
S11309900E9472030F900F900F900F9081E094E0EB
S11309A00E9425018111FACF03C080E090E002C0CB
S11309B081E090E0DF91CF911F910F91FF90EF9034
S11309C0DF90CF90BF90AF909F908F907F906F906B
S11309D00895CF92DF92EF92FF920F931F93CF93DC
S11309E0DF936B0188E294E00E942501082F89E2DD
S11309F094E00E94250110E0102F0027080F111D1C
S1130A00C0E0D0E07E01E00EF11ECC15DD0599F0CA
S1130A1080919C0490919D048E219F2120919A04A1
S1130A2030919B04820F931F0E942501BE010E94F6
S1130A3070062196E7CF6F2D88E294E00E941101A1
S1130A406E2D89E294E00E94110180E40E947203F9
S1130A5000C000C0000081E090E0DF91CF911F91C1
S1130A600F91FF90EF90DF90CF90089588E00E945F
S1130A70720381E094E00E9425018111FACF089568
S1130A8061EE86E190E00E941101E89A82E0809391
S1130A906900789408958FEF8AB91BB88AE191E0D0
S1130AA090939F0480939E049093A1048093A00448
S1130AB00E94B5000E94F3000E94C9000E94F30046
S1130AC00E94C9000C94C1008091940490919504F3
S1130AD008951F920F920FB60F9211242F933F93F4
S1130AE04F935F936F937F938F939F93AF93BF9332
S1130AF0CF93EF93FF93F89486E190E00E94250151
S1130B001F928F9383E493E09F938F930E94AE068A
S1130B1085E190E00E942501C82F1F928F932CE558
S1130B2033E03F932F930E94AE068DB79EB708968D
S1130B300FB6F8949EBF0FBE8DBFC0FF3DC082E0CC
S1130B4094E00E942501C82F6FEF82E094E00E9498
S1130B501101C4FF03C08AE793E01FC0C3FF03C0B1
S1130B6083E993E01AC0C2FF0FC06FEF7FE180E01A
S1130B7090E00E94E90481E090E0909395048093D2
S1130B80940481EB93E009C0C1FF03C083EC93E0BC
S1130B9004C0C0FF05C088ED93E00E94C9060CC0E4
S1130BA01F92CF938CEE93E09F938F930E94AE0697
S1130BB00F900F900F900F90FF91EF91CF91BF91F5
S1130BC0AF919F918F917F916F915F914F913F91E1
S1130BD02F910F900FBE0F901F9018950E944B05F8
S1130BE00E940A06789488E194E00E94C9060E9453
S1130BF05D0087E294E00E9472000E946405892BE4
S1130C00E1F36FEF7FE180E090E00E9443060E94F1
S1130C103605FFCF80EB84B9099A80E58CBD089531
S1130C20119891E09EBD0DB407FEFDCF8EBD0DB4AD
S1130C3007FEFDCF119A089522E02EBD0DB407FEE4
S1130C40FDCF9EBD0DB407FEFDCF8EBD0DB407FED6
S1130C50FDCF08958EBD0DB407FEFDCF089523E0AA
S1130C602EBD0DB407FEFDCF9EBD0DB407FEFDCF16
S1130C708EBD0DB407FEFDCF08951EBC0DB407FE56
S1130C80FDCF8EB508950F931F93CF93DF93EC019F
S1130C908B0180E40E9410061198CE010E942F0659
S1130CA0C0E0D0E0C017D10739F00E943D0690E0C3
S1130CB00E94C2062196F6CF119ADF93CF9384E85F
S1130CC094E09F938F930E94AE060F900F900F9025
S1130CD00F9083E894E0DF91CF911F910F910895D5
S1130CE0CF93C82F1198CB010E941C068C2F0E9411
S1130CF02A06119ACF9108950F931F93CF93DF93F0
S1130D00182F092FEB018B8181FD03C08FEF9FEF1B
S1130D1020C082FF10C04E815F812C813D8142172B
S1130D2053077CF4E881F9819F012F5F3F4F39839A
S1130D302883108306C0E885F985812F0995892BBE
S1130D4029F72E813F812F5F3F4F3F832E83812FD1
S1130D50902FDF91CF911F910F910895A0E0B0E003
S1130D60E4EBF6E00C944C09FE0135966191719127
S1130D70AF018091A0049091A1040E94F606E2E0E4
S1130D800C9468096091A0047091A1040E947C06EF
S1130D9008950F931F93CF93DF93E091A004F091F4
S1130DA0A104238121FF1BC0EC0100E010E0899124
S1130DB06091A0047091A104DB011896ED91FC915F
S1130DC01997882331F00995892B89F30FEF1FEFC9
S1130DD0EECF8AE00995892B11F4C80102C08FEF88
S1130DE09FEFDF91CF911F910F910895ACE0B0E098
S1130DF0ECEFF6E00C943C097C016B018A01FC01E8
S1130E0017821682838181FFBDC1CE0101964C01F8
S1130E10F7019381F60193FD859193FF81916F0111
S1130E20882309F4ABC1853239F493FD859193FF8E
S1130E3081916F01853229F4B70190E00E947C060C
S1130E40E7CF512C312C20E02032A0F48B3269F012
S1130E5030F4803259F0833269F420612CC08D3231
S1130E6039F0803339F4216026C02260246023C025
S1130E70286021C027FD27C030ED380F3A3078F4C0
S1130E8026FF06C0FAE05F9E300D1124532E13C0D6
S1130E908AE0389E300D1124332E20620CC08E322D
S1130EA021F426FD6BC1206406C08C3611F4206841
S1130EB002C0883641F4F60193FD859193FF819138
S1130EC06F018111C1CF982F9F7D9554933028F4E1
S1130ED00C5F1F4FFFE3F9830DC0833631F0833776
S1130EE071F0833509F05BC022C0F80180818983E9
S1130EF00E5F1F4F44244394512C540115C03801F4
S1130F00F2E06F0E711CF801A080B18026FF03C0CF
S1130F10652D70E002C06FEF7FEFC5012C870E9442
S1130F20D3082C0183012C852F77222E17C038017A
S1130F30F2E06F0E711CF801A080B18026FF03C09F
S1130F40652D70E002C06FEF7FEFC5012C870E9412
S1130F50C8082C012C852068222E830123FC1BC089
S1130F60832D90E048165906B0F4B70180E290E072
S1130F700E947C063A94F4CFF50127FC859127FE64
S1130F8081915F01B70190E00E947C0631103A9490
S1130F90F1E04F1A51084114510471F7E5C0843649
S1130FA011F0893639F5F80127FF07C06081718196
S1130FB0828193810C5F1F4F08C0608171818827F3
S1130FC077FD8095982F0E5F1F4F2F76B22E97FFD7
S1130FD009C090958095709561957F4F8F4F9F4F75
S1130FE02068B22E2AE030E0A4010E94DE08A82E78
S1130FF0A81844C0853729F42F7EB22E2AE030E0A9
S113100025C0F22FF97FBF2E8F36C1F018F4883532
S113101079F0B4C0803719F0883721F0AFC02F2F92
S11310202061B22EB4FE0DC08B2D8460B82E09C091
S113103024FF0AC09F2F9660B92E06C028E030E036
S113104005C020E130E002C020E132E0F801B7FE43
S113105007C060817181828193810C5F1F4F06C03C
S11310606081718180E090E00E5F1F4FA4010E94B7
S1131070DE08A82EA818FB2DFF77BF2EB6FE0BC0E6
S11310802B2D2E7FA51450F4B4FE0AC0B2FC08C068
S11310902B2D2E7E05C07A2C2B2D03C07A2C01C05B
S11310A0752C24FF0DC0FE01EA0DF11D80818033F3
S11310B011F4297E09C022FF06C07394739404C0FE
S11310C0822F867809F0739423FD13C020FF06C095
S11310D05A2C731418F4530C5718732C731468F4A3
S11310E0B70180E290E02C870E947C0673942C85E3
S11310F0F5CF731410F4371801C0312C24FF12C03B
S1131100B70180E390E02C870E947C062C8522FFA7
S113111017C021FF03C088E590E002C088E790E093
S1131120B7010CC0822F867859F021FD02C080E2FD
S113113001C08BE227FD8DE2B70190E00E947C069E
S1131140A51438F4B70180E390E00E947C065A9419
S1131150F7CFAA94F401EA0DF11D8081B70190E064
S11311600E947C06A110F5CF332009F451CEB701BB
S113117080E290E00E947C063A94F6CFF7018681E3
S1131180978102C08FEF9FEF2C96E2E10C945809EF
S1131190FC010590615070400110D8F7809590953E
S11311A08E0F9F1F0895FC01615070400190011043
S11311B0D8F7809590958E0F9F1F0895FA01AA275E
S11311C0283051F1203181F1E8946F936E7F6E5F86
S11311D07F4F8F4F9F4FAF4FB1E03ED0B4E03CD034
S11311E0670F781F891F9A1FA11D680F791F8A1F17
S11311F0911DA11D6A0F711D811D911DA11D20D07E
S113120009F468943F912AE0269F11243019305D37
S11312103193DEF6CF010895462F4770405D419328
S1131220B3E00FD0C9F7F6CF462F4F70405D4A3375
S113123018F0495D31FD4052419302D0A9F7EACF3D
S1131240B4E0A6959795879577956795BA95C9F76C
S113125000976105710508959B01AC010A2E06945F
S11312605795479537952795BA95C9F7620F731F18
S1131270841F951FA01D08952F923F924F925F9255
S11312806F927F928F929F92AF92BF92CF92DF9292
S1131290EF92FF920F931F93CF93DF93CDB7DEB7F7
S11312A0CA1BDB0B0FB6F894DEBF0FBECDBF09948B
S11312B02A88398848885F846E847D848C849B84E2
S11312C0AA84B984C884DF80EE80FD800C811B81F0
S11312D0AA81B981CE0FD11D0FB6F894DEBF0FBE1F
S10D12E0CDBFED010895F894FFCF8F
S11312EA0050005068832450C0A80101FFFFFF008A
S11312FAC0A8010550E549BF914000000003000061
S113130A00009500A600000053656E743A20257308
S113131A0073706C6974002E686578006874747060
S113132A3A2F2F7777772E77692D70726F2E757310
S113133A2F75706C6F6164732F6865782F00313074
S113134A30303030303030300053657474696E6731
S113135A20536F7572636520506F7274206F6E200C
S113136A536F636B6574203020256425640A005228
S113137A656164696E6720536F7572636520506F87
S113138A7274206F6E20536F636B6574203020254E
S113139A6425640A0A0053657474696E6720536F7E
S11313AA636B6574203020746F204F70656E0A0079
S11313BA535049205352205374617475733A20254B
S11313CA640A0053657474696E672053657276659E
S11313DA7220495020416464726573732025642E17
S11313EA25642E25642E25640A0052656164696E9B
S11313FA672053305F444950523A2025642E2564AD
S113140A2E25642E25640A0A0053657474696E676E
S113141A2053657276657220506F7274005265614A
S113142A64696E672053305F44504F52543A202502
S113143A6425640A0A00547279696E6720746F20FD
S113144A45737461626C69736820436F6E6E656379
S113145A74696F6E2E2E2E00436F6E6E6563746907
S113146A6F6E20537563636565646564210A00437E
S113147A6F756C64206E6F7420636F6E6E6563742F
S113148A2E2045786974696E672E2E2E0A005365DC
S113149A6E642053697A653A2025640A00545820F8
S11314AA467265652053697A653A2025640A0054B0
S11314BA582053697A653A202564005458204672A4
S11314CA65652053697A65204572726F72210054EA
S11314DA58204275666665723A2025780A00526574
S11314EA616C2057523A2025640A005265616C20C7
S11314FA52523A2025640A004F6666736574204185
S113150A667465723A2025640A005752204C6F7734
S113151A3A2025640A00575220486967683A202508
S113152A640A004D61736B2052656769737465724E
S113153A2056616C75653A2025640A00496E746503
S113154A7272757074205265676973746572205675
S113155A616C75653A2025640A0053656E64204FF0
S113156A7065726174696F6E20436F6D706C657417
S113157A652E0054696D656F7574204F63637572C7
S113158A726564206F6E20536F636B65742030211B
S113159A00526563656976696E6720446174612ED9
S11315AA2E2E00536F636B657420446973636F6EE8
S11315BA6E65637465642E00536F636B65742030C3
S11315CA20436F6E6E65637465642E00556E6465A0
S11315DA66696E656420496E7465727275707420EA
S11315EA4F636375727265642E20496E7420566166
S11315FA6C75653A202564005374617274696E6768
S113160A2055702E2E2E0047455420687474703A63
S113161A2F2F7777772E77692D70726F2E75732F28
S113162A75706C6F6164732F6865782F3130303050
S113163A3030303030302F64656661756C742E68D2
S113164A657820485454502F312E31200A486F733C
S113165A743A207777772E77692D70726F2E7573A7
S113166A200A0A000A0A506F736974696F6E3A2075
S107167A25640000DF
S9030000FC
