S016000045746865726E65744D6F64756C652E7372656369
S11300000C943E000C945A060C945B000C945B0018
S11300100C945B000C945B000C945B000C945B00F0
S11300200C945B000C945B000C945B000C945B00E0
S11300300C945B000C945B000C945B000C945B00D0
S11300400C945B000C945B000C945B000C945B00C0
S11300500C945B000C945B000C945B000C945B00B0
S11300600C945B000C945B000C945B000C945B00A0
S11300700C945B000C945B000C945B0011241FBE79
S1130080CFEFD8E0DEBFCDBF15E0A0E0B1E0EEEBEE
S1130090F3E102C005900D92AA36B107D9F725E025
S11300A0AAE6B5E001C01D92A837B207E1F70E94A5
S11300B0EA060C94DD090C940000CF93C82F8A3013
S11300C019F48DE00E945D008091C00085FFFCCF93
S11300D0C093C60080E090E0CF910895CF93BC0117
S11300E08091C00087FFFCCFC091C6008C2F0E9476
S11300F05D008C2F90E0CF9108951092C50089E1A6
S11301008093C40088E18093C10086E08093C2009C
S113011008958091C00087FF03C08091C600F9CF85
S11301200895CF93DF93C4E7D5E0688179818BE1AB
S113013090E00E94ED06688179818BE590E00E9451
S1130140ED066881798188E490E00E94ED0668817B
S113015079818BE190E00E94ED06688179818BE5DD
S113016090E00E94ED06688179818AE490E0DF9155
S1130170CF910C94ED06CF93DF93C4E7D5E068816B
S113018079818BE190E00E94ED06688179818BE5AD
S113019090E00E94ED066881798180E390E00E94FE
S11301A0ED06688179818DE690E0DF91CF910C9422
S11301B0ED06109820EF2EBD0DB407FEFDCF9EBDB9
S11301C00DB407FEFDCF8EBD0DB407FEFDCF6EBD91
S11301D00DB407FEFDCF109A089510982FE02EBDA0
S11301E00DB407FEFDCF9EBD0DB407FEFDCF8EBD41
S11301F00DB407FEFDCF1EBC0DB407FEFDCF109A53
S11302008EB50895BF92CF92DF92EF92FF920F9333
S11302101F93CF93DF9308E211E08BE3C82E81E0B4
S1130220D82E91E6E92E91E0F92E83E094E00E9425
S1130230ED001F928F93C8E2D1E01F930F930E94A9
S11302401F0760E181E094E00E94D90061E080E052
S113025094E00E94D90080910F011F928F938091A6
S11302600E011F928F93DF92CF920E941F0760911D
S11302700E0184E094E00E94D90060910F0185E0B2
S113028094E00E94D90085E094E00E94ED00B82E2D
S113029084E094E00E94ED001F92BF921F928F931E
S11302A0FF92EF920E941F0788E891E00E943307B3
S11302B061E081E094E00E94D90083E094E00E9430
S11302C0ED001F928F931F930F930E941F0783E0EB
S11302D094E00E94ED002DB73EB72C5E3F4F0FB661
S11302E0F8943EBF0FBE2DBF833109F09ECF80919D
S11302F015011F928F93809114011F928F93809107
S113030013011F928F93809112011F928F9382EA9F
S113031091E09F938F930E941F07609112018CE0DC
S113032094E00E94D900609113018DE094E00E9452
S1130330D900609114018EE094E00E94D90060918C
S113034015018FE094E00E94D9008FE094E00E94B0
S1130350ED00F82E8EE094E00E94ED00082F8DE071
S113036094E00E94ED00182F8CE094E00E94ED00D0
S11303701F92FF921F920F931F921F931F928F93AE
S113038089EC91E09F938F930E941F0783E094E090
S11303900E94ED001F928F93DF93CF930E941F075B
S11303A088EE91E00E9433076091100180E194E0AF
S11303B00E94D9006091110181E194E00E94D9006A
S11303C081E194E00E94ED00182F80E194E00E9406
S11303D0ED001F921F931F928F938CEF91E09F93D8
S11303E08F930E941F0783E094E00E94ED001F9208
S11303F08F93DF93CF930E941F078DB79EB782968A
S11304000FB6F8949EBF0FBE8DBF64E081E094E008
S11304100E94D90082E094E00E94ED008F71D1F730
S1130420C8EED3E083E094E00E94ED00853171F4DE
S11304308DEE92E00197F1F700C00000219720971C
S113044089F785E192E00E943307EACF83E094E0E4
S11304500E94ED001F928F93C8E2D1E0DF93CF9307
S11304600E941F0783E094E00E94ED000F900F901C
S11304700F900F908731A9F483E094E00E94ED007F
S11304801F928F93DF93CF930E941F0787E392E01D
S11304900E9433070F900F900F900F9081E090E02F
S11304A014C083E094E00E94ED001F928F93DF93C9
S11304B0CF930E941F078EE492E00E9433070F90AF
S11304C00F900F900F9080E090E0DF91CF911F91FB
S11304D00F91FF90EF90DF90CF90BF90089565E566
S11304E08AE190E00E94D90065E58BE190E00E94EA
S11304F0D9008FEF97E090936B0580936A0520E015
S113050030E430936D0520936C05909371058093CE
S1130510700580E090E690936F0580936E050895D2
S1130520CF9386E294E00E94ED00C82F87E294E026
S11305300E94ED002C2F30E0322F2227A901480F12
S1130540511DCA01CF910895682F81E094E00C9465
S1130550D900AF92BF92CF92DF92EF92FF920F93A6
S11305601F93CF93DF935B018A014115510519F461
S113057080E090E0B5C08111FBCF1F934F938DE6CF
S113058092E09F938F930E941F0780E294E00E9461
S1130590ED00C82FD0E0DC2FCC2781E294E00E944C
S11305A0ED00C80FD11DDF93CF938CE792E09F93AA
S11305B08F930E941F07EDB7FEB738960FB6F894D5
S11305C0FEBF0FBEEDBFEAEEEE2EE3E0FE2EFEE828
S11305D0CF2EF2E0DF2EC017D10790F589EF90E01F
S11305E00197F1F700C0000080E294E00E94ED0062
S11305F0C82FD0E0DC2FCC2781E294E00E94ED00EC
S1130600C80FD11DDF93CF93DF92CF920E941F07B3
S1130610F1E0EF1AF1080F900F900F900F90E11492
S1130620F104C9F68AE992E00E94330788E00E9447
S1130630A40281E094E00E94ED008111FACF98CFEA
S113064084E294E00E94ED00C82F85E294E00E94C9
S1130650ED00D0E0DC2FCC27C80FD11DDF93CF9362
S11306608EEA92E09F938F930E941F070F900F9042
S11306700F900F90680175015E01AE18BF08E1E0AC
S1130680CE1AD108C7018A0D9B1D20916A053091AD
S11306906B058223932320916C0530916D05F7013E
S11306A061917F01820F931F0E94D900C114D1046C
S11306B031F70C0F1D1F612F84E294E00E94D900D2
S11306C0602F85E294E00E94D90080E20E94A40297
S11306D081E094E00E94ED008111FACF81E090E086
S11306E0DF91CF911F910F91FF90EF90DF90CF900A
S11306F0BF90AF9008958F929F92AF92BF92CF9286
S1130700DF92EF92FF920F931F93CF93DF937B01BE
S1130710EA01209709F462C0811160C0413082E08F
S1130720580710F0CEEFD1E088E294E00E94ED008B
S1130730082F10E01F928F938DEB92E09F938F937D
S11307400E941F0789E294E00E94ED00102F002709
S1130750080F111D1F930F9382ED92E09F938F93C7
S11307600E941F07EDB7FEB738960FB6F894FEBF88
S11307700FBEEDBF6E01570148018E189F08F1E0CE
S1130780CF1AD108C501880D991D209170053091AB
S113079071058223932320916E0530916F05820F9A
S11307A0931F0E94ED00F50181935F01C114D104F0
S11307B031F70C0F1D1FCE0DDF1D1882612F88E24B
S11307C094E00E94D900602F89E294E00E94D9004D
S11307D080E40E94A40200C000C0000081E090E018
S11307E0DF91CF911F910F91FF90EF90DF90CF9009
S11307F0BF90AF909F908F9008956F927F928F9249
S11308009F92AF92BF92CF92DF92EF92FF920F939B
S11308101F93CF93DF93CDB7DEB7C456D1090FB67C
S1130820F894DEBF0FBECDBF81EE92E00E94330785
S113083060E880E090E00E94D90089EF90E00197A1
S1130840F1F700C0000080E090E00E94ED001F92EC
S11308508F938AEF92E09F938F930E941F0709E181
S113086011E0F80180811F928F93B8E1EB2EB1E083
S1130870FB2EF70180811F928F9387E1C82E81E0C0
S1130880D82EF60180811F928F9396E1A92E91E0D4
S1130890B92EF50180811F928F938BE093E09F9393
S11308A08F930E941F07F501608181E090E00E9410
S11308B0D900F601608182E090E00E94D900F7013E
S11308C0608183E090E00E94D900F801608184E0B7
S11308D090E00E94D90089EF90E00197F1F700C001
S11308E0000084E090E00E94ED00F82E83E090E0A8
S11308F00E94ED00082F82E090E00E94ED00182F86
S113090081E090E00E94ED001F92FF921F920F93EE
S11309101F921F931F928F9380E393E09F938F9373
S11309200E941F0707E211E0F80180811F928F9354
S113093026E2E22E21E0F22EF70180811F928F93AE
S113094035E2C32E31E0D32EF60180811F928F93BE
S113095044E2A42E41E0B42EF50180811F928F93CE
S113096053E2852E51E0952EF40180811F928F93DE
S113097062E2662E61E0762EF30180811F928F93EE
S11309808BE493E09F938F930E941F070FB6F89414
S1130990DEBF0FBECDBFF301608189E090E00E940D
S11309A0D900F40160818AE090E00E94D900F50149
S11309B060818BE090E00E94D900F60160818CE0B8
S11309C090E00E94D900F70160818DE090E00E94E0
S11309D0D900F80160818EE090E00E94D90089EF8F
S11309E090E00197F1F700C000008EE090E00E94D3
S11309F0ED00D82E8DE090E00E94ED00E82E8CE012
S1130A0090E00E94ED00F82E8BE090E00E94ED0053
S1130A10082F8AE090E00E94ED00182F89E090E012
S1130A200E94ED001F92DF921F92EF921F92FF929D
S1130A301F920F931F921F931F928F9381E893E04D
S1130A409F938F930E941F070DE111E0F8018081AD
S1130A501F928F937CE1E72E71E0F72EF7018081DE
S1130A601F928F93EBE1CE2EE1E0DE2EF601808122
S1130A701F928F93FAE1AF2EF1E0BF2EF501808132
S1130A801F928F938EEA93E09F938F930E941F0788
S1130A90F501608185E090E00E94D900F601608153
S1130AA086E090E00E94D900F701608187E090E041
S1130AB00E94D900F801608188E090E00E94D9008A
S1130AC089EF90E00197F1F700C0000088E090E022
S1130AD00E94ED00F82E87E090E00E94ED00082FC0
S1130AE086E090E00E94ED00182F85E090E00E94DF
S1130AF0ED001F92FF921F920F931F921F931F925C
S1130B008F9384ED93E09F938F930E941F070FB6FA
S1130B10F894DEBF0FBECDBF01E211E0F801808181
S1130B201F928F93A0E2EA2EA1E0FA2EF7018081B2
S1130B301F928F93BFE1CB2EB1E0DB2EF6018081B3
S1130B401F928F938EE1A82E81E0B82EF50180814B
S1130B501F928F9380EF93E09F938F930E941F07C0
S1130B60F50160818FE090E00E94D900F601608178
S1130B7080E190E00E94D900F701608181E190E07A
S1130B800E94D900F801608182E190E00E94D900BE
S1130B9089EF90E00197F1F700C0000082E190E056
S1130BA00E94ED00F82E81E190E00E94ED00082FF4
S1130BB080E190E00E94ED00182F8FE090E00E9409
S1130BC0ED001F92FF921F920F931F921F931F928B
S1130BD08F9380E194E09F938F930E941F078CE290
S1130BE094E00E9433070E946F020E94020148E1D0
S1130BF050E06BE474E080E00E94A90244E650E017
S1130C008E010F5F1F4FB80180E00E947B030E949A
S1130C1090029F938F9384E694E09F938F930E9416
S1130C201F071F930F9386E794E09F938F930E946F
S1130C301F070FB6F894DEBF0FBECDBFCC59DF4FF0
S1130C400FB6F894DEBF0FBECDBFDF91CF911F91D9
S1130C500F91FF90EF90DF90CF90BF90AF909F9057
S1130C608F907F906F9008958FEF8AB91BB881B9E8
S1130C7080E091E0909373058093720590937505DD
S1130C80809374050E947D000E94BB000E94910025
S1130C900E94BB000E9491000E94890080EB84B9ED
S1130CA0109A80E58CBD82E894E00E9433070E948C
S1130CB0FD03FFCF1F920F920FB60F9211242F93B3
S1130CC03F934F935F936F937F938F939F93AF93D0
S1130CD0BF93CF93EF93FF9386E190E00E94ED00E2
S1130CE01F928F9384E994E09F938F930E941F0730
S1130CF085E190E00E94ED00C82F1F928F932DEAAA
S1130D0034E03F932F930E941F0760E082E094E059
S1130D100E94D90060E082E095E00E94D90060E082
S1130D2082E096E00E94D90060E082E097E00E94B1
S1130D30D90085E190E00E94ED00682F606E85E1A6
S1130D4090E00E94D9008DB79EB708960FB6F8942C
S1130D509EBF0FBE8DBFC0FF2BC082E094E00E94F7
S1130D60ED0084FF03C08BEC94E013C083FF03C049
S1130D7084EE94E00EC082FF03C082E095E009C0D7
S1130D8081FF03C084E195E004C080FF05C089E2CF
S1130D9095E00E9433070CC01F928F938DE395E07A
S1130DA09F938F930E941F070F900F900F900F90A7
S1130DB0FF91EF91CF91BF91AF919F918F917F91CF
S1130DC06F915F914F913F912F910F900FBE0F90B4
S1130DD01F9018950E943406FFCF0F931F93CF9353
S1130DE0DF93182F092FEB018B8181FD03C08FEF57
S1130DF09FEF20C082FF10C04E815F812C813D8116
S1130E00421753077CF4E881F9819F012F5F3F4F1C
S1130E1039832883108306C0E885F985812F0995D5
S1130E20892B29F72E813F812F5F3F4F3F832E83EC
S1130E30812F902FDF91CF911F910F910895A0E002
S1130E40B0E0E5E2F7E00C94B609FE013596619155
S1130E507191AF0180917405909175050E946007AE
S1130E60E2E00C94D2090F931F93CF93DF93E091A8
S1130E707405F0917505238121FF1BC0EC0100E08E
S1130E8010E089916091740570917505DB011896E5
S1130E90ED91FC911997882331F00995892B89F3F9
S1130EA00FEF1FEFEECF8AE00995892B11F4C801EB
S1130EB002C08FEF9FEFDF91CF911F910F910895A3
S1130EC0ACE0B0E0E6E6F7E00C94A6097C016B0127
S1130ED08A01FC0117821682838181FFBDC1CE0184
S1130EE001964C01F7019381F60193FD859193FFDF
S1130EF081916F01882309F4ABC1853239F493FDE4
S1130F00859193FF81916F01853229F4B70190E0B7
S1130F100E94ED06E7CF512C312C20E02032A0F4C2
S1130F208B3269F030F4803259F0833269F42061F5
S1130F302CC08D3239F0803339F4216026C0226010
S1130F40246023C0286021C027FD27C030ED380F5E
S1130F503A3078F426FF06C0FAE05F9E300D112483
S1130F60532E13C08AE0389E300D1124332E206294
S1130F700CC08E3221F426FD6BC1206406C08C3671
S1130F8011F4206802C0883641F4F60193FD85917E
S1130F9093FF81916F018111C1CF982F9F7D95544B
S1130FA0933028F40C5F1F4FFFE3F9830DC08336A1
S1130FB031F0833771F0833509F05BC022C0F8014A
S1130FC0808189830E5F1F4F44244394512C540124
S1130FD015C03801F2E06F0E711CF801A080B180D9
S1130FE026FF03C0652D70E002C06FEF7FEFC501DF
S1130FF02C870E943D092C0183012C852F77222EFA
S113100017C03801F2E06F0E711CF801A080B180A6
S113101026FF03C0652D70E002C06FEF7FEFC501AE
S11310202C870E9432092C012C852068222E8301F2
S113103023FC1BC0832D90E048165906B0F4B70179
S113104080E290E00E94ED063A94F4CFF50127FC8B
S1131050859127FE81915F01B70190E00E94ED0622
S113106031103A94F1E04F1A51084114510471F7C8
S1131070E5C0843611F0893639F5F80127FF07C039
S113108060817181828193810C5F1F4F08C06081F0
S11310907181882777FD8095982F0E5F1F4F2F76DB
S11310A0B22E97FF09C090958095709561957F4FFA
S11310B08F4F9F4F2068B22E2AE030E0A4010E9497
S11310C04809A82EA81844C0853729F42F7EB22ECB
S11310D02AE030E025C0F22FF97FBF2E8F36C1F011
S11310E018F4883579F0B4C0803719F0883721F0C6
S11310F0AFC02F2F2061B22EB4FE0DC08B2D8460A3
S1131100B82E09C024FF0AC09F2F9660B92E06C0CE
S113111028E030E005C020E130E002C020E132E008
S1131120F801B7FE07C060817181828193810C5FF1
S11311301F4F06C06081718180E090E00E5F1F4FF9
S1131140A4010E944809A82EA818FB2DFF77BF2EE2
S1131150B6FE0BC02B2D2E7FA51450F4B4FE0AC08E
S1131160B2FC08C02B2D2E7E05C07A2C2B2D03C07B
S11311707A2C01C0752C24FF0DC0FE01EA0DF11D6F
S11311808081803311F4297E09C022FF06C0739444
S1131190739404C0822F867809F0739423FD13C0DE
S11311A020FF06C05A2C731418F4530C5718732CD0
S11311B0731468F4B70180E290E02C870E94ED0676
S11311C073942C85F5CF731410F4371801C0312CA7
S11311D024FF12C0B70180E390E02C870E94ED0643
S11311E02C8522FF17C021FF03C088E590E002C0D0
S11311F088E790E0B7010CC0822F867859F021FD72
S113120002C080E201C08BE227FD8DE2B70190E0CD
S11312100E94ED06A51438F4B70180E390E00E9423
S1131220ED065A94F7CFAA94F401EA0DF11D8081DA
S1131230B70190E00E94ED06A110F5CF332009F428
S113124051CEB70180E290E00E94ED063A94F6CFC9
S1131250F7018681978102C08FEF9FEF2C96E2E120
S11312600C94C209FC010590615070400110D8F73C
S1131270809590958E0F9F1F0895FC0161507040DA
S113128001900110D8F7809590958E0F9F1F0895B7
S1131290FA01AA27283051F1203181F1E8946F93A3
S11312A06E7F6E5F7F4F8F4F9F4FAF4FB1E03ED049
S11312B0B4E03CD0670F781F891F9A1FA11D680FE7
S11312C0791F8A1F911DA11D6A0F711D811D911D1A
S11312D0A11D20D009F468943F912AE0269F11248F
S11312E03019305D3193DEF6CF010895462F4770F3
S11312F0405D4193B3E00FD0C9F7F6CF462F4F704E
S1131300405D4A3318F0495D31FD4052419302D0AB
S1131310A9F7EACFB4E0A695979587957795679551
S1131320BA95C9F700976105710508959B01AC0151
S11313300A2E06945795479537952795BA95C9F778
S1131340620F731F841F951FA01D08952F923F9253
S11313504F925F926F927F928F929F92AF92BF92C1
S1131360CF92DF92EF92FF920F931F93CF93DF936D
S1131370CDB7DEB7CA1BDB0B0FB6F894DEBF0FBECA
S1131380CDBF09942A88398848885F846E847D8417
S11313908C849B84AA84B984C884DF80EE80FD8019
S11313A00C811B81AA81B981CE0FD11D0FB6F8948F
S11113B0DEBF0FBECDBFED010895F894FFCF50
S11313BE00000003000000005D006E0000000050FD
S11313CE005068832450C0A80101FFFFFF00C0A88D
S11313DE010550E549BF91405350492053522053C3
S11313EE74617475733A2025640A005365747469C4
S11313FE6E6720536F7572636520506F7274206F21
S113140E6E20536F636B6574203020256425640A47
S113141E0052656164696E6720536F75726365204F
S113142E506F7274206F6E20536F636B657420302F
S113143E20256425640A0A0053657474696E672056
S113144E536F636B6574203020746F204F70656E1C
S113145E0A0053657474696E6720536572766572FB
S113146E20495020416464726573732025642E25CF
S113147E642E25642E25640A0052656164696E67C4
S113148E2053305F444950523A2025642E25642E51
S113149E25642E25640A0A0053657474696E6720E8
S11314AE53657276657220506F7274005265616472
S11314BE696E672053305F44504F52543A2025646E
S11314CE25640A0A00547279696E6720746F204588
S11314DE737461626C69736820436F6E6E656374B6
S11314EE696F6E2E2E2E00436F6E6E656374696F78
S11314FE6E20537563636565646564210A00436FEA
S113150E756C64206E6F7420636F6E6E6563742EDB
S113151E2045786974696E672E2E2E0A0053656E07
S113152E642053697A653A2025640A00545820468B
S113153E7265652053697A653A2025640A00545809
S113154E2053697A653A2025640054582046726502
S113155E652053697A65204572726F722100545862
S113156E204275666665723A2025780A0052582024
S113157E5265616420506F696E7465723A202564F9
S113158E0A005258204275666665723A2025780A1A
S113159E00456E74657274696E6720457468657271
S11315AE6E65742053657475700052656164696E5E
S11315BE67204D523A2025640A0A005365747469F3
S11315CE6E67204761746577617920416464726542
S11315DE73732025642E25642E25642E25640A003B
S11315EE52656164696E67204741523A2025642E24
S11315FE25642E25642E25640A0A005365747469C5
S113160E6E6720536F7572636520416464726573EF
S113161E7320252E32783A252E32783A252E3278BA
S113162E3A252E32783A252E32783A252E32780AF9
S113163E0052656164696E67205341523A20252E2B
S113164E32783A252E32783A252E32783A252E32B1
S113165E783A252E32783A252E32780A0A005365C6
S113166E7474696E6720537562204D61736B2041EB
S113167E6464726573732025642E25642E25642E8E
S113168E25640A0052656164696E6720535542529F
S113169E3A2025642E25642E25642E25640A0A001C
S11316AE53657474696E6720495020416464726591
S11316BE73732025642E25642E25642E25640A005A
S11316CE52656164696E6720534950523A2025640D
S11316DE2E25642E25642E25640A0A00446F6E6539
S11316EE2057697A6E657420573531303020496E33
S11316FE697469616C697A65642100474554202FC9
S113170E696E6465782E68746D6C20485454502F3D
S113171E312E3100526563656976652053697A65A9
S113172E3A2025640A004D6573736167653A202576
S113173E730057697A6E65742057353130302049FD
S113174E6E6974004D61736B2052656769737465BD
S113175E722056616C75653A2025640A00496E74D0
S113176E6572727570742052656769737465722040
S113177E56616C75653A2025640A0053656E6420C3
S113178E4F7065726174696F6E20436F6D706C6516
S113179E74652E0054696D656F7574204F6363759F
S11317AE72726564206F6E20536F636B65742030A4
S11317BE2100526563656976696E672044617461C0
S11317CE2E2E2E00536F636B657420446973636F02
S11317DE6E6E65637465642E00536F636B6574205F
S11317EE3020436F6E6E65637465642E00556E64AF
S11317FE6566696E656420496E746572727570747F
S113180E204F636375727265642E20496E74205680
S10D181E616C75653A202564000032
S9030000FC
