S016000045746865726E65744D6F64756C652E7372656369
S11300000C943E000C9431070C945B000C945B0040
S11300100C945B000C945B000C945B000C945B00F0
S11300200C945B000C945B000C945B000C945B00E0
S11300300C945B000C945B000C945B000C945B00D0
S11300400C945B000C945B000C945B000C945B00C0
S11300500C945B000C945B000C945B000C945B00B0
S11300600C945B000C945B000C945B000C945B00A0
S11300700C945B000C945B000C945B0011241FBE79
S1130080CFEFD8E0DEBFCDBF16E0A0E0B1E0ECE6F4
S1130090F5E102C005900D92AE30B107D9F726E024
S11300A0AEE0B6E001C01D92AC31B207E1F70E94A8
S11300B0C1070C94B40A0C940000CF93C82F8A3063
S11300C019F48DE00E945D008091C00085FFFCCF93
S11300D0C093C60080E090E0CF910895CF93BC0117
S11300E08091C00087FFFCCFC091C6008C2F0E9476
S11300F05D008C2F90E0CF9108951092C50089E1A6
S11301008093C40088E18093C10086E08093C2009C
S113011008958091C00087FF03C08091C600F9CF85
S11301200895CF93DF93C8E1D6E0688179818BE1AC
S113013090E00E94C407688179818BE590E00E9479
S1130140C4076881798188E490E00E94C4076881CB
S113015079818BE190E00E94C407688179818BE505
S113016090E00E94C407688179818AE490E0DF917D
S1130170CF910C94C407CF93DF93C8E1D6E0688194
S113018079818BE190E00E94C407688179818BE5D5
S113019090E00E94C4076881798180E390E00E9426
S11301A0C407688179818DE690E0DF91CF910C944A
S11301B0C407109820EF2EBD0DB407FEFDCF9EBDE1
S11301C00DB407FEFDCF8EBD0DB407FEFDCF6EBD91
S11301D00DB407FEFDCF109A089510982FE02EBDA0
S11301E00DB407FEFDCF9EBD0DB407FEFDCF8EBD41
S11301F00DB407FEFDCF1EBC0DB407FEFDCF109A53
S11302008EB50895BF92CF92DF92EF92FF920F9333
S11302101F93CF93DF930CE811E08FE9C82E81E0A0
S1130220D82E95ECE92E91E0F92E83E094E00E941B
S1130230ED001F928F93CCE8D1E01F930F930E949F
S1130240F60760E181E094E00E94D90061E080E07B
S113025094E00E94D90080910F011F928F938091A6
S11302600E011F928F93DF92CF920E94F607609146
S11302700E0184E094E00E94D90060910F0185E0B2
S113028094E00E94D90085E094E00E94ED00B82E2D
S113029084E094E00E94ED001F92BF921F928F931E
S11302A0FF92EF920E94F6078CEE91E00E940A08FA
S11302B061E081E094E00E94D90083E094E00E9430
S11302C0ED001F928F931F930F930E94F60783E014
S11302D094E00E94ED002DB73EB72C5E3F4F0FB661
S11302E0F8943EBF0FBE2DBF833109F09ECF80919D
S11302F015011F928F93809114011F928F93809107
S113030013011F928F93809112011F928F9386E0A5
S113031092E09F938F930E94F607609112018CE004
S113032094E00E94D900609113018DE094E00E9452
S1130330D900609114018EE094E00E94D90060918C
S113034015018FE094E00E94D9008FE094E00E94B0
S1130350ED00F82E8EE094E00E94ED00082F8DE071
S113036094E00E94ED00182F8CE094E00E94ED00D0
S11303701F92FF921F920F931F921F931F928F93AE
S11303808DE292E09F938F930E94F60783E094E0BE
S11303900E94ED001F928F93DF93CF930E94F60784
S11303A08CE492E00E940A086091100180E194E0DC
S11303B00E94D9006091110181E194E00E94D9006A
S11303C081E194E00E94ED00182F80E194E00E9406
S11303D0ED001F921F931F928F9380E692E09F93EC
S11303E08F930E94F60783E094E00E94ED001F9231
S11303F08F93DF93CF930E94F6078DB79EB78296B3
S11304000FB6F8949EBF0FBE8DBF64E081E094E008
S11304100E94D90082E094E00E94ED008F71D1F730
S1130420C8EED3E083E094E00E94ED00853171F4DE
S11304308DEE92E00197F1F700C00000219720971C
S113044089F789E792E00E940A08EACF83E094E002
S11304500E94ED001F928F93CCE8D1E0DF93CF93FD
S11304600E94F60783E094E00E94ED000F900F9045
S11304700F900F908731A9F483E094E00E94ED007F
S11304801F928F93DF93CF930E94F6078BE992E03C
S11304900E940A080F900F900F900F9081E090E057
S11304A014C083E094E00E94ED001F928F93DF93C9
S11304B0CF930E94F60782EB92E00E940A080F9005
S11304C00F900F900F9080E090E0DF91CF911F91FB
S11304D00F91FF90EF90DF90CF90BF90089565E566
S11304E08AE190E00E94D90065E58BE190E00E94EA
S11304F0D9008FEF97E090930F0680930E0620E0CB
S113050030E43093110620931006909315068093DF
S1130510140680E090E690931306809312060895E3
S1130520CF9386E294E00E94ED00C82F87E294E026
S11305300E94ED002C2F30E0322F2227A901480F12
S1130540511DCA01CF910895682F81E094E00C9465
S1130550D9006F927F928F929F92AF92BF92CF9267
S1130560DF92EF92FF920F931F93CF93DF934B0190
S11305707A014115510519F480E090E05FC18111C1
S1130580FBCFFF924F9381ED92E09F938F930E9454
S1130590F60780E294E00E94ED00C82FD0E0DC2F43
S11305A0CC2781E294E00E94ED00C80FD11DDF93B7
S11305B0CF9380EE92E09F938F930E94F607EDB75E
S11305C0FEB738960FB6F894FEBF0FBEEDBF0AEE25
S11305D013E082EFC82E82E0D82ECE15DF0588F511
S11305E089EF90E00197F1F700C0000080E294E009
S11305F00E94ED00C82FD0E0DC2FCC2781E294E0EC
S11306000E94ED00C80FD11DDF93CF93DF92CF92EC
S11306100E94F607015011090F900F900F900F9050
S113062001151105D1F68EEF92E00E940A0888E0C8
S11306300E94A40281E094E00E94ED008111FACFAF
S11306409BCF84E294E00E94ED00082F85E294E0C1
S11306500E94ED0010E0102F0027080F111D82E208
S113066094E00E94ED00A82E83E294E00E94ED0045
S1130670B82E1F930F9342E153E05F934F930E9470
S1130680F607C0911006D0911106C0900E06D090C6
S11306900F06A8014C215D214C0F5D1F5F934F9302
S11306A041E253E05F934F930E94F6072A2D30E016
S11306B0322F22272B0D311D2C213D212C0F3D1FC4
S11306C03F932F938EE293E09F938F930E94F607BC
S11306D08DB79EB70C960FB6F8949EBF0FBE8DBF14
S11306E057016401380168187908FBE38F2EF3E0A1
S11306F09F2E91E0A91AB108E601C60DD71D80917D
S11307000E0690910F06C823D9238091100690916C
S11307101106C80FD91FDF93CF939F928F920E9427
S1130720F607F60161916F01CE010E94D9000F9086
S11307300F900F900F90A114B104D9F60E0D1F1D48
S113074060E0CE0101960E94D9001F930F9380E5CB
S113075093E09F938F930E94F60784E294E00E94B3
S1130760ED0084E294E00E94ED001F928F9352E624
S1130770C52E53E0D52EDF92CF920E94F60785E274
S113078094E00E94ED001F928F936EE6E62E63E0E4
S1130790F62EFF92EF920E94F6071F921F93C7E373
S11307A0D3E0DF93CF930E94F6075801BB24BF9296
S11307B0AF92DF93CF930E94F6076FEF84E294E049
S11307C00E94D900602F85E294E00E94D9001F9214
S11307D01F93DF93CF930E94F607BF92AF92DF93EC
S11307E0CF930E94F60784E294E00E94ED001F92EA
S11307F08F93DF92CF920E94F6078DB79EB78096B3
S11308000FB6F8949EBF0FBE8DBF85E294E00E94A0
S1130810ED001F928F93FF92EF920E94F60780E201
S11308200E94A4020F900F900F900F9081E094E02B
S11308300E94ED008111FACF81E090E0DF91CF9129
S11308401F910F91FF90EF90DF90CF90BF90AF90EA
S11308509F908F907F906F9008958F929F92AF9208
S1130860BF92CF92DF92EF92FF920F931F93CF9399
S1130870DF937B01EA01209709F462C0811160C013
S1130880413082E0580710F0CEEFD1E088E294E0E6
S11308900E94ED00082F10E01F928F938BE793E0E6
S11308A09F938F930E94F60789E294E00E94ED00E3
S11308B0102F0027080F111D1F930F9380E993E059
S11308C09F938F930E94F607EDB7FEB738960FB645
S11308D0F894FEBF0FBEEDBF6E01570148018E189C
S11308E09F08F1E0CF1AD108C501880D991D209108
S11308F01406309115068223932320911206309119
S11309001306820F931F0E94ED00F50181935F018E
S1130910C114D10431F70C0F1D1FCE0DDF1D188239
S1130920612F88E294E00E94D900602F89E294E06C
S11309300E94D90080E40E94A40200C000C000000C
S113094081E090E0DF91CF911F910F91FF90EF90A4
S1130950DF90CF90BF90AF909F908F90089588E0E4
S11309600E94A40281E094E00E94ED008111FACF7C
S113097008956F927F928F929F92AF92BF92CF927F
S1130980DF92EF92FF920F931F93CF93DF93CDB734
S1130990DEB7C556D1090FB6F894DEBF0FBECDBF82
S11309A08FE993E00E940A0860E880E090E00E94EA
S11309B0D90089EF90E00197F1F700C0000080E0D2
S11309C090E00E94ED001F928F9388EB93E09F9339
S11309D08F930E94F60709E111E0D8018C911F92D0
S11309E08F9328E1E22E21E0F22EF70180811F92FD
S11309F08F9337E1C32E31E0D32ED6018C911F9211
S1130A008F9346E1A42E41E0B42EF50180811F921C
S1130A108F9389EC93E09F938F930E94F607D501FF
S1130A206C9181E090E00E94D900F601608182E03F
S1130A3090E00E94D900D7016C9183E090E00E947D
S1130A40D900F801608184E090E00E94D90089EF28
S1130A5090E00197F1F700C0000084E090E00E946C
S1130A60ED00F82E83E090E00E94ED00082F82E074
S1130A7090E00E94ED00182F81E090E00E94ED00CC
S1130A801F92FF921F920F931F921F931F928F9397
S1130A908EEE93E09F938F930E94F60707E211E096
S1130AA0D8018C911F928F9356E2E52E51E0F52EDA
S1130AB0F70180811F928F9365E2C62E61E0D62EE6
S1130AC0D6018C911F928F9374E2A72E71E0B72EFA
S1130AD0F50180811F928F93E3E28E2EE1E09E2E3A
S1130AE0D4018C911F928F93F2E26F2EF1E07F2E4E
S1130AF0F30180811F928F9389E094E09F938F93F9
S1130B000E94F6070FB6F894DEBF0FBECDBFD30127
S1130B106C9189E090E00E94D900F40160818AE040
S1130B2090E00E94D900D5016C918BE090E00E9486
S1130B30D900F60160818CE090E00E94D900D701D1
S1130B406C918DE090E00E94D900F80160818EE004
S1130B5090E00E94D90089EF90E00197F1F700C07E
S1130B6000008EE090E00E94ED00D82E8DE090E031
S1130B700E94ED00E82E8CE090E00E94ED00F82E3B
S1130B808BE090E00E94ED00082F8AE090E00E9444
S1130B90ED00182F89E090E00E94ED001F92DF9293
S1130BA01F92EF921F92FF921F920F931F921F9317
S1130BB01F928F938FE394E09F938F930E94F60785
S1130BC00DE111E0D8018C911F928F93ACE1EA2ED4
S1130BD0A1E0FA2EF70180811F928F93BBE1CB2E07
S1130BE0B1E0DB2ED6018C911F928F938AE1A82E5F
S1130BF081E0B82EF50180811F928F938CE694E0FA
S1130C009F938F930E94F607D5016C9185E090E045
S1130C100E94D900F601608186E090E00E94D9002C
S1130C20D7016C9187E090E00E94D900F8016081BF
S1130C3088E090E00E94D90089EF90E00197F1F7F5
S1130C4000C0000088E090E00E94ED00F82E87E0EC
S1130C5090E00E94ED00082F86E090E00E94ED00F5
S1130C60182F85E090E00E94ED001F92FF921F92E2
S1130C700F931F921F931F928F9382E994E09F9387
S1130C808F930E94F6070FB6F894DEBF0FBECDBF58
S1130C9001E211E0F80180811F928F9390E2E92E26
S1130CA091E0F92ED7018C911F928F932FE1C22EE0
S1130CB021E0D22EF60180811F928F933EE1A32E74
S1130CC031E0B32ED5018C911F928F938EEA94E07C
S1130CD09F938F930E94F607F50160818FE090E067
S1130CE00E94D900D6016C9180E190E00E94D90065
S1130CF0F701608181E190E00E94D900D8016C91F4
S1130D0082E190E00E94D900E9EFF0E03197F1F739
S1130D1000C0000082E190E00E94ED00F82E81E125
S1130D2090E00E94ED00082F80E190E00E94ED0029
S1130D30182F8FE090E00E94ED001F92FF921F9207
S1130D400F931F921F931F928F938EEC94E09F93A7
S1130D508F930E94F6078AEE94E00E940A080E948C
S1130D606F020E940201BE016B597F4FDB011C928E
S1130D7080E3E8E2F1E08E010F5F1F4FD80101909C
S1130D800D928A95E1F7FE01F19684E3DF011D924D
S1130D908A95E9F7FB0101900020E9F7AF01415082
S1130DA05109461B570B80E00E94A90244E650E01B
S1130DB0B80180E00E942D040E9490029F938F93BB
S1130DC089E095E09F938F930E94F6071F930F93FA
S1130DD08BE195E09F938F930E94F6070E94AF04E6
S1130DE00FB6F894DEBF0FBECDBFCB59DF4F0FB6A1
S1130DF0F894DEBF0FBECDBFDF91CF911F910F914D
S1130E00FF90EF90DF90CF90BF90AF909F908F9026
S1130E107F906F9008958FEF8AB91BB881B980E0F5
S1130E2091E0909317068093160690931906809389
S1130E3018060E947D000E94BB000E9491000E943F
S1130E40BB000E9491000E94890080EB84B9109A33
S1130E5080E58CBD87E295E00E940A080E94B904EF
S1130E60FFCF1F920F920FB60F9211242F933F932F
S1130E704F935F936F937F938F939F93AF93BF939E
S1130E80CF93EF93FF9386E190E00E94ED001F92D1
S1130E908F9389E395E09F938F930E94F60785E1F2
S1130EA090E00E94ED00C82F1F928F9322E535E059
S1130EB03F932F930E94F60760E082E094E00E9443
S1130EC0D90060E082E095E00E94D90060E082E011
S1130ED096E00E94D90060E082E097E00E94D90089
S1130EE085E190E00E94ED00682F606E85E190E05E
S1130EF00E94D9008DB79EB708960FB6F8949EBF8E
S1130F000FBE8DBFC0FF2BC082E094E00E94ED00B5
S1130F1084FF03C080E795E013C083FF03C089E822
S1130F2095E00EC082FF03C087EA95E009C081FF07
S1130F3003C089EB95E004C080FF05C08EEC95E00A
S1130F400E940A080CC01F928F9382EE95E09F9333
S1130F508F930E94F6070F900F900F900F90FF91C0
S1130F60EF91CF91BF91AF919F918F917F916F91AD
S1130F705F914F913F912F910F900FBE0F901F9053
S1130F8018950E940B07FFCF0F931F93CF93DF9306
S1130F90182F092FEB018B8181FD03C08FEF9FEF89
S1130FA020C082FF10C04E815F812C813D81421799
S1130FB053077CF4E881F9819F012F5F3F4F398308
S1130FC02883108306C0E885F985812F0995892B2C
S1130FD029F72E813F812F5F3F4F3F832E83812F3F
S1130FE0902FDF91CF911F910F910895A0E0B0E071
S1130FF0ECEFF7E00C948D0AFE0135966191719146
S1131000AF0180911806909119060E943708E2E01A
S11310100C94A90A0F931F93CF93DF93E0911806C2
S1131020F0911906238121FF1BC0EC0100E010E0C0
S113103089916091180670911906DB011896ED915B
S1131040FC911997882331F00995892B89F30FEFC7
S11310501FEFEECF8AE00995892B11F4C80102C075
S11310608FEF9FEFDF91CF911F910F910895ACE027
S1131070B0E0EDE3F8E00C947D0A7C016B018A0199
S1131080FC0117821682838181FFBDC1CE010196C6
S11310904C01F7019381F60193FD859193FF8191B2
S11310A06F01882309F4ABC1853239F493FD85912E
S11310B093FF81916F01853229F4B70190E00E947A
S11310C0C407E7CF512C312C20E02032A0F48B321E
S11310D069F030F4803259F0833269F420612CC015
S11310E08D3239F0803339F4216026C022602460C7
S11310F023C0286021C027FD27C030ED380F3A30C7
S113110078F426FF06C0FAE05F9E300D1124532EBA
S113111013C08AE0389E300D1124332E20620CC097
S11311208E3221F426FD6BC1206406C08C3611F486
S1131130206802C0883641F4F60193FD859193FF3F
S113114081916F018111C1CF982F9F7D9554933068
S113115028F40C5F1F4FFFE3F9830DC0833631F091
S1131160833771F0833509F05BC022C0F8018081B8
S113117089830E5F1F4F44244394512C540115C09E
S11311803801F2E06F0E711CF801A080B18026FFD7
S113119003C0652D70E002C06FEF7FEFC5012C879F
S11311A00E94140A2C0183012C852F77222E17C04C
S11311B03801F2E06F0E711CF801A080B18026FFA7
S11311C003C0652D70E002C06FEF7FEFC5012C876F
S11311D00E94090A2C012C852068222E830123FCFD
S11311E01BC0832D90E048165906B0F4B70180E285
S11311F090E00E94C4073A94F4CFF50127FC85914E
S113120027FE81915F01B70190E00E94C40731106D
S11312103A94F1E04F1A51084114510471F7E5C0B2
S1131220843611F0893639F5F80127FF07C060814B
S11312307181828193810C5F1F4F08C0608171812D
S1131240882777FD8095982F0E5F1F4F2F76B22E3B
S113125097FF09C090958095709561957F4F8F4F4A
S11312609F4F2068B22E2AE030E0A4010E941F0A9A
S1131270A82EA81844C0853729F42F7EB22E2AE060
S113128030E025C0F22FF97FBF2E8F36C1F018F45D
S1131290883579F0B4C0803719F0883721F0AFC0B1
S11312A02F2F2061B22EB4FE0DC08B2D8460B82E7A
S11312B009C024FF0AC09F2F9660B92E06C028E0FB
S11312C030E005C020E130E002C020E132E0F80166
S11312D0B7FE07C060817181828193810C5F1F4FCB
S11312E006C06081718180E090E00E5F1F4FA40111
S11312F00E941F0AA82EA818FB2DFF77BF2EB6FE4A
S11313000BC02B2D2E7FA51450F4B4FE0AC0B2FCE2
S113131008C02B2D2E7E05C07A2C2B2D03C07A2CD1
S113132001C0752C24FF0DC0FE01EA0DF11D808162
S1131330803311F4297E09C022FF06C0739473948C
S113134004C0822F867809F0739423FD13C020FF14
S113135006C05A2C731418F4530C5718732C7314B6
S113136068F4B70180E290E02C870E94C40773946C
S11313702C85F5CF731410F4371801C0312C24FFD9
S113138012C0B70180E390E02C870E94C4072C852B
S113139022FF17C021FF03C088E590E002C088E760
S11313A090E0B7010CC0822F867859F021FD02C06D
S11313B080E201C08BE227FD8DE2B70190E00E943C
S11313C0C407A51438F4B70180E390E00E94C40771
S11313D05A94F7CFAA94F401EA0DF11D8081B70164
S11313E090E00E94C407A110F5CF332009F451CE38
S11313F0B70180E290E00E94C4073A94F6CFF70167
S11314008681978102C08FEF9FEF2C96E2E10C94C6
S1131410990AFC010590615070400110D8F780953D
S113142090958E0F9F1F0895FC01615070400190AC
S11314300110D8F7809590958E0F9F1F0895FA019B
S1131440AA27283051F1203181F1E8946F936E7FFF
S11314506E5F7F4F8F4F9F4FAF4FB1E03ED0B4E0F0
S11314603CD0670F781F891F9A1FA11D680F791F31
S11314708A1F911DA11D6A0F711D811D911DA11D42
S113148020D009F468943F912AE0269F1124301952
S1131490305D3193DEF6CF010895462F4770405DED
S11314A04193B3E00FD0C9F7F6CF462F4F70405D9C
S11314B04A3318F0495D31FD4052419302D0A9F7F7
S11314C0EACFB4E0A6959795879577956795BA95F1
S11314D0C9F700976105710508959B01AC010A2EB7
S11314E006945795479537952795BA95C9F7620F8E
S11314F0731F841F951FA01D08952F923F924F9232
S11315005F926F927F928F929F92AF92BF92CF928F
S1131510DF92EF92FF920F931F93CF93DF93CDB798
S1131520DEB7CA1BDB0B0FB6F894DEBF0FBECDBF10
S113153009942A88398848885F846E847D848C84E1
S11315409B84AA84B984C884DF80EE80FD800C81EA
S11315501B81AA81B981CE0FD11D0FB6F894DEBFCD
S10F15600FBECDBFED010895F894FFCF3D
S113156C00000003000000005D006E00000000504D
S113157C005068832450C0A80101FFFFFF00C0A8DD
S113158C010550E549BF9140474554202F75706CB7
S113159C6F6164732F6865782F3232323232323293
S11315AC3232322F546F67676C652E686578204829
S11315BC5454502F312E3100000000000000000064
S11315CC000000000000000000000000000000000B
S11315DC00000000000000000000000000000000FB
S11315EC00000000000000000000000053504920DF
S11315FC5352205374617475733A2025640A005352
S113160C657474696E6720536F7572636520506FCF
S113161C7274206F6E20536F636B657420302025B9
S113162C6425640A0052656164696E6720536F75A2
S113163C72636520506F7274206F6E20536F636BEE
S113164C6574203020256425640A0A00536574747B
S113165C696E6720536F636B6574203020746F2040
S113166C4F70656E0A0053657474696E6720536518
S113167C72766572204950204164647265737320DC
S113168C25642E25642E25642E25640A005265617A
S113169C64696E672053305F444950523A20256484
S11316AC2E25642E25642E25640A0A005365747451
S11316BC696E672053657276657220506F72740080
S11316CC52656164696E672053305F44504F5254C5
S11316DC3A20256425640A0A00547279696E6720DD
S11316EC746F2045737461626C69736820436F6E08
S11316FC6E656374696F6E2E2E2E00436F6E6E656D
S113170C6374696F6E2053756363656564656421E6
S113171C0A00436F756C64206E6F7420636F6E6E79
S113172C6563742E2045786974696E672E2E2E0AB3
S113173C0053656E642053697A653A2025640A0067
S113174C545820467265652053697A653A2025649D
S113175C0A0054582053697A653A20256400545879
S113176C20467265652053697A65204572726F72E2
S113177C21005458204275666665723A2025780A11
S113178C005265616C2057523A2025640A00526558
S113179C616C2052523A2025640A00545820526538
S11317AC616C20416464726573733A2025640A0089
S11317BC4F66667365742041667465723A202564BD
S11317CC0A005752204C6F773A2025640A0057526E
S11317DC20486967683A2025640A005258205265EB
S11317EC616420506F696E7465723A2025640A0036
S11317FC5258204275666665723A2025780A00456F
S113180C6E74657274696E672045746865726E6572
S113181C742053657475700052656164696E672039
S113182C4D523A2025640A0A0053657474696E6734
S113183C20476174657761792041646472657373C0
S113184C2025642E25642E25642E25640A005265F9
S113185C6164696E67204741523A2025642E2564E1
S113186C2E25642E25640A0A0053657474696E6708
S113187C20536F75726365204164647265737320C1
S113188C252E32783A252E32783A252E32783A257E
S113189C2E32783A252E32783A252E32780A005296
S11318AC656164696E67205341523A20252E327863
S11318BC3A252E32783A252E32783A252E32783A39
S11318CC252E32783A252E32780A0A005365747420
S11318DC696E6720537562204D61736B204164649B
S11318EC726573732025642E25642E25642E25645D
S11318FC0A0052656164696E6720535542523A205E
S113190C25642E25642E25642E25640A0A0053654D
S113191C7474696E672049502041646472657373F2
S113192C2025642E25642E25642E25640A00526518
S113193C6164696E6720534950523A2025642E2500
S113194C642E25642E25640A0A00446F6E652057A4
S113195C697A6E657420573531303020496E69745C
S113196C69616C697A6564210052656365697665A1
S113197C2053697A653A2025640A004D65737361B6
S113198C67653A2025730057697A6E65742057355C
S113199C31303020496E6974004D61736B2052658F
S11319AC6769737465722056616C75653A20256499
S11319BC0A00496E74657272757074205265676999
S11319CC737465722056616C75653A2025640A003F
S11319DC53656E64204F7065726174696F6E204339
S11319EC6F6D706C6574652E0054696D656F7574DC
S11319FC204F63637572726564206F6E20536F633E
S1131A0C6B657420302100526563656976696E6775
S1131A1C20446174612E2E2E00536F636B65742009
S1131A2C446973636F6E6E65637465642E00536FE3
S1131A3C636B6574203020436F6E6E6563746564EC
S1131A4C2E00556E646566696E656420496E746516
S1131A5C7272757074204F636375727265642E2094
S1111A6C496E742056616C75653A202564003D
S9030000FC
