S016000045746865726E65744D6F64756C652E7372656369
S11300000C943E000C945B000C945B000C949C05D7
S11300100C945B000C945B000C945B000C945B00F0
S11300200C945B000C945B000C945B000C945B00E0
S11300300C945B000C945B000C945B000C945B00D0
S11300400C945B000C945B000C945B000C945B00C0
S11300500C945B000C945B000C945B000C945B00B0
S11300600C945B000C945B000C945B000C945B00A0
S11300700C945B000C945B000C945B0011241FBE79
S1130080CFEFD8E0DEBFCDBF14E0A0E0B1E0E2EBFB
S1130090F1E102C005900D92A83BB107D9F724E025
S11300A0A8EBB4E001C01D92A63CB207E1F70E94A0
S11300B0D9050C94D7080C940000CF93C82F8A302C
S11300C019F48DE00E945D008091C00085FFFCCF93
S11300D0C093C60080E090E0CF910895CF93BC0117
S11300E08091C00087FFFCCFC091C6008C2F0E9476
S11300F05D008C2F90E0CF9108951092C50089E1A6
S11301008093C40088E18093C10086E08093C2009C
S113011008958091C00087FF03C08091C600F9CF85
S11301200895CF93DF93C2ECD4E0688179818BE1A9
S113013090E00E94E705688179818BE590E00E9458
S1130140E7056881798188E490E00E94E705688189
S113015079818BE190E00E94E705688179818BE5E4
S113016090E00E94E705688179818AE490E0DF915C
S1130170CF910C94E705CF93DF93C2ECD4E0688170
S113018079818BE190E00E94E705688179818BE5B4
S113019090E00E94E7056881798180E390E00E9405
S11301A0E705688179818DE690E0DF91CF910C9429
S11301B0E705109820EF2EBD0DB407FEFDCF9EBDC0
S11301C00DB407FEFDCF8EBD0DB407FEFDCF6EBD91
S11301D00DB407FEFDCF109A089510982FE02EBDA0
S11301E00DB407FEFDCF9EBD0DB407FEFDCF8EBD41
S11301F00DB407FEFDCF1EBC0DB407FEFDCF109A53
S11302008EB50895BF92CF92DF92EF92FF920F9333
S11302101F93CF93DF9308E211E08BE3C82E81E0B4
S1130220D82E91E6E92E91E0F92E83E094E00E9425
S1130230ED001F928F93C8E2D1E01F930F930E94A9
S1130240190660E181E094E00E94D90061E080E059
S113025094E00E94D90080910F011F928F938091A6
S11302600E011F928F93DF92CF920E941906609124
S11302700E0184E094E00E94D90060910F0185E0B2
S113028094E00E94D90085E094E00E94ED00B82E2D
S113029084E094E00E94ED001F92BF921F928F931E
S11302A0FF92EF920E94190688E891E00E942D06C1
S11302B061E081E094E00E94D90083E094E00E9430
S11302C0ED001F928F931F930F930E94190683E0F2
S11302D094E00E94ED002DB73EB72C5E3F4F0FB661
S11302E0F8943EBF0FBE2DBF833109F09ECF80919D
S11302F015011F928F93809114011F928F93809107
S113030013011F928F93809112011F928F9382EA9F
S113031091E09F938F930E941906609112018CE0E3
S113032094E00E94D900609113018DE094E00E9452
S1130330D900609114018EE094E00E94D90060918C
S113034015018FE094E00E94D9008FE094E00E94B0
S1130350ED00F82E8EE094E00E94ED00082F8DE071
S113036094E00E94ED00182F8CE094E00E94ED00D0
S11303701F92FF921F920F931F921F931F928F93AE
S113038089EC91E09F938F930E94190683E094E097
S11303900E94ED001F928F93DF93CF930E94190662
S11303A088EE91E00E942D066091100180E194E0B6
S11303B00E94D9006091110181E194E00E94D9006A
S11303C081E194E00E94ED00182F80E194E00E9406
S11303D0ED001F921F931F928F938CEF91E09F93D8
S11303E08F930E94190683E094E00E94ED001F920F
S11303F08F93DF93CF930E9419068DB79EB7829691
S11304000FB6F8949EBF0FBE8DBF64E081E094E008
S11304100E94D90082E094E00E94ED008F71D1F730
S1130420C8E2D1E083E094E00E94ED008531A9F4B4
S113043083E094E00E94ED001F928F93DF93CF93AB
S11304400E9419068DEE92E00197F1F700C00000BA
S11304500F900F900F900F90E5CF83E094E00E94EF
S1130460ED001F928F93C8E2D1E0DF93CF930E94F7
S1130470190683E094E00E94ED000F900F900F9016
S11304800F908731A9F483E094E00E94ED001F925D
S11304908F93DF93CF930E94190685E192E00E9427
S11304A02D060F900F900F900F9081E090E014C0F4
S11304B083E094E00E94ED001F928F93DF93CF932B
S11304C00E9419068CE292E00E942D060F900F9074
S11304D00F900F9080E090E0DF91CF911F910F91EA
S11304E0FF90EF90DF90CF90BF900895682F81E048
S11304F094E00C94D900AF92BF92CF92DF92EF9226
S1130500FF920F931F93CF93DF935B018A014115F1
S1130510510509F4A0C081119EC01F934F938BE431
S113052092E09F938F930E94190680E294E00E94C8
S1130530ED00C82FD0E0DC2FCC2781E294E00E94AC
S1130540ED00C80FD11DDF93CF938AE592E09F930E
S11305508F930E941906EDB7FEB738960FB6F8943C
S1130560FEBF0FBEEDBF5AEEE52E53E0F52EC017C9
S1130570D10710F589EF90E00197F1F700C0000072
S113058080E294E00E94ED00C82FD0E0DC2FCC275D
S113059081E294E00E94ED00C80FD11D91E0E91AB8
S11305A0F108E114F10419F78CE692E00E942D069B
S11305B088E00E9476024FC084E294E00E94ED003D
S11305C0C82F85E294E00E94ED00D0E0DC2FCC2718
S11305D0C80FD11DDF93CF9380E892E09F938F9350
S11305E00E9419060F900F900F900F9068017501EB
S11305F05E01AE18BF0881E0C81AD108C7018A0D90
S11306009B1D2091B8043091B90482239323209137
S1130610BA043091BB04F70161917F01820F931FEB
S11306200E94D900C114D10431F70C0F1D1F612F92
S113063084E294E00E94D900602F85E294E00E9455
S1130640D90080E20E94760281E094E00E94ED00ED
S11306508111FACF03C080E090E002C081E090E015
S1130660DF91CF911F910F91FF90EF90DF90CF908A
S1130670BF90AF9008956FEE86E190E00C94D9009E
S11306806F927F928F929F92AF92BF92CF92DF929E
S1130690EF92FF920F931F93CF93DF931F92CDB7E7
S11306A0DEB78FE892E00E942D060E943B0360E8CB
S11306B080E090E00E94D90089EF90E00197F1F783
S11306C000C0000080E090E00E94ED001F928F9334
S11306D088EA92E09F938F930E94190609E111E042
S11306E0F80180811F928F9368E1E62E61E0F62E77
S11306F0F70180811F928F9377E1C72E71E0D72E87
S1130700F60180811F928F93E6E1AE2EE1E0BE2ECA
S1130710F50180811F928F9389EB92E09F938F93D1
S11307200E941906F501608181E090E00E94D900E1
S1130730F601608182E090E00E94D900F7016081B7
S113074083E090E00E94D900F801608184E090E0A9
S11307500E94D90089EF90E00197F1F700C00000F2
S113076084E090E00E94ED00F82E83E090E00E9487
S1130770ED00082F82E090E00E94ED00182F81E048
S113078090E00E94ED001F92FF921F920F931F9220
S11307901F931F928F938EED92E09F938F930E94ED
S11307A0190607E211E0F80180811F928F93F6E2A7
S11307B0EF2EF1E0FF2EF70180811F928F93A5E2C7
S11307C0CA2EA1E0DA2EF60180811F928F93B4E243
S11307D0AB2EB1E0BB2EF50180811F928F9383E293
S11307E0882E81E0982EF40180811F928F9392E2EB
S11307F0692E91E0792EF30180811F928F9389EF06
S113080092E09F938F930E9419060FB6F894DEBF6F
S11308100FBECDBFF301608189E090E00E94D90052
S1130820F40160818AE090E00E94D900F5016081C2
S11308308BE090E00E94D900F60160818CE090E0AA
S11308400E94D900F70160818DE090E00E94D900F8
S1130850F80160818EE090E00E94D90089EF90E079
S11308600197F1F700C000008EE090E00E94ED00D7
S1130870D82E8DE090E00E94ED00E82E8CE090E010
S11308800E94ED00F82E8BE090E00E94ED00082F0E
S11308908AE090E00E94ED00182F89E090E00E9429
S11308A0ED001F92DF921F92EF921F92FF921F9210
S11308B00F931F921F931F928F938FE293E09F9346
S11308C08F930E9419060DE111E0F80180811F92B7
S11308D08F932CE1E22E21E0F22EF70180811F920A
S11308E08F933BE1C32E31E0D32EF60180811F921A
S11308F08F934AE1A42E41E0B42EF50180811F922A
S11309008F938CE593E09F938F930E941906F501D2
S1130910608185E090E00E94D900F601608186E064
S113092090E00E94D900F701608187E090E00E9486
S1130930D900F801608188E090E00E94D90089EF35
S113094090E00197F1F700C0000088E090E00E9479
S1130950ED00F82E87E090E00E94ED00082F86E07D
S113096090E00E94ED00182F85E090E00E94ED00D9
S11309701F92FF921F920F931F921F931F928F93A8
S113098082E893E09F938F930E9419060FB6F89420
S1130990DEBF0FBECDBF01E211E0F80180811F92DE
S11309A08F9350E2E52E51E0F52EF70180811F92DE
S11309B08F936FE1C62E61E0D62EF60180811F92DF
S11309C08F937EE1A72E71E0B72EF50180811F92EF
S11309D08F938EE993E09F938F930E941906F501FC
S11309E060818FE090E00E94D900F601608180E18F
S11309F090E00E94D900F701608181E190E00E94BB
S1130A00D900F801608182E190E00E94D90089EF69
S1130A1090E00197F1F700C0000082E190E00E94AD
S1130A20ED00F82E81E190E00E94ED00082F80E1B6
S1130A3090E00E94ED00182F8FE090E00E94ED00FE
S1130A401F92FF921F920F931F921F931F928F93D7
S1130A508EEB93E09F938F930E9419068AED93E0A7
S1130A600E942D0665E58AE190E00E94D90065E5C3
S1130A708BE190E00E94D90088EF93E00E942D065C
S1130A800E940201198267E174E08E010F5F1F4F1B
S1130A90C8010E94DC05F80101900020E9F7AF01CC
S1130AA041505109401B510BB80180E00E947B0268
S1130AB00FB6F894DEBF0FBECDBF0F90DF91CF917C
S1130AC01F910F91FF90EF90DF90CF90BF90AF9068
S1130AD09F908F907F906F900895809121018F3F18
S1130AE019F08F5F809321010C9440038FEF8AB932
S1130AF01BB881B980E091E09093C1048093C00455
S1130B009093C3048093C2040E947D000E94BB00A2
S1130B100E9491000E94BB000E9491000E948900E3
S1130B2080EB84B9109A80E58CBD83E294E00E9446
S1130B302D060E944003FFCF1F920F920FB60F9213
S1130B4011242F933F934F935F936F937F938F93CE
S1130B509F93AF93BF93EF93FF9385E190E00E943F
S1130B60ED00803471F0803829F0803269F48DE72B
S1130B7094E00CC085E394E00E942D060E946D056C
S1130B8007C080E594E002C087E994E00E942D0646
S1130B90FF91EF91BF91AF919F918F917F916F9151
S1130BA05F914F913F912F910F900FBE0F901F9027
S1130BB018950E947605FFCFFB01DC010D90002003
S1130BC0E9F7119701900D920020E1F708950F9332
S1130BD01F93CF93DF93182F092FEB018B8181FD96
S1130BE003C08FEF9FEF20C082FF10C04E815F8152
S1130BF02C813D81421753077CF4E881F9819F01E0
S1130C002F5F3F4F39832883108306C0E885F98519
S1130C10812F0995892B29F72E813F812F5F3F4F23
S1130C203F832E83812F902FDF91CF911F910F91BE
S1130C300895A0E0B0E0EFE1F6E00C94B008FE0106
S1130C40359661917191AF018091C2049091C30472
S1130C500E945A06E2E00C94CC080F931F93CF93A2
S1130C60DF93E091C204F091C304238121FF1BC0F0
S1130C70EC0100E010E089916091C2047091C3041A
S1130C80DB011896ED91FC911997882331F00995B1
S1130C90892B89F30FEF1FEFEECF8AE00995892B9B
S1130CA011F4C80102C08FEF9FEFDF91CF911F9124
S1130CB00F910895ACE0B0E0E0E6F6E00C94A008F3
S1130CC07C016B018A01FC0117821682838181FFFA
S1130CD0BDC1CE0101964C01F7019381F60193FD4C
S1130CE0859193FF81916F01882309F4ABC185320B
S1130CF039F493FD859193FF81916F01853229F435
S1130D00B70190E00E94E705E7CF512C312C20E099
S1130D102032A0F48B3269F030F4803259F08332FF
S1130D2069F420612CC08D3239F0803339F42160AC
S1130D3026C02260246023C0286021C027FD27C06C
S1130D4030ED380F3A3078F426FF06C0FAE05F9EA3
S1130D50300D1124532E13C08AE0389E300D112417
S1130D60332E20620CC08E3221F426FD6BC1206428
S1130D7006C08C3611F4206802C0883641F4F601AE
S1130D8093FD859193FF81916F018111C1CF982FBC
S1130D909F7D9554933028F40C5F1F4FFFE3F98334
S1130DA00DC0833631F0833771F0833509F05BC0B1
S1130DB022C0F801808189830E5F1F4F442443942D
S1130DC0512C540115C03801F2E06F0E711CF8016A
S1130DD0A080B18026FF03C0652D70E002C06FEFD4
S1130DE07FEFC5012C870E9437082C0183012C85D5
S1130DF02F77222E17C03801F2E06F0E711CF80114
S1130E00A080B18026FF03C0652D70E002C06FEFA3
S1130E107FEFC5012C870E942C082C012C852068AB
S1130E20222E830123FC1BC0832D90E04816590613
S1130E30B0F4B70180E290E00E94E7053A94F4CF61
S1130E40F50127FC859127FE81915F01B70190E0B0
S1130E500E94E70531103A94F1E04F1A5108411409
S1130E60510471F7E5C0843611F0893639F5F8017B
S1130E7027FF07C060817181828193810C5F1F4FBE
S1130E8008C060817181882777FD8095982F0E5F57
S1130E901F4F2F76B22E97FF09C0909580957095BD
S1130EA061957F4F8F4F9F4F2068B22E2AE030E02C
S1130EB0A4010E944208A82EA81844C0853729F42A
S1130EC02F7EB22E2AE030E025C0F22FF97FBF2E0C
S1130ED08F36C1F018F4883579F0B4C0803719F032
S1130EE0883721F0AFC02F2F2061B22EB4FE0DC081
S1130EF08B2D8460B82E09C024FF0AC09F2F9660F2
S1130F00B92E06C028E030E005C020E130E002C080
S1130F1020E132E0F801B7FE07C06081718182816F
S1130F2093810C5F1F4F06C06081718180E090E067
S1130F300E5F1F4FA4010E944208A82EA818FB2D83
S1130F40FF77BF2EB6FE0BC02B2D2E7FA51450F4B9
S1130F50B4FE0AC0B2FC08C02B2D2E7E05C07A2C2C
S1130F602B2D03C07A2C01C0752C24FF0DC0FE016B
S1130F70EA0DF11D8081803311F4297E09C022FF1E
S1130F8006C07394739404C0822F867809F0739416
S1130F9023FD13C020FF06C05A2C731418F4530CFD
S1130FA05718732C731468F4B70180E290E02C870F
S1130FB00E94E70573942C85F5CF731410F4371849
S1130FC001C0312C24FF12C0B70180E390E02C87CC
S1130FD00E94E7052C8522FF17C021FF03C088E586
S1130FE090E002C088E790E0B7010CC0822F8678B9
S1130FF059F021FD02C080E201C08BE227FD8DE2A1
S1131000B70190E00E94E705A51438F4B70180E326
S113101090E00E94E7055A94F7CFAA94F401EA0DF0
S1131020F11D8081B70190E00E94E705A110F5CF82
S1131030332009F451CEB70180E290E00E94E70525
S11310403A94F6CFF7018681978102C08FEF9FEF24
S11310502C96E2E10C94BC08FC01059061507040B0
S11310600110D8F7809590958E0F9F1F0895FC016D
S11310706150704001900110D8F7809590958E0FC3
S11310809F1F0895FA01AA27283051F1203181F1D8
S1131090E8946F936E7F6E5F7F4F8F4F9F4FAF4F7C
S11310A0B1E03ED0B4E03CD0670F781F891F9A1F8F
S11310B0A11D680F791F8A1F911DA11D6A0F711D43
S11310C0811D911DA11D20D009F468943F912AE04F
S11310D0269F11243019305D3193DEF6CF01089537
S11310E0462F4770405D4193B3E00FD0C9F7F6CF68
S11310F0462F4F70405D4A3318F0495D31FD405230
S1131100419302D0A9F7EACFB4E0A69597958795C5
S113111077956795BA95C9F70097610571050895A4
S11311209B01AC010A2E0694579547953795279550
S1131130BA95C9F7620F731F841F951FA01D0895E8
S11311402F923F924F925F926F927F928F929F92D3
S1131150AF92BF92CF92DF92EF92FF920F931F93C1
S1131160CF93DF93CDB7DEB7CA1BDB0B0FB6F89472
S1131170DEBF0FBECDBF09942A88398848885F84B2
S11311806E847D848C849B84AA84B984C884DF8023
S1131190EE80FD800C811B81AA81B981CE0FD11D07
S11311A00FB6F894DEBF0FBECDBFED010895F894DD
S10511B0FFCF6B
S11311B200000003000000005D006E00000000500B
S11311C2005068832450C0A80101FFFFFF00C0A89B
S11311D2010550E549BF91405350492053522053D1
S11311E274617475733A2025640A005365747469D2
S11311F26E6720536F7572636520506F7274206F2F
S11312026E20536F636B6574203020256425640A55
S11312120052656164696E6720536F75726365205D
S1131222506F7274206F6E20536F636B657420303D
S113123220256425640A0A0053657474696E672064
S1131242536F636B6574203020746F204F70656E2A
S11312520A0053657474696E672053657276657209
S113126220495020416464726573732025642E25DD
S1131272642E25642E25640A0052656164696E67D2
S11312822053305F444950523A2025642E25642E5F
S113129225642E25640A0A0053657474696E6720F6
S11312A253657276657220506F7274005265616480
S11312B2696E672053305F44504F52543A2025647C
S11312C225640A0A00436F6E6E656374696F6E204B
S11312D2537563636565646564210A00436F756CC5
S11312E264206E6F7420636F6E6E6563742E204586
S11312F2786974696E672E2E2E0A0053656E642017
S113130253697A653A2025640A0054582046726566
S1131312652053697A653A2025640A0054582046A8
S11313227265652053697A65204572726F72210075
S11313325458204275666665723A2025780A00453B
S11313426E74657274696E672045746865726E6541
S1131352742053657475700052656164696E672008
S11313624D523A2025640A0A0053657474696E6703
S1131372204761746577617920416464726573738F
S11313822025642E25642E25642E25640A005265C8
S11313926164696E67204741523A2025642E2564B0
S11313A22E25642E25640A0A0053657474696E67D7
S11313B220536F7572636520416464726573732090
S11313C2252E32783A252E32783A252E32783A254D
S11313D22E32783A252E32783A252E32780A005265
S11313E2656164696E67205341523A20252E327832
S11313F23A252E32783A252E32783A252E32783A08
S1131402252E32783A252E32780A0A0053657474EE
S1131412696E6720537562204D61736B2041646469
S1131422726573732025642E25642E25642E25642B
S11314320A0052656164696E6720535542523A202C
S113144225642E25642E25642E25640A0A0053651C
S11314527474696E672049502041646472657373C1
S11314622025642E25642E25642E25640A005265E7
S11314726164696E6720534950523A2025642E25CF
S1131482642E25642E25640A0A0053657474696EF9
S1131492672057697A6E657420524D535220616EEB
S11314A26420544D53520A00446F6E652057697A82
S11314B26E657420573531303020496E6974696124
S11314C26C697A6564210048656C6C6F20576F7291
S11314D26C640057697A6E65742057353130302058
S11314E2496E697400495020436F6E666C69637477
S11314F221205265736F6C76696E672E2E2E0A0058
S113150244657374696E6174696F6E20556E726599
S113151261636861626C652120436865636B204383
S11315226F6E6E656374696F6E732E0A005050504D
S11315326F4520436F6E6E656374696F6E20436CF2
S11315426F7365642E0A00556E737065636966690C
S1131552656420496E74657272757074204F63639A
S10B156275727265642E0A0023
S9030000FC
