S016000045746865726E65744D6F64756C652E7372656369
S11300000C943E000C94D4060C945B000C945B009E
S11300100C945B000C945B000C945B000C945B00F0
S11300200C945B000C945B000C945B000C945B00E0
S11300300C945B000C945B000C945B000C945B00D0
S11300400C945B000C945B000C945B000C945B00C0
S11300500C945B000C945B000C945B000C945B00B0
S11300600C945B000C945B000C945B000C945B00A0
S11300700C945B000C945B000C945B0011241FBE79
S1130080CFEFD8E0DEBFCDBF15E0A0E0B1E0E6E7FA
S1130090F6E102C005900D92A83BB107D9F725E01F
S11300A0A8EBB5E001C01D92A63CB207E1F70E949F
S11300B06C070C94390B0C940000CF93C82F8A3032
S11300C019F48DE00E945D00E0ECF0E0908195FF72
S11300D0FDCFC093C60080E090E0CF910895CF9308
S11300E0BC01E0ECF0E080818823ECF7C091C6000D
S11300F08C2F0E945D008C2F90E0CF910895109278
S1130100C50089E18093C40088E18093C10086E042
S11301108093C20008958091C000882344F4A6EC23
S1130120B0E0E0ECF0E08C9180818823E4F3089562
S1130130CF93DF93C2ECD5E0688179818BE190E0C5
S11301400E944908688179818BE590E00E94490802
S11301506881798188E490E00E9449086881798106
S11301608BE190E00E944908688179818BE590E0F9
S11301700E944908688179818AE490E00E944908D4
S1130180DF91CF910895CF93DF93C2ECD5E06881DE
S113019079818BE190E00E944908688179818BE53F
S11301A090E00E9449086881798180E390E00E9490
S11301B04908688179818DE690E00E944908DF91C1
S11301C0CF910895109820EF2EBD0DB407FEFDCFFA
S11301D09EBD0DB407FEFDCF8EBD0DB407FEFDCF51
S11301E06EBD0DB407FEFDCF109A089510982FE050
S11301F02EBD0DB407FEFDCF9EBD0DB407FEFDCF91
S11302008EBD0DB407FEFDCF1EBC0DB407FEFDCFA1
S1130210109A8EB508956F927F928F929F92AF92AB
S1130220BF92CF92DF92EF92FF920F931F93CF93DF
S1130230DF93682E5B014A01E9010F2EF4E1CF2E12
S1130240F1E0DF2EF02D0F2EFAE3EF2EF1E0FF2E7A
S1130250F02D0BE711E060E181E094E00E94E20000
S1130260662D80E094E00E94E20099811F929F93A2
S113027098811F929F93DF92CF920E947B0868819E
S113028084E094E00E94E200698185E094E00E94A9
S1130290E20085E094E00E94F600782E84E094E089
S11302A00E94F6001F927F921F928F93FF92EF920B
S11302B00E947B0881E691E00E948F0861E081E062
S11302C094E00E94E20083E094E00E94F6001F9212
S11302D08F931F930F930E947B0883E094E00E9406
S11302E0F6002DB73EB7205F3F4F0FB6F8943EBFE0
S11302F00FBE2DBF833139F083E094E00E94F600F5
S1130300823309F0A8CFF50183811F928F938281F4
S11303101F928F9381811F928F9380811F928F935D
S11303208EE891E09F938F930E947B08F501608192
S11303308CE094E00E94E200F50161818DE094E09C
S11303400E94E200F50162818EE094E00E94E200E6
S1130350F50163818FE094E00E94E2008FE094E075
S11303600E94F600182F8EE094E00E94F600D82F29
S11303708DE094E00E94F600C82F8CE094E00E9487
S1130380F6001F921F931F92DF931F92CF931F9229
S11303908F9385EB91E09F938F930E947B0883E07A
S11303A094E00E94F6001F928F93CBE7D1E0DF9395
S11303B0CF930E947B0884ED91E00E948F08F401A2
S11303C0608180E194E00E94E200F401618181E1B6
S11303D094E00E94E20081E194E00E94F600182F6C
S11303E080E194E00E94F6001F921F931F928F9366
S11303F088EE91E09F938F930E947B0883E094E0C2
S11304000E94F6001F928F93DF93CF930E947B0884
S11304108DB79EB782960FB6F8949EBF0FBE8DBF60
S113042064E081E094E00E94E20082E094E00E94B3
S1130430F6008F71D1F708EE13E00DC0EDEEF2E097
S11304403197F1F700C000002197209731F481E043
S113045092E00E948F08C02FD12F83E094E00E9485
S1130460F600853159F383E094E00E94F6001F9270
S11304708F938BE791E09F938F930E947B0883E097
S113048094E00E94F6000F900F900F900F90873128
S1130490B9F483E094E00E94F6001F928F938BE7F7
S11304A091E09F938F930E947B0883E292E00E94E5
S11304B08F080F900F900F900F9081E090E016C07E
S11304C083E094E00E94F6001F928F938BE791E003
S11304D09F938F930E947B088AE392E00E948F0887
S11304E00F900F900F900F9080E090E0DF91CF91EC
S11304F01F910F91FF90EF90DF90CF90BF90AF903E
S11305009F908F907F906F90089565E58AE190E0C9
S11305100E94E20065E58BE190E00E94E2008FEF2B
S113052097E09093B9058093B80520E030E43093C8
S1130530BB052093BA059093BF058093BE0580E068
S113054090E69093BD058093BC050895BF92CF9229
S1130550DF92EF92FF920F931F93CF93DF93EC01FF
S11305607B016A01890180EB84B9109A80E58CBD16
S113057089E592E00E948F088BE692E00E948F0842
S113058060E880E090E00E94E20089EF90E001974B
S1130590F1F700C0000080E090E00E94F6001F9296
S11305A08F9384E892E09F938F930E947B08F801D5
S11305B083811F928F9382811F928F9381811F92D7
S11305C08F9380811F928F9385E992E09F938F93FD
S11305D00E947B08F801608181E090E00E94E200C3
S11305E0F801618182E090E00E94E200F8016281FA
S11305F083E090E00E94E200F801638184E090E0EF
S11306000E94E20089EF90E00197F1F700C000003A
S113061084E090E00E94F600B82E83E090E00E940F
S1130620F600082F82E090E00E94F600182F81E087
S113063090E00E94F6001F92BF921F920F931F92A8
S11306401F931F928F938AEB92E09F938F930E9444
S11306507B088B858F938A858F9389858F93888573
S11306608F938F818F938E818F938D818F938C81C4
S11306708F938B818F938A818F9389818F938881C4
S11306808F9385ED92E09F938F930E947B08EDB743
S1130690FEB7B6960FB6F894FEBF0FBEEDBF6881E5
S11306A089E090E00E94E2006A818AE090E00E9482
S11306B0E2006C818BE090E00E94E2006E818CE0AD
S11306C090E00E94E20068858DE090E00E94E200E4
S11306D06A858EE090E00E94E20089EF90E0019745
S11306E0F1F700C000008EE090E00E94F600B82E02
S11306F08DE090E00E94F600082F8CE090E00E94CC
S1130700F600182F8BE090E00E94F600D82F8AE0C4
S113071090E00E94F600C82F89E090E00E94F60065
S11307201F92BF921F920F931F921F931F92DF93EA
S11307301F92CF931F928F938BE093E09F938F939D
S11307400E947B08F60183811F928F9382811F92FE
S11307508F9381811F928F9380811F928F9388E35F
S113076093E09F938F930E947B08F601608185E05C
S113077090E00E94E200F601618186E090E00E9430
S1130780E200F601628187E090E00E94E200F60157
S1130790638188E090E00E94E20089EF90E0019795
S11307A0F1F700C0000088E090E00E94F600182FE6
S11307B087E090E00E94F600D82F86E090E00E9447
S11307C0F600C82F85E090E00E94F6001F921F9368
S11307D01F92DF931F92CF931F928F938EE593E026
S11307E09F938F930E947B08EDB7FEB7B2960FB626
S11307F0F894FEBF0FBEEDBFF70183811F928F9364
S113080082811F928F9381811F928F9380811F9287
S11308108F938AE793E09F938F930E947B08F7015D
S113082060818FE090E00E94E200F701618180E145
S113083090E00E94E200F701628181E190E00E9471
S1130840E200F701638182E190E00E94E20089EF17
S113085090E00197F1F700C0000082E190E00E946F
S1130860F600182F81E190E00E94F600D82F80E175
S113087090E00E94F600C82F8FE090E00E94F600FE
S11308801F921F931F92DF931F92CF931F928F93F8
S11308908AE993E09F938F930E947B0886EB93E011
S11308A00E948F080E948502EDB7FEB774960FB6BA
S11308B0F894FEBF0FBEEDBFDF91CF911F910F9152
S11308C0FF90EF90DF90CF90BF900895CF9386E292
S11308D094E00E94F600C82F87E294E00E94F6009C
S11308E02C2F30E0322F2227A901480F511DCA01B5
S11308F0CF910895682F81E094E00E94E20008956A
S11309006F927F928F929F92AF92BF92CF92DF921B
S1130910EF92FF920F931F93CF93DF936C017B01B0
S1130920FF926F9385ED93E09F938F930E947B08D2
S113093080E294E00E94F600C82FD0E0DC2FCC27A0
S113094081E294E00E94F600C80FD11DDF93CF939B
S113095084EE93E09F938F930E947B088DB79EB79C
S113096008960FB6F8949EBF0FBE8DBFCE15DF0557
S113097008F42CC135C0E9EFF0E03197F1F700C07D
S1130980000080E294E00E94F600C82FD0E0DC2F43
S1130990CC2781E294E00E94F600C80FD11DDF93BA
S11309A0CF931F930F930E947B0831E0831A910821
S11309B00F900F900F900F908114910471F482E0C6
S11309C094E00E948F0888E00E947A0481E094E019
S11309D00E94F6008111FACFF3C0CE15DF0558F25C
S11309E084E294E00E94F600082F85E294E00E94DD
S11309F0F60010E0102F0027080F111D82E294E08A
S1130A000E94F600682E83E294E00E94F600782E9D
S1130A101F930F9386E194E09F938F930E947B082A
S1130A208090B8059090B905C091BA05D091BB05E6
S1130A309801282139212C0F3D1F3F932F9325E244
S1130A4034E03F932F930E947B08862D90E0982FEB
S1130A508827FC01E70DF11D8E229F22C80DD91DA8
S1130A60DF93CF9382E394E09F938F930E947B085C
S1130A708DB79EB70C960FB6F8949EBF0FBE8DBF70
S1130A80E114F104E1F04801E7012197A090B805D1
S1130A90B090B905A820B9208091BA059091BB0502
S1130AA0A80EB91EF60161916F01C5010E94E20012
S1130AB0FFEF8F1A9F0A209741F70E0D1F1D60E06C
S1130AC0C50101960E94E2001F930F938FE394E007
S1130AD09F938F930E947B0884E294E00E94F60027
S1130AE084E294E00E94F6001F928F930F2EF1E5AA
S1130AF0CF2EF4E0DF2EF02DDF92CF920E947B0800
S1130B0085E294E00E94F6001F928F930F2EFDE57C
S1130B10EF2EF4E0FF2EF02DFF92EF920E947B085F
S1130B201F921F93CBE3D4E0DF93CF930E947B0803
S1130B305801BB24BF92AF92DF93CF930E947B08EE
S1130B406FEF84E294E00E94E200602F85E294E07B
S1130B500E94E2001F921F93DF93CF930E947B08B1
S1130B60BF92AF92DF93CF930E947B0884E294E01C
S1130B700E94F6001F928F93DF92CF920E947B080F
S1130B808DB79EB780960FB6F8949EBF0FBE8DBFEB
S1130B9085E294E00E94F6001F928F93FF92EF92F9
S1130BA00E947B0880E20E947A040F900F900F90BD
S1130BB00F9081E094E00E94F6008111FACF03C007
S1130BC080E090E02CC081E090E029C0E9EFF0E003
S1130BD03197F1F700C0000080E294E00E94F60033
S1130BE0C82FD0E0DC2FCC2781E294E00E94F600ED
S1130BF0C80FD11DDF93CF9386EF93E09F938F931C
S1130C000E947B080F900F900F900F900F2EF9EE1B
S1130C108F2EF3E09F2EF02D06EF13E0DECEDF9152
S1130C20CF911F910F91FF90EF90DF90CF90BF90E5
S1130C30AF909F908F907F906F9008958F929F9226
S1130C40AF92BF92CF92DF92EF92FF920F931F93D6
S1130C50CF93DF935C016B01613082E07807D0F5BC
S1130C6088E294E00E94F600E82E89E294E00E9473
S1130C70F600F12CFE2CEE24E80EF11CFF92EF920C
S1130C808AE694E09F938F930E947B080F900F90C5
S1130C900F900F90C114D104E9F540C021978091C1
S1130CA0BE059091BF05882199212091BC05309102
S1130CB0BD05820F931F0E94F600F80181938F01F6
S1130CC0FFEF8F1A9F0A209749F7EC0CFD1CAC0C20
S1130CD0BD1C24C088E294E00E94F600E82E89E25C
S1130CE094E00E94F600F12CFE2CEE24E80EF11C98
S1130CF0FF92EF928AE694E09F938F930E947B0881
S1130D000F900F900F900F900F2EFEEFCF2EDD243B
S1130D10D394F02D4701E6018501C0CFF50110827F
S1130D206F2D88E294E00E94E2006E2D89E294E047
S1130D300E94E20080E40E947A0400C000C0000027
S1130D4081E090E0DF91CF911F910F91FF90EF90A0
S1130D50DF90CF90BF90AF909F908F90089588E0E0
S1130D600E947A0481E094E00E94F6008111FACF97
S1130D7008958FEF8AB91BB881B980E091E0909310
S1130D80C1058093C0059093C3058093C2050E945A
S1130D907F000E94C3000E9498000E94C3000E942A
S1130DA098000E948B0008951F920F920FB60F9225
S1130DB011242F933F934F935F936F937F938F935C
S1130DC09F93AF93BF93CF93EF93FF9386E190E00C
S1130DD00E94F6001F928F9389E794E09F938F936C
S1130DE00E947B0885E190E00E94F600C82F1F92C4
S1130DF08F9322E934E03F932F930E947B0860E0B5
S1130E0082E094E00E94E20060E082E095E00E94CB
S1130E10E20060E082E096E00E94E20060E082E0AE
S1130E2097E00E94E20085E190E00E94F600682FBE
S1130E30606E85E190E00E94E2008DB79EB708964F
S1130E400FB6F8949EBF0FBE8DBFC0FF33C082E0C3
S1130E5094E00E94F60084FF05C080EB94E00E94B9
S1130E608F0828C083FF05C089EC94E00E948F0896
S1130E7021C082FF05C087EE94E00E948F081AC04B
S1130E8081FF05C089EF94E00E948F0813C080FFA2
S1130E9005C08EE095E00E948F080CC01F928F93CE
S1130EA082E295E09F938F930E947B080F900F90AE
S1130EB00F900F90FF91EF91CF91BF91AF919F91C0
S1130EC08F917F916F915F914F913F912F910F90EF
S1130ED00FBE0F901F901895CF93DF93CDB7DEB759
S1130EE0C854D2400FB6F894DEBF0FBECDBF86E023
S1130EF0EEE0F1E0DE01AB50BE4F01900D928A9519
S1130F00E1F730ECC550DE4F3883CB5FD14028EA9F
S1130F10C450DE4F2883CC5FD14081E0C350DE4F04
S1130F208883CD5FD14095E0C250DE4F9883CE5F79
S1130F30D1409FEFC150DE4F9883CF5FD140C05066
S1130F40DE4F9883C050D240CF5FDD4F9883C150AD
S1130F50D240CE5FDD4F1882C250D240CD5FDD4F0C
S1130F603883C350D240CC5FDD4F2883C450D24075
S1130F70CB5FDD4F8883C550D240CA5FDD4F888385
S1130F80C650D24088E6C95FDD4F8883C750D2403F
S1130F9083E8C85FDD4F8883C850D24084E2C75FCE
S1130FA0DD4F8883C950D24080E5C65FDD4F88831A
S1130FB0CA50D240C55FDD4F1882CB50D240C45FC7
S1130FC0DD4F8883CC50D240C35FDD4F1882CD50B3
S1130FD0D240C25FDD4F8883CE50D2400E94B90612
S1130FE09E012D5F3D4FAE0141505E4FBE016550E5
S1130FF07E4FCE018B509E4F0E94A6029E01235F1E
S11310003D4FAE01455F5D4FBE01695F7D4F81E09D
S11310100E940B018E01015F1D4F8AE3EEE7F5E0AC
S1131020D80101900D928A95E1F71F930F938EE4F6
S113103095E09F938F930E947B08F8010190002014
S1131040E9F73197BF01601B710BC8010E9480044E
S113105064E670E00E501240C8010E941E060E9411
S113106066049F938F9380E695E09F938F930E94ED
S11310707B081F930F9382E795E09F938F930E94C1
S11310807B080E94AF060FB6F894DEBF0FBECDBF3B
S1131090FFCF0F931F93CF93DF93182F092FEB01EB
S11310A08B8181FD03C08FEF9FEF20C082FF10C0B2
S11310B04E815F812C813D81421753077CF4E88186
S11310C0F9819F012F5F3F4F39832883108306C026
S11310D0E885F985812F0995892B29F72E813F8190
S11310E02F5F3F4F3F832E83812F902FDF91CF912E
S11310F01F910F910895A0E0B0E0E1E8F8E00C94AE
S1131100120BFE01359661917191AF018091C20578
S11311109091C3050E94BC08E2E00C942E0B0F933F
S11311201F93CF93DF93E091C205F091C305238110
S113113021FF1BC0EC0100E010E089916091C20521
S11311407091C305DB011896ED91FC9119978823E2
S113115031F00995892B89F30FEF1FEFEECF8AE069
S11311600995892B11F4C80102C08FEF9FEFDF911D
S1131170CF911F910F910895ACE0B0E0E2ECF8E05C
S11311800C94020B7C016B018A01FC01178216820C
S1131190838181FFBDC1CE0101964C01F70193818A
S11311A0F60193FD859193FF81916F01882309F4E2
S11311B0ABC1853239F493FD859193FF81916F0121
S11311C0853229F4B70190E00E944908E7CF512CF9
S11311D0312C20E02032A0F48B3269F030F48032DC
S11311E059F0833269F420612CC08D3239F0803398
S11311F039F4216026C02260246023C0286021C005
S113120027FD27C030ED380F3A3078F426FF06C0AA
S1131210FAE05F9E300D1124532E13C08AE0389EED
S1131220300D1124332E20620CC08E3221F426FDA1
S11312306BC1206406C08C3611F4206802C0883665
S113124041F4F60193FD859193FF81916F01811122
S1131250C1CF982F9F7D9554933028F40C5F1F4F76
S1131260FFE3F9830DC0833631F0833771F08335A2
S113127009F05BC022C0F801808189830E5F1F4F93
S113128044244394512C540115C03801F2E06F0EEC
S1131290711CF801A080B18026FF03C0652D70E0A9
S11312A002C06FEF7FEFC5012C870E94990A2C01C1
S11312B083012C852F77222E17C03801F2E06F0EA0
S11312C0711CF801A080B18026FF03C0652D70E079
S11312D002C06FEF7FEFC5012C870E948E0A2C019C
S11312E02C852068222E830123FC1BC0832D90E0D3
S11312F048165906B0F4B70180E290E00E9449080C
S11313003A94F4CFF50127FC859127FE81915F0182
S1131310B70190E00E94490831103A94F1E04F1A65
S113132051084114510471F7E5C0843611F089362F
S113133039F5F80127FF07C06081718182819381AB
S11313400C5F1F4F08C060817181882777FD8095ED
S1131350982F0E5F1F4F2F76B22E97FF09C09095DE
S11313608095709561957F4F8F4F9F4F2068B22E67
S11313702AE030E0A4010E94A40AA82EA81844C0C0
S1131380853729F42F7EB22E2AE030E025C0F22FD3
S1131390F97FBF2E8F36C1F018F4883579F0B4C0C8
S11313A0803719F0883721F0AFC02F2F2061B22E7B
S11313B0B4FE0DC08B2D8460B82E09C024FF0AC072
S11313C09F2F9660B92E06C028E030E005C020E1CA
S11313D030E002C020E132E0F801B7FE07C06081CE
S11313E07181828193810C5F1F4F06C0608171817E
S11313F080E090E00E5F1F4FA4010E94A40AA82E73
S1131400A818FB2DFF77BF2EB6FE0BC02B2D2E7F09
S1131410A51450F4B4FE0AC0B2FC08C02B2D2E7ED5
S113142005C07A2C2B2D03C07A2C01C0752C24FF07
S11314300DC0FE01EA0DF11D8081803311F4297E77
S113144009C022FF06C07394739404C0822F867867
S113145009F0739423FD13C020FF06C05A2C7314A3
S113146018F4530C5718732C731468F4B70180E202
S113147090E02C870E94490873942C85F5CF73144F
S113148010F4371801C0312C24FF12C0B70180E3D7
S113149090E02C870E9449082C8522FF17C021FF69
S11314A003C088E590E002C088E790E0B7010CC073
S11314B0822F867859F021FD02C080E201C08BE2C0
S11314C027FD8DE2B70190E00E944908A51438F485
S11314D0B70180E390E00E9449085A94F7CFAA9498
S11314E0F401EA0DF11D8081B70190E00E944908E2
S11314F0A110F5CF332009F451CEB70180E290E07A
S11315000E9449083A94F6CFF7018681978102C078
S11315108FEF9FEF2C96E2E10C941E0BFC010590DB
S1131520615070400110D8F7809590958E0F9F1FE1
S11315300895FC016150704001900110D8F7809526
S113154090958E0F9F1F0895FA01AA27283051F114
S1131550203181F1E8946F936E7F6E5F7F4F8F4FE0
S11315609F4FAF4FB1E03ED0B4E03CD0670F781F3F
S1131570891F9A1FA11D680F791F8A1F911DA11D24
S11315806A0F711D811D911DA11D20D009F468945D
S11315903F912AE0269F11243019305D3193DEF605
S11315A0CF010895462F4770405D4193B3E00FD0BB
S11315B0C9F7F6CF462F4F70405D4A3318F0495DA6
S11315C031FD4052419302D0A9F7EACFB4E0A69589
S11315D09795879577956795BA95C9F700976105AB
S11315E0710508959B01AC010A2E06945795479501
S11315F037952795BA95C9F7620F731F841F951FF6
S1131600A01D08952F923F924F925F926F927F9206
S11316108F929F92AF92BF92CF92DF92EF92FF92FE
S11316200F931F93CF93DF93CDB7DEB7CA1BDB0BAA
S11316300FB6F894DEBF0FBECDBF09942A8839884F
S113164048885F846E847D848C849B84AA84B98456
S1131650C884DF80EE80FD800C811B81AA81B98162
S1131660CE0FD11D0FB6F894DEBF0FBECDBFED0176
S10916700895F894FFCF79
S113167600000003000000005D006F00000050E55C
S113168649BF914053657474696E6720536F7572D0
S1131696636520506F7274206F6E20536F636B65A1
S11316A674203020256425640A0052656164696EDD
S11316B66720536F7572636520506F7274206F6E66
S11316C620536F636B6574203020256425640A0AF1
S11316D60053657474696E6720536F636B65742079
S11316E63020746F204F70656E0A005350492053A2
S11316F652205374617475733A2025640A00536545
S11317067474696E67205365727665722049502039
S1131716416464726573732025642E25642E2564E2
S11317262E25640A0052656164696E672053305F32
S1131736444950523A2025642E25642E25642E25CC
S1131746640A0A0053657474696E67205365727679
S1131756657220506F72740052656164696E672009
S113176653305F44504F52543A20256425640A0A84
S113177600547279696E6720746F204573746162D0
S11317866C69736820436F6E6E656374696F6E2E41
S11317962E2E00436F6E6E656374696F6E205375EB
S11317A663636565646564210A00436F756C642030
S11317B66E6F7420636F6E6E6563742E2045786950
S11317C674696E672E2E2E0A0057697A6E65742028
S11317D6573531303020496E697400456E74657230
S11317E674696E672045746865726E657420536506
S11317F67475700052656164696E67204D523A20B3
S113180625640A0A0053657474696E672047617417
S11318166577617920416464726573732025642E4B
S113182625642E25642E25640A0052656164696E5A
S113183667204741523A2025642E25642E25642EBE
S113184625640A0A0053657474696E6720536F75BC
S1131856726365204164647265737320252E327841
S11318663A252E32783A252E32783A252E32783A8F
S1131876252E32783A252E32780A0052656164693B
S11318866E67205341523A20252E32783A252E325D
S1131896783A252E32783A252E32783A252E327821
S11318A63A252E32780A0A0053657474696E6720E5
S11318B6537562204D61736B204164647265737362
S11318C62025642E25642E25642E25640A0052657F
S11318D66164696E6720535542523A2025642E2569
S11318E6642E25642E25640A0A0053657474696E91
S11318F66720495020416464726573732025642E01
S113190625642E25642E25640A0052656164696E79
S11319166720534950523A2025642E25642E2564A7
S11319262E25640A0A00446F6E652057697A6E652F
S11319367420573531303020496E697469616C6999
S11319467A6564210053656E642053697A653A208A
S113195625640A00545820467265652053697A65E1
S11319663A2025640A0054582053697A653A20259A
S11319766400545820467265652053697A6520458B
S113198672726F7221005458204275666665723A07
S11319962025780A005265616C2057523A20256446
S11319A60A005265616C2052523A2025640A004F9F
S11319B666667365742041667465723A2025640A06
S11319C6005752204C6F773A2025640A005752205C
S11319D6486967683A2025640A00525820427566A9
S11319E66665723A2025780A004D61736B2052654C
S11319F66769737465722056616C75653A2025644F
S1131A060A00496E7465727275707420526567694E
S1131A16737465722056616C75653A2025640A00F4
S1131A2653656E64204F7065726174696F6E2043EE
S1131A366F6D706C6574652E0054696D656F757491
S1131A46204F63637572726564206F6E20536F63F3
S1131A566B657420302100526563656976696E672B
S1131A6620446174612E2E2E00536F636B657420BF
S1131A76446973636F6E6E65637465642E00536F99
S1131A86636B6574203020436F6E6E6563746564A2
S1131A962E00556E646566696E656420496E7465CC
S1131AA67272757074204F636375727265642E204A
S1131AB6496E742056616C75653A20256400536539
S1131AC66E74204D6573736167653A2025730A0049
S1131AD6526563656976652053697A653A2025649B
S1131AE60A004D6573736167653A20257300504F8C
S1131AF65354202F646174613F743D48656C6C6F68
S1131B06253230576F726C6420485454502F312E4E
S1131B16310A686F73743A207777772E77692D7058
S10B1B26726F2E75730A0A00A8
S9030000FC
