S016000045746865726E65744D6F64756C652E7372656369
S11300000C943E000C945B000C945B000C945B001D
S11300100C945B000C945B000C945B000C945B00F0
S11300200C945B000C945B000C945B000C945B00E0
S11300300C945B000C945B000C945B000C945B00D0
S11300400C945B000C945B000C945B000C945B00C0
S11300500C945B000C945B000C945B000C945B00B0
S11300600C945B000C945B000C945B000C945B00A0
S11300700C945B000C945B000C945B0011241FBE79
S1130080CFEFD8E0DEBFCDBF12E0A0E0B1E0E4E8FE
S1130090FBE002C005900D92A039B107D9F722E028
S11300A0A0E9B2E001C01D92A639B207E1F70E94AF
S11300B0CD020C94C0050C940000CF93C82F8A3055
S11300C019F48DE00E945D00E0ECF0E0908195FF72
S11300D0FDCFC093C60080E090E0CF910895CF9308
S11300E0BC01E0ECF0E080818823ECF7C091C6000D
S11300F08C2F0E945D008C2F90E0CF910895109278
S1130100C50089E18093C40088E18093C10086E042
S11301108093C20008958091C000882344F4A6EC23
S1130120B0E0E0ECF0E08C9180818823E4F3089562
S1130130CF93DF93C2E9D2E0688179818BE190E0CB
S11301400E94D002688179818BE590E00E94D00200
S11301506881798188E490E00E94D0026881798185
S11301608BE190E00E94D002688179818BE590E078
S11301700E94D002688179818AE490E00E94D002D2
S1130180DF91CF910895CF93DF93C2E9D2E06881E4
S113019079818BE190E00E94D002688179818BE5BE
S11301A090E00E94D0026881798180E390E00E940F
S11301B0D002688179818DE690E00E94D002DF91BF
S11301C0CF9108952A9820EF2EBD0DB407FEFDCFE0
S11301D09EBD0DB407FEFDCF8EBD0DB407FEFDCF51
S11301E06EBD0DB407FEFDCF2A9A08952A982FE01C
S11301F02EBD0DB407FEFDCF9EBD0DB407FEFDCF91
S11302008EBD0DB407FEFDCF1EBC0DB407FEFDCFA1
S11302102A9A8EB50895FF920F931F93CF93DF937D
S113022060E880E090E00E94E20089EF90E00197AE
S1130230F1F700C0000080E090E00E94F6001F92F9
S11302408F938EE091E09F938F930E9402031F92FD
S113025081E08F931F9282E08F931F9288EA8F939D
S11302601F9280EC8F938FE191E09F938F930E9474
S1130270020360EC81E090E00E94E20068EA82E020
S113028090E00E94E20062E083E090E00E94E200DD
S113029061E084E090E00E94E20089EF90E0019741
S11302A0F1F700C0000084E090E00E94F600182FEF
S11302B083E090E00E94F600D82F82E090E00E9454
S11302C0F600C82F81E090E00E94F6001F921F9371
S11302D01F92DF931F92CF931F928F9384E491E038
S11302E09F938F930E9402031F9286EF8F931F9216
S11302F088E58F931F928EED8F931F9286E38F93E1
S11303001F9286E18F931F921F928FE591E09F9336
S11303108F930E9402038DB79EB786960FB6F8940A
S11303209EBF0FBE8DBF60E089E090E00E94E200B6
S113033066E18AE090E00E94E20066E38BE090E0F0
S11303400E94E2006EED8CE090E00E94E20068E51D
S11303508DE090E00E94E20066EF8EE090E00E9463
S1130360E20089EF90E00197F1F700C000008EE011
S113037090E00E94F600F82E8DE090E00E94F600D6
S1130380082F8CE090E00E94F600182F8BE090E09C
S11303900E94F600D82F8AE090E00E94F600C82F51
S11303A089E090E00E94F6001F92FF921F920F9343
S11303B01F921F931F92DF931F92CF931F928F93CD
S11303C085E991E09F938F930E9402031F921F92ED
S11303D01F928FEF8F931F928F931F928F9382ECB4
S11303E091E09F938F930E9402036FEF85E090E06A
S11303F00E94E2006FEF86E090E00E94E2006FEF5F
S113040087E090E00E94E20060E088E090E00E94D3
S1130410E20089EF90E00197F1F700C0000088E066
S113042090E00E94F600182F87E090E00E94F6000A
S1130430D82F86E090E00E94F600C82F85E090E077
S11304400E94F6001F921F931F92DF931F92CF9377
S11304501F928F9388EE91E09F938F930E940203E3
S11304608DB79EB782960FB6F8949EBF0FBE8DBF10
S11304701F928AE08F931F9282E08F931F9288EAE3
S11304808F931F9280EC8F9384E092E09F938F93DD
S11304900E94020360EC8FE090E00E94E20068EAB0
S11304A080E190E00E94E20062E081E190E00E943D
S11304B0E2006AE082E190E00E94E20089EF90E0CD
S11304C00197F1F700C0000082E190E00E94F6007D
S11304D0182F81E190E00E94F600D82F80E190E08F
S11304E00E94F600C82F8FE090E00E94F6001F9251
S11304F01F931F92DF931F92CF931F928F9384E2D7
S113050092E09F938F930E94020380E492E00E9402
S1130510160365E58AE190E00E94E20065E58BE15F
S113052090E00E94E2008EE592E00E9416038DB7EF
S11305309EB744960FB6F8949EBF0FBE8DBFDF9151
S1130540CF911F910F91FF9008958FEF8AB91BB837
S113055080E091E0909391028093900290939302B3
S1130560809392020E947F000E94C3000E94980020
S11305700E94C3000E9498000E948B008CE284B900
S11305802A9A80E58CBD8DB581608DBD8DE792E0A2
S11305900E9416030E940B0108950E94A502FFCF3A
S11305A00F931F93CF93DF93182F092FEB018B81A8
S11305B081FD03C08FEF9FEF20C082FF10C04E81EA
S11305C05F812C813D81421753077CF4E881F981D6
S11305D09F012F5F3F4F39832883108306C0E8852E
S11305E0F985812F0995892B29F72E813F812F5F6A
S11305F03F4F3F832E83812F902FDF91CF911F9107
S11306000F910895A0E0B0E0E8E0F3E00C949905C0
S1130610FE01359661917191AF01809192029091A2
S113062093020E944303E2E00C94B5050F931F93D9
S1130630CF93DF93E0919202F0919302238121FF03
S11306401BC0EC0100E010E089916091920270916E
S11306509302DB011896ED91FC911997882331F0F0
S11306600995892B89F30FEF1FEFEECF8AE00995E7
S1130670892B11F4C80102C08FEF9FEFDF91CF9156
S11306801F910F910895ACE0B0E0E9E4F3E00C941D
S113069089057C016B018A01FC0117821682838122
S11306A081FFBDC1CE0101964C01F7019381F60192
S11306B093FD859193FF81916F01882309F4ABC168
S11306C0853239F493FD859193FF81916F018532D1
S11306D029F4B70190E00E94D002E7CF512C312CCD
S11306E020E02032A0F48B3269F030F4803259F0EB
S11306F0833269F420612CC08D3239F0803339F4AF
S1130700216026C02260246023C0286021C027FD08
S113071027C030ED380F3A3078F426FF06C0FAE0EF
S11307205F9E300D1124532E13C08AE0389E300D85
S11307301124332E20620CC08E3221F426FD6BC1AD
S1130740206406C08C3611F4206802C0883641F457
S1130750F60193FD859193FF81916F018111C1CFC2
S1130760982F9F7D9554933028F40C5F1F4FFFE31F
S1130770F9830DC0833631F0833771F0833509F086
S11307805BC022C0F801808189830E5F1F4F44241F
S11307904394512C540115C03801F2E06F0E711CC2
S11307A0F801A080B18026FF03C0652D70E002C06F
S11307B06FEF7FEFC5012C870E9420052C01830178
S11307C02C852F77222E17C03801F2E06F0E711C92
S11307D0F801A080B18026FF03C0652D70E002C03F
S11307E06FEF7FEFC5012C870E9415052C012C8526
S11307F02068222E830123FC1BC0832D90E0481621
S11308005906B0F4B70180E290E00E94D0023A9415
S1130810F4CFF50127FC859127FE81915F01B70193
S113082090E00E94D00231103A94F1E04F1A51083E
S11308304114510471F7E5C0843611F0893639F555
S1130840F80127FF07C060817181828193810C5F69
S11308501F4F08C060817181882777FD8095982F8C
S11308600E5F1F4F2F76B22E97FF09C0909580958B
S1130870709561957F4F8F4F9F4F2068B22E2AE06D
S113088030E0A4010E942B05A82EA81844C0853787
S113089029F42F7EB22E2AE030E025C0F22FF97F12
S11308A0BF2E8F36C1F018F4883579F0B4C0803784
S11308B019F0883721F0AFC02F2F2061B22EB4FE7B
S11308C00DC08B2D8460B82E09C024FF0AC09F2F51
S11308D09660B92E06C028E030E005C020E130E083
S11308E002C020E132E0F801B7FE07C060817181E7
S11308F0828193810C5F1F4F06C06081718180E00B
S113090090E00E5F1F4FA4010E942B05A82EA8188B
S1130910FB2DFF77BF2EB6FE0BC02B2D2E7FA5140B
S113092050F4B4FE0AC0B2FC08C02B2D2E7E05C0C4
S11309307A2C2B2D03C07A2C01C0752C24FF0DC0FA
S1130940FE01EA0DF11D8081803311F4297E09C076
S113095022FF06C07394739404C0822F867809F032
S1130960739423FD13C020FF06C05A2C731418F48B
S1130970530C5718732C731468F4B70180E290E099
S11309802C870E94D00273942C85F5CF731410F435
S1130990371801C0312C24FF12C0B70180E390E066
S11309A02C870E94D0022C8522FF17C021FF03C090
S11309B088E590E002C088E790E0B7010CC0822F80
S11309C0867859F021FD02C080E201C08BE227FD48
S11309D08DE2B70190E00E94D002A51438F4B7016B
S11309E080E390E00E94D0025A94F7CFAA94F401D5
S11309F0EA0DF11D8081B70190E00E94D002A110A0
S1130A00F5CF332009F451CEB70180E290E00E9483
S1130A10D0023A94F6CFF7018681978102C08FEF16
S1130A209FEF2C96E2E10C94A505FC010590615022
S1130A3070400110D8F7809590958E0F9F1F0895F0
S1130A40FC016150704001900110D8F78095909599
S1130A508E0F9F1F0895FA01AA27283051F12031E3
S1130A6081F1E8946F936E7F6E5F7F4F8F4F9F4F3E
S1130A70AF4FB1E03ED0B4E03CD0670F781F891F80
S1130A809A1FA11D680F791F8A1F911DA11D6A0F4E
S1130A90711D811D911DA11D20D009F468943F9101
S1130AA02AE0269F11243019305D3193DEF6CF0100
S1130AB00895462F4770405D4193B3E00FD0C9F7C6
S1130AC0F6CF462F4F70405D4A3318F0495D31FD33
S1130AD04052419302D0A9F7EACFB4E0A695979586
S1130AE0879577956795BA95C9F70097610571055C
S1130AF008959B01AC010A2E0694579547953795A6
S1130B002795BA95C9F7620F731F841F951FA01DFF
S1130B1008952F923F924F925F926F927F928F929D
S1130B209F92AF92BF92CF92DF92EF92FF920F9378
S1130B301F93CF93DF93CDB7DEB7CA1BDB0B0FB682
S1130B40F894DEBF0FBECDBF09942A88398848883F
S1130B505F846E847D848C849B84AA84B984C884D5
S1130B60DF80EE80FD800C811B81AA81B981CE0FCC
S1130B70D11D0FB6F894DEBF0FBECDBFED010895B1
S1070B80F894FFCF13
S1130B8400000003000000005D006F0000005265D7
S1130B946164696E67204D523A2025640A0A005341
S1130BA4657474696E67204761746577617920415F
S1130BB46464726573732025642E25642E25642E63
S1130BC425640A0052656164696E67204741523A9C
S1130BD42025642E25642E25642E25640A0A0053D8
S1130BE4657474696E6720536F757263652041641C
S1130BF4647265737320252E32783A252E32783A3E
S1130C04252E32783A252E32783A252E32783A2512
S1130C142E32780A0052656164696E67205341522A
S1130C243A20252E32783A252E32783A252E3278F7
S1130C343A252E32783A252E32783A252E32780AFD
S1130C440A0053657474696E6720537562204D619C
S1130C54736B20416464726573732025642E256468
S1130C642E25642E25640A0052656164696E67202A
S1130C74535542523A2025642E25642E25642E258C
S1130C84640A0A0053657474696E672049502041EC
S1130C946464726573732025642E25642E25642E82
S1130CA425640A0052656164696E67205349505291
S1130CB43A2025642E25642E25642E25640A0A0010
S1130CC453657474696E672057697A6E657420522B
S1130CD44D535220616E6420544D53520A00446FA4
S1130CE46E652057697A6E6574205735313030202B
S1130CF4496E697469616C697A6564210057697A1B
S1130D046E657420573531303020496E69740A0099
S9030000FC
