S00D0000776970726F2E73726563E6
S113000071C000008EC000008CC000008AC00000D7
S113001088C0000086C000000C94E30982C0000080
S113002080C000007EC000007CC000007AC00000D8
S113003078C0000076C0000074C0000072C00000E8
S113004070C000006EC000006CC000006AC00000F8
S11300500C94A80966C0000064C0000062C00000DF
S113006060C00000FAC600005CC000005AC0000076
S113007058C0000056C0000054C0000052C0000028
S113008050C000004EC000004CC000004AC0000038
S113009048C0000046C0000044C0000042C0000048
S11300A040C000003EC000003CC000003AC0000058
S11300B038C0000036C0000034C0000032C0000068
S11300C030C000002EC000002CC000002AC0000078
S11300D028C0000026C0000024C0000022C0000088
S11300E020C0000011241FBECFEFD1E2DEBFCDBF80
S11300F019E0A0E0B2E0E2E8F9E200E00BBF02C0E0
S113010007900D92A235B107D9F72BE0A2E5B9E02B
S113011001C01D92A933B207E1F70E944F110C945C
S1130120BF146ECF749820EF2EBD0DB407FEFDCF23
S11301309EBD0DB407FEFDCF8EBD0DB407FEFDCFF1
S11301406EBD0DB407FEFDCF749A089574982FE028
S11301502EBD0DB407FEFDCF9EBD0DB407FEFDCF31
S11301608EBD0DB407FEFDCF1EBC0DB407FEFDCF42
S1130170749A8EB50895BF92CF92DF92EF92FF9258
S11301800F931F93CF93DF93EC018B017A016901E5
S11301906C9A87E084B9749A80E58CBD85E392E01B
S11301A00E942D1287E492E00E942D1260E880E004
S11301B090E0B8DF8FEC97E00197F1F700C0000002
S11301C080E090E0C3DF1F928F9380E692E09F93DC
S11301D08F930E941512F60183811F928F9382815F
S11301E01F928F9381811F928F9380811F928F938F
S11301F081E792E09F938F930E941512F60160812C
S113020081E090E08FDFF601618182E090E08ADF97
S1130210F601628183E090E085DFF601638184E08A
S113022090E080DF8FEC97E00197F1F700C00000C9
S113023084E090E08BDFB82E83E090E087DFC82E67
S113024082E090E083DFD82E81E090E07FDF1F9290
S1130250BF921F92CF921F92DF921F928F9386E9D3
S113026092E09F938F930E9415128D811F928F931A
S11302708C811F928F938B811F928F938A811F92FF
S11302808F9389811F928F9388811F928F9381EB23
S113029092E09F938F930E941512EDB7FEB7B69626
S11302A00FB6F894FEBF0FBEEDBF688189E090E001
S11302B039DF69818AE090E035DF6A818BE090E084
S11302C031DF6B818CE090E02DDF6C818DE090E07C
S11302D029DF6D818EE090E025DF8FEC97E00197B8
S11302E0F1F700C000008EE090E030DFB82E8DE022
S11302F090E02CDFC82E8CE090E028DFD82E8BE035
S113030090E024DFD82F8AE090E020DFC82F89E036
S113031090E01CDF1F92BF921F92CF921F92DF9238
S11303201F92DF931F92CF931F928F9387EE92E0D9
S11303309F938F930E941512F70183811F928F93CD
S113034082811F928F9381811F928F9380811F924C
S11303508F9384E193E09F938F930E941512F7018A
S1130360608185E090E0DEDEF701618186E090E067
S1130370D9DEF701628187E090E0D4DEF701638182
S113038088E090E0CFDE8FEC97E00197F1F700C0B2
S1130390000088E090E0DADEF82E87E090E0D6DE18
S11303A0D82F86E090E0D2DEC82F85E090E0CEDE44
S11303B01F92FF921F92DF931F92CF931F928F93EE
S11303C08AE393E09F938F930E941512EDB7FEB7D3
S11303D0B2960FB6F894FEBF0FBEEDBFF80183814D
S11303E01F928F9382811F928F9381811F928F938B
S11303F080811F928F9386E593E09F938F930E9451
S11304001512F80160818FE090E08CDEF8016181C3
S113041080E190E087DEF801628181E190E082DE94
S1130420F801638182E190E07DDE8FEC97E0019733
S1130430F1F700C0000082E190E088DE182F81E12E
S113044090E084DED82F80E190E080DEC82F8FE03A
S113045090E07CDE1F921F931F92DF931F92CF9335
S11304601F928F9386E793E09F938F930E941512B8
S113047082E993E00E942D12EDB7FEB774960FB691
S1130480F894FEBF0FBEEDBFDF91CF911F910F9186
S1130490FF90EF90DF90CF90BF900895CF92DF92BE
S11304A0EF92FF920F931F93CF93DF93182F7B014B
S11304B06A01E90160E181E094E034DE612F80E0CB
S11304C094E030DE688184E094E02CDE698185E08C
S11304D094E028DE61E081E094E024DE83E094E0AF
S11304E035DE833139F7F70160818CE094E01ADE60
S11304F0F70161818DE094E015DEF70162818EE001
S113050094E010DEF70163818FE094E00BDEF601E6
S1130510608180E194E006DEF601618181E194E08E
S113052001DE64E081E094E0FDDDC0E0D0E000E1C4
S113053017E235C087E592E00197F1F700C00000AB
S113054021969E01329522952F7023273F702327F1
S1130550A7E4B3E00E94BC1196958795969587957C
S113056096958795809F9001819F300D909F300DC7
S11305701124C217D30799F481EB93E00E942D1242
S1130580C13593ECD90758F083ED93E00E942D1206
S113059060E181E094E0C6DD80E090E017C083E094
S11305A094E0D4DD873131F683E094E0CFDD873108
S11305B039F48BEE93E00E942D1281E090E006C0A6
S11305C082E094E00E942D1280E090E0DF91CF91D0
S11305D01F910F91FF90EF90DF90CF90089563E00B
S11305E08AE190E09FDD63E08BE190E09BDD8FEF9B
S11305F09FE1909356098093550920E030E43093AD
S113060058092093570990935C0980935B0980E013
S113061090E690935A09809359090895682F81E0D0
S113062094E080CD08954F925F926F927F928F9263
S11306309F92AF92BF92CF92DF92EF92FF920F936D
S11306401F93CF93DF936C015B013A0183E094E045
S11306507DDD1F928F9381E294E09F938F930E949C
S1130660151283E094E072DD0F900F900F900F90BD
S1130670873151F020E032E042E052E064E072E081
S113068081E00CDF892BB1F380E294E05FDDC82FB9
S1130690D0E0DC2FCC2781E294E058DDC80FD11DD7
S11306A0CA15DB0508F48BC02CC08FEC97E00197CA
S11306B0F1F700C0000080E294E048DDC82FD0E0EC
S11306C0DC2FCC2781E294E041DDC80FD11DDF93FC
S11306D0CF93FF92EF920E941512015011090F90CF
S11306E00F900F900F9051F488E098DF81E094E030
S11306F02DDD8111FBCF80E090E088C0CA15DB05B9
S1130700A0F284E294E022DD482E85E294E01EDD2E
S1130710512C542C4424480E511C82E294E016DDE2
S113072083E294E013DD89E394E00E942D12A11486
S1130730B10461F17601EA0CFB1C8201C0E0D4E053
S113074080905509909056098022912280915709F2
S113075090915809880E991E6114710441F0BE01EC
S113076080E090E0AED0682FC401DCDC04C0F60168
S11307706081C401D7DC0F5F1F4FFFEFCF1ADF0A80
S11307802196CE14DF04E1F64A0C5B1C60E0C40140
S11307900196C8DC84E294E0D9DC6FEF84E294E053
S11307A0C1DC642D85E294E0BDDC80E237DF81E0CA
S11307B094E0CCDC8111FBCF81E090E027C08FEC8A
S11307C097E00197F1F700C0000080E294E0BEDCFE
S11307D0C82FD0E0DC2FCC2781E294E0B7DCC80F2F
S11307E0D11DDF93CF938DE294E09F938F930E946A
S11307F015120F900F900F900F9009EE13E00F2E2B
S1130800FDE2EF2EF4E0FF2EF02D78CFDF91CF91B3
S11308101F910F91FF90EF90DF90CF90BF90AF901A
S11308209F908F907F906F905F904F90089592E08B
S11308309EBD0DB407FEFDCF8EBD0DB407FEFDCFEA
S11308407EBD0DB407FEFDCF6EBD0DB407FEFDCF1A
S113085008958EBD0DB407FEFDCF089593E09EBDAF
S11308600DB407FEFDCF8EBD0DB407FEFDCF7EBDDA
S11308700DB407FEFDCF6EBD0DB407FEFDCF089588
S11308801EBC0DB407FEFDCF8EB50895CF93C82FBF
S1130890A398CB01BA01CBDF8C2FDBDFA39ACF91D6
S11308A0089584B1876884B92F9A9B9AA39A80E5A6
S11308B08CBD81E08DBD40E050E0BA0182E3E6CF1B
S11308C00895A398CBDFDCDFA39A0895E4E0F1E078
S11308D0808188638083E5E0F1E0808180628083A9
S11308E08081877E808308958EBD0DB407FEFDCF81
S11308F00895DB0190E0FC01EE0FFF1FEE0FFF1FD8
S11309008E0F9F1FFC01E35AF64F9B012B5F3F4F55
S11309108D918193A217B307D9F70895AF92BF922F
S1130920CF92DF92EF92FF920F931F93CF93DF93B7
S11309300F2EF2E6EF2EF9E0FF2EF02D0F2EFBE73F
S1130940AF2EF9E0BF2EF02DC12CD12C0EC0F80132
S113095081918F01C9DF2196C530D105C1F7F5E03A
S1130960EF0EF11CEA14FB0421F08701CC2DDD2DE0
S1130970EECFE5E0F1E080818061808385E38A95B4
S1130980F1F7000080818F7E8083DF91CF911F91EA
S11309900F91FF90EF90DF90CF90BF90AF900895AC
S11309A0CF93DF9300D000D01F92CDB7DEB785E0A0
S11309B0E0E3F2E0DE01119601900D928A95E1F7F1
S11309C0BE016F5F7F4F81E094DF19821A8288E055
S11309D08B831C821D82BE016F5F7F4F82E089DFA3
S11309E019821A821B821C821D82BE016F5F7F4F97
S11309F083E07FDF198280E28A831B821C821D824E
S1130A00BE016F5F7F4F84E074DF19821A821B82FC
S1130A1084E08C831D82BE016F5F7F4F85E069DFB8
S1130A207DDF0F900F900F900F900F90DF91CF917B
S1130A300895CF93DF9300D000D01F92CDB7DEB7D7
S1130A4085E0E0E3F2E0DE01119601900D928A95D3
S1130A50E1F7BE016F5F7F4F81E04BDF198280E4D5
S1130A608A831B8284E08C831D82BE016F5F7F4F6B
S1130A7082E03FDF19821A821B821C821D82BE0122
S1130A806F5F7F4F83E035DF198280E28A831B82A8
S1130A9082E08C831D82BE016F5F7F4F84E029DF7B
S1130AA019821A821B8281E08C831D82BE016F5FD2
S1130AB07F4F85E01EDF32DF0F900F900F900F9075
S1130AC00F90DF91CF9108958FEF80BB11BA84B15D
S1130AD0806784B985B18F7885B908952C9A089573
S1130AE02C9808952D9A08952D98089591B321E096
S1130AF030E002C0220F331F8A95E2F7292B21BB75
S1130B0081E0089591B321E030E002C0220F331F49
S1130B108A95E2F7292B21BB81E008952E9A089546
S1130B202E98089591B321E030E002C0220F331FC4
S1130B308A95E2F7292B21BB81E0089590938B09D4
S1130B4080938A0908951092C50083E38093C400BA
S1130B50E1ECF0E088E1808386E08093C20080814C
S1130B608068808308950F931F93CF93DF93EC01E4
S1130B701092960989E0EDE7F9E0DF011D928A956C
S1130B80E9F761157105B1F020E030E040E0E0ECF8
S1130B90F0E006EC10E0908195FFFDCF2C0F3D1F97
S1130BA0D9019C91D8019C934F5F242F30E02617E4
S1130BB0370788F386E794E00E942D1280E090E0E6
S1130BC0DF91CF911F910F910895E0ECF0E08081C7
S1130BD08823ECF78091C6000895E1ECF0E0808171
S1130BE080688083789481E090E00895E1ECF0E0FF
S1130BF080818F77808381E090E0089580919609C9
S1130C00811108C081E28A95F1F70000809196096C
S1130C108823C1F381E090E008950F931F93CF934D
S1130C20DF938091880990918909892BF1F0C0E0C4
S1130C30D0E00CE714E0FE01E358F64F8081FF9307
S1130C40EF931F928F931F930F930E941512219677
S1130C500F900F900F900F900F900F90C930D10507
S1130C6051F78AE090E00E94281210928F091092A6
S1130C708E09EDE7F9E0268180918E0990918F0924
S1130C802F70820F911D90938F0980938E09958107
S1130C9020918E0930918F099F70892F90E0AC01CB
S1130CA0440F551F880F991F880F991F880F991F8C
S1130CB0840F951F820F931F90938F0980938E0941
S1130CC0248180918E0990918F092F7034E6239F9F
S1130CD0800D911D112490938F0980938E09238197
S1130CE080918E0990918F092F7068EE73E0269F92
S1130CF0A001279F500D1124840F951F90938F09F5
S1130D0080938E09228180918E0990918F092F7092
S1130D1060E177E2269FA001279F500D1124840FE4
S1130D20951F90938F0980938E0980918E099091DD
S1130D308F09DF91CF911F910F91089580918E09B2
S1130D4090918F0908958DE799E008956093900933
S1130D5070939109809392099093930908950F9346
S1130D601F93CF93DF93813031F0823071F08F3F46
S1130D7009F06CC017C085E0E3E7F5E0A7E9B9E046
S1130D8001900D928A95E1F70DC0A7E9B9E00D90A5
S1130D900020E9F7119785E0E8E9F4E001900D926D
S1130DA08A95E1F7EA0187E999E00E94CB1186E090
S1130DB0C03CD80779F0E7E9F9E001900020E9F7B1
S1130DC0319780E290E091838083BE0187E999E0C6
S1130DD00E94CB11C7E9D9E0FE0101900020E9F798
S1130DE031978DE09AE0A0E080839183A283FE0195
S1130DF001900020E9F731978F0107591940DF93DB
S1130E00CF931F930F93DF93CF938DE994E09F9338
S1130E108F930E941512B801CE01A5DE84E6FE016F
S1130E2011928A95E9F782EC94E00E942D1289ECE4
S1130E3094E00E942D128DB79EB708960FB6F894D1
S1130E409EBF0FBE8DBF81E090E002C080E090E0C5
S1130E50DF91CF911F910F9108951F920F920FB6BA
S1130E600F9211240BB60F922F933F934F935F93DE
S1130E706F937F938F939F93AF93BF93CF93DF939E
S1130E80EF93FF93F8948091940990919509892B9D
S1130E90E1F49BDE8093860980918609823509F00E
S1130EA097C010928B0910928A09E0918A09F091F7
S1130EB08B0980918609E358F64F808381E090E0A6
S1130EC0909395098093940983C080918A099091A5
S1130ED08B09099748F4C0918A09D0918B0975DE72
S1130EE0C358D64F888374C080918A0990918B0926
S1130EF0099729F592DE90938F0980938E0980914A
S1130F00880990918909892B09F462C020918A0982
S1130F1030918B0980918E0990918F093F932F9383
S1130F209F938F9384ED94E09F938F930E94151267
S1130F300F900F900F900F900F900F9049C08091D9
S1130F408E0990918F0920918A0930918B09099615
S1130F5028173907D8F439DE8093860920918A0945
S1130F6030918B09409190095091910960919209B7
S1130F7070919309809186094A5051096109710958
S1130F80420F531F611D711D81DC22C010928B0919
S1130F9010928A09109295091092940910928D0961
S1130FA010928C091092870981E08093960935DEAE
S1130FB09F938F9384EF94E09F938F930E941512D5
S1130FC08DE095E00E942D120F900F900F900F90DE
S1130FD080918A0990918B09019690938B09809353
S1130FE08A097894FF91EF91DF91CF91BF91AF91EE
S1130FF09F918F917F916F915F914F913F912F912D
S11310000F900BBE0F900FBE0F901F901895E3E644
S1131010FAE0108211821282138214821582659979
S113102008C08DE195E00E942D1206D281E08093E4
S1131030630A0895E1E8F0E080818460808310927F
S113104084001092850081E080936F00089580E20F
S11310508DBB84E080936A0008950E94861173DD3D
S113106020DCD5DFF4DF84E6EBEFF9E0DF011D924D
S11310708A95E9F781E08093640A0895CF93DF931A
S11310808091630A8823B1F1CBEFD9E084E6DE01D5
S11310901D928A95E9F785E0EFE2F5E0DE01019023
S11310A00D928A95E1F7DE010D900020E9F7119782
S11310B085E1E4E3F5E001900D928A95E1F7DE0124
S11310C00D900020E9F7119782E1E9E4F5E0019041
S11310D00D928A95E1F7DE010D900020E9F7119752
S11310E083E1EBE5F5E001900D928A95E1F7CE01FD
S11310F0B9D134C08091640A882381F1CBEFD9E05F
S11311008AE0EEE6F5E0DE0101900D928A95E1F7C2
S1131110DE010D900020E9F7119785E1E4E3F5E0A5
S113112001900D928A95E1F7DE010D900020E9F718
S1131130119782E1E9E4F5E001900D928A95E1F7D7
S1131140DE010D900020E9F7119783E1EBE5F5E06E
S113115001900D928A95E1F7CE01BBD284E6EBEFC4
S1131160F9E0DF011D928A95E9F781E090E0DF91D3
S1131170CF9108950F931F93CF93DF938091640AC7
S1131180882309F45BC0CBEFD9E085E1E4E3F5E023
S1131190DE0101900D928A95E1F7DE010D900020A9
S11311A0E9F7119784E2E0EBF5E001900D928A955E
S11311B0E1F701E010E020E030E0A90161E070E037
S11311C0CE0102D2082F192F84ED95E00E942D1232
S11311D01F930F9382EE95E09F938F930E941512B5
S11311E0802F912FAFD384E6FE0111928A95E9F7FF
S11311F085E1E4E3F5E0DE0101900D928A95E1F7E3
S1131200DE010D900020E9F7119787E2E1E0F6E0B6
S113121001900D928A95E1F701E010E025E030E3BA
S113122040E050E061E070E0CE01CED188E296E08B
S11312300E942D120F900F900F900F9081E090E07C
S1131240DF91CF911F910F9108950F931F93CF9327
S1131250DF93EFE6F0E080818E7F80838091640AE3
S11312608823C1F185E1E4E3F5E0ABEFB9E0019057
S11312700D928A95E1F7ABEFB9E00D900020E9F704
S1131280119785E2E4E3F6E001900D928A95E1F787
S113129000E010E020E030E340E050E061E070E086
S11312A08BEF99E091D160E070E380E090E009DB9E
S11312B0C3E6DAE08F708A8361E070E380E090E057
S11312C000DB8F708B8362E070E380E090E0F9DAFA
S11312D08F708C8384E6EBEFF9E0DF011D928A9531
S11312E0E9F78091650A813031F589E596E00E943D
S11312F02D12A19A3FDFBAD2892BE1F365E070E3A6
S113130080E090E0DEDA8F708093680A823019F012
S1131310833039F00CC06AE071E98EE190E042D28A
S11313200AC061E175E98EE190E03CD204C082E636
S113133096E00E942D12A2DEEFE6F0E0808181604B
S1131340808381E090E0DF91CF911F910F91089508
S11313501F920F920FB60F9211240BB60F922F9378
S11313603F934F935F936F937F938F939F93AF9329
S1131370BF93CF93DF93EF93FF93CFE6D0E08881C1
S11313808E7F888388E796E00E942D125EDF10929C
S1131390840010928500888181608883FF91EF9199
S11313A0DF91CF91BF91AF919F918F917F916F9179
S11313B05F914F913F912F910F900BBE0F900FBEF5
S11313C00F901F9018951F920F920FB60F92112431
S11313D00BB60F922F933F934F935F936F937F932B
S11313E08F939F93AF93BF93EF93FF93F894659B71
S11313F007C01092630A84E896E00E942D1208C088
S113140081E08093630A18D081E996E00E942D124E
S11314107894FF91EF91BF91AF919F918F917F91BC
S11314206F915F914F913F912F910F900BBE0F9051
S11314300FBE0F901F90189520E132E044E152E076
S113144068E172E08CE192E00E94BB0028E032E0A7
S11314504AE052E06CE072E081E020D8892BB1F3DD
S1131460BEC80895CF93DF93BC0189E69AE09ED766
S1131470C9E6DAE0DE010D900020E9F7119782E277
S1131480EFE9F6E001900D928A95E1F7DF93CF93AF
S11314908DEA95E09F938F93C8D7FE0101900020B9
S11314A0E9F73197BF0169567A4040E050E0CE0138
S11314B0BAD884E6FE0111928A95E9F70F900F904D
S11314C00F900F90DF91CF910895A4988EBD0DB425
S11314D007FEFDCFA49A08959C9AA49AE4E0F1E053
S11314E0808184608083E5E0F1E080818B7F80836C
S11314F080E0EBCF08956A3021E972072EE182077C
S1131500910531F0613175498E41910521F00895BD
S113151081E0DBCF089582E0D8CF08951092320B9A
S11315201092310B82E3EFEFFAE0DF011D928A950E
S1131530E9F708951092320B1092310B08950F932E
S11315401F93CF93DF93CFEFDAE004E01BE06091C9
S1131550310B7091320B80E090E0B3D98993809184
S1131560310B9091320B01969093320B8093310B97
S1131570C017D10761F70091000BC4E0DBE010E075
S11315800B5F144F6091310B7091320B80E090E04F
S113159098D96091310B7091320B80E090E091D931
S11315A089938091310B9091320B01969093320B79
S11315B08093310BC017D10729F78FEF9AE0DF91A1
S11315C0CF911F910F9108952F923F924F925F9266
S11315D06F927F928F929F92AF92BF92CF92DF923F
S11315E0EF92FF920F931F93CF93DF93EC017B0154
S11315F029013A011801F1DA80E090E09FDAAE01A6
S11316006EE675E08FEFABDBF9DA83E897E025D778
S113161000E010E00F2EF4EBCF2EF7E0DF2EF02DDC
S1131620E114F104C1F053014201800E911EA11C8A
S1131630B11CC501B4018ADBBF92AF929F928F9215
S1131640A1E9B7E0BF93AF93F0D60F900F900F903E
S11316500F900F900F9080E090E070DA42EA57E02C
S113166068EA77E08FEF7BDBC9DA6DDBEC01DF93AF
S1131670CF93DF92CF92D9D60F900F900F900F9007
S11316808981813341F05ADB0297080F191F211415
S1131690310409F0C5CF85EC97E0DFD6A7DA40EC3A
S11316A056E067E477E08FEF5ADBC801DF91CF9112
S11316B01F910F91FF90EF90DF90CF90BF90AF906C
S11316C09F908F907F906F905F904F903F902F905E
S11316D00895CF93DF93EC0189DA40EC56E0BE0124
S11316E08FEF3DDB40EC56E067E477E08FEF37DBCC
S11316F0DF91CF910895CF92DF92EF92FF92CF9333
S1131700DF936B017C01D2D2EC018A811F928F930B
S113171089811F928F9388811F928F9383ED97E025
S11317209F938F9382D6888190E0A0E0B0E04E2D05
S113173050E060E070E02DB73EB7285F3F4F0FB632
S1131740F8943EBF0FBE2DBF84179507A607B707B1
S1131750E9F4898190E0A0E0B0E04D2D50E060E034
S113176070E084179507A607B70799F44A8150E0FB
S113177060E070E0DD24EE24FF2481E090E04C156D
S11317805D056E057F0539F080E005C080E090E0DE
S113179002C080E090E0DF91CF91FF90EF90DF9066
S11317A0CF900895CF92DF92EF92FF92CF93DF9381
S11317B06B017C0146D126D1BDDEC701B60131D211
S11317C0C701B60198DFEC01892B09F436C085EF17
S11317D097E043D68BE098E040D63AD486E198E08F
S11317E03CD685E298E039D6C701B60152D484E3E9
S11317F098E033D648D383E498E02FD696D3EC010F
S1131800892B49F080E598E028D604D5A198A09AC0
S1131810C1E0D0E023C087E698E01FD6FBD4A198AE
S1131820A29A2FE78AE196E0215080409040E1F7A8
S113183000C00000A298A09A11C08BE798E00DD6D2
S1131840E9D4A29A2FE78AE196E0215080409040A3
S1131850E1F700C00000A198A298A09ACE01DF9100
S1131860CF91FF90EF90DF90CF9008957F928F9269
S11318709F92AF92BF92CF92DF92EF92FF920F931B
S11318801F93CF93DF9356DE812C99249394A12C3C
S1131890BB24B3940F2EFDEAEF2EF8E0FF2EF02DBB
S11318A00BEC18E04CDEEC018C81813049F48FE8BC
S11318B098E0D3D58CE998E0D0D581E090E034C0AD
S11318C0C980D12CA6014C5F5F4F292D3A2D8B2D59
S11318D0982DFE01E20FF31F2081920F8F5F282FB6
S11318E030E042175307A8F7792E71941F927F9224
S11318F0FF92EF929AD585E0C80ED11CCC0DDD1D68
S113190088811F928F931F930F938FD58DB79EB7A6
S113191008960FB6F8949EBF0FBE8DBF88818715B9
S113192009F4C0CF80E090E0DF91CF911F910F9137
S1131930FF90EF90DF90CF90BF90AF909F908F90EB
S11319407F900895CF92DF92EF92FF920F931F93AF
S1131950CF936C01DF928F938DE795E09F938F93E4
S113196064D50F900F900F900F90C114D10409F417
S11319703FC000E010E0E12CF12CB801012E000C76
S1131980880B990B0E946104C82F8A3351F4A70174
S113199060E070E08AE30E9446048FEFE81AF80AD8
S11319A022C08D3001F18A30F1F00F5F1F4FB80172
S11319B0012E000C880B990B0E946104CA3310F0AD
S11319C0C75301C0CF70C295C07F8A3310F08753CC
S11319D001C08F70A70160E070E08C2B0E94460468
S11319E08FEFE81AF80A0F5F1F4F0C151D0528F238
S11319F081E090E0CF911F910F91FF90EF90DF90E5
S1131A00CF90089569DD60D881E07CD884E06ED8F9
S1131A1086E088D88FE097E20197F1F700C00000D4
S1131A2061D87CD88FE493EC0197F1F700C00000F3
S1131A308AB18FEF8AB9389880930A01A098A19A45
S1131A4008950E9466048FEF0E9474048FEF0E9431
S1131A5074048FEF0E9474048FEF0E9474048FEF5C
S1131A600E94740480E00E94740480E00E94740464
S1131A7080E00E94740480E00E94740480E00E946C
S1131A80740480E00E94740480E00E94740480E086
S1131A900E94740480E00E94740480E00E94740434
S1131AA080E00E94740480E00E94740480E00E943C
S1131AB0740480E00E94740480E00E94740480E056
S1131AC00E94740480E00E94740480E00E94740404
S1131AD080E00E94740480E00E947404E5E0F1E078
S1131AE080818061808385E38A95F1F7000080819D
S1131AF08F7E808308955D9A5C985B9880930B0138
S1131B0082E48A95F1F700C0589A82E48A95F1F745
S1131B1000C0589882E48A95F1F700C008955D9852
S1131B205C9AEBE0F1E0808382E48A95F1F700C0EF
S1131B30589A82E48A95F1F700C0589882E48A950D
S1131B40F1F700C05B9A5D985C9A908382E48A9571
S1131B50F1F700C0589A82E48A95F1F700C05898CA
S1131B6082E48A95F1F700C008955D985C985B98CB
S1131B705F9880930B0182E48A95F1F700C0589A2C
S1131B8082E48A95F1F700C0589882E48A95F1F7C7
S1131B9000C008955D985C985F985B9A90930B01E0
S1131BA082E48A95F1F700C0589A82E48A95F1F7A5
S1131BB000C0589882E48A95F1F700C008955B9AB2
S1131BC082E48A95F1F700C05E9A82E48A95F1F77F
S1131BD000C05E9882E48A95F1F700C008955F988A
S1131BE05B985A9882E48A95F1F700C05A9A82E485
S1131BF08A95F1F700C0309BFECF08955D9A5C98FA
S1131C0010920B0182E48A95F1F700C0589A82E49D
S1131C108A95F1F700C0589882E48A95F1F700C0DC
S1131C200895CF92DF92EF92FF926B017C01589856
S1131C308BB1817C8BB910920B011BB8E5E0F1E00C
S1131C4080818B7F8083C701B60155DC8AE0C8168A
S1131C5081E9D8068EE1E806F10449F091E1C9165C
S1131C6095E9D9069EE1E906F10421F005C00E9438
S1131C70D00402C00E94190587EC90E00197F1F7A7
S1131C8000C000000E946E0595E89A95F1F70000E7
S1131C908BB186608BB987EE93E00197F1F700C0B2
S1131CA00000FF90EF90DF90CF9008957F928F9285
S1131CB09F92AF92BF92CF92DF92EF92FF920F93D7
S1131CC01F93CF93DF9388E016DF5D985C985B9851
S1131CD00F2EFBE0EF2EFF24F394F02DF70110827A
S1131CE087EC90E00197F1F700C00000589A92E465
S1131CF09A95F1F700C05898E7ECF0E03197F1F7C6
S1131D0000C00000CAE0D1E018820F2EF5E08F2E4B
S1131D1099249394F02DF4018081846080835998F0
S1131D205B9887EE93E00197F1F700C000000F2E57
S1131D30F9E0AF2EBB24B394F02DF50180810F2E72
S1131D40F2E5CF2EF9E0DF2EF02DF60180831F920D
S1131D508F9304EE18E01F930F9367D3599AF401FD
S1131D6080818B7F808377247A94788287EC90E0DB
S1131D700197F1F700C000005D985C985B9881E0E2
S1131D80F701808387EC90E00197F1F700C0000031
S1131D90589A92E49A95F1F700C05898E7ECF0E06D
S1131DA03197F1F700C000001882F401808184604B
S1131DB0808359985B9887EE93E00197F1F700C010
S1131DC00000F5018081F60181831F928F931F9398
S1131DD00F932BD3599AF40180818B7F808378826F
S1131DE087EC90E00197F1F700C000005D985C98E3
S1131DF05B9882E0F701808387EC90E00197F1F72C
S1131E0000C00000589A92E49A95F1F700C05898DF
S1131E10E7ECF0E03197F1F700C000001882F4011C
S1131E2080818460808359985B9887EE93E0019762
S1131E30F1F700C00000F5018081F60182831F9252
S1131E408F931F930F93F1D2599AF40180818B7F62
S1131E5080837882F70110828DB79EB70C960FB6F7
S1131E60F8949EBF0FBE8DBFC601DF91CF911F9125
S1131E700F91FF90EF90DF90CF90BF90AF909F9025
S1131E808F907F900895BF92CF92DF92EF92FF924E
S1131E900F931F93CF93DF9382E02DDE00E010E0D9
S1131EA00F2EFAE0CF2EDD24D394F02DC5E0D1E03F
S1131EB00F2EF9E0EF2EFF24F394F02DBB24BA94F7
S1131EC080E090E067DEC80150DEF6011082888170
S1131ED08460888359985B9887EE93E00197F1F7C3
S1131EE000C00000F70180815B9A87EE93E00197C0
S1131EF0F1F700C000008081599A88818B7F888324
S1131F00F601B082F2E4FA95F1F700C00F5F1F4FBB
S1131F1000311105A9F6DF91CF911F910F91FF9028
S1131F20EF90DF90CF90BF9008952F923F924F9201
S1131F305F926F927F928F929F92AF92BF92CF9255
S1131F40DF92EF92FF920F931F93CF93DF93F2DA16
S1131F5082E0D1DD212C0F2EFAE0AF2EBB24B39406
S1131F60F02D05E011E00F2EF9E0CF2EDD24D394FF
S1131F70F02D33243A94E3DAEC018C81813009F4B6
S1131F804CC06980712C4A80512C542C44248B8180
S1131F90482A569447946114710469F32696720191
S1131FA0822C912CC201F6DDC701DFDDF501108220
S1131FB0F80180818460808359985B9887EE93E070
S1131FC00197F1F700C00000F6018081FE0131970E
S1131FD09081981325C05B9A87EE93E00197F1F7FF
S1131FE000C00000F6018081988198131CC0599AA2
S1131FF0F80180818B7F8083F5013082F2E4FA95C9
S1132000F1F700C082E0880E911C9FEFE91AF90AEB
S113201022968614970430F2AECF81E090E005C09A
S113202080E090E002C080E090E0DF91CF911F91CA
S11320300F91FF90EF90DF90CF90BF90AF909F9063
S11320408F907F906F905F904F903F902F90089566
S11320505D9A5C985B9880E880930B0182E48A9592
S1132060F1F700C0589A82E48A95F1F700C05898B5
S113207082E48A95F1F700C05A9882E48A95F1F7D0
S113208000C05A9A82E48A95F1F700C0309BFECFD3
S113209008952F923F924F925F926F927F928F9208
S11320A09F92AF92BF92CF92DF92EF92FF920F93E3
S11320B01F93CF93DF9300D000D000D0CDB7DEB70D
S11320C06A3021E972072EE18207910541F48CEE12
S11320D098E0C3D16894222424F8312C0CC06131D7
S11320E075498E41910539F48CEF98E0B6D1689426
S11320F0222426F8312C80E1FEDC412C512C3201C3
S1132100912C812CC101A0E0B0E089839A83AB8338
S1132110BC8315DAFC018481813079F48FE898E07E
S11321209CD1910140E050E0C301B20103D1672B7F
S1132130682B692B09F451C04AC0C180D12CA280FC
S1132140B12CBA2CAA248381A82AB694A794C114CA
S1132150D10451F1DF011696BE83AD837501092DBB
S1132160182DC70102DDED81FE81808190E0982F5A
S1132170882731972081822BD2DCC801012E000CE4
S1132180AA0BBB0B480E591E6A1E7B1E18DD0E5F80
S11321901F4FFFEFEF1AFF0A8D819E8102969E83E7
S11321A08D830C151D05E8F2C301B20129813A8122
S11321B04B815C81BFD0672B682B692B09F0A9CFB9
S11321C08CE099E04AD1C501E5DC09DDA2CF8EE1BE
S11321D099E043D1C501DEDC02DD83E399E03DD122
S11321E00DDD26960FB6F894DEBF0FBECDBFDF918E
S11321F0CF911F910F91FF90EF90DF90CF90BF9000
S1132200AF909F908F907F906F905F904F903F9092
S11322102F9008950E9470050E9474050E949005F5
S11322208FE097E20197F1F700C0000010920B01D4
S11322301BB88FEC97E00197F1F700C0000080E035
S113224044D9E5E0F1E080818F7D808395E39A9520
S1132250F1F700008081806280832DE02A95F1F7F8
S1132260000080818061808385E38A95F1F7000016
S113227080818F7E808380818860808384B387603F
S113228084BB9FEF29E688E1915020408040E1F72C
S113229000C00000A09A84B3897F84BB08952FEF07
S11322A089E698E1215080409040E1F700C00000A9
S11322B083B3876083BBA09A0E942D082FD978949A
S11322C00E941A088CE499E0C8D0FFCFCF93C82F9E
S11322D08A3011F48DE0FADFE0EDF0E0908195FFB3
S11322E0FDCFC093D60080E090E0CF910895CF93C6
S11322F0BC01E0EDF0E090819923ECF7C091D600A9
S11323008C2FE4DF8C2F90E0CF9108951092D500AC
S113231087E08093D40088E18093D10086E08093A5
S1132320D200E3E3FBE082E292E091838083938333
S113233082830895A1E21A2EAA1BBB1BFD010DC0C6
S1132340AA1FBB1FEE1FFF1FA217B307E407F50761
S113235020F0A21BB30BE40BF50B661F771F881F3D
S1132360991F1A9469F760957095809590959B01D3
S1132370AC01BD01CF010895A29FB001B39FC0017C
S1132380A39F700D811D1124911DB29F700D811D9D
S11323901124911D0895FB01DC010D900020E9F743
S11323A0119701900D920020E1F70895FB01DC01E3
S11323B001900D920020E1F708950F931F93CF939E
S11323C0DF93FB01238121FD03C08FEF9FEF28C022
S11323D022FF16C046815781248135814217530755
S11323E044F4A081B1819D012F5F3F4F318320834D
S11323F08C93268137812F5F3F4F3783268310C00C
S1132400EB01092F182F0084F185E02D0995892B04
S1132410E1F68E819F8101969F838E83812F902F79
S1132420DF91CF911F910F910895CF93DF93CDB793
S1132430DEB7AE014B5F5F4FFA0161917191AF015D
S11324408091350B9091360B38D0DF91CF91089560
S11324506091350B7091360BB0CF0F931F93CF93D0
S1132460DF93E091350BF091360B238121FF1BC0E4
S11324708C01D0E0C0E0F80181918F016091350BAF
S11324807091360BDB011896ED91FC911997882316
S113249031F00995892B79F3DFEFCFEFECCF8AE0A8
S11324A00995892B19F08FEF9FEF02C08D2F9C2F78
S11324B0DF91CF911F910F9108952F923F924F92E8
S11324C05F926F927F928F929F92AF92BF92CF92C0
S11324D0DF92EF92FF920F931F93CF93DF93CDB7C9
S11324E0DEB72C970FB6F894DEBF0FBECDBF7C01CC
S11324F06B018A01FC0117821682838181FFB0C1BE
S1132500CE0101964C01F7019381F60193FD85916B
S113251093FF81916F01882309F49EC1853239F4B8
S113252093FD859193FF81916F01853221F4B70169
S113253090E043DFE8CF512C312C20E02032A0F48E
S11325408B3269F030F4803259F0833269F42061BF
S11325502CC08D3239F0803339F4216026C02260DA
S1132560246023C0286021C027FD27C030ED380F28
S11325703A3078F426FF06C0FAE05F9E300D11244D
S1132580532E13C08AE0389E300D1124332E20625E
S11325900CC08E3221F426FD5FC1206406C08C3647
S11325A011F4206802C0883641F4F60193FD859148
S11325B093FF81916F018111C1CF982F9F7D955415
S11325C0933028F40C5F1F4FFFE3F9830DC083366B
S11325D031F0833771F0833509F057C021C0F80119
S11325E0808189830E5F1F4F44244394512C5401EE
S11325F014C03801F2E06F0E711CF801A080B180A4
S113260026FF03C0652D70E002C06FEF7FEFC501A8
S11326102C874CD12C0183012C852F77222E16C0B8
S11326203801F2E06F0E711CF801A080B18026FF22
S113263003C0652D70E002C06FEF7FEFC5012C87EA
S11326402AD12C012C852068222E830123FC19C059
S1132650832D90E048165906A0F4B70180E290E07B
S1132660ACDE3A94F5CFF50127FC859127FE8191E4
S11326705F01B70190E0A1DE31103A94F1E04F1A06
S113268051084114510479F7DEC0843611F08936BB
S113269031F5F80127FF07C0608171818281938140
S11326A00C5F1F4F08C060817181072E000C880BDE
S11326B0990B0E5F1F4F2F76722E97FF09C09095CE
S11326C08095709561957F4F8F4F9F4F2068722E34
S11326D02AE030E0A401F5D0A82EA81843C085371D
S11326E029F42F7EB22E2AE030E025C0F22FF97FA4
S11326F0BF2E8F36C1F018F4883579F0ADC080371D
S113270019F0883721F0A8C02F2F2061B22EB4FE13
S11327100DC08B2D8460B82E09C024FF0AC09F2FE2
S11327209660B92E06C028E030E005C020E130E014
S113273002C020E132E0F801B7FE07C06081718178
S1132740828193810C5F1F4F06C06081718180E09C
S113275090E00E5F1F4FA401B4D0A82EA818FB2D43
S1132760FF777F2E76FE0BC0372D3E7FA51450F4E5
S113277074FE0AC072FC08C0372D3E7E05C0BA2C18
S1132780372D03C0BA2C01C0B52C34FF0DC0FE0197
S1132790EA0DF11D8081803311F4397E09C032FFC6
S11327A006C0B394B39404C0832F867809F0B3941D
S11327B033FD12C030FF06C05A2CB31418F4530C66
S11327C05B18B32CB31460F4B70180E290E03C874B
S11327D0F4DDB3943C85F6CFB31410F43B1801C078
S11327E0312C34FF11C0B70180E390E03C87E5DD74
S11327F03C8532FF16C031FD03C088E790E002C07B
S113280088E590E0B7010CC0832F867851F031FF42
S113281002C08BE201C080E237FD8DE2B70190E097
S1132820CCDDA51430F4B70180E390E0C6DD5A9402
S1132830F8CFAA94F401EA0DF11D8081B70190E06C
S1132840BCDDA110F6CF332009F45DCEB70180E2E0
S113285090E0B3DD3A94F7CFF7018681978102C007
S11328608FEF9FEF2C960FB6F894DEBF0FBECDBF4F
S1132870DF91CF911F910F91FF90EF90DF90CF9058
S1132880BF90AF909F908F907F906F905F904F908C
S11328903F902F900895FC01059061507040011005
S11328A0D8F7809590958E0F9F1F0895FC01615075
S11328B0704001900110D8F7809590958E0F9F1F5E
S11328C00895FA01AA27283051F1203181F1E894C2
S11328D06F936E7F6E5F7F4F8F4F9F4FAF4FB1E00F
S11328E03ED0B4E03CD0670F781F891F9A1FA11D0A
S11328F0680F791F8A1F911DA11D6A0F711D811D0B
S1132900911DA11D20D009F468943F912AE0269FCF
S113291011243019305D3193DEF6CF010895462F2E
S11329204770405D4193B3E00FD0C9F7F6CF462F0F
S11329304F70405D4A3318F0495D31FD4052419378
S113294002D0A9F7EACFB4E0A69597958795779535
S11329506795BA95C9F700976105710508959B01BC
S1132960AC010A2E06945795479537952795BA9545
S1132970C9F7620F731F841F951FA01D0895F89453
S1052980FFCF83
S11329820050005068832450005000506883245043
S1132992C0A80101FFFFFF00C0A8010550E549BF1F
S11329A2914000000003000000006611771100004E
S11329B2FFFFFFFFFF57697A6E6574205735313088
S11329C23020496E697400456E74657274696E676D
S11329D22045746865726E65742053657475700061
S11329E252656164696E67204D523A2025640A0A71
S11329F20053657474696E67204761746577617901
S1132A0220416464726573732025642E25642E2527
S1132A12642E25640A0052656164696E6720474129
S1132A22523A2025642E25642E25642E25640A0A32
S1132A320053657474696E6720536F757263652001
S1132A424164647265737320252E32783A252E32DE
S1132A52783A252E32783A252E32783A252E327853
S1132A623A252E32780A0052656164696E672053F2
S1132A7241523A20252E32783A252E32783A252EA2
S1132A8232783A252E32783A252E32783A252E3269
S1132A92780A0A0053657474696E6720537562205C
S1132AA24D61736B20416464726573732025642ED7
S1132AB225642E25642E25640A0052656164696EBC
S1132AC26720535542523A2025642E25642E2564EC
S1132AD22E25640A0A0053657474696E672049508E
S1132AE220416464726573732025642E25642E2547
S1132AF2642E25640A0052656164696E6720534935
S1132B0250523A2025642E25642E25642E25640A0B
S1132B120A00446F6E652057697A6E6574205735D2
S1132B2231303020496E697469616C697A65642157
S1132B3200547279696E6720746F20457374616200
S1132B426C69736820436F6E6E656374696F6E2E71
S1132B522E2E0054696D656F75742C20646973633D
S1132B626F6E6E656374696E672100436F6E6E6586
S1132B726374696F6E20537563636565646564216C
S1132B820A00436F756C64206E6F7420636F6E6EFF
S1132B926563742E2045786974696E672E2E2E0A39
S1132BA20053523A203078253032780A00545820A3
S1132BB253697A653A2025640053656E64696E67C9
S1132BC22E2E2E0A0045746865726E657420526555
S1132BD2636569766520446174612054696D656F2B
S1132BE2757421005374617473205265673A2030FE
S1132BF278253032780053656E74210056616C7505
S1132C02653A203078253032782C2041646472652C
S1132C1273733A2025700A007365742000436F6D44
S1132C226D616E643A202573204C656E6774683A50
S1132C322025642C20416464726573733A202570E4
S1132C420A004672656564210052657475726E6984
S1132C526E6721005472616E736D697373696F6E6E
S1132C62204C656E6774683A2025642C20693A20EA
S1132C7225640A005472616E736D697373696F6EB1
S1132C82204C656E6774683A2025640A00446F6EAE
S1132C926520526563656976696E672100457468CB
S1132CA265726E657420456E61626C6564210047CD
S1132CB245542000687474703A2F2F7777772E77F3
S1132CC2692D70726F2E7573002F646174612F63A6
S1132CD26C656172666C6167733F00776970726FCD
S1132CE269643D3130303030303030303000687417
S1132CF274705F67657420005472616E204C656E57
S1132D026774683A2025640A002F646174612F7520
S1132D12706461746573736964733F0026737369C5
S1132D22643D0066696C65706174683A20257300BD
S1132D322F75706C6F6164732F6865782F31303032
S1132D42303030303030302F64656661756C742EEB
S1132D52686578005754462048454C4C4F3421212D
S1132D622100556E636F6D707265737365642054D0
S1132D7272616E73204C656E6774683A2025640A2A
S1132D82002F75706C6F6164732F6865782F313012
S1132D9230303030303030302F64657669636569A5
S1132DA26E666F2E74787400436F6D707265737300
S1132DB2656421002F75706C6F6164732F68657888
S1132DC22F313030303030303030302F666C616724
S1132DD266696C652E7478740050726F6772616DE7
S1132DE221004572726F722C2062616420646576E0
S1132DF26963652049442100466C6167205374610C
S1132E0274757300526973696E672045646765213E
S1132E120046616C6C696E67204564676521002019
S1132E22485454502F312E31200A486F73743A207B
S1132E327777772E77692D70726F2E7573200A0A51
S1132E420053656E743A2025730A007379737465AE
S1132E526D2E7072696E745F6C6576656C003100FC
S1132E6273797374656D2E636D642E686561646530
S1132E72725F656E61626C65640073797374656D0B
S1132E822E636D642E70726F6D70745F656E616215
S1132E926C6564006F66660073797374656D2E6386
S1132EA26D642E6563686F006F6E007363616E00FC
S1132EB2776C616E2E7373696400776C616E2E7029
S1132EC26173736B65790073747265616D5F636CB2
S1132ED26F736520616C6C007463705F636C696509
S1132EE26E740020485454502F312E310A686F7387
S1132EF2743A207777772E77692D70726F2E7573F7
S1132F020A0A005754462048454C4C4F312121218E
S1132F120052414D20416464726573733A20256402
S1132F220A0030203530300073747265616D5F724F
S1132F32656164005472616E204C656E6774683A10
S1132F422025730A005754462048454C4C4F3221E1
S1132F522121000A5369676E617475726520427992
S1132F627465733A20253032582025303258202592
S1132F723032580A005374617274696E6720507259
S1132F826F6772616D6D696E672100457261736965
S1132F926E672E2E2E000A446F6E65204572617391
S1132FA2696E67210050726F6772616D6D696E6739
S1132FB22E2E2E000A52656164696E6720466C618A
S1132FC2736800566572696679696E672E2E2E00E3
S1132FD250726F6772616D6D696E672053756363BA
S1132FE26565646564210050726F6772616D6D6915
S1132FF26E67204661696C656421004261642053F6
S113300269676E6174757265204279746521004541
S11330126E64206F662046696C65210043686563AF
S11330226B73756D2050617373656421000A43618B
S11330326C63756C6174656420436865636B737556
S11330426D3A203078253032780A00416374756114
S11330526C20436865636B73756D3A203078253054
S113306232780A0030782530325820005061676582
S11330722073697A6520697320313600506167656F
S11330822073697A652069732036340046756C6C46
S11330922050616765205772697474656E005061CF
S11330A2727469616C205061676520577269747427
S11330B2656E00456E64696E6720506167652050D5
S11330C2726F6772616D6D696E672100446F6E6520
S10530D22100D7
S9030000FC
