S01200005541525453747265616D2E737265636A
S11300000C943E000C945B000C945B000C945B001D
S11300100C945B000C945B000C945B000C945B00F0
S11300200C945B000C945B000C945B000C945B00E0
S11300300C945B000C945B000C945B000C945B00D0
S11300400C945B000C945B000C945B000C945B00C0
S11300500C945B000C945B000C945B000C945B00B0
S11300600C945B000C945B000C945B000C945B00A0
S11300700C945B000C945B000C945B0011241FBE79
S1130080CFEFD8E0DEBFCDBF11E0A0E0B1E0E2E306
S1130090F7E002C005900D92A232B107D9F721E032
S11300A0A2E2B1E001C01D92A832B207E1F70E94BA
S11300B093000C9497030C940000CF93C82F8A30BC
S11300C019F48DE00E945D008091C00085FFFCCF93
S11300D0C093C60080E090E0CF910895CF93BC0117
S11300E08091C00087FFFCCFC091C6008C2F0E9476
S11300F05D008C2F90E0CF9108951092C50089E1A6
S11301008093C40088E18093C10086E08093C2009C
S113011080E091E090932301809322019093250144
S11301208093240108950E947D008EE091E00E9456
S1130130BB001F928EE18F938EE191E09F938F938A
S11301400E94A7000F900F900F900F90FFCFA0E098
S1130150B0E0EDEAF0E00C947003FE013596619195
S11301607191AF0180912401909125010E94E800D2
S1130170E2E00C948C030F931F93CF93DF93E091F1
S11301802401F0912501238121FF1BC0EC0100E033
S113019010E089916091240170912501DB0118968A
S11301A0ED91FC911997882331F00995892B89F3F6
S11301B00FEF1FEFEECF8AE00995892B11F4C801E8
S11301C002C08FEF9FEFDF91CF911F910F910895A0
S11301D0ACE0B0E0EEEEF0E00C9460037C016B0167
S11301E08A01FC0117821682838181FFBDC1CE0181
S11301F001964C01F7019381F60193FD859193FFDC
S113020081916F01882309F4ABC1853239F493FDE0
S1130210859193FF81916F01853229F4B70190E0B4
S11302200E94D002E7CF512C312C20E02032A0F4E0
S11302308B3269F030F4803259F0833269F42061F2
S11302402CC08D3239F0803339F4216026C022600D
S1130250246023C0286021C027FD27C030ED380F5B
S11302603A3078F426FF06C0FAE05F9E300D112480
S1130270532E13C08AE0389E300D1124332E206291
S11302800CC08E3221F426FD6BC1206406C08C366E
S113029011F4206802C0883641F4F60193FD85917B
S11302A093FF81916F018111C1CF982F9F7D955448
S11302B0933028F40C5F1F4FFFE3F9830DC083369E
S11302C031F0833771F0833509F05BC022C0F80147
S11302D0808189830E5F1F4F44244394512C540121
S11302E015C03801F2E06F0E711CF801A080B180D6
S11302F026FF03C0652D70E002C06FEF7FEFC501DC
S11303002C870E94C5022C0183012C852F77222E75
S113031017C03801F2E06F0E711CF801A080B180A3
S113032026FF03C0652D70E002C06FEF7FEFC501AB
S11303302C870E94BA022C012C852068222E83016E
S113034023FC1BC0832D90E048165906B0F4B70176
S113035080E290E00E94D0023A94F4CFF50127FCA9
S1130360859127FE81915F01B70190E00E94D00240
S113037031103A94F1E04F1A51084114510471F7C5
S1130380E5C0843611F0893639F5F80127FF07C036
S113039060817181828193810C5F1F4F08C06081ED
S11303A07181882777FD8095982F0E5F1F4F2F76D8
S11303B0B22E97FF09C090958095709561957F4FF7
S11303C08F4F9F4F2068B22E2AE030E0A4010E9494
S11303D00203A82EA81844C0853729F42F7EB22E14
S11303E02AE030E025C0F22FF97FBF2E8F36C1F00E
S11303F018F4883579F0B4C0803719F0883721F0C3
S1130400AFC02F2F2061B22EB4FE0DC08B2D84609F
S1130410B82E09C024FF0AC09F2F9660B92E06C0CB
S113042028E030E005C020E130E002C020E132E005
S1130430F801B7FE07C060817181828193810C5FEE
S11304401F4F06C06081718180E090E00E5F1F4FF6
S1130450A4010E940203A82EA818FB2DFF77BF2E2B
S1130460B6FE0BC02B2D2E7FA51450F4B4FE0AC08B
S1130470B2FC08C02B2D2E7E05C07A2C2B2D03C078
S11304807A2C01C0752C24FF0DC0FE01EA0DF11D6C
S11304908081803311F4297E09C022FF06C0739441
S11304A0739404C0822F867809F0739423FD13C0DB
S11304B020FF06C05A2C731418F4530C5718732CCD
S11304C0731468F4B70180E290E02C870E94D00294
S11304D073942C85F5CF731410F4371801C0312CA4
S11304E024FF12C0B70180E390E02C870E94D00261
S11304F02C8522FF17C021FF03C088E590E002C0CD
S113050088E790E0B7010CC0822F867859F021FD6E
S113051002C080E201C08BE227FD8DE2B70190E0CA
S11305200E94D002A51438F4B70180E390E00E9441
S1130530D0025A94F7CFAA94F401EA0DF11D8081F8
S1130540B70190E00E94D002A110F5CF332009F446
S113055051CEB70180E290E00E94D0023A94F6CFE7
S1130560F7018681978102C08FEF9FEF2C96E2E11D
S11305700C947C03FC010590615070400110D8F785
S1130580809590958E0F9F1F0895FC0161507040D7
S113059001900110D8F7809590958E0F9F1F0895B4
S11305A00F931F93CF93DF93182F092FEB018B81A8
S11305B081FD03C08FEF9FEF20C082FF10C04E81EA
S11305C05F812C813D81421753077CF4E881F981D6
S11305D09F012F5F3F4F39832883108306C0E8852E
S11305E0F985812F0995892B29F72E813F812F5F6A
S11305F03F4F3F832E83812F902FDF91CF911F9107
S11306000F910895FA01AA27283051F1203181F180
S1130610E8946F936E7F6E5F7F4F8F4F9F4FAF4F06
S1130620B1E03ED0B4E03CD0670F781F891F9A1F19
S1130630A11D680F791F8A1F911DA11D6A0F711DCD
S1130640811D911DA11D20D009F468943F912AE0D9
S1130650269F11243019305D3193DEF6CF010895C1
S1130660462F4770405D4193B3E00FD0C9F7F6CFF2
S1130670462F4F70405D4A3318F0495D31FD4052BA
S1130680419302D0A9F7EACFB4E0A6959795879550
S113069077956795BA95C9F700976105710508952F
S11306A09B01AC010A2E06945795479537952795DB
S11306B0BA95C9F7620F731F841F951FA01D089573
S11306C02F923F924F925F926F927F928F929F925E
S11306D0AF92BF92CF92DF92EF92FF920F931F934C
S11306E0CF93DF93CDB7DEB7CA1BDB0B0FB6F894FD
S11306F0DEBF0FBECDBF09942A88398848885F843D
S11307006E847D848C849B84AA84B984C884DF80AD
S1130710EE80FD800C811B81AA81B981CE0FD11D91
S11307200FB6F894DEBF0FBECDBFED010895F89467
S1050730FFCFF5
S113073200000003000000005D006E000000546829
S11307426973206973206120746573740A002564D7
S10507520000A1
S9030000FC
